{
	"solidity-examples-main/contracts/StargateComposed.sol": {
		"StargateComposed": {
			"abi": [
				{
					"inputs": [
						{
							"internalType": "address",
							"name": "_stargateRouter",
							"type": "address"
						},
						{
							"internalType": "address",
							"name": "_ammRouter",
							"type": "address"
						}
					],
					"stateMutability": "nonpayable",
					"type": "constructor"
				},
				{
					"anonymous": false,
					"inputs": [
						{
							"indexed": false,
							"internalType": "address",
							"name": "token",
							"type": "address"
						},
						{
							"indexed": false,
							"internalType": "uint256",
							"name": "qty",
							"type": "uint256"
						}
					],
					"name": "ReceivedOnDestination",
					"type": "event"
				},
				{
					"inputs": [],
					"name": "OUT_TO_NATIVE",
					"outputs": [
						{
							"internalType": "address",
							"name": "",
							"type": "address"
						}
					],
					"stateMutability": "view",
					"type": "function"
				},
				{
					"inputs": [],
					"name": "ammRouter",
					"outputs": [
						{
							"internalType": "address",
							"name": "",
							"type": "address"
						}
					],
					"stateMutability": "view",
					"type": "function"
				},
				{
					"inputs": [
						{
							"internalType": "uint16",
							"name": "",
							"type": "uint16"
						},
						{
							"internalType": "bytes",
							"name": "",
							"type": "bytes"
						},
						{
							"internalType": "uint256",
							"name": "",
							"type": "uint256"
						},
						{
							"internalType": "address",
							"name": "_token",
							"type": "address"
						},
						{
							"internalType": "uint256",
							"name": "amountLD",
							"type": "uint256"
						},
						{
							"internalType": "bytes",
							"name": "payload",
							"type": "bytes"
						}
					],
					"name": "sgReceive",
					"outputs": [],
					"stateMutability": "nonpayable",
					"type": "function"
				},
				{
					"inputs": [],
					"name": "stargateRouter",
					"outputs": [
						{
							"internalType": "address",
							"name": "",
							"type": "address"
						}
					],
					"stateMutability": "view",
					"type": "function"
				},
				{
					"inputs": [
						{
							"internalType": "uint16",
							"name": "dstChainId",
							"type": "uint16"
						},
						{
							"internalType": "address",
							"name": "bridgeToken",
							"type": "address"
						},
						{
							"internalType": "uint16",
							"name": "srcPoolId",
							"type": "uint16"
						},
						{
							"internalType": "uint16",
							"name": "dstPoolId",
							"type": "uint16"
						},
						{
							"internalType": "uint256",
							"name": "nativeAmountIn",
							"type": "uint256"
						},
						{
							"internalType": "address",
							"name": "to",
							"type": "address"
						},
						{
							"internalType": "uint256",
							"name": "amountOutMin",
							"type": "uint256"
						},
						{
							"internalType": "uint256",
							"name": "amountOutMinSg",
							"type": "uint256"
						},
						{
							"internalType": "uint256",
							"name": "amountOutMinDest",
							"type": "uint256"
						},
						{
							"internalType": "uint256",
							"name": "deadline",
							"type": "uint256"
						},
						{
							"internalType": "address",
							"name": "destStargateComposed",
							"type": "address"
						}
					],
					"name": "swapNativeForNative",
					"outputs": [],
					"stateMutability": "payable",
					"type": "function"
				}
			],
			"devdoc": {
				"kind": "dev",
				"methods": {},
				"version": 1
			},
			"evm": {
				"assembly": "    /* \"solidity-examples-main/contracts/StargateComposed.sol\":413:8273  contract StargateComposed is IStargateReceiver {... */\n  mstore(0x40, 0x80)\n    /* \"solidity-examples-main/contracts/StargateComposed.sol\":759:801  0x0000000000000000000000000000000000000000 */\n  0x00\n    /* \"solidity-examples-main/contracts/StargateComposed.sol\":728:801  address public OUT_TO_NATIVE = 0x0000000000000000000000000000000000000000 */\n  0x02\n  exp(0x0100, 0x00)\n  dup2\n  sload\n  dup2\n  0xffffffffffffffffffffffffffffffffffffffff\n  mul\n  not\n  and\n  swap1\n  dup4\n  0xffffffffffffffffffffffffffffffffffffffff\n  and\n  mul\n  or\n  swap1\n  sstore\n  pop\n    /* \"solidity-examples-main/contracts/StargateComposed.sol\":866:1004  constructor(address _stargateRouter, address _ammRouter) {... */\n  callvalue\n  dup1\n  iszero\n  tag_1\n  jumpi\n  0x00\n  dup1\n  revert\ntag_1:\n  pop\n  mload(0x40)\n  sub(codesize, bytecodeSize)\n  dup1\n  bytecodeSize\n  dup4\n  codecopy\n  dup2\n  dup2\n  add\n  0x40\n  mstore\n  dup2\n  add\n  swap1\n  tag_2\n  swap2\n  swap1\n  tag_3\n  jump\t// in\ntag_2:\n    /* \"solidity-examples-main/contracts/StargateComposed.sol\":950:965  _stargateRouter */\n  dup2\n    /* \"solidity-examples-main/contracts/StargateComposed.sol\":933:947  stargateRouter */\n  0x00\n  dup1\n    /* \"solidity-examples-main/contracts/StargateComposed.sol\":933:965  stargateRouter = _stargateRouter */\n  0x0100\n  exp\n  dup2\n  sload\n  dup2\n  0xffffffffffffffffffffffffffffffffffffffff\n  mul\n  not\n  and\n  swap1\n  dup4\n  0xffffffffffffffffffffffffffffffffffffffff\n  and\n  mul\n  or\n  swap1\n  sstore\n  pop\n    /* \"solidity-examples-main/contracts/StargateComposed.sol\":987:997  _ammRouter */\n  dup1\n    /* \"solidity-examples-main/contracts/StargateComposed.sol\":975:984  ammRouter */\n  0x01\n  0x00\n    /* \"solidity-examples-main/contracts/StargateComposed.sol\":975:997  ammRouter = _ammRouter */\n  0x0100\n  exp\n  dup2\n  sload\n  dup2\n  0xffffffffffffffffffffffffffffffffffffffff\n  mul\n  not\n  and\n  swap1\n  dup4\n  0xffffffffffffffffffffffffffffffffffffffff\n  and\n  mul\n  or\n  swap1\n  sstore\n  pop\n    /* \"solidity-examples-main/contracts/StargateComposed.sol\":866:1004  constructor(address _stargateRouter, address _ammRouter) {... */\n  pop\n  pop\n    /* \"solidity-examples-main/contracts/StargateComposed.sol\":413:8273  contract StargateComposed is IStargateReceiver {... */\n  jump(tag_6)\n    /* \"#utility.yul\":7:150   */\ntag_8:\n    /* \"#utility.yul\":64:69   */\n  0x00\n    /* \"#utility.yul\":95:101   */\n  dup2\n    /* \"#utility.yul\":89:102   */\n  mload\n    /* \"#utility.yul\":80:102   */\n  swap1\n  pop\n    /* \"#utility.yul\":111:144   */\n  tag_10\n    /* \"#utility.yul\":138:143   */\n  dup2\n    /* \"#utility.yul\":111:144   */\n  tag_11\n  jump\t// in\ntag_10:\n    /* \"#utility.yul\":70:150   */\n  swap3\n  swap2\n  pop\n  pop\n  jump\t// out\n    /* \"#utility.yul\":156:596   */\ntag_3:\n    /* \"#utility.yul\":235:241   */\n  0x00\n    /* \"#utility.yul\":243:249   */\n  dup1\n    /* \"#utility.yul\":292:294   */\n  0x40\n    /* \"#utility.yul\":280:289   */\n  dup4\n    /* \"#utility.yul\":271:278   */\n  dup6\n    /* \"#utility.yul\":267:290   */\n  sub\n    /* \"#utility.yul\":263:295   */\n  slt\n    /* \"#utility.yul\":260:262   */\n  iszero\n  tag_13\n  jumpi\n    /* \"#utility.yul\":308:309   */\n  0x00\n    /* \"#utility.yul\":305:306   */\n  dup1\n    /* \"#utility.yul\":298:310   */\n  revert\n    /* \"#utility.yul\":260:262   */\ntag_13:\n    /* \"#utility.yul\":351:352   */\n  0x00\n    /* \"#utility.yul\":376:440   */\n  tag_14\n    /* \"#utility.yul\":432:439   */\n  dup6\n    /* \"#utility.yul\":423:429   */\n  dup3\n    /* \"#utility.yul\":412:421   */\n  dup7\n    /* \"#utility.yul\":408:430   */\n  add\n    /* \"#utility.yul\":376:440   */\n  tag_8\n  jump\t// in\ntag_14:\n    /* \"#utility.yul\":366:440   */\n  swap3\n  pop\n    /* \"#utility.yul\":322:450   */\n  pop\n    /* \"#utility.yul\":489:491   */\n  0x20\n    /* \"#utility.yul\":515:579   */\n  tag_15\n    /* \"#utility.yul\":571:578   */\n  dup6\n    /* \"#utility.yul\":562:568   */\n  dup3\n    /* \"#utility.yul\":551:560   */\n  dup7\n    /* \"#utility.yul\":547:569   */\n  add\n    /* \"#utility.yul\":515:579   */\n  tag_8\n  jump\t// in\ntag_15:\n    /* \"#utility.yul\":505:579   */\n  swap2\n  pop\n    /* \"#utility.yul\":460:589   */\n  pop\n    /* \"#utility.yul\":250:596   */\n  swap3\n  pop\n  swap3\n  swap1\n  pop\n  jump\t// out\n    /* \"#utility.yul\":602:698   */\ntag_16:\n    /* \"#utility.yul\":639:646   */\n  0x00\n    /* \"#utility.yul\":668:692   */\n  tag_18\n    /* \"#utility.yul\":686:691   */\n  dup3\n    /* \"#utility.yul\":668:692   */\n  tag_19\n  jump\t// in\ntag_18:\n    /* \"#utility.yul\":657:692   */\n  swap1\n  pop\n    /* \"#utility.yul\":647:698   */\n  swap2\n  swap1\n  pop\n  jump\t// out\n    /* \"#utility.yul\":704:830   */\ntag_19:\n    /* \"#utility.yul\":741:748   */\n  0x00\n    /* \"#utility.yul\":781:823   */\n  0xffffffffffffffffffffffffffffffffffffffff\n    /* \"#utility.yul\":774:779   */\n  dup3\n    /* \"#utility.yul\":770:824   */\n  and\n    /* \"#utility.yul\":759:824   */\n  swap1\n  pop\n    /* \"#utility.yul\":749:830   */\n  swap2\n  swap1\n  pop\n  jump\t// out\n    /* \"#utility.yul\":836:958   */\ntag_11:\n    /* \"#utility.yul\":909:933   */\n  tag_22\n    /* \"#utility.yul\":927:932   */\n  dup2\n    /* \"#utility.yul\":909:933   */\n  tag_16\n  jump\t// in\ntag_22:\n    /* \"#utility.yul\":902:907   */\n  dup2\n    /* \"#utility.yul\":899:934   */\n  eq\n    /* \"#utility.yul\":889:891   */\n  tag_23\n  jumpi\n    /* \"#utility.yul\":948:949   */\n  0x00\n    /* \"#utility.yul\":945:946   */\n  dup1\n    /* \"#utility.yul\":938:950   */\n  revert\n    /* \"#utility.yul\":889:891   */\ntag_23:\n    /* \"#utility.yul\":879:958   */\n  pop\n  jump\t// out\n    /* \"solidity-examples-main/contracts/StargateComposed.sol\":413:8273  contract StargateComposed is IStargateReceiver {... */\ntag_6:\n  dataSize(sub_0)\n  dup1\n  dataOffset(sub_0)\n  0x00\n  codecopy\n  0x00\n  return\nstop\n\nsub_0: assembly {\n        /* \"solidity-examples-main/contracts/StargateComposed.sol\":413:8273  contract StargateComposed is IStargateReceiver {... */\n      mstore(0x40, 0x80)\n      jumpi(tag_1, lt(calldatasize, 0x04))\n      shr(0xe0, calldataload(0x00))\n      dup1\n      0x7b4ad01a\n      eq\n      tag_2\n      jumpi\n      dup1\n      0x90b3c4e7\n      eq\n      tag_3\n      jumpi\n      dup1\n      0xa9e56f3c\n      eq\n      tag_4\n      jumpi\n      dup1\n      0xab8236f3\n      eq\n      tag_5\n      jumpi\n      dup1\n      0xd0328113\n      eq\n      tag_6\n      jumpi\n    tag_1:\n      0x00\n      dup1\n      revert\n        /* \"solidity-examples-main/contracts/StargateComposed.sol\":728:801  address public OUT_TO_NATIVE = 0x0000000000000000000000000000000000000000 */\n    tag_2:\n      callvalue\n      dup1\n      iszero\n      tag_7\n      jumpi\n      0x00\n      dup1\n      revert\n    tag_7:\n      pop\n      tag_8\n      tag_9\n      jump\t// in\n    tag_8:\n      mload(0x40)\n      tag_10\n      swap2\n      swap1\n      tag_11\n      jump\t// in\n    tag_10:\n      mload(0x40)\n      dup1\n      swap2\n      sub\n      swap1\n      return\n        /* \"solidity-examples-main/contracts/StargateComposed.sol\":566:590  address public ammRouter */\n    tag_3:\n      callvalue\n      dup1\n      iszero\n      tag_12\n      jumpi\n      0x00\n      dup1\n      revert\n    tag_12:\n      pop\n      tag_13\n      tag_14\n      jump\t// in\n    tag_13:\n      mload(0x40)\n      tag_15\n      swap2\n      swap1\n      tag_11\n      jump\t// in\n    tag_15:\n      mload(0x40)\n      dup1\n      swap2\n      sub\n      swap1\n      return\n        /* \"solidity-examples-main/contracts/StargateComposed.sol\":495:524  address public stargateRouter */\n    tag_4:\n      callvalue\n      dup1\n      iszero\n      tag_16\n      jumpi\n      0x00\n      dup1\n      revert\n    tag_16:\n      pop\n      tag_17\n      tag_18\n      jump\t// in\n    tag_17:\n      mload(0x40)\n      tag_19\n      swap2\n      swap1\n      tag_11\n      jump\t// in\n    tag_19:\n      mload(0x40)\n      dup1\n      swap2\n      sub\n      swap1\n      return\n        /* \"solidity-examples-main/contracts/StargateComposed.sol\":5093:8270  function sgReceive(uint16 /*_chainId*/, bytes memory /*_srcAddress*/, uint /*_nonce*/, address _token, uint amountLD, bytes memory payload) override external {... */\n    tag_5:\n      callvalue\n      dup1\n      iszero\n      tag_20\n      jumpi\n      0x00\n      dup1\n      revert\n    tag_20:\n      pop\n      tag_21\n      0x04\n      dup1\n      calldatasize\n      sub\n      dup2\n      add\n      swap1\n      tag_22\n      swap2\n      swap1\n      tag_23\n      jump\t// in\n    tag_22:\n      tag_24\n      jump\t// in\n    tag_21:\n      stop\n        /* \"solidity-examples-main/contracts/StargateComposed.sol\":1209:4852  function swapNativeForNative(... */\n    tag_6:\n      tag_25\n      0x04\n      dup1\n      calldatasize\n      sub\n      dup2\n      add\n      swap1\n      tag_26\n      swap2\n      swap1\n      tag_27\n      jump\t// in\n    tag_26:\n      tag_28\n      jump\t// in\n    tag_25:\n      stop\n        /* \"solidity-examples-main/contracts/StargateComposed.sol\":728:801  address public OUT_TO_NATIVE = 0x0000000000000000000000000000000000000000 */\n    tag_9:\n      0x02\n      0x00\n      swap1\n      sload\n      swap1\n      0x0100\n      exp\n      swap1\n      div\n      0xffffffffffffffffffffffffffffffffffffffff\n      and\n      dup2\n      jump\t// out\n        /* \"solidity-examples-main/contracts/StargateComposed.sol\":566:590  address public ammRouter */\n    tag_14:\n      0x01\n      0x00\n      swap1\n      sload\n      swap1\n      0x0100\n      exp\n      swap1\n      div\n      0xffffffffffffffffffffffffffffffffffffffff\n      and\n      dup2\n      jump\t// out\n        /* \"solidity-examples-main/contracts/StargateComposed.sol\":495:524  address public stargateRouter */\n    tag_18:\n      0x00\n      dup1\n      sload\n      swap1\n      0x0100\n      exp\n      swap1\n      div\n      0xffffffffffffffffffffffffffffffffffffffff\n      and\n      dup2\n      jump\t// out\n        /* \"solidity-examples-main/contracts/StargateComposed.sol\":5093:8270  function sgReceive(uint16 /*_chainId*/, bytes memory /*_srcAddress*/, uint /*_nonce*/, address _token, uint amountLD, bytes memory payload) override external {... */\n    tag_24:\n        /* \"solidity-examples-main/contracts/StargateComposed.sol\":5291:5305  stargateRouter */\n      0x00\n      dup1\n      sload\n      swap1\n      0x0100\n      exp\n      swap1\n      div\n      0xffffffffffffffffffffffffffffffffffffffff\n      and\n        /* \"solidity-examples-main/contracts/StargateComposed.sol\":5269:5306  msg.sender == address(stargateRouter) */\n      0xffffffffffffffffffffffffffffffffffffffff\n      and\n        /* \"solidity-examples-main/contracts/StargateComposed.sol\":5269:5279  msg.sender */\n      caller\n        /* \"solidity-examples-main/contracts/StargateComposed.sol\":5269:5306  msg.sender == address(stargateRouter) */\n      0xffffffffffffffffffffffffffffffffffffffff\n      and\n      eq\n        /* \"solidity-examples-main/contracts/StargateComposed.sol\":5261:5351  require(msg.sender == address(stargateRouter), \"only stargate router can call sgReceive!\") */\n      tag_30\n      jumpi\n      mload(0x40)\n      0x08c379a000000000000000000000000000000000000000000000000000000000\n      dup2\n      mstore\n      0x04\n      add\n      tag_31\n      swap1\n      tag_32\n      jump\t// in\n    tag_31:\n      mload(0x40)\n      dup1\n      swap2\n      sub\n      swap1\n      revert\n    tag_30:\n        /* \"solidity-examples-main/contracts/StargateComposed.sol\":5363:5380  address _tokenOut */\n      0x00\n        /* \"solidity-examples-main/contracts/StargateComposed.sol\":5382:5396  uint _deadline */\n      dup1\n        /* \"solidity-examples-main/contracts/StargateComposed.sol\":5398:5416  uint _amountOutMin */\n      0x00\n        /* \"solidity-examples-main/contracts/StargateComposed.sol\":5418:5433  address _toAddr */\n      dup1\n        /* \"solidity-examples-main/contracts/StargateComposed.sol\":5448:5455  payload */\n      dup5\n        /* \"solidity-examples-main/contracts/StargateComposed.sol\":5437:5488  abi.decode(payload, (address, uint, uint, address)) */\n      dup1\n      0x20\n      add\n      swap1\n      mload\n      dup2\n      add\n      swap1\n      tag_33\n      swap2\n      swap1\n      tag_34\n      jump\t// in\n    tag_33:\n        /* \"solidity-examples-main/contracts/StargateComposed.sol\":5362:5488  (address _tokenOut, uint _deadline, uint _amountOutMin, address _toAddr) = abi.decode(payload, (address, uint, uint, address)) */\n      swap4\n      pop\n      swap4\n      pop\n      swap4\n      pop\n      swap4\n      pop\n        /* \"solidity-examples-main/contracts/StargateComposed.sol\":5552:5558  _token */\n      dup7\n        /* \"solidity-examples-main/contracts/StargateComposed.sol\":5545:5567  IERC20(_token).approve */\n      0xffffffffffffffffffffffffffffffffffffffff\n      and\n      0x095ea7b3\n        /* \"solidity-examples-main/contracts/StargateComposed.sol\":5576:5585  ammRouter */\n      0x01\n      0x00\n      swap1\n      sload\n      swap1\n      0x0100\n      exp\n      swap1\n      div\n      0xffffffffffffffffffffffffffffffffffffffff\n      and\n        /* \"solidity-examples-main/contracts/StargateComposed.sol\":5588:5596  amountLD */\n      dup9\n        /* \"solidity-examples-main/contracts/StargateComposed.sol\":5545:5597  IERC20(_token).approve(address(ammRouter), amountLD) */\n      mload(0x40)\n      dup4\n      0xffffffff\n      and\n      0xe0\n      shl\n      dup2\n      mstore\n      0x04\n      add\n      tag_35\n      swap3\n      swap2\n      swap1\n      tag_36\n      jump\t// in\n    tag_35:\n      0x20\n      mload(0x40)\n      dup1\n      dup4\n      sub\n      dup2\n      0x00\n      dup8\n      dup1\n      extcodesize\n      iszero\n      dup1\n      iszero\n      tag_37\n      jumpi\n      0x00\n      dup1\n      revert\n    tag_37:\n      pop\n      gas\n      call\n      iszero\n      dup1\n      iszero\n      tag_39\n      jumpi\n      returndatasize\n      0x00\n      dup1\n      returndatacopy\n      revert(0x00, returndatasize)\n    tag_39:\n      pop\n      pop\n      pop\n      pop\n      mload(0x40)\n      returndatasize\n      not(0x1f)\n      0x1f\n      dup3\n      add\n      and\n      dup3\n      add\n      dup1\n      0x40\n      mstore\n      pop\n      dup2\n      add\n      swap1\n      tag_40\n      swap2\n      swap1\n      tag_41\n      jump\t// in\n    tag_40:\n      pop\n        /* \"solidity-examples-main/contracts/StargateComposed.sol\":5608:5637  uint _toBalancePreTransferOut */\n      0x00\n        /* \"solidity-examples-main/contracts/StargateComposed.sol\":5648:5655  _toAddr */\n      dup2\n        /* \"solidity-examples-main/contracts/StargateComposed.sol\":5640:5664  address(_toAddr).balance */\n      0xffffffffffffffffffffffffffffffffffffffff\n      and\n      balance\n        /* \"solidity-examples-main/contracts/StargateComposed.sol\":5608:5664  uint _toBalancePreTransferOut = address(_toAddr).balance */\n      swap1\n      pop\n        /* \"solidity-examples-main/contracts/StargateComposed.sol\":5699:5702  0x0 */\n      0x00\n        /* \"solidity-examples-main/contracts/StargateComposed.sol\":5678:5703  _tokenOut == address(0x0) */\n      0xffffffffffffffffffffffffffffffffffffffff\n      and\n        /* \"solidity-examples-main/contracts/StargateComposed.sol\":5678:5687  _tokenOut */\n      dup6\n        /* \"solidity-examples-main/contracts/StargateComposed.sol\":5678:5703  _tokenOut == address(0x0) */\n      0xffffffffffffffffffffffffffffffffffffffff\n      and\n      eq\n        /* \"solidity-examples-main/contracts/StargateComposed.sol\":5675:8264  if(_tokenOut == address(0x0)){... */\n      iszero\n      tag_42\n      jumpi\n        /* \"solidity-examples-main/contracts/StargateComposed.sol\":5768:5789  address[] memory path */\n      0x00\n        /* \"solidity-examples-main/contracts/StargateComposed.sol\":5806:5807  2 */\n      0x02\n        /* \"solidity-examples-main/contracts/StargateComposed.sol\":5792:5808  new address[](2) */\n      0xffffffffffffffff\n      dup2\n      gt\n      iszero\n      tag_43\n      jumpi\n      mstore(0x00, 0x4e487b7100000000000000000000000000000000000000000000000000000000)\n      mstore(0x04, 0x41)\n      revert(0x00, 0x24)\n    tag_43:\n      mload(0x40)\n      swap1\n      dup1\n      dup3\n      mstore\n      dup1\n      0x20\n      mul\n      0x20\n      add\n      dup3\n      add\n      0x40\n      mstore\n      dup1\n      iszero\n      tag_44\n      jumpi\n      dup2\n      0x20\n      add\n      0x20\n      dup3\n      mul\n      dup1\n      calldatasize\n      dup4\n      calldatacopy\n      dup1\n      dup3\n      add\n      swap2\n      pop\n      pop\n      swap1\n      pop\n    tag_44:\n      pop\n        /* \"solidity-examples-main/contracts/StargateComposed.sol\":5768:5808  address[] memory path = new address[](2) */\n      swap1\n      pop\n        /* \"solidity-examples-main/contracts/StargateComposed.sol\":5832:5838  _token */\n      dup9\n        /* \"solidity-examples-main/contracts/StargateComposed.sol\":5822:5826  path */\n      dup2\n        /* \"solidity-examples-main/contracts/StargateComposed.sol\":5827:5828  0 */\n      0x00\n        /* \"solidity-examples-main/contracts/StargateComposed.sol\":5822:5829  path[0] */\n      dup2\n      mload\n      dup2\n      lt\n      tag_45\n      jumpi\n      mstore(0x00, 0x4e487b7100000000000000000000000000000000000000000000000000000000)\n      mstore(0x04, 0x32)\n      revert(0x00, 0x24)\n    tag_45:\n      0x20\n      mul\n      0x20\n      add\n      add\n        /* \"solidity-examples-main/contracts/StargateComposed.sol\":5822:5838  path[0] = _token */\n      swap1\n      0xffffffffffffffffffffffffffffffffffffffff\n      and\n      swap1\n      dup2\n      0xffffffffffffffffffffffffffffffffffffffff\n      and\n      dup2\n      mstore\n      pop\n      pop\n        /* \"solidity-examples-main/contracts/StargateComposed.sol\":5881:5890  ammRouter */\n      0x01\n      0x00\n      swap1\n      sload\n      swap1\n      0x0100\n      exp\n      swap1\n      div\n      0xffffffffffffffffffffffffffffffffffffffff\n      and\n        /* \"solidity-examples-main/contracts/StargateComposed.sol\":5862:5896  IUniswapV2Router02(ammRouter).WETH */\n      0xffffffffffffffffffffffffffffffffffffffff\n      and\n      0xad5c4648\n        /* \"solidity-examples-main/contracts/StargateComposed.sol\":5862:5898  IUniswapV2Router02(ammRouter).WETH() */\n      mload(0x40)\n      dup2\n      0xffffffff\n      and\n      0xe0\n      shl\n      dup2\n      mstore\n      0x04\n      add\n      0x20\n      mload(0x40)\n      dup1\n      dup4\n      sub\n      dup2\n      dup7\n      dup1\n      extcodesize\n      iszero\n      dup1\n      iszero\n      tag_46\n      jumpi\n      0x00\n      dup1\n      revert\n    tag_46:\n      pop\n      gas\n      staticcall\n      iszero\n      dup1\n      iszero\n      tag_48\n      jumpi\n      returndatasize\n      0x00\n      dup1\n      returndatacopy\n      revert(0x00, returndatasize)\n    tag_48:\n      pop\n      pop\n      pop\n      pop\n      mload(0x40)\n      returndatasize\n      not(0x1f)\n      0x1f\n      dup3\n      add\n      and\n      dup3\n      add\n      dup1\n      0x40\n      mstore\n      pop\n      dup2\n      add\n      swap1\n      tag_49\n      swap2\n      swap1\n      tag_50\n      jump\t// in\n    tag_49:\n        /* \"solidity-examples-main/contracts/StargateComposed.sol\":5852:5856  path */\n      dup2\n        /* \"solidity-examples-main/contracts/StargateComposed.sol\":5857:5858  1 */\n      0x01\n        /* \"solidity-examples-main/contracts/StargateComposed.sol\":5852:5859  path[1] */\n      dup2\n      mload\n      dup2\n      lt\n      tag_51\n      jumpi\n      mstore(0x00, 0x4e487b7100000000000000000000000000000000000000000000000000000000)\n      mstore(0x04, 0x32)\n      revert(0x00, 0x24)\n    tag_51:\n      0x20\n      mul\n      0x20\n      add\n      add\n        /* \"solidity-examples-main/contracts/StargateComposed.sol\":5852:5898  path[1] = IUniswapV2Router02(ammRouter).WETH() */\n      swap1\n      0xffffffffffffffffffffffffffffffffffffffff\n      and\n      swap1\n      dup2\n      0xffffffffffffffffffffffffffffffffffffffff\n      and\n      dup2\n      mstore\n      pop\n      pop\n        /* \"solidity-examples-main/contracts/StargateComposed.sol\":6014:6023  ammRouter */\n      0x01\n      0x00\n      swap1\n      sload\n      swap1\n      0x0100\n      exp\n      swap1\n      div\n      0xffffffffffffffffffffffffffffffffffffffff\n      and\n        /* \"solidity-examples-main/contracts/StargateComposed.sol\":5995:6046  IUniswapV2Router02(ammRouter).swapExactTokensForETH */\n      0xffffffffffffffffffffffffffffffffffffffff\n      and\n      0x18cbafe5\n        /* \"solidity-examples-main/contracts/StargateComposed.sol\":6064:6072  amountLD */\n      dup10\n        /* \"solidity-examples-main/contracts/StargateComposed.sol\":6156:6169  _amountOutMin */\n      dup7\n        /* \"solidity-examples-main/contracts/StargateComposed.sol\":6239:6243  path */\n      dup5\n        /* \"solidity-examples-main/contracts/StargateComposed.sol\":6340:6347  _toAddr */\n      dup8\n        /* \"solidity-examples-main/contracts/StargateComposed.sol\":6419:6428  _deadline */\n      dup11\n        /* \"solidity-examples-main/contracts/StargateComposed.sol\":5995:6483  IUniswapV2Router02(ammRouter).swapExactTokensForETH(... */\n      mload(0x40)\n      dup7\n      0xffffffff\n      and\n      0xe0\n      shl\n      dup2\n      mstore\n      0x04\n      add\n      tag_52\n      swap6\n      swap5\n      swap4\n      swap3\n      swap2\n      swap1\n      tag_53\n      jump\t// in\n    tag_52:\n      0x00\n      mload(0x40)\n      dup1\n      dup4\n      sub\n      dup2\n      0x00\n      dup8\n      dup1\n      extcodesize\n      iszero\n      dup1\n      iszero\n      tag_54\n      jumpi\n      0x00\n      dup1\n      revert\n    tag_54:\n      pop\n      gas\n      call\n      swap3\n      pop\n      pop\n      pop\n      dup1\n      iszero\n      tag_55\n      jumpi\n      pop\n      mload(0x40)\n      returndatasize\n      0x00\n      dup3\n      returndatacopy\n      returndatasize\n      not(0x1f)\n      0x1f\n      dup3\n      add\n      and\n      dup3\n      add\n      dup1\n      0x40\n      mstore\n      pop\n      dup2\n      add\n      swap1\n      tag_56\n      swap2\n      swap1\n      tag_57\n      jump\t// in\n    tag_56:\n      0x01\n    tag_55:\n        /* \"solidity-examples-main/contracts/StargateComposed.sol\":5991:6936  try IUniswapV2Router02(ammRouter).swapExactTokensForETH(... */\n      tag_58\n      jumpi\n        /* \"solidity-examples-main/contracts/StargateComposed.sol\":6824:6830  _token */\n      dup9\n        /* \"solidity-examples-main/contracts/StargateComposed.sol\":6817:6840  IERC20(_token).transfer */\n      0xffffffffffffffffffffffffffffffffffffffff\n      and\n      0xa9059cbb\n        /* \"solidity-examples-main/contracts/StargateComposed.sol\":6841:6848  _toAddr */\n      dup5\n        /* \"solidity-examples-main/contracts/StargateComposed.sol\":6850:6858  amountLD */\n      dup11\n        /* \"solidity-examples-main/contracts/StargateComposed.sol\":6817:6859  IERC20(_token).transfer(_toAddr, amountLD) */\n      mload(0x40)\n      dup4\n      0xffffffff\n      and\n      0xe0\n      shl\n      dup2\n      mstore\n      0x04\n      add\n      tag_62\n      swap3\n      swap2\n      swap1\n      tag_36\n      jump\t// in\n    tag_62:\n      0x20\n      mload(0x40)\n      dup1\n      dup4\n      sub\n      dup2\n      0x00\n      dup8\n      dup1\n      extcodesize\n      iszero\n      dup1\n      iszero\n      tag_63\n      jumpi\n      0x00\n      dup1\n      revert\n    tag_63:\n      pop\n      gas\n      call\n      iszero\n      dup1\n      iszero\n      tag_65\n      jumpi\n      returndatasize\n      0x00\n      dup1\n      returndatacopy\n      revert(0x00, returndatasize)\n    tag_65:\n      pop\n      pop\n      pop\n      pop\n      mload(0x40)\n      returndatasize\n      not(0x1f)\n      0x1f\n      dup3\n      add\n      and\n      dup3\n      add\n      dup1\n      0x40\n      mstore\n      pop\n      dup2\n      add\n      swap1\n      tag_66\n      swap2\n      swap1\n      tag_41\n      jump\t// in\n    tag_66:\n      pop\n        /* \"solidity-examples-main/contracts/StargateComposed.sol\":6882:6921  ReceivedOnDestination(_token, amountLD) */\n      0x9055ece9d44a86bda76b7ffbee0015dcdd504bd121fe9d4afd5300275ee817be\n        /* \"solidity-examples-main/contracts/StargateComposed.sol\":6904:6910  _token */\n      dup10\n        /* \"solidity-examples-main/contracts/StargateComposed.sol\":6912:6920  amountLD */\n      dup10\n        /* \"solidity-examples-main/contracts/StargateComposed.sol\":6882:6921  ReceivedOnDestination(_token, amountLD) */\n      mload(0x40)\n      tag_67\n      swap3\n      swap2\n      swap1\n      tag_36\n      jump\t// in\n    tag_67:\n      mload(0x40)\n      dup1\n      swap2\n      sub\n      swap1\n      log1\n        /* \"solidity-examples-main/contracts/StargateComposed.sol\":5991:6936  try IUniswapV2Router02(ammRouter).swapExactTokensForETH(... */\n      jump(tag_68)\n    tag_58:\n      pop\n        /* \"solidity-examples-main/contracts/StargateComposed.sol\":6582:6674  ReceivedOnDestination(OUT_TO_NATIVE, address(_toAddr).balance.sub(_toBalancePreTransferOut)) */\n      0x9055ece9d44a86bda76b7ffbee0015dcdd504bd121fe9d4afd5300275ee817be\n        /* \"solidity-examples-main/contracts/StargateComposed.sol\":6604:6617  OUT_TO_NATIVE */\n      0x02\n      0x00\n      swap1\n      sload\n      swap1\n      0x0100\n      exp\n      swap1\n      div\n      0xffffffffffffffffffffffffffffffffffffffff\n      and\n        /* \"solidity-examples-main/contracts/StargateComposed.sol\":6619:6673  address(_toAddr).balance.sub(_toBalancePreTransferOut) */\n      tag_69\n        /* \"solidity-examples-main/contracts/StargateComposed.sol\":6648:6672  _toBalancePreTransferOut */\n      dup5\n        /* \"solidity-examples-main/contracts/StargateComposed.sol\":6627:6634  _toAddr */\n      dup7\n        /* \"solidity-examples-main/contracts/StargateComposed.sol\":6619:6643  address(_toAddr).balance */\n      0xffffffffffffffffffffffffffffffffffffffff\n      and\n      balance\n        /* \"solidity-examples-main/contracts/StargateComposed.sol\":6619:6647  address(_toAddr).balance.sub */\n      tag_70\n      swap1\n        /* \"solidity-examples-main/contracts/StargateComposed.sol\":6619:6673  address(_toAddr).balance.sub(_toBalancePreTransferOut) */\n      swap2\n      swap1\n      0xffffffff\n      and\n      jump\t// in\n    tag_69:\n        /* \"solidity-examples-main/contracts/StargateComposed.sol\":6582:6674  ReceivedOnDestination(OUT_TO_NATIVE, address(_toAddr).balance.sub(_toBalancePreTransferOut)) */\n      mload(0x40)\n      tag_71\n      swap3\n      swap2\n      swap1\n      tag_36\n      jump\t// in\n    tag_71:\n      mload(0x40)\n      dup1\n      swap2\n      sub\n      swap1\n      log1\n        /* \"solidity-examples-main/contracts/StargateComposed.sol\":5991:6936  try IUniswapV2Router02(ammRouter).swapExactTokensForETH(... */\n    tag_68:\n        /* \"solidity-examples-main/contracts/StargateComposed.sol\":5675:8264  if(_tokenOut == address(0x0)){... */\n      pop\n      jump(tag_72)\n    tag_42:\n        /* \"solidity-examples-main/contracts/StargateComposed.sol\":7004:7031  uint _toAddrTokenBalancePre */\n      0x00\n        /* \"solidity-examples-main/contracts/StargateComposed.sol\":7041:7050  _tokenOut */\n      dup6\n        /* \"solidity-examples-main/contracts/StargateComposed.sol\":7034:7061  IERC20(_tokenOut).balanceOf */\n      0xffffffffffffffffffffffffffffffffffffffff\n      and\n      0x70a08231\n        /* \"solidity-examples-main/contracts/StargateComposed.sol\":7062:7069  _toAddr */\n      dup5\n        /* \"solidity-examples-main/contracts/StargateComposed.sol\":7034:7070  IERC20(_tokenOut).balanceOf(_toAddr) */\n      mload(0x40)\n      dup3\n      0xffffffff\n      and\n      0xe0\n      shl\n      dup2\n      mstore\n      0x04\n      add\n      tag_73\n      swap2\n      swap1\n      tag_11\n      jump\t// in\n    tag_73:\n      0x20\n      mload(0x40)\n      dup1\n      dup4\n      sub\n      dup2\n      dup7\n      dup1\n      extcodesize\n      iszero\n      dup1\n      iszero\n      tag_74\n      jumpi\n      0x00\n      dup1\n      revert\n    tag_74:\n      pop\n      gas\n      staticcall\n      iszero\n      dup1\n      iszero\n      tag_76\n      jumpi\n      returndatasize\n      0x00\n      dup1\n      returndatacopy\n      revert(0x00, returndatasize)\n    tag_76:\n      pop\n      pop\n      pop\n      pop\n      mload(0x40)\n      returndatasize\n      not(0x1f)\n      0x1f\n      dup3\n      add\n      and\n      dup3\n      add\n      dup1\n      0x40\n      mstore\n      pop\n      dup2\n      add\n      swap1\n      tag_77\n      swap2\n      swap1\n      tag_78\n      jump\t// in\n    tag_77:\n        /* \"solidity-examples-main/contracts/StargateComposed.sol\":7004:7070  uint _toAddrTokenBalancePre = IERC20(_tokenOut).balanceOf(_toAddr) */\n      swap1\n      pop\n        /* \"solidity-examples-main/contracts/StargateComposed.sol\":7084:7105  address[] memory path */\n      0x00\n        /* \"solidity-examples-main/contracts/StargateComposed.sol\":7122:7123  2 */\n      0x02\n        /* \"solidity-examples-main/contracts/StargateComposed.sol\":7108:7124  new address[](2) */\n      0xffffffffffffffff\n      dup2\n      gt\n      iszero\n      tag_79\n      jumpi\n      mstore(0x00, 0x4e487b7100000000000000000000000000000000000000000000000000000000)\n      mstore(0x04, 0x41)\n      revert(0x00, 0x24)\n    tag_79:\n      mload(0x40)\n      swap1\n      dup1\n      dup3\n      mstore\n      dup1\n      0x20\n      mul\n      0x20\n      add\n      dup3\n      add\n      0x40\n      mstore\n      dup1\n      iszero\n      tag_80\n      jumpi\n      dup2\n      0x20\n      add\n      0x20\n      dup3\n      mul\n      dup1\n      calldatasize\n      dup4\n      calldatacopy\n      dup1\n      dup3\n      add\n      swap2\n      pop\n      pop\n      swap1\n      pop\n    tag_80:\n      pop\n        /* \"solidity-examples-main/contracts/StargateComposed.sol\":7084:7124  address[] memory path = new address[](2) */\n      swap1\n      pop\n        /* \"solidity-examples-main/contracts/StargateComposed.sol\":7148:7154  _token */\n      dup10\n        /* \"solidity-examples-main/contracts/StargateComposed.sol\":7138:7142  path */\n      dup2\n        /* \"solidity-examples-main/contracts/StargateComposed.sol\":7143:7144  0 */\n      0x00\n        /* \"solidity-examples-main/contracts/StargateComposed.sol\":7138:7145  path[0] */\n      dup2\n      mload\n      dup2\n      lt\n      tag_81\n      jumpi\n      mstore(0x00, 0x4e487b7100000000000000000000000000000000000000000000000000000000)\n      mstore(0x04, 0x32)\n      revert(0x00, 0x24)\n    tag_81:\n      0x20\n      mul\n      0x20\n      add\n      add\n        /* \"solidity-examples-main/contracts/StargateComposed.sol\":7138:7154  path[0] = _token */\n      swap1\n      0xffffffffffffffffffffffffffffffffffffffff\n      and\n      swap1\n      dup2\n      0xffffffffffffffffffffffffffffffffffffffff\n      and\n      dup2\n      mstore\n      pop\n      pop\n        /* \"solidity-examples-main/contracts/StargateComposed.sol\":7178:7187  _tokenOut */\n      dup7\n        /* \"solidity-examples-main/contracts/StargateComposed.sol\":7168:7172  path */\n      dup2\n        /* \"solidity-examples-main/contracts/StargateComposed.sol\":7173:7174  1 */\n      0x01\n        /* \"solidity-examples-main/contracts/StargateComposed.sol\":7168:7175  path[1] */\n      dup2\n      mload\n      dup2\n      lt\n      tag_82\n      jumpi\n      mstore(0x00, 0x4e487b7100000000000000000000000000000000000000000000000000000000)\n      mstore(0x04, 0x32)\n      revert(0x00, 0x24)\n    tag_82:\n      0x20\n      mul\n      0x20\n      add\n      add\n        /* \"solidity-examples-main/contracts/StargateComposed.sol\":7168:7187  path[1] = _tokenOut */\n      swap1\n      0xffffffffffffffffffffffffffffffffffffffff\n      and\n      swap1\n      dup2\n      0xffffffffffffffffffffffffffffffffffffffff\n      and\n      dup2\n      mstore\n      pop\n      pop\n        /* \"solidity-examples-main/contracts/StargateComposed.sol\":7224:7233  ammRouter */\n      0x01\n      0x00\n      swap1\n      sload\n      swap1\n      0x0100\n      exp\n      swap1\n      div\n      0xffffffffffffffffffffffffffffffffffffffff\n      and\n        /* \"solidity-examples-main/contracts/StargateComposed.sol\":7205:7259  IUniswapV2Router02(ammRouter).swapExactTokensForTokens */\n      0xffffffffffffffffffffffffffffffffffffffff\n      and\n      0x38ed1739\n        /* \"solidity-examples-main/contracts/StargateComposed.sol\":7277:7285  amountLD */\n      dup11\n        /* \"solidity-examples-main/contracts/StargateComposed.sol\":7369:7382  _amountOutMin */\n      dup8\n        /* \"solidity-examples-main/contracts/StargateComposed.sol\":7452:7456  path */\n      dup5\n        /* \"solidity-examples-main/contracts/StargateComposed.sol\":7553:7560  _toAddr */\n      dup9\n        /* \"solidity-examples-main/contracts/StargateComposed.sol\":7632:7641  _deadline */\n      dup12\n        /* \"solidity-examples-main/contracts/StargateComposed.sol\":7205:7696  IUniswapV2Router02(ammRouter).swapExactTokensForTokens(... */\n      mload(0x40)\n      dup7\n      0xffffffff\n      and\n      0xe0\n      shl\n      dup2\n      mstore\n      0x04\n      add\n      tag_83\n      swap6\n      swap5\n      swap4\n      swap3\n      swap2\n      swap1\n      tag_53\n      jump\t// in\n    tag_83:\n      0x00\n      mload(0x40)\n      dup1\n      dup4\n      sub\n      dup2\n      0x00\n      dup8\n      dup1\n      extcodesize\n      iszero\n      dup1\n      iszero\n      tag_84\n      jumpi\n      0x00\n      dup1\n      revert\n    tag_84:\n      pop\n      gas\n      call\n      swap3\n      pop\n      pop\n      pop\n      dup1\n      iszero\n      tag_85\n      jumpi\n      pop\n      mload(0x40)\n      returndatasize\n      0x00\n      dup3\n      returndatacopy\n      returndatasize\n      not(0x1f)\n      0x1f\n      dup3\n      add\n      and\n      dup3\n      add\n      dup1\n      0x40\n      mstore\n      pop\n      dup2\n      add\n      swap1\n      tag_86\n      swap2\n      swap1\n      tag_57\n      jump\t// in\n    tag_86:\n      0x01\n    tag_85:\n        /* \"solidity-examples-main/contracts/StargateComposed.sol\":7201:8254  try IUniswapV2Router02(ammRouter).swapExactTokensForTokens(... */\n      tag_87\n      jumpi\n        /* \"solidity-examples-main/contracts/StargateComposed.sol\":8142:8148  _token */\n      dup10\n        /* \"solidity-examples-main/contracts/StargateComposed.sol\":8135:8158  IERC20(_token).transfer */\n      0xffffffffffffffffffffffffffffffffffffffff\n      and\n      0xa9059cbb\n        /* \"solidity-examples-main/contracts/StargateComposed.sol\":8159:8166  _toAddr */\n      dup6\n        /* \"solidity-examples-main/contracts/StargateComposed.sol\":8168:8176  amountLD */\n      dup12\n        /* \"solidity-examples-main/contracts/StargateComposed.sol\":8135:8177  IERC20(_token).transfer(_toAddr, amountLD) */\n      mload(0x40)\n      dup4\n      0xffffffff\n      and\n      0xe0\n      shl\n      dup2\n      mstore\n      0x04\n      add\n      tag_91\n      swap3\n      swap2\n      swap1\n      tag_36\n      jump\t// in\n    tag_91:\n      0x20\n      mload(0x40)\n      dup1\n      dup4\n      sub\n      dup2\n      0x00\n      dup8\n      dup1\n      extcodesize\n      iszero\n      dup1\n      iszero\n      tag_92\n      jumpi\n      0x00\n      dup1\n      revert\n    tag_92:\n      pop\n      gas\n      call\n      iszero\n      dup1\n      iszero\n      tag_94\n      jumpi\n      returndatasize\n      0x00\n      dup1\n      returndatacopy\n      revert(0x00, returndatasize)\n    tag_94:\n      pop\n      pop\n      pop\n      pop\n      mload(0x40)\n      returndatasize\n      not(0x1f)\n      0x1f\n      dup3\n      add\n      and\n      dup3\n      add\n      dup1\n      0x40\n      mstore\n      pop\n      dup2\n      add\n      swap1\n      tag_95\n      swap2\n      swap1\n      tag_41\n      jump\t// in\n    tag_95:\n      pop\n        /* \"solidity-examples-main/contracts/StargateComposed.sol\":8200:8239  ReceivedOnDestination(_token, amountLD) */\n      0x9055ece9d44a86bda76b7ffbee0015dcdd504bd121fe9d4afd5300275ee817be\n        /* \"solidity-examples-main/contracts/StargateComposed.sol\":8222:8228  _token */\n      dup11\n        /* \"solidity-examples-main/contracts/StargateComposed.sol\":8230:8238  amountLD */\n      dup11\n        /* \"solidity-examples-main/contracts/StargateComposed.sol\":8200:8239  ReceivedOnDestination(_token, amountLD) */\n      mload(0x40)\n      tag_96\n      swap3\n      swap2\n      swap1\n      tag_36\n      jump\t// in\n    tag_96:\n      mload(0x40)\n      dup1\n      swap2\n      sub\n      swap1\n      log1\n        /* \"solidity-examples-main/contracts/StargateComposed.sol\":7201:8254  try IUniswapV2Router02(ammRouter).swapExactTokensForTokens(... */\n      jump(tag_97)\n    tag_87:\n      pop\n        /* \"solidity-examples-main/contracts/StargateComposed.sol\":7795:7893  ReceivedOnDestination(_tokenOut, IERC20(_tokenOut).balanceOf(_toAddr).sub(_toAddrTokenBalancePre)) */\n      0x9055ece9d44a86bda76b7ffbee0015dcdd504bd121fe9d4afd5300275ee817be\n        /* \"solidity-examples-main/contracts/StargateComposed.sol\":7817:7826  _tokenOut */\n      dup8\n        /* \"solidity-examples-main/contracts/StargateComposed.sol\":7828:7892  IERC20(_tokenOut).balanceOf(_toAddr).sub(_toAddrTokenBalancePre) */\n      tag_98\n        /* \"solidity-examples-main/contracts/StargateComposed.sol\":7869:7891  _toAddrTokenBalancePre */\n      dup5\n        /* \"solidity-examples-main/contracts/StargateComposed.sol\":7835:7844  _tokenOut */\n      dup11\n        /* \"solidity-examples-main/contracts/StargateComposed.sol\":7828:7855  IERC20(_tokenOut).balanceOf */\n      0xffffffffffffffffffffffffffffffffffffffff\n      and\n      0x70a08231\n        /* \"solidity-examples-main/contracts/StargateComposed.sol\":7856:7863  _toAddr */\n      dup10\n        /* \"solidity-examples-main/contracts/StargateComposed.sol\":7828:7864  IERC20(_tokenOut).balanceOf(_toAddr) */\n      mload(0x40)\n      dup3\n      0xffffffff\n      and\n      0xe0\n      shl\n      dup2\n      mstore\n      0x04\n      add\n      tag_99\n      swap2\n      swap1\n      tag_11\n      jump\t// in\n    tag_99:\n      0x20\n      mload(0x40)\n      dup1\n      dup4\n      sub\n      dup2\n      dup7\n      dup1\n      extcodesize\n      iszero\n      dup1\n      iszero\n      tag_100\n      jumpi\n      0x00\n      dup1\n      revert\n    tag_100:\n      pop\n      gas\n      staticcall\n      iszero\n      dup1\n      iszero\n      tag_102\n      jumpi\n      returndatasize\n      0x00\n      dup1\n      returndatacopy\n      revert(0x00, returndatasize)\n    tag_102:\n      pop\n      pop\n      pop\n      pop\n      mload(0x40)\n      returndatasize\n      not(0x1f)\n      0x1f\n      dup3\n      add\n      and\n      dup3\n      add\n      dup1\n      0x40\n      mstore\n      pop\n      dup2\n      add\n      swap1\n      tag_103\n      swap2\n      swap1\n      tag_78\n      jump\t// in\n    tag_103:\n        /* \"solidity-examples-main/contracts/StargateComposed.sol\":7828:7868  IERC20(_tokenOut).balanceOf(_toAddr).sub */\n      tag_70\n      swap1\n        /* \"solidity-examples-main/contracts/StargateComposed.sol\":7828:7892  IERC20(_tokenOut).balanceOf(_toAddr).sub(_toAddrTokenBalancePre) */\n      swap2\n      swap1\n      0xffffffff\n      and\n      jump\t// in\n    tag_98:\n        /* \"solidity-examples-main/contracts/StargateComposed.sol\":7795:7893  ReceivedOnDestination(_tokenOut, IERC20(_tokenOut).balanceOf(_toAddr).sub(_toAddrTokenBalancePre)) */\n      mload(0x40)\n      tag_104\n      swap3\n      swap2\n      swap1\n      tag_36\n      jump\t// in\n    tag_104:\n      mload(0x40)\n      dup1\n      swap2\n      sub\n      swap1\n      log1\n        /* \"solidity-examples-main/contracts/StargateComposed.sol\":7201:8254  try IUniswapV2Router02(ammRouter).swapExactTokensForTokens(... */\n    tag_97:\n        /* \"solidity-examples-main/contracts/StargateComposed.sol\":5675:8264  if(_tokenOut == address(0x0)){... */\n      pop\n      pop\n    tag_72:\n        /* \"solidity-examples-main/contracts/StargateComposed.sol\":5093:8270  function sgReceive(uint16 /*_chainId*/, bytes memory /*_srcAddress*/, uint /*_nonce*/, address _token, uint amountLD, bytes memory payload) override external {... */\n      pop\n      pop\n      pop\n      pop\n      pop\n      pop\n      pop\n      pop\n      pop\n      pop\n      pop\n      jump\t// out\n        /* \"solidity-examples-main/contracts/StargateComposed.sol\":1209:4852  function swapNativeForNative(... */\n    tag_28:\n        /* \"solidity-examples-main/contracts/StargateComposed.sol\":2414:2415  0 */\n      0x00\n        /* \"solidity-examples-main/contracts/StargateComposed.sol\":2397:2411  nativeAmountIn */\n      dup8\n        /* \"solidity-examples-main/contracts/StargateComposed.sol\":2397:2415  nativeAmountIn > 0 */\n      gt\n        /* \"solidity-examples-main/contracts/StargateComposed.sol\":2389:2457  require(nativeAmountIn > 0, \"nativeAmountIn must be greater than 0\") */\n      tag_106\n      jumpi\n      mload(0x40)\n      0x08c379a000000000000000000000000000000000000000000000000000000000\n      dup2\n      mstore\n      0x04\n      add\n      tag_107\n      swap1\n      tag_108\n      jump\t// in\n    tag_107:\n      mload(0x40)\n      dup1\n      swap2\n      sub\n      swap1\n      revert\n    tag_106:\n        /* \"solidity-examples-main/contracts/StargateComposed.sol\":2507:2508  0 */\n      0x00\n        /* \"solidity-examples-main/contracts/StargateComposed.sol\":2475:2504  msg.value.sub(nativeAmountIn) */\n      tag_109\n        /* \"solidity-examples-main/contracts/StargateComposed.sol\":2489:2503  nativeAmountIn */\n      dup9\n        /* \"solidity-examples-main/contracts/StargateComposed.sol\":2475:2484  msg.value */\n      callvalue\n        /* \"solidity-examples-main/contracts/StargateComposed.sol\":2475:2488  msg.value.sub */\n      tag_70\n      swap1\n        /* \"solidity-examples-main/contracts/StargateComposed.sol\":2475:2504  msg.value.sub(nativeAmountIn) */\n      swap2\n      swap1\n      0xffffffff\n      and\n      jump\t// in\n    tag_109:\n        /* \"solidity-examples-main/contracts/StargateComposed.sol\":2475:2508  msg.value.sub(nativeAmountIn) > 0 */\n      gt\n        /* \"solidity-examples-main/contracts/StargateComposed.sol\":2467:2560  require(msg.value.sub(nativeAmountIn) > 0, \"stargate requires fee to pay crosschain message\") */\n      tag_110\n      jumpi\n      mload(0x40)\n      0x08c379a000000000000000000000000000000000000000000000000000000000\n      dup2\n      mstore\n      0x04\n      add\n      tag_111\n      swap1\n      tag_112\n      jump\t// in\n    tag_111:\n      mload(0x40)\n      dup1\n      swap2\n      sub\n      swap1\n      revert\n    tag_110:\n        /* \"solidity-examples-main/contracts/StargateComposed.sol\":2571:2588  uint bridgeAmount */\n      0x00\n        /* \"solidity-examples-main/contracts/StargateComposed.sol\":2771:2792  address[] memory path */\n      dup1\n        /* \"solidity-examples-main/contracts/StargateComposed.sol\":2809:2810  2 */\n      0x02\n        /* \"solidity-examples-main/contracts/StargateComposed.sol\":2795:2811  new address[](2) */\n      0xffffffffffffffff\n      dup2\n      gt\n      iszero\n      tag_113\n      jumpi\n      mstore(0x00, 0x4e487b7100000000000000000000000000000000000000000000000000000000)\n      mstore(0x04, 0x41)\n      revert(0x00, 0x24)\n    tag_113:\n      mload(0x40)\n      swap1\n      dup1\n      dup3\n      mstore\n      dup1\n      0x20\n      mul\n      0x20\n      add\n      dup3\n      add\n      0x40\n      mstore\n      dup1\n      iszero\n      tag_114\n      jumpi\n      dup2\n      0x20\n      add\n      0x20\n      dup3\n      mul\n      dup1\n      calldatasize\n      dup4\n      calldatacopy\n      dup1\n      dup3\n      add\n      swap2\n      pop\n      pop\n      swap1\n      pop\n    tag_114:\n      pop\n        /* \"solidity-examples-main/contracts/StargateComposed.sol\":2771:2811  address[] memory path = new address[](2) */\n      swap1\n      pop\n        /* \"solidity-examples-main/contracts/StargateComposed.sol\":2854:2863  ammRouter */\n      0x01\n      0x00\n      swap1\n      sload\n      swap1\n      0x0100\n      exp\n      swap1\n      div\n      0xffffffffffffffffffffffffffffffffffffffff\n      and\n        /* \"solidity-examples-main/contracts/StargateComposed.sol\":2835:2869  IUniswapV2Router02(ammRouter).WETH */\n      0xffffffffffffffffffffffffffffffffffffffff\n      and\n      0xad5c4648\n        /* \"solidity-examples-main/contracts/StargateComposed.sol\":2835:2871  IUniswapV2Router02(ammRouter).WETH() */\n      mload(0x40)\n      dup2\n      0xffffffff\n      and\n      0xe0\n      shl\n      dup2\n      mstore\n      0x04\n      add\n      0x20\n      mload(0x40)\n      dup1\n      dup4\n      sub\n      dup2\n      dup7\n      dup1\n      extcodesize\n      iszero\n      dup1\n      iszero\n      tag_115\n      jumpi\n      0x00\n      dup1\n      revert\n    tag_115:\n      pop\n      gas\n      staticcall\n      iszero\n      dup1\n      iszero\n      tag_117\n      jumpi\n      returndatasize\n      0x00\n      dup1\n      returndatacopy\n      revert(0x00, returndatasize)\n    tag_117:\n      pop\n      pop\n      pop\n      pop\n      mload(0x40)\n      returndatasize\n      not(0x1f)\n      0x1f\n      dup3\n      add\n      and\n      dup3\n      add\n      dup1\n      0x40\n      mstore\n      pop\n      dup2\n      add\n      swap1\n      tag_118\n      swap2\n      swap1\n      tag_50\n      jump\t// in\n    tag_118:\n        /* \"solidity-examples-main/contracts/StargateComposed.sol\":2825:2829  path */\n      dup2\n        /* \"solidity-examples-main/contracts/StargateComposed.sol\":2830:2831  0 */\n      0x00\n        /* \"solidity-examples-main/contracts/StargateComposed.sol\":2825:2832  path[0] */\n      dup2\n      mload\n      dup2\n      lt\n      tag_119\n      jumpi\n      mstore(0x00, 0x4e487b7100000000000000000000000000000000000000000000000000000000)\n      mstore(0x04, 0x32)\n      revert(0x00, 0x24)\n    tag_119:\n      0x20\n      mul\n      0x20\n      add\n      add\n        /* \"solidity-examples-main/contracts/StargateComposed.sol\":2825:2871  path[0] = IUniswapV2Router02(ammRouter).WETH() */\n      swap1\n      0xffffffffffffffffffffffffffffffffffffffff\n      and\n      swap1\n      dup2\n      0xffffffffffffffffffffffffffffffffffffffff\n      and\n      dup2\n      mstore\n      pop\n      pop\n        /* \"solidity-examples-main/contracts/StargateComposed.sol\":2956:2967  bridgeToken */\n      dup12\n        /* \"solidity-examples-main/contracts/StargateComposed.sol\":2946:2950  path */\n      dup2\n        /* \"solidity-examples-main/contracts/StargateComposed.sol\":2951:2952  1 */\n      0x01\n        /* \"solidity-examples-main/contracts/StargateComposed.sol\":2946:2953  path[1] */\n      dup2\n      mload\n      dup2\n      lt\n      tag_120\n      jumpi\n      mstore(0x00, 0x4e487b7100000000000000000000000000000000000000000000000000000000)\n      mstore(0x04, 0x32)\n      revert(0x00, 0x24)\n    tag_120:\n      0x20\n      mul\n      0x20\n      add\n      add\n        /* \"solidity-examples-main/contracts/StargateComposed.sol\":2946:2967  path[1] = bridgeToken */\n      swap1\n      0xffffffffffffffffffffffffffffffffffffffff\n      and\n      swap1\n      dup2\n      0xffffffffffffffffffffffffffffffffffffffff\n      and\n      dup2\n      mstore\n      pop\n      pop\n        /* \"solidity-examples-main/contracts/StargateComposed.sol\":3031:3052  uint[] memory amounts */\n      0x00\n        /* \"solidity-examples-main/contracts/StargateComposed.sol\":3074:3083  ammRouter */\n      0x01\n      0x00\n      swap1\n      sload\n      swap1\n      0x0100\n      exp\n      swap1\n      div\n      0xffffffffffffffffffffffffffffffffffffffff\n      and\n        /* \"solidity-examples-main/contracts/StargateComposed.sol\":3055:3106  IUniswapV2Router02(ammRouter).swapExactETHForTokens */\n      0xffffffffffffffffffffffffffffffffffffffff\n      and\n      0x7ff36ab5\n        /* \"solidity-examples-main/contracts/StargateComposed.sol\":3113:3127  nativeAmountIn */\n      dup12\n        /* \"solidity-examples-main/contracts/StargateComposed.sol\":3146:3158  amountOutMin */\n      dup11\n        /* \"solidity-examples-main/contracts/StargateComposed.sol\":3176:3180  path */\n      dup6\n        /* \"solidity-examples-main/contracts/StargateComposed.sol\":3206:3210  this */\n      address\n        /* \"solidity-examples-main/contracts/StargateComposed.sol\":3229:3237  deadline */\n      dup11\n        /* \"solidity-examples-main/contracts/StargateComposed.sol\":3055:3251  IUniswapV2Router02(ammRouter).swapExactETHForTokens{value:nativeAmountIn}(... */\n      mload(0x40)\n      dup7\n      0xffffffff\n      and\n      0xe0\n      shl\n      dup2\n      mstore\n      0x04\n      add\n      tag_121\n      swap5\n      swap4\n      swap3\n      swap2\n      swap1\n      tag_122\n      jump\t// in\n    tag_121:\n      0x00\n      mload(0x40)\n      dup1\n      dup4\n      sub\n      dup2\n      dup6\n      dup9\n      dup1\n      extcodesize\n      iszero\n      dup1\n      iszero\n      tag_123\n      jumpi\n      0x00\n      dup1\n      revert\n    tag_123:\n      pop\n      gas\n      call\n      iszero\n      dup1\n      iszero\n      tag_125\n      jumpi\n      returndatasize\n      0x00\n      dup1\n      returndatacopy\n      revert(0x00, returndatasize)\n    tag_125:\n      pop\n      pop\n      pop\n      pop\n      pop\n      mload(0x40)\n      returndatasize\n      0x00\n      dup3\n      returndatacopy\n      returndatasize\n      not(0x1f)\n      0x1f\n      dup3\n      add\n      and\n      dup3\n      add\n      dup1\n      0x40\n      mstore\n      pop\n      dup2\n      add\n      swap1\n      tag_126\n      swap2\n      swap1\n      tag_57\n      jump\t// in\n    tag_126:\n        /* \"solidity-examples-main/contracts/StargateComposed.sol\":3031:3251  uint[] memory amounts = IUniswapV2Router02(ammRouter).swapExactETHForTokens{value:nativeAmountIn}(... */\n      swap1\n      pop\n        /* \"solidity-examples-main/contracts/StargateComposed.sol\":3281:3288  amounts */\n      dup1\n        /* \"solidity-examples-main/contracts/StargateComposed.sol\":3289:3290  1 */\n      0x01\n        /* \"solidity-examples-main/contracts/StargateComposed.sol\":3281:3291  amounts[1] */\n      dup2\n      mload\n      dup2\n      lt\n      tag_127\n      jumpi\n      mstore(0x00, 0x4e487b7100000000000000000000000000000000000000000000000000000000)\n      mstore(0x04, 0x32)\n      revert(0x00, 0x24)\n    tag_127:\n      0x20\n      mul\n      0x20\n      add\n      add\n      mload\n        /* \"solidity-examples-main/contracts/StargateComposed.sol\":3266:3291  bridgeAmount = amounts[1] */\n      swap3\n      pop\n        /* \"solidity-examples-main/contracts/StargateComposed.sol\":3328:3329  0 */\n      0x00\n        /* \"solidity-examples-main/contracts/StargateComposed.sol\":3313:3325  bridgeAmount */\n      dup4\n        /* \"solidity-examples-main/contracts/StargateComposed.sol\":3313:3329  bridgeAmount > 0 */\n      gt\n        /* \"solidity-examples-main/contracts/StargateComposed.sol\":3305:3391  require(bridgeAmount > 0, 'error: ammRouter gave us 0 tokens to swap() with stargate') */\n      tag_128\n      jumpi\n      mload(0x40)\n      0x08c379a000000000000000000000000000000000000000000000000000000000\n      dup2\n      mstore\n      0x04\n      add\n      tag_129\n      swap1\n      tag_130\n      jump\t// in\n    tag_129:\n      mload(0x40)\n      dup1\n      swap2\n      sub\n      swap1\n      revert\n    tag_128:\n        /* \"solidity-examples-main/contracts/StargateComposed.sol\":3506:3517  bridgeToken */\n      dup13\n        /* \"solidity-examples-main/contracts/StargateComposed.sol\":3499:3526  IERC20(bridgeToken).approve */\n      0xffffffffffffffffffffffffffffffffffffffff\n      and\n      0x095ea7b3\n        /* \"solidity-examples-main/contracts/StargateComposed.sol\":3535:3549  stargateRouter */\n      0x00\n      dup1\n      sload\n      swap1\n      0x0100\n      exp\n      swap1\n      div\n      0xffffffffffffffffffffffffffffffffffffffff\n      and\n        /* \"solidity-examples-main/contracts/StargateComposed.sol\":3552:3564  bridgeAmount */\n      dup6\n        /* \"solidity-examples-main/contracts/StargateComposed.sol\":3499:3565  IERC20(bridgeToken).approve(address(stargateRouter), bridgeAmount) */\n      mload(0x40)\n      dup4\n      0xffffffff\n      and\n      0xe0\n      shl\n      dup2\n      mstore\n      0x04\n      add\n      tag_131\n      swap3\n      swap2\n      swap1\n      tag_36\n      jump\t// in\n    tag_131:\n      0x20\n      mload(0x40)\n      dup1\n      dup4\n      sub\n      dup2\n      0x00\n      dup8\n      dup1\n      extcodesize\n      iszero\n      dup1\n      iszero\n      tag_132\n      jumpi\n      0x00\n      dup1\n      revert\n    tag_132:\n      pop\n      gas\n      call\n      iszero\n      dup1\n      iszero\n      tag_134\n      jumpi\n      returndatasize\n      0x00\n      dup1\n      returndatacopy\n      revert(0x00, returndatasize)\n    tag_134:\n      pop\n      pop\n      pop\n      pop\n      mload(0x40)\n      returndatasize\n      not(0x1f)\n      0x1f\n      dup3\n      add\n      and\n      dup3\n      add\n      dup1\n      0x40\n      mstore\n      pop\n      dup2\n      add\n      swap1\n      tag_135\n      swap2\n      swap1\n      tag_41\n      jump\t// in\n    tag_135:\n      pop\n        /* \"solidity-examples-main/contracts/StargateComposed.sol\":1209:4852  function swapNativeForNative(... */\n      pop\n      pop\n        /* \"solidity-examples-main/contracts/StargateComposed.sol\":3688:3705  bytes memory data */\n      0x60\n        /* \"solidity-examples-main/contracts/StargateComposed.sol\":3747:3760  OUT_TO_NATIVE */\n      0x02\n      0x00\n      swap1\n      sload\n      swap1\n      0x0100\n      exp\n      swap1\n      div\n      0xffffffffffffffffffffffffffffffffffffffff\n      and\n        /* \"solidity-examples-main/contracts/StargateComposed.sol\":3762:3770  deadline */\n      dup5\n        /* \"solidity-examples-main/contracts/StargateComposed.sol\":3772:3788  amountOutMinDest */\n      dup7\n        /* \"solidity-examples-main/contracts/StargateComposed.sol\":3790:3792  to */\n      dup11\n        /* \"solidity-examples-main/contracts/StargateComposed.sol\":3736:3793  abi.encode(OUT_TO_NATIVE, deadline, amountOutMinDest, to) */\n      add(0x20, mload(0x40))\n      tag_136\n      swap5\n      swap4\n      swap3\n      swap2\n      swap1\n      tag_137\n      jump\t// in\n    tag_136:\n      mload(0x40)\n      0x20\n      dup2\n      dup4\n      sub\n      sub\n      dup2\n      mstore\n      swap1\n      0x40\n      mstore\n        /* \"solidity-examples-main/contracts/StargateComposed.sol\":3729:3793  data = abi.encode(OUT_TO_NATIVE, deadline, amountOutMinDest, to) */\n      swap1\n      pop\n        /* \"solidity-examples-main/contracts/StargateComposed.sol\":3918:3932  stargateRouter */\n      0x00\n      dup1\n      sload\n      swap1\n      0x0100\n      exp\n      swap1\n      div\n      0xffffffffffffffffffffffffffffffffffffffff\n      and\n        /* \"solidity-examples-main/contracts/StargateComposed.sol\":3902:3938  IStargateRouter(stargateRouter).swap */\n      0xffffffffffffffffffffffffffffffffffffffff\n      and\n      0x9fbf10fc\n        /* \"solidity-examples-main/contracts/StargateComposed.sol\":3945:3974  msg.value.sub(nativeAmountIn) */\n      tag_138\n        /* \"solidity-examples-main/contracts/StargateComposed.sol\":3959:3973  nativeAmountIn */\n      dup12\n        /* \"solidity-examples-main/contracts/StargateComposed.sol\":3945:3954  msg.value */\n      callvalue\n        /* \"solidity-examples-main/contracts/StargateComposed.sol\":3945:3958  msg.value.sub */\n      tag_70\n      swap1\n        /* \"solidity-examples-main/contracts/StargateComposed.sol\":3945:3974  msg.value.sub(nativeAmountIn) */\n      swap2\n      swap1\n      0xffffffff\n      and\n      jump\t// in\n    tag_138:\n        /* \"solidity-examples-main/contracts/StargateComposed.sol\":3989:3999  dstChainId */\n      dup16\n        /* \"solidity-examples-main/contracts/StargateComposed.sol\":4077:4086  srcPoolId */\n      dup15\n        /* \"solidity-examples-main/contracts/StargateComposed.sol\":4167:4176  dstPoolId */\n      dup15\n        /* \"solidity-examples-main/contracts/StargateComposed.sol\":4270:4280  msg.sender */\n      caller\n        /* \"solidity-examples-main/contracts/StargateComposed.sol\":4392:4404  bridgeAmount */\n      dup9\n        /* \"solidity-examples-main/contracts/StargateComposed.sol\":4497:4511  amountOutMinSg */\n      dup14\n        /* \"solidity-examples-main/contracts/StargateComposed.sol\":4568:4608  IStargateRouter.lzTxObj(500000, 0, \"0x\") */\n      mload(0x40)\n      dup1\n      0x60\n      add\n      0x40\n      mstore\n      dup1\n        /* \"solidity-examples-main/contracts/StargateComposed.sol\":4592:4598  500000 */\n      0x07a120\n        /* \"solidity-examples-main/contracts/StargateComposed.sol\":4568:4608  IStargateRouter.lzTxObj(500000, 0, \"0x\") */\n      dup2\n      mstore\n      0x20\n      add\n        /* \"solidity-examples-main/contracts/StargateComposed.sol\":4600:4601  0 */\n      0x00\n        /* \"solidity-examples-main/contracts/StargateComposed.sol\":4568:4608  IStargateRouter.lzTxObj(500000, 0, \"0x\") */\n      dup2\n      mstore\n      0x20\n      add\n      mload(0x40)\n      dup1\n      0x40\n      add\n      0x40\n      mstore\n      dup1\n      0x02\n      dup2\n      mstore\n      0x20\n      add\n      0x3078000000000000000000000000000000000000000000000000000000000000\n      dup2\n      mstore\n      pop\n      dup2\n      mstore\n      pop\n        /* \"solidity-examples-main/contracts/StargateComposed.sol\":4676:4696  destStargateComposed */\n      dup13\n        /* \"solidity-examples-main/contracts/StargateComposed.sol\":4659:4697  abi.encodePacked(destStargateComposed) */\n      add(0x20, mload(0x40))\n      tag_139\n      swap2\n      swap1\n      tag_140\n      jump\t// in\n    tag_139:\n      mload(0x40)\n      0x20\n      dup2\n      dup4\n      sub\n      sub\n      dup2\n      mstore\n      swap1\n      0x40\n      mstore\n        /* \"solidity-examples-main/contracts/StargateComposed.sol\":4771:4775  data */\n      dup12\n        /* \"solidity-examples-main/contracts/StargateComposed.sol\":3902:4845  IStargateRouter(stargateRouter).swap{value:msg.value.sub(nativeAmountIn)}(... */\n      mload(0x40)\n      dup12\n      0xffffffff\n      and\n      0xe0\n      shl\n      dup2\n      mstore\n      0x04\n      add\n      tag_141\n      swap10\n      swap9\n      swap8\n      swap7\n      swap6\n      swap5\n      swap4\n      swap3\n      swap2\n      swap1\n      tag_142\n      jump\t// in\n    tag_141:\n      0x00\n      mload(0x40)\n      dup1\n      dup4\n      sub\n      dup2\n      dup6\n      dup9\n      dup1\n      extcodesize\n      iszero\n      dup1\n      iszero\n      tag_143\n      jumpi\n      0x00\n      dup1\n      revert\n    tag_143:\n      pop\n      gas\n      call\n      iszero\n      dup1\n      iszero\n      tag_145\n      jumpi\n      returndatasize\n      0x00\n      dup1\n      returndatacopy\n      revert(0x00, returndatasize)\n    tag_145:\n      pop\n      pop\n      pop\n      pop\n      pop\n        /* \"solidity-examples-main/contracts/StargateComposed.sol\":1209:4852  function swapNativeForNative(... */\n      pop\n      pop\n      pop\n      pop\n      pop\n      pop\n      pop\n      pop\n      pop\n      pop\n      pop\n      pop\n      pop\n      jump\t// out\n        /* \"@openzeppelin/contracts/utils/math/SafeMath.sol\":3122:3218  function sub(uint256 a, uint256 b) internal pure returns (uint256) {... */\n    tag_70:\n        /* \"@openzeppelin/contracts/utils/math/SafeMath.sol\":3180:3187  uint256 */\n      0x00\n        /* \"@openzeppelin/contracts/utils/math/SafeMath.sol\":3210:3211  b */\n      dup2\n        /* \"@openzeppelin/contracts/utils/math/SafeMath.sol\":3206:3207  a */\n      dup4\n        /* \"@openzeppelin/contracts/utils/math/SafeMath.sol\":3206:3211  a - b */\n      tag_147\n      swap2\n      swap1\n      tag_148\n      jump\t// in\n    tag_147:\n        /* \"@openzeppelin/contracts/utils/math/SafeMath.sol\":3199:3211  return a - b */\n      swap1\n      pop\n        /* \"@openzeppelin/contracts/utils/math/SafeMath.sol\":3122:3218  function sub(uint256 a, uint256 b) internal pure returns (uint256) {... */\n      swap3\n      swap2\n      pop\n      pop\n      jump\t// out\n        /* \"#utility.yul\":24:701   */\n    tag_150:\n        /* \"#utility.yul\":131:136   */\n      0x00\n        /* \"#utility.yul\":156:237   */\n      tag_152\n        /* \"#utility.yul\":172:236   */\n      tag_153\n        /* \"#utility.yul\":229:235   */\n      dup5\n        /* \"#utility.yul\":172:236   */\n      tag_154\n      jump\t// in\n    tag_153:\n        /* \"#utility.yul\":156:237   */\n      tag_155\n      jump\t// in\n    tag_152:\n        /* \"#utility.yul\":147:237   */\n      swap1\n      pop\n        /* \"#utility.yul\":257:262   */\n      dup1\n        /* \"#utility.yul\":286:292   */\n      dup4\n        /* \"#utility.yul\":279:284   */\n      dup3\n        /* \"#utility.yul\":272:293   */\n      mstore\n        /* \"#utility.yul\":320:324   */\n      0x20\n        /* \"#utility.yul\":313:318   */\n      dup3\n        /* \"#utility.yul\":309:325   */\n      add\n        /* \"#utility.yul\":302:325   */\n      swap1\n      pop\n        /* \"#utility.yul\":346:352   */\n      dup3\n        /* \"#utility.yul\":396:399   */\n      dup6\n        /* \"#utility.yul\":388:392   */\n      0x20\n        /* \"#utility.yul\":380:386   */\n      dup7\n        /* \"#utility.yul\":376:393   */\n      mul\n        /* \"#utility.yul\":371:374   */\n      dup3\n        /* \"#utility.yul\":367:394   */\n      add\n        /* \"#utility.yul\":364:400   */\n      gt\n        /* \"#utility.yul\":361:363   */\n      iszero\n      tag_156\n      jumpi\n        /* \"#utility.yul\":425:426   */\n      0x00\n        /* \"#utility.yul\":422:423   */\n      dup1\n        /* \"#utility.yul\":415:427   */\n      revert\n        /* \"#utility.yul\":361:363   */\n    tag_156:\n        /* \"#utility.yul\":461:462   */\n      0x00\n        /* \"#utility.yul\":446:695   */\n    tag_157:\n        /* \"#utility.yul\":471:477   */\n      dup6\n        /* \"#utility.yul\":468:469   */\n      dup2\n        /* \"#utility.yul\":465:478   */\n      lt\n        /* \"#utility.yul\":446:695   */\n      iszero\n      tag_159\n      jumpi\n        /* \"#utility.yul\":539:542   */\n      dup2\n        /* \"#utility.yul\":568:616   */\n      tag_160\n        /* \"#utility.yul\":612:615   */\n      dup9\n        /* \"#utility.yul\":600:610   */\n      dup3\n        /* \"#utility.yul\":568:616   */\n      tag_161\n      jump\t// in\n    tag_160:\n        /* \"#utility.yul\":563:566   */\n      dup5\n        /* \"#utility.yul\":556:617   */\n      mstore\n        /* \"#utility.yul\":646:650   */\n      0x20\n        /* \"#utility.yul\":641:644   */\n      dup5\n        /* \"#utility.yul\":637:651   */\n      add\n        /* \"#utility.yul\":630:651   */\n      swap4\n      pop\n        /* \"#utility.yul\":680:684   */\n      0x20\n        /* \"#utility.yul\":675:678   */\n      dup4\n        /* \"#utility.yul\":671:685   */\n      add\n        /* \"#utility.yul\":664:685   */\n      swap3\n      pop\n        /* \"#utility.yul\":506:695   */\n      pop\n        /* \"#utility.yul\":493:494   */\n      0x01\n        /* \"#utility.yul\":490:491   */\n      dup2\n        /* \"#utility.yul\":486:495   */\n      add\n        /* \"#utility.yul\":481:495   */\n      swap1\n      pop\n        /* \"#utility.yul\":446:695   */\n      jump(tag_157)\n    tag_159:\n        /* \"#utility.yul\":450:464   */\n      pop\n        /* \"#utility.yul\":137:701   */\n      pop\n      pop\n      swap4\n      swap3\n      pop\n      pop\n      pop\n      jump\t// out\n        /* \"#utility.yul\":707:1050   */\n    tag_162:\n        /* \"#utility.yul\":784:789   */\n      0x00\n        /* \"#utility.yul\":809:874   */\n      tag_164\n        /* \"#utility.yul\":825:873   */\n      tag_165\n        /* \"#utility.yul\":866:872   */\n      dup5\n        /* \"#utility.yul\":825:873   */\n      tag_166\n      jump\t// in\n    tag_165:\n        /* \"#utility.yul\":809:874   */\n      tag_155\n      jump\t// in\n    tag_164:\n        /* \"#utility.yul\":800:874   */\n      swap1\n      pop\n        /* \"#utility.yul\":897:903   */\n      dup3\n        /* \"#utility.yul\":890:895   */\n      dup2\n        /* \"#utility.yul\":883:904   */\n      mstore\n        /* \"#utility.yul\":935:939   */\n      0x20\n        /* \"#utility.yul\":928:933   */\n      dup2\n        /* \"#utility.yul\":924:940   */\n      add\n        /* \"#utility.yul\":973:976   */\n      dup5\n        /* \"#utility.yul\":964:970   */\n      dup5\n        /* \"#utility.yul\":959:962   */\n      dup5\n        /* \"#utility.yul\":955:971   */\n      add\n        /* \"#utility.yul\":952:977   */\n      gt\n        /* \"#utility.yul\":949:951   */\n      iszero\n      tag_167\n      jumpi\n        /* \"#utility.yul\":990:991   */\n      0x00\n        /* \"#utility.yul\":987:988   */\n      dup1\n        /* \"#utility.yul\":980:992   */\n      revert\n        /* \"#utility.yul\":949:951   */\n    tag_167:\n        /* \"#utility.yul\":1003:1044   */\n      tag_168\n        /* \"#utility.yul\":1037:1043   */\n      dup5\n        /* \"#utility.yul\":1032:1035   */\n      dup3\n        /* \"#utility.yul\":1027:1030   */\n      dup6\n        /* \"#utility.yul\":1003:1044   */\n      tag_169\n      jump\t// in\n    tag_168:\n        /* \"#utility.yul\":790:1050   */\n      pop\n      swap4\n      swap3\n      pop\n      pop\n      pop\n      jump\t// out\n        /* \"#utility.yul\":1056:1195   */\n    tag_170:\n        /* \"#utility.yul\":1102:1107   */\n      0x00\n        /* \"#utility.yul\":1140:1146   */\n      dup2\n        /* \"#utility.yul\":1127:1147   */\n      calldataload\n        /* \"#utility.yul\":1118:1147   */\n      swap1\n      pop\n        /* \"#utility.yul\":1156:1189   */\n      tag_172\n        /* \"#utility.yul\":1183:1188   */\n      dup2\n        /* \"#utility.yul\":1156:1189   */\n      tag_173\n      jump\t// in\n    tag_172:\n        /* \"#utility.yul\":1108:1195   */\n      swap3\n      swap2\n      pop\n      pop\n      jump\t// out\n        /* \"#utility.yul\":1201:1344   */\n    tag_174:\n        /* \"#utility.yul\":1258:1263   */\n      0x00\n        /* \"#utility.yul\":1289:1295   */\n      dup2\n        /* \"#utility.yul\":1283:1296   */\n      mload\n        /* \"#utility.yul\":1274:1296   */\n      swap1\n      pop\n        /* \"#utility.yul\":1305:1338   */\n      tag_176\n        /* \"#utility.yul\":1332:1337   */\n      dup2\n        /* \"#utility.yul\":1305:1338   */\n      tag_173\n      jump\t// in\n    tag_176:\n        /* \"#utility.yul\":1264:1344   */\n      swap3\n      swap2\n      pop\n      pop\n      jump\t// out\n        /* \"#utility.yul\":1350:1509   */\n    tag_177:\n        /* \"#utility.yul\":1415:1420   */\n      0x00\n        /* \"#utility.yul\":1446:1452   */\n      dup2\n        /* \"#utility.yul\":1440:1453   */\n      mload\n        /* \"#utility.yul\":1431:1453   */\n      swap1\n      pop\n        /* \"#utility.yul\":1462:1503   */\n      tag_179\n        /* \"#utility.yul\":1497:1502   */\n      dup2\n        /* \"#utility.yul\":1462:1503   */\n      tag_180\n      jump\t// in\n    tag_179:\n        /* \"#utility.yul\":1421:1509   */\n      swap3\n      swap2\n      pop\n      pop\n      jump\t// out\n        /* \"#utility.yul\":1532:1850   */\n    tag_181:\n        /* \"#utility.yul\":1614:1619   */\n      0x00\n        /* \"#utility.yul\":1663:1666   */\n      dup3\n        /* \"#utility.yul\":1656:1660   */\n      0x1f\n        /* \"#utility.yul\":1648:1654   */\n      dup4\n        /* \"#utility.yul\":1644:1661   */\n      add\n        /* \"#utility.yul\":1640:1667   */\n      slt\n        /* \"#utility.yul\":1630:1632   */\n      tag_183\n      jumpi\n        /* \"#utility.yul\":1681:1682   */\n      0x00\n        /* \"#utility.yul\":1678:1679   */\n      dup1\n        /* \"#utility.yul\":1671:1683   */\n      revert\n        /* \"#utility.yul\":1630:1632   */\n    tag_183:\n        /* \"#utility.yul\":1714:1720   */\n      dup2\n        /* \"#utility.yul\":1708:1721   */\n      mload\n        /* \"#utility.yul\":1739:1844   */\n      tag_184\n        /* \"#utility.yul\":1840:1843   */\n      dup5\n        /* \"#utility.yul\":1832:1838   */\n      dup3\n        /* \"#utility.yul\":1825:1829   */\n      0x20\n        /* \"#utility.yul\":1817:1823   */\n      dup7\n        /* \"#utility.yul\":1813:1830   */\n      add\n        /* \"#utility.yul\":1739:1844   */\n      tag_150\n      jump\t// in\n    tag_184:\n        /* \"#utility.yul\":1730:1844   */\n      swap2\n      pop\n        /* \"#utility.yul\":1620:1850   */\n      pop\n      swap3\n      swap2\n      pop\n      pop\n      jump\t// out\n        /* \"#utility.yul\":1856:1993   */\n    tag_185:\n        /* \"#utility.yul\":1910:1915   */\n      0x00\n        /* \"#utility.yul\":1941:1947   */\n      dup2\n        /* \"#utility.yul\":1935:1948   */\n      mload\n        /* \"#utility.yul\":1926:1948   */\n      swap1\n      pop\n        /* \"#utility.yul\":1957:1987   */\n      tag_187\n        /* \"#utility.yul\":1981:1986   */\n      dup2\n        /* \"#utility.yul\":1957:1987   */\n      tag_188\n      jump\t// in\n    tag_187:\n        /* \"#utility.yul\":1916:1993   */\n      swap3\n      swap2\n      pop\n      pop\n      jump\t// out\n        /* \"#utility.yul\":2012:2283   */\n    tag_189:\n        /* \"#utility.yul\":2067:2072   */\n      0x00\n        /* \"#utility.yul\":2116:2119   */\n      dup3\n        /* \"#utility.yul\":2109:2113   */\n      0x1f\n        /* \"#utility.yul\":2101:2107   */\n      dup4\n        /* \"#utility.yul\":2097:2114   */\n      add\n        /* \"#utility.yul\":2093:2120   */\n      slt\n        /* \"#utility.yul\":2083:2085   */\n      tag_191\n      jumpi\n        /* \"#utility.yul\":2134:2135   */\n      0x00\n        /* \"#utility.yul\":2131:2132   */\n      dup1\n        /* \"#utility.yul\":2124:2136   */\n      revert\n        /* \"#utility.yul\":2083:2085   */\n    tag_191:\n        /* \"#utility.yul\":2174:2180   */\n      dup2\n        /* \"#utility.yul\":2161:2181   */\n      calldataload\n        /* \"#utility.yul\":2199:2277   */\n      tag_192\n        /* \"#utility.yul\":2273:2276   */\n      dup5\n        /* \"#utility.yul\":2265:2271   */\n      dup3\n        /* \"#utility.yul\":2258:2262   */\n      0x20\n        /* \"#utility.yul\":2250:2256   */\n      dup7\n        /* \"#utility.yul\":2246:2263   */\n      add\n        /* \"#utility.yul\":2199:2277   */\n      tag_162\n      jump\t// in\n    tag_192:\n        /* \"#utility.yul\":2190:2277   */\n      swap2\n      pop\n        /* \"#utility.yul\":2073:2283   */\n      pop\n      swap3\n      swap2\n      pop\n      pop\n      jump\t// out\n        /* \"#utility.yul\":2289:2426   */\n    tag_193:\n        /* \"#utility.yul\":2334:2339   */\n      0x00\n        /* \"#utility.yul\":2372:2378   */\n      dup2\n        /* \"#utility.yul\":2359:2379   */\n      calldataload\n        /* \"#utility.yul\":2350:2379   */\n      swap1\n      pop\n        /* \"#utility.yul\":2388:2420   */\n      tag_195\n        /* \"#utility.yul\":2414:2419   */\n      dup2\n        /* \"#utility.yul\":2388:2420   */\n      tag_196\n      jump\t// in\n    tag_195:\n        /* \"#utility.yul\":2340:2426   */\n      swap3\n      swap2\n      pop\n      pop\n      jump\t// out\n        /* \"#utility.yul\":2432:2571   */\n    tag_197:\n        /* \"#utility.yul\":2478:2483   */\n      0x00\n        /* \"#utility.yul\":2516:2522   */\n      dup2\n        /* \"#utility.yul\":2503:2523   */\n      calldataload\n        /* \"#utility.yul\":2494:2523   */\n      swap1\n      pop\n        /* \"#utility.yul\":2532:2565   */\n      tag_199\n        /* \"#utility.yul\":2559:2564   */\n      dup2\n        /* \"#utility.yul\":2532:2565   */\n      tag_200\n      jump\t// in\n    tag_199:\n        /* \"#utility.yul\":2484:2571   */\n      swap3\n      swap2\n      pop\n      pop\n      jump\t// out\n        /* \"#utility.yul\":2577:2720   */\n    tag_161:\n        /* \"#utility.yul\":2634:2639   */\n      0x00\n        /* \"#utility.yul\":2665:2671   */\n      dup2\n        /* \"#utility.yul\":2659:2672   */\n      mload\n        /* \"#utility.yul\":2650:2672   */\n      swap1\n      pop\n        /* \"#utility.yul\":2681:2714   */\n      tag_202\n        /* \"#utility.yul\":2708:2713   */\n      dup2\n        /* \"#utility.yul\":2681:2714   */\n      tag_200\n      jump\t// in\n    tag_202:\n        /* \"#utility.yul\":2640:2720   */\n      swap3\n      swap2\n      pop\n      pop\n      jump\t// out\n        /* \"#utility.yul\":2726:3010   */\n    tag_50:\n        /* \"#utility.yul\":2796:2802   */\n      0x00\n        /* \"#utility.yul\":2845:2847   */\n      0x20\n        /* \"#utility.yul\":2833:2842   */\n      dup3\n        /* \"#utility.yul\":2824:2831   */\n      dup5\n        /* \"#utility.yul\":2820:2843   */\n      sub\n        /* \"#utility.yul\":2816:2848   */\n      slt\n        /* \"#utility.yul\":2813:2815   */\n      iszero\n      tag_204\n      jumpi\n        /* \"#utility.yul\":2861:2862   */\n      0x00\n        /* \"#utility.yul\":2858:2859   */\n      dup1\n        /* \"#utility.yul\":2851:2863   */\n      revert\n        /* \"#utility.yul\":2813:2815   */\n    tag_204:\n        /* \"#utility.yul\":2904:2905   */\n      0x00\n        /* \"#utility.yul\":2929:2993   */\n      tag_205\n        /* \"#utility.yul\":2985:2992   */\n      dup5\n        /* \"#utility.yul\":2976:2982   */\n      dup3\n        /* \"#utility.yul\":2965:2974   */\n      dup6\n        /* \"#utility.yul\":2961:2983   */\n      add\n        /* \"#utility.yul\":2929:2993   */\n      tag_174\n      jump\t// in\n    tag_205:\n        /* \"#utility.yul\":2919:2993   */\n      swap2\n      pop\n        /* \"#utility.yul\":2875:3003   */\n      pop\n        /* \"#utility.yul\":2803:3010   */\n      swap3\n      swap2\n      pop\n      pop\n      jump\t// out\n        /* \"#utility.yul\":3016:3801   */\n    tag_34:\n        /* \"#utility.yul\":3129:3135   */\n      0x00\n        /* \"#utility.yul\":3137:3143   */\n      dup1\n        /* \"#utility.yul\":3145:3151   */\n      0x00\n        /* \"#utility.yul\":3153:3159   */\n      dup1\n        /* \"#utility.yul\":3202:3205   */\n      0x80\n        /* \"#utility.yul\":3190:3199   */\n      dup6\n        /* \"#utility.yul\":3181:3188   */\n      dup8\n        /* \"#utility.yul\":3177:3200   */\n      sub\n        /* \"#utility.yul\":3173:3206   */\n      slt\n        /* \"#utility.yul\":3170:3172   */\n      iszero\n      tag_207\n      jumpi\n        /* \"#utility.yul\":3219:3220   */\n      0x00\n        /* \"#utility.yul\":3216:3217   */\n      dup1\n        /* \"#utility.yul\":3209:3221   */\n      revert\n        /* \"#utility.yul\":3170:3172   */\n    tag_207:\n        /* \"#utility.yul\":3262:3263   */\n      0x00\n        /* \"#utility.yul\":3287:3359   */\n      tag_208\n        /* \"#utility.yul\":3351:3358   */\n      dup8\n        /* \"#utility.yul\":3342:3348   */\n      dup3\n        /* \"#utility.yul\":3331:3340   */\n      dup9\n        /* \"#utility.yul\":3327:3349   */\n      add\n        /* \"#utility.yul\":3287:3359   */\n      tag_177\n      jump\t// in\n    tag_208:\n        /* \"#utility.yul\":3277:3359   */\n      swap5\n      pop\n        /* \"#utility.yul\":3233:3369   */\n      pop\n        /* \"#utility.yul\":3408:3410   */\n      0x20\n        /* \"#utility.yul\":3434:3498   */\n      tag_209\n        /* \"#utility.yul\":3490:3497   */\n      dup8\n        /* \"#utility.yul\":3481:3487   */\n      dup3\n        /* \"#utility.yul\":3470:3479   */\n      dup9\n        /* \"#utility.yul\":3466:3488   */\n      add\n        /* \"#utility.yul\":3434:3498   */\n      tag_161\n      jump\t// in\n    tag_209:\n        /* \"#utility.yul\":3424:3498   */\n      swap4\n      pop\n        /* \"#utility.yul\":3379:3508   */\n      pop\n        /* \"#utility.yul\":3547:3549   */\n      0x40\n        /* \"#utility.yul\":3573:3637   */\n      tag_210\n        /* \"#utility.yul\":3629:3636   */\n      dup8\n        /* \"#utility.yul\":3620:3626   */\n      dup3\n        /* \"#utility.yul\":3609:3618   */\n      dup9\n        /* \"#utility.yul\":3605:3627   */\n      add\n        /* \"#utility.yul\":3573:3637   */\n      tag_161\n      jump\t// in\n    tag_210:\n        /* \"#utility.yul\":3563:3637   */\n      swap3\n      pop\n        /* \"#utility.yul\":3518:3647   */\n      pop\n        /* \"#utility.yul\":3686:3688   */\n      0x60\n        /* \"#utility.yul\":3712:3784   */\n      tag_211\n        /* \"#utility.yul\":3776:3783   */\n      dup8\n        /* \"#utility.yul\":3767:3773   */\n      dup3\n        /* \"#utility.yul\":3756:3765   */\n      dup9\n        /* \"#utility.yul\":3752:3774   */\n      add\n        /* \"#utility.yul\":3712:3784   */\n      tag_177\n      jump\t// in\n    tag_211:\n        /* \"#utility.yul\":3702:3784   */\n      swap2\n      pop\n        /* \"#utility.yul\":3657:3794   */\n      pop\n        /* \"#utility.yul\":3160:3801   */\n      swap3\n      swap6\n      swap2\n      swap5\n      pop\n      swap3\n      pop\n      jump\t// out\n        /* \"#utility.yul\":3807:4227   */\n    tag_57:\n        /* \"#utility.yul\":3902:3908   */\n      0x00\n        /* \"#utility.yul\":3951:3953   */\n      0x20\n        /* \"#utility.yul\":3939:3948   */\n      dup3\n        /* \"#utility.yul\":3930:3937   */\n      dup5\n        /* \"#utility.yul\":3926:3949   */\n      sub\n        /* \"#utility.yul\":3922:3954   */\n      slt\n        /* \"#utility.yul\":3919:3921   */\n      iszero\n      tag_213\n      jumpi\n        /* \"#utility.yul\":3967:3968   */\n      0x00\n        /* \"#utility.yul\":3964:3965   */\n      dup1\n        /* \"#utility.yul\":3957:3969   */\n      revert\n        /* \"#utility.yul\":3919:3921   */\n    tag_213:\n        /* \"#utility.yul\":4031:4032   */\n      0x00\n        /* \"#utility.yul\":4020:4029   */\n      dup3\n        /* \"#utility.yul\":4016:4033   */\n      add\n        /* \"#utility.yul\":4010:4034   */\n      mload\n        /* \"#utility.yul\":4061:4079   */\n      0xffffffffffffffff\n        /* \"#utility.yul\":4053:4059   */\n      dup2\n        /* \"#utility.yul\":4050:4080   */\n      gt\n        /* \"#utility.yul\":4047:4049   */\n      iszero\n      tag_214\n      jumpi\n        /* \"#utility.yul\":4093:4094   */\n      0x00\n        /* \"#utility.yul\":4090:4091   */\n      dup1\n        /* \"#utility.yul\":4083:4095   */\n      revert\n        /* \"#utility.yul\":4047:4049   */\n    tag_214:\n        /* \"#utility.yul\":4121:4210   */\n      tag_215\n        /* \"#utility.yul\":4202:4209   */\n      dup5\n        /* \"#utility.yul\":4193:4199   */\n      dup3\n        /* \"#utility.yul\":4182:4191   */\n      dup6\n        /* \"#utility.yul\":4178:4200   */\n      add\n        /* \"#utility.yul\":4121:4210   */\n      tag_181\n      jump\t// in\n    tag_215:\n        /* \"#utility.yul\":4111:4210   */\n      swap2\n      pop\n        /* \"#utility.yul\":3981:4220   */\n      pop\n        /* \"#utility.yul\":3909:4227   */\n      swap3\n      swap2\n      pop\n      pop\n      jump\t// out\n        /* \"#utility.yul\":4233:4511   */\n    tag_41:\n        /* \"#utility.yul\":4300:4306   */\n      0x00\n        /* \"#utility.yul\":4349:4351   */\n      0x20\n        /* \"#utility.yul\":4337:4346   */\n      dup3\n        /* \"#utility.yul\":4328:4335   */\n      dup5\n        /* \"#utility.yul\":4324:4347   */\n      sub\n        /* \"#utility.yul\":4320:4352   */\n      slt\n        /* \"#utility.yul\":4317:4319   */\n      iszero\n      tag_217\n      jumpi\n        /* \"#utility.yul\":4365:4366   */\n      0x00\n        /* \"#utility.yul\":4362:4363   */\n      dup1\n        /* \"#utility.yul\":4355:4367   */\n      revert\n        /* \"#utility.yul\":4317:4319   */\n    tag_217:\n        /* \"#utility.yul\":4408:4409   */\n      0x00\n        /* \"#utility.yul\":4433:4494   */\n      tag_218\n        /* \"#utility.yul\":4486:4493   */\n      dup5\n        /* \"#utility.yul\":4477:4483   */\n      dup3\n        /* \"#utility.yul\":4466:4475   */\n      dup6\n        /* \"#utility.yul\":4462:4484   */\n      add\n        /* \"#utility.yul\":4433:4494   */\n      tag_185\n      jump\t// in\n    tag_218:\n        /* \"#utility.yul\":4423:4494   */\n      swap2\n      pop\n        /* \"#utility.yul\":4379:4504   */\n      pop\n        /* \"#utility.yul\":4307:4511   */\n      swap3\n      swap2\n      pop\n      pop\n      jump\t// out\n        /* \"#utility.yul\":4517:6233   */\n    tag_27:\n        /* \"#utility.yul\":4663:4669   */\n      0x00\n        /* \"#utility.yul\":4671:4677   */\n      dup1\n        /* \"#utility.yul\":4679:4685   */\n      0x00\n        /* \"#utility.yul\":4687:4693   */\n      dup1\n        /* \"#utility.yul\":4695:4701   */\n      0x00\n        /* \"#utility.yul\":4703:4709   */\n      dup1\n        /* \"#utility.yul\":4711:4717   */\n      0x00\n        /* \"#utility.yul\":4719:4725   */\n      dup1\n        /* \"#utility.yul\":4727:4733   */\n      0x00\n        /* \"#utility.yul\":4735:4741   */\n      dup1\n        /* \"#utility.yul\":4743:4750   */\n      0x00\n        /* \"#utility.yul\":4793:4796   */\n      0x0160\n        /* \"#utility.yul\":4781:4790   */\n      dup13\n        /* \"#utility.yul\":4772:4779   */\n      dup15\n        /* \"#utility.yul\":4768:4791   */\n      sub\n        /* \"#utility.yul\":4764:4797   */\n      slt\n        /* \"#utility.yul\":4761:4763   */\n      iszero\n      tag_220\n      jumpi\n        /* \"#utility.yul\":4810:4811   */\n      0x00\n        /* \"#utility.yul\":4807:4808   */\n      dup1\n        /* \"#utility.yul\":4800:4812   */\n      revert\n        /* \"#utility.yul\":4761:4763   */\n    tag_220:\n        /* \"#utility.yul\":4853:4854   */\n      0x00\n        /* \"#utility.yul\":4878:4930   */\n      tag_221\n        /* \"#utility.yul\":4922:4929   */\n      dup15\n        /* \"#utility.yul\":4913:4919   */\n      dup3\n        /* \"#utility.yul\":4902:4911   */\n      dup16\n        /* \"#utility.yul\":4898:4920   */\n      add\n        /* \"#utility.yul\":4878:4930   */\n      tag_193\n      jump\t// in\n    tag_221:\n        /* \"#utility.yul\":4868:4930   */\n      swap12\n      pop\n        /* \"#utility.yul\":4824:4940   */\n      pop\n        /* \"#utility.yul\":4979:4981   */\n      0x20\n        /* \"#utility.yul\":5005:5058   */\n      tag_222\n        /* \"#utility.yul\":5050:5057   */\n      dup15\n        /* \"#utility.yul\":5041:5047   */\n      dup3\n        /* \"#utility.yul\":5030:5039   */\n      dup16\n        /* \"#utility.yul\":5026:5048   */\n      add\n        /* \"#utility.yul\":5005:5058   */\n      tag_170\n      jump\t// in\n    tag_222:\n        /* \"#utility.yul\":4995:5058   */\n      swap11\n      pop\n        /* \"#utility.yul\":4950:5068   */\n      pop\n        /* \"#utility.yul\":5107:5109   */\n      0x40\n        /* \"#utility.yul\":5133:5185   */\n      tag_223\n        /* \"#utility.yul\":5177:5184   */\n      dup15\n        /* \"#utility.yul\":5168:5174   */\n      dup3\n        /* \"#utility.yul\":5157:5166   */\n      dup16\n        /* \"#utility.yul\":5153:5175   */\n      add\n        /* \"#utility.yul\":5133:5185   */\n      tag_193\n      jump\t// in\n    tag_223:\n        /* \"#utility.yul\":5123:5185   */\n      swap10\n      pop\n        /* \"#utility.yul\":5078:5195   */\n      pop\n        /* \"#utility.yul\":5234:5236   */\n      0x60\n        /* \"#utility.yul\":5260:5312   */\n      tag_224\n        /* \"#utility.yul\":5304:5311   */\n      dup15\n        /* \"#utility.yul\":5295:5301   */\n      dup3\n        /* \"#utility.yul\":5284:5293   */\n      dup16\n        /* \"#utility.yul\":5280:5302   */\n      add\n        /* \"#utility.yul\":5260:5312   */\n      tag_193\n      jump\t// in\n    tag_224:\n        /* \"#utility.yul\":5250:5312   */\n      swap9\n      pop\n        /* \"#utility.yul\":5205:5322   */\n      pop\n        /* \"#utility.yul\":5361:5364   */\n      0x80\n        /* \"#utility.yul\":5388:5441   */\n      tag_225\n        /* \"#utility.yul\":5433:5440   */\n      dup15\n        /* \"#utility.yul\":5424:5430   */\n      dup3\n        /* \"#utility.yul\":5413:5422   */\n      dup16\n        /* \"#utility.yul\":5409:5431   */\n      add\n        /* \"#utility.yul\":5388:5441   */\n      tag_197\n      jump\t// in\n    tag_225:\n        /* \"#utility.yul\":5378:5441   */\n      swap8\n      pop\n        /* \"#utility.yul\":5332:5451   */\n      pop\n        /* \"#utility.yul\":5490:5493   */\n      0xa0\n        /* \"#utility.yul\":5517:5570   */\n      tag_226\n        /* \"#utility.yul\":5562:5569   */\n      dup15\n        /* \"#utility.yul\":5553:5559   */\n      dup3\n        /* \"#utility.yul\":5542:5551   */\n      dup16\n        /* \"#utility.yul\":5538:5560   */\n      add\n        /* \"#utility.yul\":5517:5570   */\n      tag_170\n      jump\t// in\n    tag_226:\n        /* \"#utility.yul\":5507:5570   */\n      swap7\n      pop\n        /* \"#utility.yul\":5461:5580   */\n      pop\n        /* \"#utility.yul\":5619:5622   */\n      0xc0\n        /* \"#utility.yul\":5646:5699   */\n      tag_227\n        /* \"#utility.yul\":5691:5698   */\n      dup15\n        /* \"#utility.yul\":5682:5688   */\n      dup3\n        /* \"#utility.yul\":5671:5680   */\n      dup16\n        /* \"#utility.yul\":5667:5689   */\n      add\n        /* \"#utility.yul\":5646:5699   */\n      tag_197\n      jump\t// in\n    tag_227:\n        /* \"#utility.yul\":5636:5699   */\n      swap6\n      pop\n        /* \"#utility.yul\":5590:5709   */\n      pop\n        /* \"#utility.yul\":5748:5751   */\n      0xe0\n        /* \"#utility.yul\":5775:5828   */\n      tag_228\n        /* \"#utility.yul\":5820:5827   */\n      dup15\n        /* \"#utility.yul\":5811:5817   */\n      dup3\n        /* \"#utility.yul\":5800:5809   */\n      dup16\n        /* \"#utility.yul\":5796:5818   */\n      add\n        /* \"#utility.yul\":5775:5828   */\n      tag_197\n      jump\t// in\n    tag_228:\n        /* \"#utility.yul\":5765:5828   */\n      swap5\n      pop\n        /* \"#utility.yul\":5719:5838   */\n      pop\n        /* \"#utility.yul\":5877:5880   */\n      0x0100\n        /* \"#utility.yul\":5904:5957   */\n      tag_229\n        /* \"#utility.yul\":5949:5956   */\n      dup15\n        /* \"#utility.yul\":5940:5946   */\n      dup3\n        /* \"#utility.yul\":5929:5938   */\n      dup16\n        /* \"#utility.yul\":5925:5947   */\n      add\n        /* \"#utility.yul\":5904:5957   */\n      tag_197\n      jump\t// in\n    tag_229:\n        /* \"#utility.yul\":5894:5957   */\n      swap4\n      pop\n        /* \"#utility.yul\":5848:5967   */\n      pop\n        /* \"#utility.yul\":6006:6009   */\n      0x0120\n        /* \"#utility.yul\":6033:6086   */\n      tag_230\n        /* \"#utility.yul\":6078:6085   */\n      dup15\n        /* \"#utility.yul\":6069:6075   */\n      dup3\n        /* \"#utility.yul\":6058:6067   */\n      dup16\n        /* \"#utility.yul\":6054:6076   */\n      add\n        /* \"#utility.yul\":6033:6086   */\n      tag_197\n      jump\t// in\n    tag_230:\n        /* \"#utility.yul\":6023:6086   */\n      swap3\n      pop\n        /* \"#utility.yul\":5977:6096   */\n      pop\n        /* \"#utility.yul\":6135:6138   */\n      0x0140\n        /* \"#utility.yul\":6163:6216   */\n      tag_231\n        /* \"#utility.yul\":6208:6215   */\n      dup15\n        /* \"#utility.yul\":6199:6205   */\n      dup3\n        /* \"#utility.yul\":6188:6197   */\n      dup16\n        /* \"#utility.yul\":6184:6206   */\n      add\n        /* \"#utility.yul\":6163:6216   */\n      tag_170\n      jump\t// in\n    tag_231:\n        /* \"#utility.yul\":6152:6216   */\n      swap2\n      pop\n        /* \"#utility.yul\":6106:6226   */\n      pop\n        /* \"#utility.yul\":4751:6233   */\n      swap3\n      swap6\n      swap9\n      swap12\n      pop\n      swap3\n      swap6\n      swap9\n      swap12\n      swap1\n      swap4\n      swap7\n      swap10\n      pop\n      jump\t// out\n        /* \"#utility.yul\":6239:7449   */\n    tag_23:\n        /* \"#utility.yul\":6360:6366   */\n      0x00\n        /* \"#utility.yul\":6368:6374   */\n      dup1\n        /* \"#utility.yul\":6376:6382   */\n      0x00\n        /* \"#utility.yul\":6384:6390   */\n      dup1\n        /* \"#utility.yul\":6392:6398   */\n      0x00\n        /* \"#utility.yul\":6400:6406   */\n      dup1\n        /* \"#utility.yul\":6449:6452   */\n      0xc0\n        /* \"#utility.yul\":6437:6446   */\n      dup8\n        /* \"#utility.yul\":6428:6435   */\n      dup10\n        /* \"#utility.yul\":6424:6447   */\n      sub\n        /* \"#utility.yul\":6420:6453   */\n      slt\n        /* \"#utility.yul\":6417:6419   */\n      iszero\n      tag_233\n      jumpi\n        /* \"#utility.yul\":6466:6467   */\n      0x00\n        /* \"#utility.yul\":6463:6464   */\n      dup1\n        /* \"#utility.yul\":6456:6468   */\n      revert\n        /* \"#utility.yul\":6417:6419   */\n    tag_233:\n        /* \"#utility.yul\":6509:6510   */\n      0x00\n        /* \"#utility.yul\":6534:6586   */\n      tag_234\n        /* \"#utility.yul\":6578:6585   */\n      dup10\n        /* \"#utility.yul\":6569:6575   */\n      dup3\n        /* \"#utility.yul\":6558:6567   */\n      dup11\n        /* \"#utility.yul\":6554:6576   */\n      add\n        /* \"#utility.yul\":6534:6586   */\n      tag_193\n      jump\t// in\n    tag_234:\n        /* \"#utility.yul\":6524:6586   */\n      swap7\n      pop\n        /* \"#utility.yul\":6480:6596   */\n      pop\n        /* \"#utility.yul\":6663:6665   */\n      0x20\n        /* \"#utility.yul\":6652:6661   */\n      dup8\n        /* \"#utility.yul\":6648:6666   */\n      add\n        /* \"#utility.yul\":6635:6667   */\n      calldataload\n        /* \"#utility.yul\":6694:6712   */\n      0xffffffffffffffff\n        /* \"#utility.yul\":6686:6692   */\n      dup2\n        /* \"#utility.yul\":6683:6713   */\n      gt\n        /* \"#utility.yul\":6680:6682   */\n      iszero\n      tag_235\n      jumpi\n        /* \"#utility.yul\":6726:6727   */\n      0x00\n        /* \"#utility.yul\":6723:6724   */\n      dup1\n        /* \"#utility.yul\":6716:6728   */\n      revert\n        /* \"#utility.yul\":6680:6682   */\n    tag_235:\n        /* \"#utility.yul\":6754:6816   */\n      tag_236\n        /* \"#utility.yul\":6808:6815   */\n      dup10\n        /* \"#utility.yul\":6799:6805   */\n      dup3\n        /* \"#utility.yul\":6788:6797   */\n      dup11\n        /* \"#utility.yul\":6784:6806   */\n      add\n        /* \"#utility.yul\":6754:6816   */\n      tag_189\n      jump\t// in\n    tag_236:\n        /* \"#utility.yul\":6744:6816   */\n      swap6\n      pop\n        /* \"#utility.yul\":6606:6826   */\n      pop\n        /* \"#utility.yul\":6865:6867   */\n      0x40\n        /* \"#utility.yul\":6891:6944   */\n      tag_237\n        /* \"#utility.yul\":6936:6943   */\n      dup10\n        /* \"#utility.yul\":6927:6933   */\n      dup3\n        /* \"#utility.yul\":6916:6925   */\n      dup11\n        /* \"#utility.yul\":6912:6934   */\n      add\n        /* \"#utility.yul\":6891:6944   */\n      tag_197\n      jump\t// in\n    tag_237:\n        /* \"#utility.yul\":6881:6944   */\n      swap5\n      pop\n        /* \"#utility.yul\":6836:6954   */\n      pop\n        /* \"#utility.yul\":6993:6995   */\n      0x60\n        /* \"#utility.yul\":7019:7072   */\n      tag_238\n        /* \"#utility.yul\":7064:7071   */\n      dup10\n        /* \"#utility.yul\":7055:7061   */\n      dup3\n        /* \"#utility.yul\":7044:7053   */\n      dup11\n        /* \"#utility.yul\":7040:7062   */\n      add\n        /* \"#utility.yul\":7019:7072   */\n      tag_170\n      jump\t// in\n    tag_238:\n        /* \"#utility.yul\":7009:7072   */\n      swap4\n      pop\n        /* \"#utility.yul\":6964:7082   */\n      pop\n        /* \"#utility.yul\":7121:7124   */\n      0x80\n        /* \"#utility.yul\":7148:7201   */\n      tag_239\n        /* \"#utility.yul\":7193:7200   */\n      dup10\n        /* \"#utility.yul\":7184:7190   */\n      dup3\n        /* \"#utility.yul\":7173:7182   */\n      dup11\n        /* \"#utility.yul\":7169:7191   */\n      add\n        /* \"#utility.yul\":7148:7201   */\n      tag_197\n      jump\t// in\n    tag_239:\n        /* \"#utility.yul\":7138:7201   */\n      swap3\n      pop\n        /* \"#utility.yul\":7092:7211   */\n      pop\n        /* \"#utility.yul\":7278:7281   */\n      0xa0\n        /* \"#utility.yul\":7267:7276   */\n      dup8\n        /* \"#utility.yul\":7263:7282   */\n      add\n        /* \"#utility.yul\":7250:7283   */\n      calldataload\n        /* \"#utility.yul\":7310:7328   */\n      0xffffffffffffffff\n        /* \"#utility.yul\":7302:7308   */\n      dup2\n        /* \"#utility.yul\":7299:7329   */\n      gt\n        /* \"#utility.yul\":7296:7298   */\n      iszero\n      tag_240\n      jumpi\n        /* \"#utility.yul\":7342:7343   */\n      0x00\n        /* \"#utility.yul\":7339:7340   */\n      dup1\n        /* \"#utility.yul\":7332:7344   */\n      revert\n        /* \"#utility.yul\":7296:7298   */\n    tag_240:\n        /* \"#utility.yul\":7370:7432   */\n      tag_241\n        /* \"#utility.yul\":7424:7431   */\n      dup10\n        /* \"#utility.yul\":7415:7421   */\n      dup3\n        /* \"#utility.yul\":7404:7413   */\n      dup11\n        /* \"#utility.yul\":7400:7422   */\n      add\n        /* \"#utility.yul\":7370:7432   */\n      tag_189\n      jump\t// in\n    tag_241:\n        /* \"#utility.yul\":7360:7432   */\n      swap2\n      pop\n        /* \"#utility.yul\":7221:7442   */\n      pop\n        /* \"#utility.yul\":6407:7449   */\n      swap3\n      swap6\n      pop\n      swap3\n      swap6\n      pop\n      swap3\n      swap6\n      jump\t// out\n        /* \"#utility.yul\":7455:7739   */\n    tag_78:\n        /* \"#utility.yul\":7525:7531   */\n      0x00\n        /* \"#utility.yul\":7574:7576   */\n      0x20\n        /* \"#utility.yul\":7562:7571   */\n      dup3\n        /* \"#utility.yul\":7553:7560   */\n      dup5\n        /* \"#utility.yul\":7549:7572   */\n      sub\n        /* \"#utility.yul\":7545:7577   */\n      slt\n        /* \"#utility.yul\":7542:7544   */\n      iszero\n      tag_243\n      jumpi\n        /* \"#utility.yul\":7590:7591   */\n      0x00\n        /* \"#utility.yul\":7587:7588   */\n      dup1\n        /* \"#utility.yul\":7580:7592   */\n      revert\n        /* \"#utility.yul\":7542:7544   */\n    tag_243:\n        /* \"#utility.yul\":7633:7634   */\n      0x00\n        /* \"#utility.yul\":7658:7722   */\n      tag_244\n        /* \"#utility.yul\":7714:7721   */\n      dup5\n        /* \"#utility.yul\":7705:7711   */\n      dup3\n        /* \"#utility.yul\":7694:7703   */\n      dup6\n        /* \"#utility.yul\":7690:7712   */\n      add\n        /* \"#utility.yul\":7658:7722   */\n      tag_161\n      jump\t// in\n    tag_244:\n        /* \"#utility.yul\":7648:7722   */\n      swap2\n      pop\n        /* \"#utility.yul\":7604:7732   */\n      pop\n        /* \"#utility.yul\":7532:7739   */\n      swap3\n      swap2\n      pop\n      pop\n      jump\t// out\n        /* \"#utility.yul\":7745:7924   */\n    tag_245:\n        /* \"#utility.yul\":7814:7824   */\n      0x00\n        /* \"#utility.yul\":7835:7881   */\n      tag_247\n        /* \"#utility.yul\":7877:7880   */\n      dup4\n        /* \"#utility.yul\":7869:7875   */\n      dup4\n        /* \"#utility.yul\":7835:7881   */\n      tag_248\n      jump\t// in\n    tag_247:\n        /* \"#utility.yul\":7913:7917   */\n      0x20\n        /* \"#utility.yul\":7908:7911   */\n      dup4\n        /* \"#utility.yul\":7904:7918   */\n      add\n        /* \"#utility.yul\":7890:7918   */\n      swap1\n      pop\n        /* \"#utility.yul\":7825:7924   */\n      swap3\n      swap2\n      pop\n      pop\n      jump\t// out\n        /* \"#utility.yul\":7930:8072   */\n    tag_249:\n        /* \"#utility.yul\":8033:8065   */\n      tag_251\n        /* \"#utility.yul\":8059:8064   */\n      dup2\n        /* \"#utility.yul\":8033:8065   */\n      tag_252\n      jump\t// in\n    tag_251:\n        /* \"#utility.yul\":8028:8031   */\n      dup3\n        /* \"#utility.yul\":8021:8066   */\n      mstore\n        /* \"#utility.yul\":8011:8072   */\n      pop\n      pop\n      jump\t// out\n        /* \"#utility.yul\":8078:8186   */\n    tag_248:\n        /* \"#utility.yul\":8155:8179   */\n      tag_254\n        /* \"#utility.yul\":8173:8178   */\n      dup2\n        /* \"#utility.yul\":8155:8179   */\n      tag_255\n      jump\t// in\n    tag_254:\n        /* \"#utility.yul\":8150:8153   */\n      dup3\n        /* \"#utility.yul\":8143:8180   */\n      mstore\n        /* \"#utility.yul\":8133:8186   */\n      pop\n      pop\n      jump\t// out\n        /* \"#utility.yul\":8192:8310   */\n    tag_256:\n        /* \"#utility.yul\":8279:8303   */\n      tag_258\n        /* \"#utility.yul\":8297:8302   */\n      dup2\n        /* \"#utility.yul\":8279:8303   */\n      tag_255\n      jump\t// in\n    tag_258:\n        /* \"#utility.yul\":8274:8277   */\n      dup3\n        /* \"#utility.yul\":8267:8304   */\n      mstore\n        /* \"#utility.yul\":8257:8310   */\n      pop\n      pop\n      jump\t// out\n        /* \"#utility.yul\":8316:8473   */\n    tag_259:\n        /* \"#utility.yul\":8421:8466   */\n      tag_261\n        /* \"#utility.yul\":8441:8465   */\n      tag_262\n        /* \"#utility.yul\":8459:8464   */\n      dup3\n        /* \"#utility.yul\":8441:8465   */\n      tag_255\n      jump\t// in\n    tag_262:\n        /* \"#utility.yul\":8421:8466   */\n      tag_263\n      jump\t// in\n    tag_261:\n        /* \"#utility.yul\":8416:8419   */\n      dup3\n        /* \"#utility.yul\":8409:8467   */\n      mstore\n        /* \"#utility.yul\":8399:8473   */\n      pop\n      pop\n      jump\t// out\n        /* \"#utility.yul\":8509:9241   */\n    tag_264:\n        /* \"#utility.yul\":8628:8631   */\n      0x00\n        /* \"#utility.yul\":8657:8711   */\n      tag_266\n        /* \"#utility.yul\":8705:8710   */\n      dup3\n        /* \"#utility.yul\":8657:8711   */\n      tag_267\n      jump\t// in\n    tag_266:\n        /* \"#utility.yul\":8727:8813   */\n      tag_268\n        /* \"#utility.yul\":8806:8812   */\n      dup2\n        /* \"#utility.yul\":8801:8804   */\n      dup6\n        /* \"#utility.yul\":8727:8813   */\n      tag_269\n      jump\t// in\n    tag_268:\n        /* \"#utility.yul\":8720:8813   */\n      swap4\n      pop\n        /* \"#utility.yul\":8837:8893   */\n      tag_270\n        /* \"#utility.yul\":8887:8892   */\n      dup4\n        /* \"#utility.yul\":8837:8893   */\n      tag_271\n      jump\t// in\n    tag_270:\n        /* \"#utility.yul\":8916:8923   */\n      dup1\n        /* \"#utility.yul\":8947:8948   */\n      0x00\n        /* \"#utility.yul\":8932:9216   */\n    tag_272:\n        /* \"#utility.yul\":8957:8963   */\n      dup4\n        /* \"#utility.yul\":8954:8955   */\n      dup2\n        /* \"#utility.yul\":8951:8964   */\n      lt\n        /* \"#utility.yul\":8932:9216   */\n      iszero\n      tag_274\n      jumpi\n        /* \"#utility.yul\":9033:9039   */\n      dup2\n        /* \"#utility.yul\":9027:9040   */\n      mload\n        /* \"#utility.yul\":9060:9123   */\n      tag_275\n        /* \"#utility.yul\":9119:9122   */\n      dup9\n        /* \"#utility.yul\":9104:9117   */\n      dup3\n        /* \"#utility.yul\":9060:9123   */\n      tag_245\n      jump\t// in\n    tag_275:\n        /* \"#utility.yul\":9053:9123   */\n      swap8\n      pop\n        /* \"#utility.yul\":9146:9206   */\n      tag_276\n        /* \"#utility.yul\":9199:9205   */\n      dup4\n        /* \"#utility.yul\":9146:9206   */\n      tag_277\n      jump\t// in\n    tag_276:\n        /* \"#utility.yul\":9136:9206   */\n      swap3\n      pop\n        /* \"#utility.yul\":8992:9216   */\n      pop\n        /* \"#utility.yul\":8979:8980   */\n      0x01\n        /* \"#utility.yul\":8976:8977   */\n      dup2\n        /* \"#utility.yul\":8972:8981   */\n      add\n        /* \"#utility.yul\":8967:8981   */\n      swap1\n      pop\n        /* \"#utility.yul\":8932:9216   */\n      jump(tag_272)\n    tag_274:\n        /* \"#utility.yul\":8936:8950   */\n      pop\n        /* \"#utility.yul\":9232:9235   */\n      dup6\n        /* \"#utility.yul\":9225:9235   */\n      swap4\n      pop\n        /* \"#utility.yul\":8633:9241   */\n      pop\n      pop\n      pop\n      swap3\n      swap2\n      pop\n      pop\n      jump\t// out\n        /* \"#utility.yul\":9247:9587   */\n    tag_278:\n        /* \"#utility.yul\":9323:9326   */\n      0x00\n        /* \"#utility.yul\":9351:9389   */\n      tag_280\n        /* \"#utility.yul\":9383:9388   */\n      dup3\n        /* \"#utility.yul\":9351:9389   */\n      tag_281\n      jump\t// in\n    tag_280:\n        /* \"#utility.yul\":9405:9465   */\n      tag_282\n        /* \"#utility.yul\":9458:9464   */\n      dup2\n        /* \"#utility.yul\":9453:9456   */\n      dup6\n        /* \"#utility.yul\":9405:9465   */\n      tag_283\n      jump\t// in\n    tag_282:\n        /* \"#utility.yul\":9398:9465   */\n      swap4\n      pop\n        /* \"#utility.yul\":9474:9526   */\n      tag_284\n        /* \"#utility.yul\":9519:9525   */\n      dup2\n        /* \"#utility.yul\":9514:9517   */\n      dup6\n        /* \"#utility.yul\":9507:9511   */\n      0x20\n        /* \"#utility.yul\":9500:9505   */\n      dup7\n        /* \"#utility.yul\":9496:9512   */\n      add\n        /* \"#utility.yul\":9474:9526   */\n      tag_285\n      jump\t// in\n    tag_284:\n        /* \"#utility.yul\":9551:9580   */\n      tag_286\n        /* \"#utility.yul\":9573:9579   */\n      dup2\n        /* \"#utility.yul\":9551:9580   */\n      tag_287\n      jump\t// in\n    tag_286:\n        /* \"#utility.yul\":9546:9549   */\n      dup5\n        /* \"#utility.yul\":9542:9581   */\n      add\n        /* \"#utility.yul\":9535:9581   */\n      swap2\n      pop\n        /* \"#utility.yul\":9327:9587   */\n      pop\n      swap3\n      swap2\n      pop\n      pop\n      jump\t// out\n        /* \"#utility.yul\":9593:9953   */\n    tag_288:\n        /* \"#utility.yul\":9679:9682   */\n      0x00\n        /* \"#utility.yul\":9707:9745   */\n      tag_290\n        /* \"#utility.yul\":9739:9744   */\n      dup3\n        /* \"#utility.yul\":9707:9745   */\n      tag_281\n      jump\t// in\n    tag_290:\n        /* \"#utility.yul\":9761:9831   */\n      tag_291\n        /* \"#utility.yul\":9824:9830   */\n      dup2\n        /* \"#utility.yul\":9819:9822   */\n      dup6\n        /* \"#utility.yul\":9761:9831   */\n      tag_292\n      jump\t// in\n    tag_291:\n        /* \"#utility.yul\":9754:9831   */\n      swap4\n      pop\n        /* \"#utility.yul\":9840:9892   */\n      tag_293\n        /* \"#utility.yul\":9885:9891   */\n      dup2\n        /* \"#utility.yul\":9880:9883   */\n      dup6\n        /* \"#utility.yul\":9873:9877   */\n      0x20\n        /* \"#utility.yul\":9866:9871   */\n      dup7\n        /* \"#utility.yul\":9862:9878   */\n      add\n        /* \"#utility.yul\":9840:9892   */\n      tag_285\n      jump\t// in\n    tag_293:\n        /* \"#utility.yul\":9917:9946   */\n      tag_294\n        /* \"#utility.yul\":9939:9945   */\n      dup2\n        /* \"#utility.yul\":9917:9946   */\n      tag_287\n      jump\t// in\n    tag_294:\n        /* \"#utility.yul\":9912:9915   */\n      dup5\n        /* \"#utility.yul\":9908:9947   */\n      add\n        /* \"#utility.yul\":9901:9947   */\n      swap2\n      pop\n        /* \"#utility.yul\":9683:9953   */\n      pop\n      swap3\n      swap2\n      pop\n      pop\n      jump\t// out\n        /* \"#utility.yul\":9959:10325   */\n    tag_295:\n        /* \"#utility.yul\":10101:10104   */\n      0x00\n        /* \"#utility.yul\":10122:10189   */\n      tag_297\n        /* \"#utility.yul\":10186:10188   */\n      0x2f\n        /* \"#utility.yul\":10181:10184   */\n      dup4\n        /* \"#utility.yul\":10122:10189   */\n      tag_298\n      jump\t// in\n    tag_297:\n        /* \"#utility.yul\":10115:10189   */\n      swap2\n      pop\n        /* \"#utility.yul\":10198:10291   */\n      tag_299\n        /* \"#utility.yul\":10287:10290   */\n      dup3\n        /* \"#utility.yul\":10198:10291   */\n      tag_300\n      jump\t// in\n    tag_299:\n        /* \"#utility.yul\":10316:10318   */\n      0x40\n        /* \"#utility.yul\":10311:10314   */\n      dup3\n        /* \"#utility.yul\":10307:10319   */\n      add\n        /* \"#utility.yul\":10300:10319   */\n      swap1\n      pop\n        /* \"#utility.yul\":10105:10325   */\n      swap2\n      swap1\n      pop\n      jump\t// out\n        /* \"#utility.yul\":10331:10697   */\n    tag_301:\n        /* \"#utility.yul\":10473:10476   */\n      0x00\n        /* \"#utility.yul\":10494:10561   */\n      tag_303\n        /* \"#utility.yul\":10558:10560   */\n      0x28\n        /* \"#utility.yul\":10553:10556   */\n      dup4\n        /* \"#utility.yul\":10494:10561   */\n      tag_298\n      jump\t// in\n    tag_303:\n        /* \"#utility.yul\":10487:10561   */\n      swap2\n      pop\n        /* \"#utility.yul\":10570:10663   */\n      tag_304\n        /* \"#utility.yul\":10659:10662   */\n      dup3\n        /* \"#utility.yul\":10570:10663   */\n      tag_305\n      jump\t// in\n    tag_304:\n        /* \"#utility.yul\":10688:10690   */\n      0x40\n        /* \"#utility.yul\":10683:10686   */\n      dup3\n        /* \"#utility.yul\":10679:10691   */\n      add\n        /* \"#utility.yul\":10672:10691   */\n      swap1\n      pop\n        /* \"#utility.yul\":10477:10697   */\n      swap2\n      swap1\n      pop\n      jump\t// out\n        /* \"#utility.yul\":10703:11069   */\n    tag_306:\n        /* \"#utility.yul\":10845:10848   */\n      0x00\n        /* \"#utility.yul\":10866:10933   */\n      tag_308\n        /* \"#utility.yul\":10930:10932   */\n      0x25\n        /* \"#utility.yul\":10925:10928   */\n      dup4\n        /* \"#utility.yul\":10866:10933   */\n      tag_298\n      jump\t// in\n    tag_308:\n        /* \"#utility.yul\":10859:10933   */\n      swap2\n      pop\n        /* \"#utility.yul\":10942:11035   */\n      tag_309\n        /* \"#utility.yul\":11031:11034   */\n      dup3\n        /* \"#utility.yul\":10942:11035   */\n      tag_310\n      jump\t// in\n    tag_309:\n        /* \"#utility.yul\":11060:11062   */\n      0x40\n        /* \"#utility.yul\":11055:11058   */\n      dup3\n        /* \"#utility.yul\":11051:11063   */\n      add\n        /* \"#utility.yul\":11044:11063   */\n      swap1\n      pop\n        /* \"#utility.yul\":10849:11069   */\n      swap2\n      swap1\n      pop\n      jump\t// out\n        /* \"#utility.yul\":11075:11441   */\n    tag_311:\n        /* \"#utility.yul\":11217:11220   */\n      0x00\n        /* \"#utility.yul\":11238:11305   */\n      tag_313\n        /* \"#utility.yul\":11302:11304   */\n      0x39\n        /* \"#utility.yul\":11297:11300   */\n      dup4\n        /* \"#utility.yul\":11238:11305   */\n      tag_298\n      jump\t// in\n    tag_313:\n        /* \"#utility.yul\":11231:11305   */\n      swap2\n      pop\n        /* \"#utility.yul\":11314:11407   */\n      tag_314\n        /* \"#utility.yul\":11403:11406   */\n      dup3\n        /* \"#utility.yul\":11314:11407   */\n      tag_315\n      jump\t// in\n    tag_314:\n        /* \"#utility.yul\":11432:11434   */\n      0x40\n        /* \"#utility.yul\":11427:11430   */\n      dup3\n        /* \"#utility.yul\":11423:11435   */\n      add\n        /* \"#utility.yul\":11416:11435   */\n      swap1\n      pop\n        /* \"#utility.yul\":11221:11441   */\n      swap2\n      swap1\n      pop\n      jump\t// out\n        /* \"#utility.yul\":11519:12326   */\n    tag_316:\n        /* \"#utility.yul\":11638:11641   */\n      0x00\n        /* \"#utility.yul\":11674:11678   */\n      0x60\n        /* \"#utility.yul\":11669:11672   */\n      dup4\n        /* \"#utility.yul\":11665:11679   */\n      add\n        /* \"#utility.yul\":11770:11774   */\n      0x00\n        /* \"#utility.yul\":11763:11768   */\n      dup4\n        /* \"#utility.yul\":11759:11775   */\n      add\n        /* \"#utility.yul\":11753:11776   */\n      mload\n        /* \"#utility.yul\":11789:11852   */\n      tag_318\n        /* \"#utility.yul\":11846:11850   */\n      0x00\n        /* \"#utility.yul\":11841:11844   */\n      dup7\n        /* \"#utility.yul\":11837:11851   */\n      add\n        /* \"#utility.yul\":11823:11835   */\n      dup3\n        /* \"#utility.yul\":11789:11852   */\n      tag_319\n      jump\t// in\n    tag_318:\n        /* \"#utility.yul\":11689:11862   */\n      pop\n        /* \"#utility.yul\":11955:11959   */\n      0x20\n        /* \"#utility.yul\":11948:11953   */\n      dup4\n        /* \"#utility.yul\":11944:11960   */\n      add\n        /* \"#utility.yul\":11938:11961   */\n      mload\n        /* \"#utility.yul\":11974:12037   */\n      tag_320\n        /* \"#utility.yul\":12031:12035   */\n      0x20\n        /* \"#utility.yul\":12026:12029   */\n      dup7\n        /* \"#utility.yul\":12022:12036   */\n      add\n        /* \"#utility.yul\":12008:12020   */\n      dup3\n        /* \"#utility.yul\":11974:12037   */\n      tag_319\n      jump\t// in\n    tag_320:\n        /* \"#utility.yul\":11872:12047   */\n      pop\n        /* \"#utility.yul\":12138:12142   */\n      0x40\n        /* \"#utility.yul\":12131:12136   */\n      dup4\n        /* \"#utility.yul\":12127:12143   */\n      add\n        /* \"#utility.yul\":12121:12144   */\n      mload\n        /* \"#utility.yul\":12191:12194   */\n      dup5\n        /* \"#utility.yul\":12185:12189   */\n      dup3\n        /* \"#utility.yul\":12181:12195   */\n      sub\n        /* \"#utility.yul\":12174:12178   */\n      0x40\n        /* \"#utility.yul\":12169:12172   */\n      dup7\n        /* \"#utility.yul\":12165:12179   */\n      add\n        /* \"#utility.yul\":12158:12196   */\n      mstore\n        /* \"#utility.yul\":12217:12288   */\n      tag_321\n        /* \"#utility.yul\":12283:12287   */\n      dup3\n        /* \"#utility.yul\":12269:12281   */\n      dup3\n        /* \"#utility.yul\":12217:12288   */\n      tag_278\n      jump\t// in\n    tag_321:\n        /* \"#utility.yul\":12209:12288   */\n      swap2\n      pop\n        /* \"#utility.yul\":12057:12299   */\n      pop\n        /* \"#utility.yul\":12316:12320   */\n      dup1\n        /* \"#utility.yul\":12309:12320   */\n      swap2\n      pop\n        /* \"#utility.yul\":11643:12326   */\n      pop\n      swap3\n      swap2\n      pop\n      pop\n      jump\t// out\n        /* \"#utility.yul\":12332:12447   */\n    tag_322:\n        /* \"#utility.yul\":12417:12440   */\n      tag_324\n        /* \"#utility.yul\":12434:12439   */\n      dup2\n        /* \"#utility.yul\":12417:12440   */\n      tag_325\n      jump\t// in\n    tag_324:\n        /* \"#utility.yul\":12412:12415   */\n      dup3\n        /* \"#utility.yul\":12405:12441   */\n      mstore\n        /* \"#utility.yul\":12395:12447   */\n      pop\n      pop\n      jump\t// out\n        /* \"#utility.yul\":12453:12582   */\n    tag_326:\n        /* \"#utility.yul\":12539:12575   */\n      tag_328\n        /* \"#utility.yul\":12569:12574   */\n      dup2\n        /* \"#utility.yul\":12539:12575   */\n      tag_329\n      jump\t// in\n    tag_328:\n        /* \"#utility.yul\":12534:12537   */\n      dup3\n        /* \"#utility.yul\":12527:12576   */\n      mstore\n        /* \"#utility.yul\":12517:12582   */\n      pop\n      pop\n      jump\t// out\n        /* \"#utility.yul\":12588:12696   */\n    tag_319:\n        /* \"#utility.yul\":12665:12689   */\n      tag_331\n        /* \"#utility.yul\":12683:12688   */\n      dup2\n        /* \"#utility.yul\":12665:12689   */\n      tag_332\n      jump\t// in\n    tag_331:\n        /* \"#utility.yul\":12660:12663   */\n      dup3\n        /* \"#utility.yul\":12653:12690   */\n      mstore\n        /* \"#utility.yul\":12643:12696   */\n      pop\n      pop\n      jump\t// out\n        /* \"#utility.yul\":12702:12820   */\n    tag_333:\n        /* \"#utility.yul\":12789:12813   */\n      tag_335\n        /* \"#utility.yul\":12807:12812   */\n      dup2\n        /* \"#utility.yul\":12789:12813   */\n      tag_332\n      jump\t// in\n    tag_335:\n        /* \"#utility.yul\":12784:12787   */\n      dup3\n        /* \"#utility.yul\":12777:12814   */\n      mstore\n        /* \"#utility.yul\":12767:12820   */\n      pop\n      pop\n      jump\t// out\n        /* \"#utility.yul\":12826:13082   */\n    tag_140:\n        /* \"#utility.yul\":12938:12941   */\n      0x00\n        /* \"#utility.yul\":12953:13028   */\n      tag_337\n        /* \"#utility.yul\":13024:13027   */\n      dup3\n        /* \"#utility.yul\":13015:13021   */\n      dup5\n        /* \"#utility.yul\":12953:13028   */\n      tag_259\n      jump\t// in\n    tag_337:\n        /* \"#utility.yul\":13053:13055   */\n      0x14\n        /* \"#utility.yul\":13048:13051   */\n      dup3\n        /* \"#utility.yul\":13044:13056   */\n      add\n        /* \"#utility.yul\":13037:13056   */\n      swap2\n      pop\n        /* \"#utility.yul\":13073:13076   */\n      dup2\n        /* \"#utility.yul\":13066:13076   */\n      swap1\n      pop\n        /* \"#utility.yul\":12942:13082   */\n      swap3\n      swap2\n      pop\n      pop\n      jump\t// out\n        /* \"#utility.yul\":13088:13310   */\n    tag_11:\n        /* \"#utility.yul\":13181:13185   */\n      0x00\n        /* \"#utility.yul\":13219:13221   */\n      0x20\n        /* \"#utility.yul\":13208:13217   */\n      dup3\n        /* \"#utility.yul\":13204:13222   */\n      add\n        /* \"#utility.yul\":13196:13222   */\n      swap1\n      pop\n        /* \"#utility.yul\":13232:13303   */\n      tag_339\n        /* \"#utility.yul\":13300:13301   */\n      0x00\n        /* \"#utility.yul\":13289:13298   */\n      dup4\n        /* \"#utility.yul\":13285:13302   */\n      add\n        /* \"#utility.yul\":13276:13282   */\n      dup5\n        /* \"#utility.yul\":13232:13303   */\n      tag_256\n      jump\t// in\n    tag_339:\n        /* \"#utility.yul\":13186:13310   */\n      swap3\n      swap2\n      pop\n      pop\n      jump\t// out\n        /* \"#utility.yul\":13316:13648   */\n    tag_36:\n        /* \"#utility.yul\":13437:13441   */\n      0x00\n        /* \"#utility.yul\":13475:13477   */\n      0x40\n        /* \"#utility.yul\":13464:13473   */\n      dup3\n        /* \"#utility.yul\":13460:13478   */\n      add\n        /* \"#utility.yul\":13452:13478   */\n      swap1\n      pop\n        /* \"#utility.yul\":13488:13559   */\n      tag_341\n        /* \"#utility.yul\":13556:13557   */\n      0x00\n        /* \"#utility.yul\":13545:13554   */\n      dup4\n        /* \"#utility.yul\":13541:13558   */\n      add\n        /* \"#utility.yul\":13532:13538   */\n      dup6\n        /* \"#utility.yul\":13488:13559   */\n      tag_256\n      jump\t// in\n    tag_341:\n        /* \"#utility.yul\":13569:13641   */\n      tag_342\n        /* \"#utility.yul\":13637:13639   */\n      0x20\n        /* \"#utility.yul\":13626:13635   */\n      dup4\n        /* \"#utility.yul\":13622:13640   */\n      add\n        /* \"#utility.yul\":13613:13619   */\n      dup5\n        /* \"#utility.yul\":13569:13641   */\n      tag_333\n      jump\t// in\n    tag_342:\n        /* \"#utility.yul\":13442:13648   */\n      swap4\n      swap3\n      pop\n      pop\n      pop\n      jump\t// out\n        /* \"#utility.yul\":13654:14207   */\n    tag_137:\n        /* \"#utility.yul\":13831:13835   */\n      0x00\n        /* \"#utility.yul\":13869:13872   */\n      0x80\n        /* \"#utility.yul\":13858:13867   */\n      dup3\n        /* \"#utility.yul\":13854:13873   */\n      add\n        /* \"#utility.yul\":13846:13873   */\n      swap1\n      pop\n        /* \"#utility.yul\":13883:13954   */\n      tag_344\n        /* \"#utility.yul\":13951:13952   */\n      0x00\n        /* \"#utility.yul\":13940:13949   */\n      dup4\n        /* \"#utility.yul\":13936:13953   */\n      add\n        /* \"#utility.yul\":13927:13933   */\n      dup8\n        /* \"#utility.yul\":13883:13954   */\n      tag_256\n      jump\t// in\n    tag_344:\n        /* \"#utility.yul\":13964:14036   */\n      tag_345\n        /* \"#utility.yul\":14032:14034   */\n      0x20\n        /* \"#utility.yul\":14021:14030   */\n      dup4\n        /* \"#utility.yul\":14017:14035   */\n      add\n        /* \"#utility.yul\":14008:14014   */\n      dup7\n        /* \"#utility.yul\":13964:14036   */\n      tag_333\n      jump\t// in\n    tag_345:\n        /* \"#utility.yul\":14046:14118   */\n      tag_346\n        /* \"#utility.yul\":14114:14116   */\n      0x40\n        /* \"#utility.yul\":14103:14112   */\n      dup4\n        /* \"#utility.yul\":14099:14117   */\n      add\n        /* \"#utility.yul\":14090:14096   */\n      dup6\n        /* \"#utility.yul\":14046:14118   */\n      tag_333\n      jump\t// in\n    tag_346:\n        /* \"#utility.yul\":14128:14200   */\n      tag_347\n        /* \"#utility.yul\":14196:14198   */\n      0x60\n        /* \"#utility.yul\":14185:14194   */\n      dup4\n        /* \"#utility.yul\":14181:14199   */\n      add\n        /* \"#utility.yul\":14172:14178   */\n      dup5\n        /* \"#utility.yul\":14128:14200   */\n      tag_256\n      jump\t// in\n    tag_347:\n        /* \"#utility.yul\":13836:14207   */\n      swap6\n      swap5\n      pop\n      pop\n      pop\n      pop\n      pop\n      jump\t// out\n        /* \"#utility.yul\":14213:14632   */\n    tag_112:\n        /* \"#utility.yul\":14379:14383   */\n      0x00\n        /* \"#utility.yul\":14417:14419   */\n      0x20\n        /* \"#utility.yul\":14406:14415   */\n      dup3\n        /* \"#utility.yul\":14402:14420   */\n      add\n        /* \"#utility.yul\":14394:14420   */\n      swap1\n      pop\n        /* \"#utility.yul\":14466:14475   */\n      dup2\n        /* \"#utility.yul\":14460:14464   */\n      dup2\n        /* \"#utility.yul\":14456:14476   */\n      sub\n        /* \"#utility.yul\":14452:14453   */\n      0x00\n        /* \"#utility.yul\":14441:14450   */\n      dup4\n        /* \"#utility.yul\":14437:14454   */\n      add\n        /* \"#utility.yul\":14430:14477   */\n      mstore\n        /* \"#utility.yul\":14494:14625   */\n      tag_349\n        /* \"#utility.yul\":14620:14624   */\n      dup2\n        /* \"#utility.yul\":14494:14625   */\n      tag_295\n      jump\t// in\n    tag_349:\n        /* \"#utility.yul\":14486:14625   */\n      swap1\n      pop\n        /* \"#utility.yul\":14384:14632   */\n      swap2\n      swap1\n      pop\n      jump\t// out\n        /* \"#utility.yul\":14638:15057   */\n    tag_32:\n        /* \"#utility.yul\":14804:14808   */\n      0x00\n        /* \"#utility.yul\":14842:14844   */\n      0x20\n        /* \"#utility.yul\":14831:14840   */\n      dup3\n        /* \"#utility.yul\":14827:14845   */\n      add\n        /* \"#utility.yul\":14819:14845   */\n      swap1\n      pop\n        /* \"#utility.yul\":14891:14900   */\n      dup2\n        /* \"#utility.yul\":14885:14889   */\n      dup2\n        /* \"#utility.yul\":14881:14901   */\n      sub\n        /* \"#utility.yul\":14877:14878   */\n      0x00\n        /* \"#utility.yul\":14866:14875   */\n      dup4\n        /* \"#utility.yul\":14862:14879   */\n      add\n        /* \"#utility.yul\":14855:14902   */\n      mstore\n        /* \"#utility.yul\":14919:15050   */\n      tag_351\n        /* \"#utility.yul\":15045:15049   */\n      dup2\n        /* \"#utility.yul\":14919:15050   */\n      tag_301\n      jump\t// in\n    tag_351:\n        /* \"#utility.yul\":14911:15050   */\n      swap1\n      pop\n        /* \"#utility.yul\":14809:15057   */\n      swap2\n      swap1\n      pop\n      jump\t// out\n        /* \"#utility.yul\":15063:15482   */\n    tag_108:\n        /* \"#utility.yul\":15229:15233   */\n      0x00\n        /* \"#utility.yul\":15267:15269   */\n      0x20\n        /* \"#utility.yul\":15256:15265   */\n      dup3\n        /* \"#utility.yul\":15252:15270   */\n      add\n        /* \"#utility.yul\":15244:15270   */\n      swap1\n      pop\n        /* \"#utility.yul\":15316:15325   */\n      dup2\n        /* \"#utility.yul\":15310:15314   */\n      dup2\n        /* \"#utility.yul\":15306:15326   */\n      sub\n        /* \"#utility.yul\":15302:15303   */\n      0x00\n        /* \"#utility.yul\":15291:15300   */\n      dup4\n        /* \"#utility.yul\":15287:15304   */\n      add\n        /* \"#utility.yul\":15280:15327   */\n      mstore\n        /* \"#utility.yul\":15344:15475   */\n      tag_353\n        /* \"#utility.yul\":15470:15474   */\n      dup2\n        /* \"#utility.yul\":15344:15475   */\n      tag_306\n      jump\t// in\n    tag_353:\n        /* \"#utility.yul\":15336:15475   */\n      swap1\n      pop\n        /* \"#utility.yul\":15234:15482   */\n      swap2\n      swap1\n      pop\n      jump\t// out\n        /* \"#utility.yul\":15488:15907   */\n    tag_130:\n        /* \"#utility.yul\":15654:15658   */\n      0x00\n        /* \"#utility.yul\":15692:15694   */\n      0x20\n        /* \"#utility.yul\":15681:15690   */\n      dup3\n        /* \"#utility.yul\":15677:15695   */\n      add\n        /* \"#utility.yul\":15669:15695   */\n      swap1\n      pop\n        /* \"#utility.yul\":15741:15750   */\n      dup2\n        /* \"#utility.yul\":15735:15739   */\n      dup2\n        /* \"#utility.yul\":15731:15751   */\n      sub\n        /* \"#utility.yul\":15727:15728   */\n      0x00\n        /* \"#utility.yul\":15716:15725   */\n      dup4\n        /* \"#utility.yul\":15712:15729   */\n      add\n        /* \"#utility.yul\":15705:15752   */\n      mstore\n        /* \"#utility.yul\":15769:15900   */\n      tag_355\n        /* \"#utility.yul\":15895:15899   */\n      dup2\n        /* \"#utility.yul\":15769:15900   */\n      tag_311\n      jump\t// in\n    tag_355:\n        /* \"#utility.yul\":15761:15900   */\n      swap1\n      pop\n        /* \"#utility.yul\":15659:15907   */\n      swap2\n      swap1\n      pop\n      jump\t// out\n        /* \"#utility.yul\":15913:17370   */\n    tag_142:\n        /* \"#utility.yul\":16328:16332   */\n      0x00\n        /* \"#utility.yul\":16366:16369   */\n      0x0120\n        /* \"#utility.yul\":16355:16364   */\n      dup3\n        /* \"#utility.yul\":16351:16370   */\n      add\n        /* \"#utility.yul\":16343:16370   */\n      swap1\n      pop\n        /* \"#utility.yul\":16380:16449   */\n      tag_357\n        /* \"#utility.yul\":16446:16447   */\n      0x00\n        /* \"#utility.yul\":16435:16444   */\n      dup4\n        /* \"#utility.yul\":16431:16448   */\n      add\n        /* \"#utility.yul\":16422:16428   */\n      dup13\n        /* \"#utility.yul\":16380:16449   */\n      tag_322\n      jump\t// in\n    tag_357:\n        /* \"#utility.yul\":16459:16530   */\n      tag_358\n        /* \"#utility.yul\":16526:16528   */\n      0x20\n        /* \"#utility.yul\":16515:16524   */\n      dup4\n        /* \"#utility.yul\":16511:16529   */\n      add\n        /* \"#utility.yul\":16502:16508   */\n      dup12\n        /* \"#utility.yul\":16459:16530   */\n      tag_326\n      jump\t// in\n    tag_358:\n        /* \"#utility.yul\":16540:16611   */\n      tag_359\n        /* \"#utility.yul\":16607:16609   */\n      0x40\n        /* \"#utility.yul\":16596:16605   */\n      dup4\n        /* \"#utility.yul\":16592:16610   */\n      add\n        /* \"#utility.yul\":16583:16589   */\n      dup11\n        /* \"#utility.yul\":16540:16611   */\n      tag_326\n      jump\t// in\n    tag_359:\n        /* \"#utility.yul\":16621:16709   */\n      tag_360\n        /* \"#utility.yul\":16705:16707   */\n      0x60\n        /* \"#utility.yul\":16694:16703   */\n      dup4\n        /* \"#utility.yul\":16690:16708   */\n      add\n        /* \"#utility.yul\":16681:16687   */\n      dup10\n        /* \"#utility.yul\":16621:16709   */\n      tag_249\n      jump\t// in\n    tag_360:\n        /* \"#utility.yul\":16719:16792   */\n      tag_361\n        /* \"#utility.yul\":16787:16790   */\n      0x80\n        /* \"#utility.yul\":16776:16785   */\n      dup4\n        /* \"#utility.yul\":16772:16791   */\n      add\n        /* \"#utility.yul\":16763:16769   */\n      dup9\n        /* \"#utility.yul\":16719:16792   */\n      tag_333\n      jump\t// in\n    tag_361:\n        /* \"#utility.yul\":16802:16875   */\n      tag_362\n        /* \"#utility.yul\":16870:16873   */\n      0xa0\n        /* \"#utility.yul\":16859:16868   */\n      dup4\n        /* \"#utility.yul\":16855:16874   */\n      add\n        /* \"#utility.yul\":16846:16852   */\n      dup8\n        /* \"#utility.yul\":16802:16875   */\n      tag_333\n      jump\t// in\n    tag_362:\n        /* \"#utility.yul\":16923:16932   */\n      dup2\n        /* \"#utility.yul\":16917:16921   */\n      dup2\n        /* \"#utility.yul\":16913:16933   */\n      sub\n        /* \"#utility.yul\":16907:16910   */\n      0xc0\n        /* \"#utility.yul\":16896:16905   */\n      dup4\n        /* \"#utility.yul\":16892:16911   */\n      add\n        /* \"#utility.yul\":16885:16934   */\n      mstore\n        /* \"#utility.yul\":16951:17059   */\n      tag_363\n        /* \"#utility.yul\":17054:17058   */\n      dup2\n        /* \"#utility.yul\":17045:17051   */\n      dup7\n        /* \"#utility.yul\":16951:17059   */\n      tag_316\n      jump\t// in\n    tag_363:\n        /* \"#utility.yul\":16943:17059   */\n      swap1\n      pop\n        /* \"#utility.yul\":17107:17116   */\n      dup2\n        /* \"#utility.yul\":17101:17105   */\n      dup2\n        /* \"#utility.yul\":17097:17117   */\n      sub\n        /* \"#utility.yul\":17091:17094   */\n      0xe0\n        /* \"#utility.yul\":17080:17089   */\n      dup4\n        /* \"#utility.yul\":17076:17095   */\n      add\n        /* \"#utility.yul\":17069:17118   */\n      mstore\n        /* \"#utility.yul\":17135:17211   */\n      tag_364\n        /* \"#utility.yul\":17206:17210   */\n      dup2\n        /* \"#utility.yul\":17197:17203   */\n      dup6\n        /* \"#utility.yul\":17135:17211   */\n      tag_288\n      jump\t// in\n    tag_364:\n        /* \"#utility.yul\":17127:17211   */\n      swap1\n      pop\n        /* \"#utility.yul\":17259:17268   */\n      dup2\n        /* \"#utility.yul\":17253:17257   */\n      dup2\n        /* \"#utility.yul\":17249:17269   */\n      sub\n        /* \"#utility.yul\":17243:17246   */\n      0x0100\n        /* \"#utility.yul\":17232:17241   */\n      dup4\n        /* \"#utility.yul\":17228:17247   */\n      add\n        /* \"#utility.yul\":17221:17270   */\n      mstore\n        /* \"#utility.yul\":17287:17363   */\n      tag_365\n        /* \"#utility.yul\":17358:17362   */\n      dup2\n        /* \"#utility.yul\":17349:17355   */\n      dup5\n        /* \"#utility.yul\":17287:17363   */\n      tag_288\n      jump\t// in\n    tag_365:\n        /* \"#utility.yul\":17279:17363   */\n      swap1\n      pop\n        /* \"#utility.yul\":16333:17370   */\n      swap11\n      swap10\n      pop\n      pop\n      pop\n      pop\n      pop\n      pop\n      pop\n      pop\n      pop\n      pop\n      jump\t// out\n        /* \"#utility.yul\":17376:18080   */\n    tag_122:\n        /* \"#utility.yul\":17603:17607   */\n      0x00\n        /* \"#utility.yul\":17641:17644   */\n      0x80\n        /* \"#utility.yul\":17630:17639   */\n      dup3\n        /* \"#utility.yul\":17626:17645   */\n      add\n        /* \"#utility.yul\":17618:17645   */\n      swap1\n      pop\n        /* \"#utility.yul\":17655:17726   */\n      tag_367\n        /* \"#utility.yul\":17723:17724   */\n      0x00\n        /* \"#utility.yul\":17712:17721   */\n      dup4\n        /* \"#utility.yul\":17708:17725   */\n      add\n        /* \"#utility.yul\":17699:17705   */\n      dup8\n        /* \"#utility.yul\":17655:17726   */\n      tag_333\n      jump\t// in\n    tag_367:\n        /* \"#utility.yul\":17773:17782   */\n      dup2\n        /* \"#utility.yul\":17767:17771   */\n      dup2\n        /* \"#utility.yul\":17763:17783   */\n      sub\n        /* \"#utility.yul\":17758:17760   */\n      0x20\n        /* \"#utility.yul\":17747:17756   */\n      dup4\n        /* \"#utility.yul\":17743:17761   */\n      add\n        /* \"#utility.yul\":17736:17784   */\n      mstore\n        /* \"#utility.yul\":17801:17909   */\n      tag_368\n        /* \"#utility.yul\":17904:17908   */\n      dup2\n        /* \"#utility.yul\":17895:17901   */\n      dup7\n        /* \"#utility.yul\":17801:17909   */\n      tag_264\n      jump\t// in\n    tag_368:\n        /* \"#utility.yul\":17793:17909   */\n      swap1\n      pop\n        /* \"#utility.yul\":17919:17991   */\n      tag_369\n        /* \"#utility.yul\":17987:17989   */\n      0x40\n        /* \"#utility.yul\":17976:17985   */\n      dup4\n        /* \"#utility.yul\":17972:17990   */\n      add\n        /* \"#utility.yul\":17963:17969   */\n      dup6\n        /* \"#utility.yul\":17919:17991   */\n      tag_256\n      jump\t// in\n    tag_369:\n        /* \"#utility.yul\":18001:18073   */\n      tag_370\n        /* \"#utility.yul\":18069:18071   */\n      0x60\n        /* \"#utility.yul\":18058:18067   */\n      dup4\n        /* \"#utility.yul\":18054:18072   */\n      add\n        /* \"#utility.yul\":18045:18051   */\n      dup5\n        /* \"#utility.yul\":18001:18073   */\n      tag_333\n      jump\t// in\n    tag_370:\n        /* \"#utility.yul\":17608:18080   */\n      swap6\n      swap5\n      pop\n      pop\n      pop\n      pop\n      pop\n      jump\t// out\n        /* \"#utility.yul\":18086:18901   */\n    tag_53:\n        /* \"#utility.yul\":18341:18345   */\n      0x00\n        /* \"#utility.yul\":18379:18382   */\n      0xa0\n        /* \"#utility.yul\":18368:18377   */\n      dup3\n        /* \"#utility.yul\":18364:18383   */\n      add\n        /* \"#utility.yul\":18356:18383   */\n      swap1\n      pop\n        /* \"#utility.yul\":18393:18464   */\n      tag_372\n        /* \"#utility.yul\":18461:18462   */\n      0x00\n        /* \"#utility.yul\":18450:18459   */\n      dup4\n        /* \"#utility.yul\":18446:18463   */\n      add\n        /* \"#utility.yul\":18437:18443   */\n      dup9\n        /* \"#utility.yul\":18393:18464   */\n      tag_333\n      jump\t// in\n    tag_372:\n        /* \"#utility.yul\":18474:18546   */\n      tag_373\n        /* \"#utility.yul\":18542:18544   */\n      0x20\n        /* \"#utility.yul\":18531:18540   */\n      dup4\n        /* \"#utility.yul\":18527:18545   */\n      add\n        /* \"#utility.yul\":18518:18524   */\n      dup8\n        /* \"#utility.yul\":18474:18546   */\n      tag_333\n      jump\t// in\n    tag_373:\n        /* \"#utility.yul\":18593:18602   */\n      dup2\n        /* \"#utility.yul\":18587:18591   */\n      dup2\n        /* \"#utility.yul\":18583:18603   */\n      sub\n        /* \"#utility.yul\":18578:18580   */\n      0x40\n        /* \"#utility.yul\":18567:18576   */\n      dup4\n        /* \"#utility.yul\":18563:18581   */\n      add\n        /* \"#utility.yul\":18556:18604   */\n      mstore\n        /* \"#utility.yul\":18621:18729   */\n      tag_374\n        /* \"#utility.yul\":18724:18728   */\n      dup2\n        /* \"#utility.yul\":18715:18721   */\n      dup7\n        /* \"#utility.yul\":18621:18729   */\n      tag_264\n      jump\t// in\n    tag_374:\n        /* \"#utility.yul\":18613:18729   */\n      swap1\n      pop\n        /* \"#utility.yul\":18739:18811   */\n      tag_375\n        /* \"#utility.yul\":18807:18809   */\n      0x60\n        /* \"#utility.yul\":18796:18805   */\n      dup4\n        /* \"#utility.yul\":18792:18810   */\n      add\n        /* \"#utility.yul\":18783:18789   */\n      dup6\n        /* \"#utility.yul\":18739:18811   */\n      tag_256\n      jump\t// in\n    tag_375:\n        /* \"#utility.yul\":18821:18894   */\n      tag_376\n        /* \"#utility.yul\":18889:18892   */\n      0x80\n        /* \"#utility.yul\":18878:18887   */\n      dup4\n        /* \"#utility.yul\":18874:18893   */\n      add\n        /* \"#utility.yul\":18865:18871   */\n      dup5\n        /* \"#utility.yul\":18821:18894   */\n      tag_333\n      jump\t// in\n    tag_376:\n        /* \"#utility.yul\":18346:18901   */\n      swap7\n      swap6\n      pop\n      pop\n      pop\n      pop\n      pop\n      pop\n      jump\t// out\n        /* \"#utility.yul\":18907:19036   */\n    tag_155:\n        /* \"#utility.yul\":18941:18947   */\n      0x00\n        /* \"#utility.yul\":18968:18988   */\n      tag_378\n      tag_379\n      jump\t// in\n    tag_378:\n        /* \"#utility.yul\":18958:18988   */\n      swap1\n      pop\n        /* \"#utility.yul\":18997:19030   */\n      tag_380\n        /* \"#utility.yul\":19025:19029   */\n      dup3\n        /* \"#utility.yul\":19017:19023   */\n      dup3\n        /* \"#utility.yul\":18997:19030   */\n      tag_381\n      jump\t// in\n    tag_380:\n        /* \"#utility.yul\":18948:19036   */\n      swap2\n      swap1\n      pop\n      jump\t// out\n        /* \"#utility.yul\":19042:19117   */\n    tag_379:\n        /* \"#utility.yul\":19075:19081   */\n      0x00\n        /* \"#utility.yul\":19108:19110   */\n      0x40\n        /* \"#utility.yul\":19102:19111   */\n      mload\n        /* \"#utility.yul\":19092:19111   */\n      swap1\n      pop\n        /* \"#utility.yul\":19082:19117   */\n      swap1\n      jump\t// out\n        /* \"#utility.yul\":19123:19434   */\n    tag_154:\n        /* \"#utility.yul\":19200:19204   */\n      0x00\n        /* \"#utility.yul\":19290:19308   */\n      0xffffffffffffffff\n        /* \"#utility.yul\":19282:19288   */\n      dup3\n        /* \"#utility.yul\":19279:19309   */\n      gt\n        /* \"#utility.yul\":19276:19278   */\n      iszero\n      tag_384\n      jumpi\n        /* \"#utility.yul\":19312:19330   */\n      tag_385\n      tag_386\n      jump\t// in\n    tag_385:\n        /* \"#utility.yul\":19276:19278   */\n    tag_384:\n        /* \"#utility.yul\":19362:19366   */\n      0x20\n        /* \"#utility.yul\":19354:19360   */\n      dup3\n        /* \"#utility.yul\":19350:19367   */\n      mul\n        /* \"#utility.yul\":19342:19367   */\n      swap1\n      pop\n        /* \"#utility.yul\":19422:19426   */\n      0x20\n        /* \"#utility.yul\":19416:19420   */\n      dup2\n        /* \"#utility.yul\":19412:19427   */\n      add\n        /* \"#utility.yul\":19404:19427   */\n      swap1\n      pop\n        /* \"#utility.yul\":19205:19434   */\n      swap2\n      swap1\n      pop\n      jump\t// out\n        /* \"#utility.yul\":19440:19747   */\n    tag_166:\n        /* \"#utility.yul\":19501:19505   */\n      0x00\n        /* \"#utility.yul\":19591:19609   */\n      0xffffffffffffffff\n        /* \"#utility.yul\":19583:19589   */\n      dup3\n        /* \"#utility.yul\":19580:19610   */\n      gt\n        /* \"#utility.yul\":19577:19579   */\n      iszero\n      tag_388\n      jumpi\n        /* \"#utility.yul\":19613:19631   */\n      tag_389\n      tag_386\n      jump\t// in\n    tag_389:\n        /* \"#utility.yul\":19577:19579   */\n    tag_388:\n        /* \"#utility.yul\":19651:19680   */\n      tag_390\n        /* \"#utility.yul\":19673:19679   */\n      dup3\n        /* \"#utility.yul\":19651:19680   */\n      tag_287\n      jump\t// in\n    tag_390:\n        /* \"#utility.yul\":19643:19680   */\n      swap1\n      pop\n        /* \"#utility.yul\":19735:19739   */\n      0x20\n        /* \"#utility.yul\":19729:19733   */\n      dup2\n        /* \"#utility.yul\":19725:19740   */\n      add\n        /* \"#utility.yul\":19717:19740   */\n      swap1\n      pop\n        /* \"#utility.yul\":19506:19747   */\n      swap2\n      swap1\n      pop\n      jump\t// out\n        /* \"#utility.yul\":19753:19885   */\n    tag_271:\n        /* \"#utility.yul\":19820:19824   */\n      0x00\n        /* \"#utility.yul\":19843:19846   */\n      dup2\n        /* \"#utility.yul\":19835:19846   */\n      swap1\n      pop\n        /* \"#utility.yul\":19873:19877   */\n      0x20\n        /* \"#utility.yul\":19868:19871   */\n      dup3\n        /* \"#utility.yul\":19864:19878   */\n      add\n        /* \"#utility.yul\":19856:19878   */\n      swap1\n      pop\n        /* \"#utility.yul\":19825:19885   */\n      swap2\n      swap1\n      pop\n      jump\t// out\n        /* \"#utility.yul\":19891:20005   */\n    tag_267:\n        /* \"#utility.yul\":19958:19964   */\n      0x00\n        /* \"#utility.yul\":19992:19997   */\n      dup2\n        /* \"#utility.yul\":19986:19998   */\n      mload\n        /* \"#utility.yul\":19976:19998   */\n      swap1\n      pop\n        /* \"#utility.yul\":19965:20005   */\n      swap2\n      swap1\n      pop\n      jump\t// out\n        /* \"#utility.yul\":20011:20109   */\n    tag_281:\n        /* \"#utility.yul\":20062:20068   */\n      0x00\n        /* \"#utility.yul\":20096:20101   */\n      dup2\n        /* \"#utility.yul\":20090:20102   */\n      mload\n        /* \"#utility.yul\":20080:20102   */\n      swap1\n      pop\n        /* \"#utility.yul\":20069:20109   */\n      swap2\n      swap1\n      pop\n      jump\t// out\n        /* \"#utility.yul\":20115:20228   */\n    tag_277:\n        /* \"#utility.yul\":20185:20189   */\n      0x00\n        /* \"#utility.yul\":20217:20221   */\n      0x20\n        /* \"#utility.yul\":20212:20215   */\n      dup3\n        /* \"#utility.yul\":20208:20222   */\n      add\n        /* \"#utility.yul\":20200:20222   */\n      swap1\n      pop\n        /* \"#utility.yul\":20190:20228   */\n      swap2\n      swap1\n      pop\n      jump\t// out\n        /* \"#utility.yul\":20234:20418   */\n    tag_269:\n        /* \"#utility.yul\":20333:20344   */\n      0x00\n        /* \"#utility.yul\":20367:20373   */\n      dup3\n        /* \"#utility.yul\":20362:20365   */\n      dup3\n        /* \"#utility.yul\":20355:20374   */\n      mstore\n        /* \"#utility.yul\":20407:20411   */\n      0x20\n        /* \"#utility.yul\":20402:20405   */\n      dup3\n        /* \"#utility.yul\":20398:20412   */\n      add\n        /* \"#utility.yul\":20383:20412   */\n      swap1\n      pop\n        /* \"#utility.yul\":20345:20418   */\n      swap3\n      swap2\n      pop\n      pop\n      jump\t// out\n        /* \"#utility.yul\":20424:20582   */\n    tag_283:\n        /* \"#utility.yul\":20497:20508   */\n      0x00\n        /* \"#utility.yul\":20531:20537   */\n      dup3\n        /* \"#utility.yul\":20526:20529   */\n      dup3\n        /* \"#utility.yul\":20519:20538   */\n      mstore\n        /* \"#utility.yul\":20571:20575   */\n      0x20\n        /* \"#utility.yul\":20566:20569   */\n      dup3\n        /* \"#utility.yul\":20562:20576   */\n      add\n        /* \"#utility.yul\":20547:20576   */\n      swap1\n      pop\n        /* \"#utility.yul\":20509:20582   */\n      swap3\n      swap2\n      pop\n      pop\n      jump\t// out\n        /* \"#utility.yul\":20588:20756   */\n    tag_292:\n        /* \"#utility.yul\":20671:20682   */\n      0x00\n        /* \"#utility.yul\":20705:20711   */\n      dup3\n        /* \"#utility.yul\":20700:20703   */\n      dup3\n        /* \"#utility.yul\":20693:20712   */\n      mstore\n        /* \"#utility.yul\":20745:20749   */\n      0x20\n        /* \"#utility.yul\":20740:20743   */\n      dup3\n        /* \"#utility.yul\":20736:20750   */\n      add\n        /* \"#utility.yul\":20721:20750   */\n      swap1\n      pop\n        /* \"#utility.yul\":20683:20756   */\n      swap3\n      swap2\n      pop\n      pop\n      jump\t// out\n        /* \"#utility.yul\":20762:20931   */\n    tag_298:\n        /* \"#utility.yul\":20846:20857   */\n      0x00\n        /* \"#utility.yul\":20880:20886   */\n      dup3\n        /* \"#utility.yul\":20875:20878   */\n      dup3\n        /* \"#utility.yul\":20868:20887   */\n      mstore\n        /* \"#utility.yul\":20920:20924   */\n      0x20\n        /* \"#utility.yul\":20915:20918   */\n      dup3\n        /* \"#utility.yul\":20911:20925   */\n      add\n        /* \"#utility.yul\":20896:20925   */\n      swap1\n      pop\n        /* \"#utility.yul\":20858:20931   */\n      swap3\n      swap2\n      pop\n      pop\n      jump\t// out\n        /* \"#utility.yul\":20937:21128   */\n    tag_148:\n        /* \"#utility.yul\":20977:20981   */\n      0x00\n        /* \"#utility.yul\":20997:21017   */\n      tag_400\n        /* \"#utility.yul\":21015:21016   */\n      dup3\n        /* \"#utility.yul\":20997:21017   */\n      tag_332\n      jump\t// in\n    tag_400:\n        /* \"#utility.yul\":20992:21017   */\n      swap2\n      pop\n        /* \"#utility.yul\":21031:21051   */\n      tag_401\n        /* \"#utility.yul\":21049:21050   */\n      dup4\n        /* \"#utility.yul\":21031:21051   */\n      tag_332\n      jump\t// in\n    tag_401:\n        /* \"#utility.yul\":21026:21051   */\n      swap3\n      pop\n        /* \"#utility.yul\":21070:21071   */\n      dup3\n        /* \"#utility.yul\":21067:21068   */\n      dup3\n        /* \"#utility.yul\":21064:21072   */\n      lt\n        /* \"#utility.yul\":21061:21063   */\n      iszero\n      tag_402\n      jumpi\n        /* \"#utility.yul\":21075:21093   */\n      tag_403\n      tag_404\n      jump\t// in\n    tag_403:\n        /* \"#utility.yul\":21061:21063   */\n    tag_402:\n        /* \"#utility.yul\":21120:21121   */\n      dup3\n        /* \"#utility.yul\":21117:21118   */\n      dup3\n        /* \"#utility.yul\":21113:21122   */\n      sub\n        /* \"#utility.yul\":21105:21122   */\n      swap1\n      pop\n        /* \"#utility.yul\":20982:21128   */\n      swap3\n      swap2\n      pop\n      pop\n      jump\t// out\n        /* \"#utility.yul\":21134:21230   */\n    tag_255:\n        /* \"#utility.yul\":21171:21178   */\n      0x00\n        /* \"#utility.yul\":21200:21224   */\n      tag_406\n        /* \"#utility.yul\":21218:21223   */\n      dup3\n        /* \"#utility.yul\":21200:21224   */\n      tag_407\n      jump\t// in\n    tag_406:\n        /* \"#utility.yul\":21189:21224   */\n      swap1\n      pop\n        /* \"#utility.yul\":21179:21230   */\n      swap2\n      swap1\n      pop\n      jump\t// out\n        /* \"#utility.yul\":21236:21340   */\n    tag_252:\n        /* \"#utility.yul\":21281:21288   */\n      0x00\n        /* \"#utility.yul\":21310:21334   */\n      tag_409\n        /* \"#utility.yul\":21328:21333   */\n      dup3\n        /* \"#utility.yul\":21310:21334   */\n      tag_407\n      jump\t// in\n    tag_409:\n        /* \"#utility.yul\":21299:21334   */\n      swap1\n      pop\n        /* \"#utility.yul\":21289:21340   */\n      swap2\n      swap1\n      pop\n      jump\t// out\n        /* \"#utility.yul\":21346:21436   */\n    tag_410:\n        /* \"#utility.yul\":21380:21387   */\n      0x00\n        /* \"#utility.yul\":21423:21428   */\n      dup2\n        /* \"#utility.yul\":21416:21429   */\n      iszero\n        /* \"#utility.yul\":21409:21430   */\n      iszero\n        /* \"#utility.yul\":21398:21430   */\n      swap1\n      pop\n        /* \"#utility.yul\":21388:21436   */\n      swap2\n      swap1\n      pop\n      jump\t// out\n        /* \"#utility.yul\":21442:21531   */\n    tag_325:\n        /* \"#utility.yul\":21478:21485   */\n      0x00\n        /* \"#utility.yul\":21518:21524   */\n      0xffff\n        /* \"#utility.yul\":21511:21516   */\n      dup3\n        /* \"#utility.yul\":21507:21525   */\n      and\n        /* \"#utility.yul\":21496:21525   */\n      swap1\n      pop\n        /* \"#utility.yul\":21486:21531   */\n      swap2\n      swap1\n      pop\n      jump\t// out\n        /* \"#utility.yul\":21537:21663   */\n    tag_407:\n        /* \"#utility.yul\":21574:21581   */\n      0x00\n        /* \"#utility.yul\":21614:21656   */\n      0xffffffffffffffffffffffffffffffffffffffff\n        /* \"#utility.yul\":21607:21612   */\n      dup3\n        /* \"#utility.yul\":21603:21657   */\n      and\n        /* \"#utility.yul\":21592:21657   */\n      swap1\n      pop\n        /* \"#utility.yul\":21582:21663   */\n      swap2\n      swap1\n      pop\n      jump\t// out\n        /* \"#utility.yul\":21669:21746   */\n    tag_332:\n        /* \"#utility.yul\":21706:21713   */\n      0x00\n        /* \"#utility.yul\":21735:21740   */\n      dup2\n        /* \"#utility.yul\":21724:21740   */\n      swap1\n      pop\n        /* \"#utility.yul\":21714:21746   */\n      swap2\n      swap1\n      pop\n      jump\t// out\n        /* \"#utility.yul\":21752:21863   */\n    tag_329:\n        /* \"#utility.yul\":21801:21810   */\n      0x00\n        /* \"#utility.yul\":21834:21857   */\n      tag_416\n        /* \"#utility.yul\":21851:21856   */\n      dup3\n        /* \"#utility.yul\":21834:21857   */\n      tag_325\n      jump\t// in\n    tag_416:\n        /* \"#utility.yul\":21821:21857   */\n      swap1\n      pop\n        /* \"#utility.yul\":21811:21863   */\n      swap2\n      swap1\n      pop\n      jump\t// out\n        /* \"#utility.yul\":21869:22023   */\n    tag_169:\n        /* \"#utility.yul\":21953:21959   */\n      dup3\n        /* \"#utility.yul\":21948:21951   */\n      dup2\n        /* \"#utility.yul\":21943:21946   */\n      dup4\n        /* \"#utility.yul\":21930:21960   */\n      calldatacopy\n        /* \"#utility.yul\":22015:22016   */\n      0x00\n        /* \"#utility.yul\":22006:22012   */\n      dup4\n        /* \"#utility.yul\":22001:22004   */\n      dup4\n        /* \"#utility.yul\":21997:22013   */\n      add\n        /* \"#utility.yul\":21990:22017   */\n      mstore\n        /* \"#utility.yul\":21920:22023   */\n      pop\n      pop\n      pop\n      jump\t// out\n        /* \"#utility.yul\":22029:22336   */\n    tag_285:\n        /* \"#utility.yul\":22097:22098   */\n      0x00\n        /* \"#utility.yul\":22107:22220   */\n    tag_419:\n        /* \"#utility.yul\":22121:22127   */\n      dup4\n        /* \"#utility.yul\":22118:22119   */\n      dup2\n        /* \"#utility.yul\":22115:22128   */\n      lt\n        /* \"#utility.yul\":22107:22220   */\n      iszero\n      tag_421\n      jumpi\n        /* \"#utility.yul\":22206:22207   */\n      dup1\n        /* \"#utility.yul\":22201:22204   */\n      dup3\n        /* \"#utility.yul\":22197:22208   */\n      add\n        /* \"#utility.yul\":22191:22209   */\n      mload\n        /* \"#utility.yul\":22187:22188   */\n      dup2\n        /* \"#utility.yul\":22182:22185   */\n      dup5\n        /* \"#utility.yul\":22178:22189   */\n      add\n        /* \"#utility.yul\":22171:22210   */\n      mstore\n        /* \"#utility.yul\":22143:22145   */\n      0x20\n        /* \"#utility.yul\":22140:22141   */\n      dup2\n        /* \"#utility.yul\":22136:22146   */\n      add\n        /* \"#utility.yul\":22131:22146   */\n      swap1\n      pop\n        /* \"#utility.yul\":22107:22220   */\n      jump(tag_419)\n    tag_421:\n        /* \"#utility.yul\":22238:22244   */\n      dup4\n        /* \"#utility.yul\":22235:22236   */\n      dup2\n        /* \"#utility.yul\":22232:22245   */\n      gt\n        /* \"#utility.yul\":22229:22231   */\n      iszero\n      tag_422\n      jumpi\n        /* \"#utility.yul\":22318:22319   */\n      0x00\n        /* \"#utility.yul\":22309:22315   */\n      dup5\n        /* \"#utility.yul\":22304:22307   */\n      dup5\n        /* \"#utility.yul\":22300:22316   */\n      add\n        /* \"#utility.yul\":22293:22320   */\n      mstore\n        /* \"#utility.yul\":22229:22231   */\n    tag_422:\n        /* \"#utility.yul\":22078:22336   */\n      pop\n      pop\n      pop\n      pop\n      jump\t// out\n        /* \"#utility.yul\":22342:22623   */\n    tag_381:\n        /* \"#utility.yul\":22425:22452   */\n      tag_424\n        /* \"#utility.yul\":22447:22451   */\n      dup3\n        /* \"#utility.yul\":22425:22452   */\n      tag_287\n      jump\t// in\n    tag_424:\n        /* \"#utility.yul\":22417:22423   */\n      dup2\n        /* \"#utility.yul\":22413:22453   */\n      add\n        /* \"#utility.yul\":22555:22561   */\n      dup2\n        /* \"#utility.yul\":22543:22553   */\n      dup2\n        /* \"#utility.yul\":22540:22562   */\n      lt\n        /* \"#utility.yul\":22519:22537   */\n      0xffffffffffffffff\n        /* \"#utility.yul\":22507:22517   */\n      dup3\n        /* \"#utility.yul\":22504:22538   */\n      gt\n        /* \"#utility.yul\":22501:22563   */\n      or\n        /* \"#utility.yul\":22498:22500   */\n      iszero\n      tag_425\n      jumpi\n        /* \"#utility.yul\":22566:22584   */\n      tag_426\n      tag_386\n      jump\t// in\n    tag_426:\n        /* \"#utility.yul\":22498:22500   */\n    tag_425:\n        /* \"#utility.yul\":22606:22616   */\n      dup1\n        /* \"#utility.yul\":22602:22604   */\n      0x40\n        /* \"#utility.yul\":22595:22617   */\n      mstore\n        /* \"#utility.yul\":22385:22623   */\n      pop\n      pop\n      pop\n      jump\t// out\n        /* \"#utility.yul\":22629:22729   */\n    tag_263:\n        /* \"#utility.yul\":22668:22675   */\n      0x00\n        /* \"#utility.yul\":22697:22723   */\n      tag_428\n        /* \"#utility.yul\":22717:22722   */\n      dup3\n        /* \"#utility.yul\":22697:22723   */\n      tag_429\n      jump\t// in\n    tag_428:\n        /* \"#utility.yul\":22686:22723   */\n      swap1\n      pop\n        /* \"#utility.yul\":22676:22729   */\n      swap2\n      swap1\n      pop\n      jump\t// out\n        /* \"#utility.yul\":22735:22829   */\n    tag_429:\n        /* \"#utility.yul\":22774:22781   */\n      0x00\n        /* \"#utility.yul\":22803:22823   */\n      tag_431\n        /* \"#utility.yul\":22817:22822   */\n      dup3\n        /* \"#utility.yul\":22803:22823   */\n      tag_432\n      jump\t// in\n    tag_431:\n        /* \"#utility.yul\":22792:22823   */\n      swap1\n      pop\n        /* \"#utility.yul\":22782:22829   */\n      swap2\n      swap1\n      pop\n      jump\t// out\n        /* \"#utility.yul\":22835:23015   */\n    tag_404:\n        /* \"#utility.yul\":22883:22960   */\n      0x4e487b7100000000000000000000000000000000000000000000000000000000\n        /* \"#utility.yul\":22880:22881   */\n      0x00\n        /* \"#utility.yul\":22873:22961   */\n      mstore\n        /* \"#utility.yul\":22980:22984   */\n      0x11\n        /* \"#utility.yul\":22977:22978   */\n      0x04\n        /* \"#utility.yul\":22970:22985   */\n      mstore\n        /* \"#utility.yul\":23004:23008   */\n      0x24\n        /* \"#utility.yul\":23001:23002   */\n      0x00\n        /* \"#utility.yul\":22994:23009   */\n      revert\n        /* \"#utility.yul\":23021:23201   */\n    tag_386:\n        /* \"#utility.yul\":23069:23146   */\n      0x4e487b7100000000000000000000000000000000000000000000000000000000\n        /* \"#utility.yul\":23066:23067   */\n      0x00\n        /* \"#utility.yul\":23059:23147   */\n      mstore\n        /* \"#utility.yul\":23166:23170   */\n      0x41\n        /* \"#utility.yul\":23163:23164   */\n      0x04\n        /* \"#utility.yul\":23156:23171   */\n      mstore\n        /* \"#utility.yul\":23190:23194   */\n      0x24\n        /* \"#utility.yul\":23187:23188   */\n      0x00\n        /* \"#utility.yul\":23180:23195   */\n      revert\n        /* \"#utility.yul\":23207:23309   */\n    tag_287:\n        /* \"#utility.yul\":23248:23254   */\n      0x00\n        /* \"#utility.yul\":23299:23301   */\n      0x1f\n        /* \"#utility.yul\":23295:23302   */\n      not\n        /* \"#utility.yul\":23290:23292   */\n      0x1f\n        /* \"#utility.yul\":23283:23288   */\n      dup4\n        /* \"#utility.yul\":23279:23293   */\n      add\n        /* \"#utility.yul\":23275:23303   */\n      and\n        /* \"#utility.yul\":23265:23303   */\n      swap1\n      pop\n        /* \"#utility.yul\":23255:23309   */\n      swap2\n      swap1\n      pop\n      jump\t// out\n        /* \"#utility.yul\":23315:23409   */\n    tag_432:\n        /* \"#utility.yul\":23348:23356   */\n      0x00\n        /* \"#utility.yul\":23396:23401   */\n      dup2\n        /* \"#utility.yul\":23392:23394   */\n      0x60\n        /* \"#utility.yul\":23388:23402   */\n      shl\n        /* \"#utility.yul\":23367:23402   */\n      swap1\n      pop\n        /* \"#utility.yul\":23357:23409   */\n      swap2\n      swap1\n      pop\n      jump\t// out\n        /* \"#utility.yul\":23415:23649   */\n    tag_300:\n        /* \"#utility.yul\":23555:23589   */\n      0x73746172676174652072657175697265732066656520746f207061792063726f\n        /* \"#utility.yul\":23551:23552   */\n      0x00\n        /* \"#utility.yul\":23543:23549   */\n      dup3\n        /* \"#utility.yul\":23539:23553   */\n      add\n        /* \"#utility.yul\":23532:23590   */\n      mstore\n        /* \"#utility.yul\":23624:23641   */\n      0x7373636861696e206d6573736167650000000000000000000000000000000000\n        /* \"#utility.yul\":23619:23621   */\n      0x20\n        /* \"#utility.yul\":23611:23617   */\n      dup3\n        /* \"#utility.yul\":23607:23622   */\n      add\n        /* \"#utility.yul\":23600:23642   */\n      mstore\n        /* \"#utility.yul\":23521:23649   */\n      pop\n      jump\t// out\n        /* \"#utility.yul\":23655:23882   */\n    tag_305:\n        /* \"#utility.yul\":23795:23829   */\n      0x6f6e6c7920737461726761746520726f757465722063616e2063616c6c207367\n        /* \"#utility.yul\":23791:23792   */\n      0x00\n        /* \"#utility.yul\":23783:23789   */\n      dup3\n        /* \"#utility.yul\":23779:23793   */\n      add\n        /* \"#utility.yul\":23772:23830   */\n      mstore\n        /* \"#utility.yul\":23864:23874   */\n      0x5265636569766521000000000000000000000000000000000000000000000000\n        /* \"#utility.yul\":23859:23861   */\n      0x20\n        /* \"#utility.yul\":23851:23857   */\n      dup3\n        /* \"#utility.yul\":23847:23862   */\n      add\n        /* \"#utility.yul\":23840:23875   */\n      mstore\n        /* \"#utility.yul\":23761:23882   */\n      pop\n      jump\t// out\n        /* \"#utility.yul\":23888:24112   */\n    tag_310:\n        /* \"#utility.yul\":24028:24062   */\n      0x6e6174697665416d6f756e74496e206d75737420626520677265617465722074\n        /* \"#utility.yul\":24024:24025   */\n      0x00\n        /* \"#utility.yul\":24016:24022   */\n      dup3\n        /* \"#utility.yul\":24012:24026   */\n      add\n        /* \"#utility.yul\":24005:24063   */\n      mstore\n        /* \"#utility.yul\":24097:24104   */\n      0x68616e2030000000000000000000000000000000000000000000000000000000\n        /* \"#utility.yul\":24092:24094   */\n      0x20\n        /* \"#utility.yul\":24084:24090   */\n      dup3\n        /* \"#utility.yul\":24080:24095   */\n      add\n        /* \"#utility.yul\":24073:24105   */\n      mstore\n        /* \"#utility.yul\":23994:24112   */\n      pop\n      jump\t// out\n        /* \"#utility.yul\":24118:24362   */\n    tag_315:\n        /* \"#utility.yul\":24258:24292   */\n      0x6572726f723a20616d6d526f757465722067617665207573203020746f6b656e\n        /* \"#utility.yul\":24254:24255   */\n      0x00\n        /* \"#utility.yul\":24246:24252   */\n      dup3\n        /* \"#utility.yul\":24242:24256   */\n      add\n        /* \"#utility.yul\":24235:24293   */\n      mstore\n        /* \"#utility.yul\":24327:24354   */\n      0x7320746f20737761702829207769746820737461726761746500000000000000\n        /* \"#utility.yul\":24322:24324   */\n      0x20\n        /* \"#utility.yul\":24314:24320   */\n      dup3\n        /* \"#utility.yul\":24310:24325   */\n      add\n        /* \"#utility.yul\":24303:24355   */\n      mstore\n        /* \"#utility.yul\":24224:24362   */\n      pop\n      jump\t// out\n        /* \"#utility.yul\":24368:24490   */\n    tag_173:\n        /* \"#utility.yul\":24441:24465   */\n      tag_442\n        /* \"#utility.yul\":24459:24464   */\n      dup2\n        /* \"#utility.yul\":24441:24465   */\n      tag_255\n      jump\t// in\n    tag_442:\n        /* \"#utility.yul\":24434:24439   */\n      dup2\n        /* \"#utility.yul\":24431:24466   */\n      eq\n        /* \"#utility.yul\":24421:24423   */\n      tag_443\n      jumpi\n        /* \"#utility.yul\":24480:24481   */\n      0x00\n        /* \"#utility.yul\":24477:24478   */\n      dup1\n        /* \"#utility.yul\":24470:24482   */\n      revert\n        /* \"#utility.yul\":24421:24423   */\n    tag_443:\n        /* \"#utility.yul\":24411:24490   */\n      pop\n      jump\t// out\n        /* \"#utility.yul\":24496:24634   */\n    tag_180:\n        /* \"#utility.yul\":24577:24609   */\n      tag_445\n        /* \"#utility.yul\":24603:24608   */\n      dup2\n        /* \"#utility.yul\":24577:24609   */\n      tag_252\n      jump\t// in\n    tag_445:\n        /* \"#utility.yul\":24570:24575   */\n      dup2\n        /* \"#utility.yul\":24567:24610   */\n      eq\n        /* \"#utility.yul\":24557:24559   */\n      tag_446\n      jumpi\n        /* \"#utility.yul\":24624:24625   */\n      0x00\n        /* \"#utility.yul\":24621:24622   */\n      dup1\n        /* \"#utility.yul\":24614:24626   */\n      revert\n        /* \"#utility.yul\":24557:24559   */\n    tag_446:\n        /* \"#utility.yul\":24547:24634   */\n      pop\n      jump\t// out\n        /* \"#utility.yul\":24640:24756   */\n    tag_188:\n        /* \"#utility.yul\":24710:24731   */\n      tag_448\n        /* \"#utility.yul\":24725:24730   */\n      dup2\n        /* \"#utility.yul\":24710:24731   */\n      tag_410\n      jump\t// in\n    tag_448:\n        /* \"#utility.yul\":24703:24708   */\n      dup2\n        /* \"#utility.yul\":24700:24732   */\n      eq\n        /* \"#utility.yul\":24690:24692   */\n      tag_449\n      jumpi\n        /* \"#utility.yul\":24746:24747   */\n      0x00\n        /* \"#utility.yul\":24743:24744   */\n      dup1\n        /* \"#utility.yul\":24736:24748   */\n      revert\n        /* \"#utility.yul\":24690:24692   */\n    tag_449:\n        /* \"#utility.yul\":24680:24756   */\n      pop\n      jump\t// out\n        /* \"#utility.yul\":24762:24882   */\n    tag_196:\n        /* \"#utility.yul\":24834:24857   */\n      tag_451\n        /* \"#utility.yul\":24851:24856   */\n      dup2\n        /* \"#utility.yul\":24834:24857   */\n      tag_325\n      jump\t// in\n    tag_451:\n        /* \"#utility.yul\":24827:24832   */\n      dup2\n        /* \"#utility.yul\":24824:24858   */\n      eq\n        /* \"#utility.yul\":24814:24816   */\n      tag_452\n      jumpi\n        /* \"#utility.yul\":24872:24873   */\n      0x00\n        /* \"#utility.yul\":24869:24870   */\n      dup1\n        /* \"#utility.yul\":24862:24874   */\n      revert\n        /* \"#utility.yul\":24814:24816   */\n    tag_452:\n        /* \"#utility.yul\":24804:24882   */\n      pop\n      jump\t// out\n        /* \"#utility.yul\":24888:25010   */\n    tag_200:\n        /* \"#utility.yul\":24961:24985   */\n      tag_454\n        /* \"#utility.yul\":24979:24984   */\n      dup2\n        /* \"#utility.yul\":24961:24985   */\n      tag_332\n      jump\t// in\n    tag_454:\n        /* \"#utility.yul\":24954:24959   */\n      dup2\n        /* \"#utility.yul\":24951:24986   */\n      eq\n        /* \"#utility.yul\":24941:24943   */\n      tag_455\n      jumpi\n        /* \"#utility.yul\":25000:25001   */\n      0x00\n        /* \"#utility.yul\":24997:24998   */\n      dup1\n        /* \"#utility.yul\":24990:25002   */\n      revert\n        /* \"#utility.yul\":24941:24943   */\n    tag_455:\n        /* \"#utility.yul\":24931:25010   */\n      pop\n      jump\t// out\n\n    auxdata: 0xa2646970667358221220fed4095cee83a934cf43fb51659f3c64451937d03fe233fcfe5f63332a30b2d564736f6c63430008040033\n}\n",
				"bytecode": {
					"linkReferences": {},
					"object": "60806040526000600260006101000a81548173ffffffffffffffffffffffffffffffffffffffff021916908373ffffffffffffffffffffffffffffffffffffffff1602179055503480156200005357600080fd5b506040516200211038038062002110833981810160405281019062000079919062000119565b816000806101000a81548173ffffffffffffffffffffffffffffffffffffffff021916908373ffffffffffffffffffffffffffffffffffffffff16021790555080600160006101000a81548173ffffffffffffffffffffffffffffffffffffffff021916908373ffffffffffffffffffffffffffffffffffffffff1602179055505050620001a8565b60008151905062000113816200018e565b92915050565b600080604083850312156200012d57600080fd5b60006200013d8582860162000102565b9250506020620001508582860162000102565b9150509250929050565b600062000167826200016e565b9050919050565b600073ffffffffffffffffffffffffffffffffffffffff82169050919050565b62000199816200015a565b8114620001a557600080fd5b50565b611f5880620001b86000396000f3fe60806040526004361061004a5760003560e01c80637b4ad01a1461004f57806390b3c4e71461007a578063a9e56f3c146100a5578063ab8236f3146100d0578063d0328113146100f9575b600080fd5b34801561005b57600080fd5b50610064610115565b6040516100719190611868565b60405180910390f35b34801561008657600080fd5b5061008f61013b565b60405161009c9190611868565b60405180910390f35b3480156100b157600080fd5b506100ba610161565b6040516100c79190611868565b60405180910390f35b3480156100dc57600080fd5b506100f760048036038101906100f29190611527565b610185565b005b610113600480360381019061010e9190611437565b610b95565b005b600260009054906101000a900473ffffffffffffffffffffffffffffffffffffffff1681565b600160009054906101000a900473ffffffffffffffffffffffffffffffffffffffff1681565b60008054906101000a900473ffffffffffffffffffffffffffffffffffffffff1681565b60008054906101000a900473ffffffffffffffffffffffffffffffffffffffff1673ffffffffffffffffffffffffffffffffffffffff163373ffffffffffffffffffffffffffffffffffffffff1614610213576040517f08c379a000000000000000000000000000000000000000000000000000000000815260040161020a90611911565b60405180910390fd5b6000806000808480602001905181019061022d919061136a565b93509350935093508673ffffffffffffffffffffffffffffffffffffffff1663095ea7b3600160009054906101000a900473ffffffffffffffffffffffffffffffffffffffff16886040518363ffffffff1660e01b8152600401610292929190611883565b602060405180830381600087803b1580156102ac57600080fd5b505af11580156102c0573d6000803e3d6000fd5b505050506040513d601f19601f820116820180604052508101906102e4919061140e565b5060008173ffffffffffffffffffffffffffffffffffffffff16319050600073ffffffffffffffffffffffffffffffffffffffff168573ffffffffffffffffffffffffffffffffffffffff161415610742576000600267ffffffffffffffff811115610379577f4e487b7100000000000000000000000000000000000000000000000000000000600052604160045260246000fd5b6040519080825280602002602001820160405280156103a75781602001602082028036833780820191505090505b50905088816000815181106103e5577f4e487b7100000000000000000000000000000000000000000000000000000000600052603260045260246000fd5b602002602001019073ffffffffffffffffffffffffffffffffffffffff16908173ffffffffffffffffffffffffffffffffffffffff1681525050600160009054906101000a900473ffffffffffffffffffffffffffffffffffffffff1673ffffffffffffffffffffffffffffffffffffffff1663ad5c46486040518163ffffffff1660e01b815260040160206040518083038186803b15801561048757600080fd5b505afa15801561049b573d6000803e3d6000fd5b505050506040513d601f19601f820116820180604052508101906104bf9190611341565b816001815181106104f9577f4e487b7100000000000000000000000000000000000000000000000000000000600052603260045260246000fd5b602002602001019073ffffffffffffffffffffffffffffffffffffffff16908173ffffffffffffffffffffffffffffffffffffffff1681525050600160009054906101000a900473ffffffffffffffffffffffffffffffffffffffff1673ffffffffffffffffffffffffffffffffffffffff166318cbafe5898684878a6040518663ffffffff1660e01b8152600401610596959493929190611a5f565b600060405180830381600087803b1580156105b057600080fd5b505af19250505080156105e657506040513d6000823e3d601f19601f820116820180604052508101906105e391906113cd565b60015b6106b6578873ffffffffffffffffffffffffffffffffffffffff1663a9059cbb848a6040518363ffffffff1660e01b8152600401610625929190611883565b602060405180830381600087803b15801561063f57600080fd5b505af1158015610653573d6000803e3d6000fd5b505050506040513d601f19601f82011682018060405250810190610677919061140e565b507f9055ece9d44a86bda76b7ffbee0015dcdd504bd121fe9d4afd5300275ee817be89896040516106a9929190611883565b60405180910390a161073c565b507f9055ece9d44a86bda76b7ffbee0015dcdd504bd121fe9d4afd5300275ee817be600260009054906101000a900473ffffffffffffffffffffffffffffffffffffffff16610725848673ffffffffffffffffffffffffffffffffffffffff163161119a90919063ffffffff16565b604051610733929190611883565b60405180910390a15b50610b88565b60008573ffffffffffffffffffffffffffffffffffffffff166370a08231846040518263ffffffff1660e01b815260040161077d9190611868565b60206040518083038186803b15801561079557600080fd5b505afa1580156107a9573d6000803e3d6000fd5b505050506040513d601f19601f820116820180604052508101906107cd91906115e0565b90506000600267ffffffffffffffff811115610812577f4e487b7100000000000000000000000000000000000000000000000000000000600052604160045260246000fd5b6040519080825280602002602001820160405280156108405781602001602082028036833780820191505090505b509050898160008151811061087e577f4e487b7100000000000000000000000000000000000000000000000000000000600052603260045260246000fd5b602002602001019073ffffffffffffffffffffffffffffffffffffffff16908173ffffffffffffffffffffffffffffffffffffffff168152505086816001815181106108f3577f4e487b7100000000000000000000000000000000000000000000000000000000600052603260045260246000fd5b602002602001019073ffffffffffffffffffffffffffffffffffffffff16908173ffffffffffffffffffffffffffffffffffffffff1681525050600160009054906101000a900473ffffffffffffffffffffffffffffffffffffffff1673ffffffffffffffffffffffffffffffffffffffff166338ed17398a8784888b6040518663ffffffff1660e01b8152600401610990959493929190611a5f565b600060405180830381600087803b1580156109aa57600080fd5b505af19250505080156109e057506040513d6000823e3d601f19601f820116820180604052508101906109dd91906113cd565b60015b610ab0578973ffffffffffffffffffffffffffffffffffffffff1663a9059cbb858b6040518363ffffffff1660e01b8152600401610a1f929190611883565b602060405180830381600087803b158015610a3957600080fd5b505af1158015610a4d573d6000803e3d6000fd5b505050506040513d601f19601f82011682018060405250810190610a71919061140e565b507f9055ece9d44a86bda76b7ffbee0015dcdd504bd121fe9d4afd5300275ee817be8a8a604051610aa3929190611883565b60405180910390a1610b85565b507f9055ece9d44a86bda76b7ffbee0015dcdd504bd121fe9d4afd5300275ee817be87610b6e848a73ffffffffffffffffffffffffffffffffffffffff166370a08231896040518263ffffffff1660e01b8152600401610b109190611868565b60206040518083038186803b158015610b2857600080fd5b505afa158015610b3c573d6000803e3d6000fd5b505050506040513d601f19601f82011682018060405250810190610b6091906115e0565b61119a90919063ffffffff16565b604051610b7c929190611883565b60405180910390a15b50505b5050505050505050505050565b60008711610bd8576040517f08c379a0000000000000000000000000000000000000000000000000000000008152600401610bcf90611931565b60405180910390fd5b6000610bed883461119a90919063ffffffff16565b11610c2d576040517f08c379a0000000000000000000000000000000000000000000000000000000008152600401610c24906118f1565b60405180910390fd5b600080600267ffffffffffffffff811115610c71577f4e487b7100000000000000000000000000000000000000000000000000000000600052604160045260246000fd5b604051908082528060200260200182016040528015610c9f5781602001602082028036833780820191505090505b509050600160009054906101000a900473ffffffffffffffffffffffffffffffffffffffff1673ffffffffffffffffffffffffffffffffffffffff1663ad5c46486040518163ffffffff1660e01b815260040160206040518083038186803b158015610d0a57600080fd5b505afa158015610d1e573d6000803e3d6000fd5b505050506040513d601f19601f82011682018060405250810190610d429190611341565b81600081518110610d7c577f4e487b7100000000000000000000000000000000000000000000000000000000600052603260045260246000fd5b602002602001019073ffffffffffffffffffffffffffffffffffffffff16908173ffffffffffffffffffffffffffffffffffffffff16815250508b81600181518110610df1577f4e487b7100000000000000000000000000000000000000000000000000000000600052603260045260246000fd5b602002602001019073ffffffffffffffffffffffffffffffffffffffff16908173ffffffffffffffffffffffffffffffffffffffff16815250506000600160009054906101000a900473ffffffffffffffffffffffffffffffffffffffff1673ffffffffffffffffffffffffffffffffffffffff16637ff36ab58b8a85308a6040518663ffffffff1660e01b8152600401610e8f9493929190611a13565b6000604051808303818588803b158015610ea857600080fd5b505af1158015610ebc573d6000803e3d6000fd5b50505050506040513d6000823e3d601f19601f82011682018060405250810190610ee691906113cd565b905080600181518110610f22577f4e487b7100000000000000000000000000000000000000000000000000000000600052603260045260246000fd5b6020026020010151925060008311610f6f576040517f08c379a0000000000000000000000000000000000000000000000000000000008152600401610f6690611951565b60405180910390fd5b8c73ffffffffffffffffffffffffffffffffffffffff1663095ea7b360008054906101000a900473ffffffffffffffffffffffffffffffffffffffff16856040518363ffffffff1660e01b8152600401610fca929190611883565b602060405180830381600087803b158015610fe457600080fd5b505af1158015610ff8573d6000803e3d6000fd5b505050506040513d601f19601f8201168201806040525081019061101c919061140e565b5050506060600260009054906101000a900473ffffffffffffffffffffffffffffffffffffffff1684868a60405160200161105a94939291906118ac565b604051602081830303815290604052905060008054906101000a900473ffffffffffffffffffffffffffffffffffffffff1673ffffffffffffffffffffffffffffffffffffffff16639fbf10fc6110ba8b3461119a90919063ffffffff16565b8f8e8e33888d60405180606001604052806207a1208152602001600081526020016040518060400160405280600281526020017f30780000000000000000000000000000000000000000000000000000000000008152508152508c604051602001611125919061184d565b6040516020818303038152906040528b6040518b63ffffffff1660e01b815260040161115999989796959493929190611971565b6000604051808303818588803b15801561117257600080fd5b505af1158015611186573d6000803e3d6000fd5b505050505050505050505050505050505050565b600081836111a89190611bb2565b905092915050565b60006111c36111be84611ade565b611ab9565b905080838252602082019050828560208602820111156111e257600080fd5b60005b8581101561121257816111f8888261132c565b8452602084019350602083019250506001810190506111e5565b5050509392505050565b600061122f61122a84611b0a565b611ab9565b90508281526020810184848401111561124757600080fd5b611252848285611c60565b509392505050565b60008135905061126981611eaf565b92915050565b60008151905061127e81611eaf565b92915050565b60008151905061129381611ec6565b92915050565b600082601f8301126112aa57600080fd5b81516112ba8482602086016111b0565b91505092915050565b6000815190506112d281611edd565b92915050565b600082601f8301126112e957600080fd5b81356112f984826020860161121c565b91505092915050565b60008135905061131181611ef4565b92915050565b60008135905061132681611f0b565b92915050565b60008151905061133b81611f0b565b92915050565b60006020828403121561135357600080fd5b60006113618482850161126f565b91505092915050565b6000806000806080858703121561138057600080fd5b600061138e87828801611284565b945050602061139f8782880161132c565b93505060406113b08782880161132c565b92505060606113c187828801611284565b91505092959194509250565b6000602082840312156113df57600080fd5b600082015167ffffffffffffffff8111156113f957600080fd5b61140584828501611299565b91505092915050565b60006020828403121561142057600080fd5b600061142e848285016112c3565b91505092915050565b60008060008060008060008060008060006101608c8e03121561145957600080fd5b60006114678e828f01611302565b9b505060206114788e828f0161125a565b9a505060406114898e828f01611302565b995050606061149a8e828f01611302565b98505060806114ab8e828f01611317565b97505060a06114bc8e828f0161125a565b96505060c06114cd8e828f01611317565b95505060e06114de8e828f01611317565b9450506101006114f08e828f01611317565b9350506101206115028e828f01611317565b9250506101406115148e828f0161125a565b9150509295989b509295989b9093969950565b60008060008060008060c0878903121561154057600080fd5b600061154e89828a01611302565b965050602087013567ffffffffffffffff81111561156b57600080fd5b61157789828a016112d8565b955050604061158889828a01611317565b945050606061159989828a0161125a565b93505060806115aa89828a01611317565b92505060a087013567ffffffffffffffff8111156115c757600080fd5b6115d389828a016112d8565b9150509295509295509295565b6000602082840312156115f257600080fd5b60006116008482850161132c565b91505092915050565b60006116158383611630565b60208301905092915050565b61162a81611bf8565b82525050565b61163981611be6565b82525050565b61164881611be6565b82525050565b61165f61165a82611be6565b611cd3565b82525050565b600061167082611b4b565b61167a8185611b6e565b935061168583611b3b565b8060005b838110156116b657815161169d8882611609565b97506116a883611b61565b925050600181019050611689565b5085935050505092915050565b60006116ce82611b56565b6116d88185611b7f565b93506116e8818560208601611c6f565b6116f181611d55565b840191505092915050565b600061170782611b56565b6117118185611b90565b9350611721818560208601611c6f565b61172a81611d55565b840191505092915050565b6000611742602f83611ba1565b915061174d82611d73565b604082019050919050565b6000611765602883611ba1565b915061177082611dc2565b604082019050919050565b6000611788602583611ba1565b915061179382611e11565b604082019050919050565b60006117ab603983611ba1565b91506117b682611e60565b604082019050919050565b60006060830160008301516117d9600086018261182f565b5060208301516117ec602086018261182f565b506040830151848203604086015261180482826116c3565b9150508091505092915050565b61181a81611c16565b82525050565b61182981611c4e565b82525050565b61183881611c44565b82525050565b61184781611c44565b82525050565b6000611859828461164e565b60148201915081905092915050565b600060208201905061187d600083018461163f565b92915050565b6000604082019050611898600083018561163f565b6118a5602083018461183e565b9392505050565b60006080820190506118c1600083018761163f565b6118ce602083018661183e565b6118db604083018561183e565b6118e8606083018461163f565b95945050505050565b6000602082019050818103600083015261190a81611735565b9050919050565b6000602082019050818103600083015261192a81611758565b9050919050565b6000602082019050818103600083015261194a8161177b565b9050919050565b6000602082019050818103600083015261196a8161179e565b9050919050565b600061012082019050611987600083018c611811565b611994602083018b611820565b6119a1604083018a611820565b6119ae6060830189611621565b6119bb608083018861183e565b6119c860a083018761183e565b81810360c08301526119da81866117c1565b905081810360e08301526119ee81856116fc565b9050818103610100830152611a0381846116fc565b90509a9950505050505050505050565b6000608082019050611a28600083018761183e565b8181036020830152611a3a8186611665565b9050611a49604083018561163f565b611a56606083018461183e565b95945050505050565b600060a082019050611a74600083018861183e565b611a81602083018761183e565b8181036040830152611a938186611665565b9050611aa2606083018561163f565b611aaf608083018461183e565b9695505050505050565b6000611ac3611ad4565b9050611acf8282611ca2565b919050565b6000604051905090565b600067ffffffffffffffff821115611af957611af8611d26565b5b602082029050602081019050919050565b600067ffffffffffffffff821115611b2557611b24611d26565b5b611b2e82611d55565b9050602081019050919050565b6000819050602082019050919050565b600081519050919050565b600081519050919050565b6000602082019050919050565b600082825260208201905092915050565b600082825260208201905092915050565b600082825260208201905092915050565b600082825260208201905092915050565b6000611bbd82611c44565b9150611bc883611c44565b925082821015611bdb57611bda611cf7565b5b828203905092915050565b6000611bf182611c24565b9050919050565b6000611c0382611c24565b9050919050565b60008115159050919050565b600061ffff82169050919050565b600073ffffffffffffffffffffffffffffffffffffffff82169050919050565b6000819050919050565b6000611c5982611c16565b9050919050565b82818337600083830152505050565b60005b83811015611c8d578082015181840152602081019050611c72565b83811115611c9c576000848401525b50505050565b611cab82611d55565b810181811067ffffffffffffffff82111715611cca57611cc9611d26565b5b80604052505050565b6000611cde82611ce5565b9050919050565b6000611cf082611d66565b9050919050565b7f4e487b7100000000000000000000000000000000000000000000000000000000600052601160045260246000fd5b7f4e487b7100000000000000000000000000000000000000000000000000000000600052604160045260246000fd5b6000601f19601f8301169050919050565b60008160601b9050919050565b7f73746172676174652072657175697265732066656520746f207061792063726f60008201527f7373636861696e206d6573736167650000000000000000000000000000000000602082015250565b7f6f6e6c7920737461726761746520726f757465722063616e2063616c6c20736760008201527f5265636569766521000000000000000000000000000000000000000000000000602082015250565b7f6e6174697665416d6f756e74496e206d7573742062652067726561746572207460008201527f68616e2030000000000000000000000000000000000000000000000000000000602082015250565b7f6572726f723a20616d6d526f757465722067617665207573203020746f6b656e60008201527f7320746f20737761702829207769746820737461726761746500000000000000602082015250565b611eb881611be6565b8114611ec357600080fd5b50565b611ecf81611bf8565b8114611eda57600080fd5b50565b611ee681611c0a565b8114611ef157600080fd5b50565b611efd81611c16565b8114611f0857600080fd5b50565b611f1481611c44565b8114611f1f57600080fd5b5056fea2646970667358221220fed4095cee83a934cf43fb51659f3c64451937d03fe233fcfe5f63332a30b2d564736f6c63430008040033",
					"opcodes": "PUSH1 0x80 PUSH1 0x40 MSTORE PUSH1 0x0 PUSH1 0x2 PUSH1 0x0 PUSH2 0x100 EXP DUP2 SLOAD DUP2 PUSH20 0xFFFFFFFFFFFFFFFFFFFFFFFFFFFFFFFFFFFFFFFF MUL NOT AND SWAP1 DUP4 PUSH20 0xFFFFFFFFFFFFFFFFFFFFFFFFFFFFFFFFFFFFFFFF AND MUL OR SWAP1 SSTORE POP CALLVALUE DUP1 ISZERO PUSH3 0x53 JUMPI PUSH1 0x0 DUP1 REVERT JUMPDEST POP PUSH1 0x40 MLOAD PUSH3 0x2110 CODESIZE SUB DUP1 PUSH3 0x2110 DUP4 CODECOPY DUP2 DUP2 ADD PUSH1 0x40 MSTORE DUP2 ADD SWAP1 PUSH3 0x79 SWAP2 SWAP1 PUSH3 0x119 JUMP JUMPDEST DUP2 PUSH1 0x0 DUP1 PUSH2 0x100 EXP DUP2 SLOAD DUP2 PUSH20 0xFFFFFFFFFFFFFFFFFFFFFFFFFFFFFFFFFFFFFFFF MUL NOT AND SWAP1 DUP4 PUSH20 0xFFFFFFFFFFFFFFFFFFFFFFFFFFFFFFFFFFFFFFFF AND MUL OR SWAP1 SSTORE POP DUP1 PUSH1 0x1 PUSH1 0x0 PUSH2 0x100 EXP DUP2 SLOAD DUP2 PUSH20 0xFFFFFFFFFFFFFFFFFFFFFFFFFFFFFFFFFFFFFFFF MUL NOT AND SWAP1 DUP4 PUSH20 0xFFFFFFFFFFFFFFFFFFFFFFFFFFFFFFFFFFFFFFFF AND MUL OR SWAP1 SSTORE POP POP POP PUSH3 0x1A8 JUMP JUMPDEST PUSH1 0x0 DUP2 MLOAD SWAP1 POP PUSH3 0x113 DUP2 PUSH3 0x18E JUMP JUMPDEST SWAP3 SWAP2 POP POP JUMP JUMPDEST PUSH1 0x0 DUP1 PUSH1 0x40 DUP4 DUP6 SUB SLT ISZERO PUSH3 0x12D JUMPI PUSH1 0x0 DUP1 REVERT JUMPDEST PUSH1 0x0 PUSH3 0x13D DUP6 DUP3 DUP7 ADD PUSH3 0x102 JUMP JUMPDEST SWAP3 POP POP PUSH1 0x20 PUSH3 0x150 DUP6 DUP3 DUP7 ADD PUSH3 0x102 JUMP JUMPDEST SWAP2 POP POP SWAP3 POP SWAP3 SWAP1 POP JUMP JUMPDEST PUSH1 0x0 PUSH3 0x167 DUP3 PUSH3 0x16E JUMP JUMPDEST SWAP1 POP SWAP2 SWAP1 POP JUMP JUMPDEST PUSH1 0x0 PUSH20 0xFFFFFFFFFFFFFFFFFFFFFFFFFFFFFFFFFFFFFFFF DUP3 AND SWAP1 POP SWAP2 SWAP1 POP JUMP JUMPDEST PUSH3 0x199 DUP2 PUSH3 0x15A JUMP JUMPDEST DUP2 EQ PUSH3 0x1A5 JUMPI PUSH1 0x0 DUP1 REVERT JUMPDEST POP JUMP JUMPDEST PUSH2 0x1F58 DUP1 PUSH3 0x1B8 PUSH1 0x0 CODECOPY PUSH1 0x0 RETURN INVALID PUSH1 0x80 PUSH1 0x40 MSTORE PUSH1 0x4 CALLDATASIZE LT PUSH2 0x4A JUMPI PUSH1 0x0 CALLDATALOAD PUSH1 0xE0 SHR DUP1 PUSH4 0x7B4AD01A EQ PUSH2 0x4F JUMPI DUP1 PUSH4 0x90B3C4E7 EQ PUSH2 0x7A JUMPI DUP1 PUSH4 0xA9E56F3C EQ PUSH2 0xA5 JUMPI DUP1 PUSH4 0xAB8236F3 EQ PUSH2 0xD0 JUMPI DUP1 PUSH4 0xD0328113 EQ PUSH2 0xF9 JUMPI JUMPDEST PUSH1 0x0 DUP1 REVERT JUMPDEST CALLVALUE DUP1 ISZERO PUSH2 0x5B JUMPI PUSH1 0x0 DUP1 REVERT JUMPDEST POP PUSH2 0x64 PUSH2 0x115 JUMP JUMPDEST PUSH1 0x40 MLOAD PUSH2 0x71 SWAP2 SWAP1 PUSH2 0x1868 JUMP JUMPDEST PUSH1 0x40 MLOAD DUP1 SWAP2 SUB SWAP1 RETURN JUMPDEST CALLVALUE DUP1 ISZERO PUSH2 0x86 JUMPI PUSH1 0x0 DUP1 REVERT JUMPDEST POP PUSH2 0x8F PUSH2 0x13B JUMP JUMPDEST PUSH1 0x40 MLOAD PUSH2 0x9C SWAP2 SWAP1 PUSH2 0x1868 JUMP JUMPDEST PUSH1 0x40 MLOAD DUP1 SWAP2 SUB SWAP1 RETURN JUMPDEST CALLVALUE DUP1 ISZERO PUSH2 0xB1 JUMPI PUSH1 0x0 DUP1 REVERT JUMPDEST POP PUSH2 0xBA PUSH2 0x161 JUMP JUMPDEST PUSH1 0x40 MLOAD PUSH2 0xC7 SWAP2 SWAP1 PUSH2 0x1868 JUMP JUMPDEST PUSH1 0x40 MLOAD DUP1 SWAP2 SUB SWAP1 RETURN JUMPDEST CALLVALUE DUP1 ISZERO PUSH2 0xDC JUMPI PUSH1 0x0 DUP1 REVERT JUMPDEST POP PUSH2 0xF7 PUSH1 0x4 DUP1 CALLDATASIZE SUB DUP2 ADD SWAP1 PUSH2 0xF2 SWAP2 SWAP1 PUSH2 0x1527 JUMP JUMPDEST PUSH2 0x185 JUMP JUMPDEST STOP JUMPDEST PUSH2 0x113 PUSH1 0x4 DUP1 CALLDATASIZE SUB DUP2 ADD SWAP1 PUSH2 0x10E SWAP2 SWAP1 PUSH2 0x1437 JUMP JUMPDEST PUSH2 0xB95 JUMP JUMPDEST STOP JUMPDEST PUSH1 0x2 PUSH1 0x0 SWAP1 SLOAD SWAP1 PUSH2 0x100 EXP SWAP1 DIV PUSH20 0xFFFFFFFFFFFFFFFFFFFFFFFFFFFFFFFFFFFFFFFF AND DUP2 JUMP JUMPDEST PUSH1 0x1 PUSH1 0x0 SWAP1 SLOAD SWAP1 PUSH2 0x100 EXP SWAP1 DIV PUSH20 0xFFFFFFFFFFFFFFFFFFFFFFFFFFFFFFFFFFFFFFFF AND DUP2 JUMP JUMPDEST PUSH1 0x0 DUP1 SLOAD SWAP1 PUSH2 0x100 EXP SWAP1 DIV PUSH20 0xFFFFFFFFFFFFFFFFFFFFFFFFFFFFFFFFFFFFFFFF AND DUP2 JUMP JUMPDEST PUSH1 0x0 DUP1 SLOAD SWAP1 PUSH2 0x100 EXP SWAP1 DIV PUSH20 0xFFFFFFFFFFFFFFFFFFFFFFFFFFFFFFFFFFFFFFFF AND PUSH20 0xFFFFFFFFFFFFFFFFFFFFFFFFFFFFFFFFFFFFFFFF AND CALLER PUSH20 0xFFFFFFFFFFFFFFFFFFFFFFFFFFFFFFFFFFFFFFFF AND EQ PUSH2 0x213 JUMPI PUSH1 0x40 MLOAD PUSH32 0x8C379A000000000000000000000000000000000000000000000000000000000 DUP2 MSTORE PUSH1 0x4 ADD PUSH2 0x20A SWAP1 PUSH2 0x1911 JUMP JUMPDEST PUSH1 0x40 MLOAD DUP1 SWAP2 SUB SWAP1 REVERT JUMPDEST PUSH1 0x0 DUP1 PUSH1 0x0 DUP1 DUP5 DUP1 PUSH1 0x20 ADD SWAP1 MLOAD DUP2 ADD SWAP1 PUSH2 0x22D SWAP2 SWAP1 PUSH2 0x136A JUMP JUMPDEST SWAP4 POP SWAP4 POP SWAP4 POP SWAP4 POP DUP7 PUSH20 0xFFFFFFFFFFFFFFFFFFFFFFFFFFFFFFFFFFFFFFFF AND PUSH4 0x95EA7B3 PUSH1 0x1 PUSH1 0x0 SWAP1 SLOAD SWAP1 PUSH2 0x100 EXP SWAP1 DIV PUSH20 0xFFFFFFFFFFFFFFFFFFFFFFFFFFFFFFFFFFFFFFFF AND DUP9 PUSH1 0x40 MLOAD DUP4 PUSH4 0xFFFFFFFF AND PUSH1 0xE0 SHL DUP2 MSTORE PUSH1 0x4 ADD PUSH2 0x292 SWAP3 SWAP2 SWAP1 PUSH2 0x1883 JUMP JUMPDEST PUSH1 0x20 PUSH1 0x40 MLOAD DUP1 DUP4 SUB DUP2 PUSH1 0x0 DUP8 DUP1 EXTCODESIZE ISZERO DUP1 ISZERO PUSH2 0x2AC JUMPI PUSH1 0x0 DUP1 REVERT JUMPDEST POP GAS CALL ISZERO DUP1 ISZERO PUSH2 0x2C0 JUMPI RETURNDATASIZE PUSH1 0x0 DUP1 RETURNDATACOPY RETURNDATASIZE PUSH1 0x0 REVERT JUMPDEST POP POP POP POP PUSH1 0x40 MLOAD RETURNDATASIZE PUSH1 0x1F NOT PUSH1 0x1F DUP3 ADD AND DUP3 ADD DUP1 PUSH1 0x40 MSTORE POP DUP2 ADD SWAP1 PUSH2 0x2E4 SWAP2 SWAP1 PUSH2 0x140E JUMP JUMPDEST POP PUSH1 0x0 DUP2 PUSH20 0xFFFFFFFFFFFFFFFFFFFFFFFFFFFFFFFFFFFFFFFF AND BALANCE SWAP1 POP PUSH1 0x0 PUSH20 0xFFFFFFFFFFFFFFFFFFFFFFFFFFFFFFFFFFFFFFFF AND DUP6 PUSH20 0xFFFFFFFFFFFFFFFFFFFFFFFFFFFFFFFFFFFFFFFF AND EQ ISZERO PUSH2 0x742 JUMPI PUSH1 0x0 PUSH1 0x2 PUSH8 0xFFFFFFFFFFFFFFFF DUP2 GT ISZERO PUSH2 0x379 JUMPI PUSH32 0x4E487B7100000000000000000000000000000000000000000000000000000000 PUSH1 0x0 MSTORE PUSH1 0x41 PUSH1 0x4 MSTORE PUSH1 0x24 PUSH1 0x0 REVERT JUMPDEST PUSH1 0x40 MLOAD SWAP1 DUP1 DUP3 MSTORE DUP1 PUSH1 0x20 MUL PUSH1 0x20 ADD DUP3 ADD PUSH1 0x40 MSTORE DUP1 ISZERO PUSH2 0x3A7 JUMPI DUP2 PUSH1 0x20 ADD PUSH1 0x20 DUP3 MUL DUP1 CALLDATASIZE DUP4 CALLDATACOPY DUP1 DUP3 ADD SWAP2 POP POP SWAP1 POP JUMPDEST POP SWAP1 POP DUP9 DUP2 PUSH1 0x0 DUP2 MLOAD DUP2 LT PUSH2 0x3E5 JUMPI PUSH32 0x4E487B7100000000000000000000000000000000000000000000000000000000 PUSH1 0x0 MSTORE PUSH1 0x32 PUSH1 0x4 MSTORE PUSH1 0x24 PUSH1 0x0 REVERT JUMPDEST PUSH1 0x20 MUL PUSH1 0x20 ADD ADD SWAP1 PUSH20 0xFFFFFFFFFFFFFFFFFFFFFFFFFFFFFFFFFFFFFFFF AND SWAP1 DUP2 PUSH20 0xFFFFFFFFFFFFFFFFFFFFFFFFFFFFFFFFFFFFFFFF AND DUP2 MSTORE POP POP PUSH1 0x1 PUSH1 0x0 SWAP1 SLOAD SWAP1 PUSH2 0x100 EXP SWAP1 DIV PUSH20 0xFFFFFFFFFFFFFFFFFFFFFFFFFFFFFFFFFFFFFFFF AND PUSH20 0xFFFFFFFFFFFFFFFFFFFFFFFFFFFFFFFFFFFFFFFF AND PUSH4 0xAD5C4648 PUSH1 0x40 MLOAD DUP2 PUSH4 0xFFFFFFFF AND PUSH1 0xE0 SHL DUP2 MSTORE PUSH1 0x4 ADD PUSH1 0x20 PUSH1 0x40 MLOAD DUP1 DUP4 SUB DUP2 DUP7 DUP1 EXTCODESIZE ISZERO DUP1 ISZERO PUSH2 0x487 JUMPI PUSH1 0x0 DUP1 REVERT JUMPDEST POP GAS STATICCALL ISZERO DUP1 ISZERO PUSH2 0x49B JUMPI RETURNDATASIZE PUSH1 0x0 DUP1 RETURNDATACOPY RETURNDATASIZE PUSH1 0x0 REVERT JUMPDEST POP POP POP POP PUSH1 0x40 MLOAD RETURNDATASIZE PUSH1 0x1F NOT PUSH1 0x1F DUP3 ADD AND DUP3 ADD DUP1 PUSH1 0x40 MSTORE POP DUP2 ADD SWAP1 PUSH2 0x4BF SWAP2 SWAP1 PUSH2 0x1341 JUMP JUMPDEST DUP2 PUSH1 0x1 DUP2 MLOAD DUP2 LT PUSH2 0x4F9 JUMPI PUSH32 0x4E487B7100000000000000000000000000000000000000000000000000000000 PUSH1 0x0 MSTORE PUSH1 0x32 PUSH1 0x4 MSTORE PUSH1 0x24 PUSH1 0x0 REVERT JUMPDEST PUSH1 0x20 MUL PUSH1 0x20 ADD ADD SWAP1 PUSH20 0xFFFFFFFFFFFFFFFFFFFFFFFFFFFFFFFFFFFFFFFF AND SWAP1 DUP2 PUSH20 0xFFFFFFFFFFFFFFFFFFFFFFFFFFFFFFFFFFFFFFFF AND DUP2 MSTORE POP POP PUSH1 0x1 PUSH1 0x0 SWAP1 SLOAD SWAP1 PUSH2 0x100 EXP SWAP1 DIV PUSH20 0xFFFFFFFFFFFFFFFFFFFFFFFFFFFFFFFFFFFFFFFF AND PUSH20 0xFFFFFFFFFFFFFFFFFFFFFFFFFFFFFFFFFFFFFFFF AND PUSH4 0x18CBAFE5 DUP10 DUP7 DUP5 DUP8 DUP11 PUSH1 0x40 MLOAD DUP7 PUSH4 0xFFFFFFFF AND PUSH1 0xE0 SHL DUP2 MSTORE PUSH1 0x4 ADD PUSH2 0x596 SWAP6 SWAP5 SWAP4 SWAP3 SWAP2 SWAP1 PUSH2 0x1A5F JUMP JUMPDEST PUSH1 0x0 PUSH1 0x40 MLOAD DUP1 DUP4 SUB DUP2 PUSH1 0x0 DUP8 DUP1 EXTCODESIZE ISZERO DUP1 ISZERO PUSH2 0x5B0 JUMPI PUSH1 0x0 DUP1 REVERT JUMPDEST POP GAS CALL SWAP3 POP POP POP DUP1 ISZERO PUSH2 0x5E6 JUMPI POP PUSH1 0x40 MLOAD RETURNDATASIZE PUSH1 0x0 DUP3 RETURNDATACOPY RETURNDATASIZE PUSH1 0x1F NOT PUSH1 0x1F DUP3 ADD AND DUP3 ADD DUP1 PUSH1 0x40 MSTORE POP DUP2 ADD SWAP1 PUSH2 0x5E3 SWAP2 SWAP1 PUSH2 0x13CD JUMP JUMPDEST PUSH1 0x1 JUMPDEST PUSH2 0x6B6 JUMPI DUP9 PUSH20 0xFFFFFFFFFFFFFFFFFFFFFFFFFFFFFFFFFFFFFFFF AND PUSH4 0xA9059CBB DUP5 DUP11 PUSH1 0x40 MLOAD DUP4 PUSH4 0xFFFFFFFF AND PUSH1 0xE0 SHL DUP2 MSTORE PUSH1 0x4 ADD PUSH2 0x625 SWAP3 SWAP2 SWAP1 PUSH2 0x1883 JUMP JUMPDEST PUSH1 0x20 PUSH1 0x40 MLOAD DUP1 DUP4 SUB DUP2 PUSH1 0x0 DUP8 DUP1 EXTCODESIZE ISZERO DUP1 ISZERO PUSH2 0x63F JUMPI PUSH1 0x0 DUP1 REVERT JUMPDEST POP GAS CALL ISZERO DUP1 ISZERO PUSH2 0x653 JUMPI RETURNDATASIZE PUSH1 0x0 DUP1 RETURNDATACOPY RETURNDATASIZE PUSH1 0x0 REVERT JUMPDEST POP POP POP POP PUSH1 0x40 MLOAD RETURNDATASIZE PUSH1 0x1F NOT PUSH1 0x1F DUP3 ADD AND DUP3 ADD DUP1 PUSH1 0x40 MSTORE POP DUP2 ADD SWAP1 PUSH2 0x677 SWAP2 SWAP1 PUSH2 0x140E JUMP JUMPDEST POP PUSH32 0x9055ECE9D44A86BDA76B7FFBEE0015DCDD504BD121FE9D4AFD5300275EE817BE DUP10 DUP10 PUSH1 0x40 MLOAD PUSH2 0x6A9 SWAP3 SWAP2 SWAP1 PUSH2 0x1883 JUMP JUMPDEST PUSH1 0x40 MLOAD DUP1 SWAP2 SUB SWAP1 LOG1 PUSH2 0x73C JUMP JUMPDEST POP PUSH32 0x9055ECE9D44A86BDA76B7FFBEE0015DCDD504BD121FE9D4AFD5300275EE817BE PUSH1 0x2 PUSH1 0x0 SWAP1 SLOAD SWAP1 PUSH2 0x100 EXP SWAP1 DIV PUSH20 0xFFFFFFFFFFFFFFFFFFFFFFFFFFFFFFFFFFFFFFFF AND PUSH2 0x725 DUP5 DUP7 PUSH20 0xFFFFFFFFFFFFFFFFFFFFFFFFFFFFFFFFFFFFFFFF AND BALANCE PUSH2 0x119A SWAP1 SWAP2 SWAP1 PUSH4 0xFFFFFFFF AND JUMP JUMPDEST PUSH1 0x40 MLOAD PUSH2 0x733 SWAP3 SWAP2 SWAP1 PUSH2 0x1883 JUMP JUMPDEST PUSH1 0x40 MLOAD DUP1 SWAP2 SUB SWAP1 LOG1 JUMPDEST POP PUSH2 0xB88 JUMP JUMPDEST PUSH1 0x0 DUP6 PUSH20 0xFFFFFFFFFFFFFFFFFFFFFFFFFFFFFFFFFFFFFFFF AND PUSH4 0x70A08231 DUP5 PUSH1 0x40 MLOAD DUP3 PUSH4 0xFFFFFFFF AND PUSH1 0xE0 SHL DUP2 MSTORE PUSH1 0x4 ADD PUSH2 0x77D SWAP2 SWAP1 PUSH2 0x1868 JUMP JUMPDEST PUSH1 0x20 PUSH1 0x40 MLOAD DUP1 DUP4 SUB DUP2 DUP7 DUP1 EXTCODESIZE ISZERO DUP1 ISZERO PUSH2 0x795 JUMPI PUSH1 0x0 DUP1 REVERT JUMPDEST POP GAS STATICCALL ISZERO DUP1 ISZERO PUSH2 0x7A9 JUMPI RETURNDATASIZE PUSH1 0x0 DUP1 RETURNDATACOPY RETURNDATASIZE PUSH1 0x0 REVERT JUMPDEST POP POP POP POP PUSH1 0x40 MLOAD RETURNDATASIZE PUSH1 0x1F NOT PUSH1 0x1F DUP3 ADD AND DUP3 ADD DUP1 PUSH1 0x40 MSTORE POP DUP2 ADD SWAP1 PUSH2 0x7CD SWAP2 SWAP1 PUSH2 0x15E0 JUMP JUMPDEST SWAP1 POP PUSH1 0x0 PUSH1 0x2 PUSH8 0xFFFFFFFFFFFFFFFF DUP2 GT ISZERO PUSH2 0x812 JUMPI PUSH32 0x4E487B7100000000000000000000000000000000000000000000000000000000 PUSH1 0x0 MSTORE PUSH1 0x41 PUSH1 0x4 MSTORE PUSH1 0x24 PUSH1 0x0 REVERT JUMPDEST PUSH1 0x40 MLOAD SWAP1 DUP1 DUP3 MSTORE DUP1 PUSH1 0x20 MUL PUSH1 0x20 ADD DUP3 ADD PUSH1 0x40 MSTORE DUP1 ISZERO PUSH2 0x840 JUMPI DUP2 PUSH1 0x20 ADD PUSH1 0x20 DUP3 MUL DUP1 CALLDATASIZE DUP4 CALLDATACOPY DUP1 DUP3 ADD SWAP2 POP POP SWAP1 POP JUMPDEST POP SWAP1 POP DUP10 DUP2 PUSH1 0x0 DUP2 MLOAD DUP2 LT PUSH2 0x87E JUMPI PUSH32 0x4E487B7100000000000000000000000000000000000000000000000000000000 PUSH1 0x0 MSTORE PUSH1 0x32 PUSH1 0x4 MSTORE PUSH1 0x24 PUSH1 0x0 REVERT JUMPDEST PUSH1 0x20 MUL PUSH1 0x20 ADD ADD SWAP1 PUSH20 0xFFFFFFFFFFFFFFFFFFFFFFFFFFFFFFFFFFFFFFFF AND SWAP1 DUP2 PUSH20 0xFFFFFFFFFFFFFFFFFFFFFFFFFFFFFFFFFFFFFFFF AND DUP2 MSTORE POP POP DUP7 DUP2 PUSH1 0x1 DUP2 MLOAD DUP2 LT PUSH2 0x8F3 JUMPI PUSH32 0x4E487B7100000000000000000000000000000000000000000000000000000000 PUSH1 0x0 MSTORE PUSH1 0x32 PUSH1 0x4 MSTORE PUSH1 0x24 PUSH1 0x0 REVERT JUMPDEST PUSH1 0x20 MUL PUSH1 0x20 ADD ADD SWAP1 PUSH20 0xFFFFFFFFFFFFFFFFFFFFFFFFFFFFFFFFFFFFFFFF AND SWAP1 DUP2 PUSH20 0xFFFFFFFFFFFFFFFFFFFFFFFFFFFFFFFFFFFFFFFF AND DUP2 MSTORE POP POP PUSH1 0x1 PUSH1 0x0 SWAP1 SLOAD SWAP1 PUSH2 0x100 EXP SWAP1 DIV PUSH20 0xFFFFFFFFFFFFFFFFFFFFFFFFFFFFFFFFFFFFFFFF AND PUSH20 0xFFFFFFFFFFFFFFFFFFFFFFFFFFFFFFFFFFFFFFFF AND PUSH4 0x38ED1739 DUP11 DUP8 DUP5 DUP9 DUP12 PUSH1 0x40 MLOAD DUP7 PUSH4 0xFFFFFFFF AND PUSH1 0xE0 SHL DUP2 MSTORE PUSH1 0x4 ADD PUSH2 0x990 SWAP6 SWAP5 SWAP4 SWAP3 SWAP2 SWAP1 PUSH2 0x1A5F JUMP JUMPDEST PUSH1 0x0 PUSH1 0x40 MLOAD DUP1 DUP4 SUB DUP2 PUSH1 0x0 DUP8 DUP1 EXTCODESIZE ISZERO DUP1 ISZERO PUSH2 0x9AA JUMPI PUSH1 0x0 DUP1 REVERT JUMPDEST POP GAS CALL SWAP3 POP POP POP DUP1 ISZERO PUSH2 0x9E0 JUMPI POP PUSH1 0x40 MLOAD RETURNDATASIZE PUSH1 0x0 DUP3 RETURNDATACOPY RETURNDATASIZE PUSH1 0x1F NOT PUSH1 0x1F DUP3 ADD AND DUP3 ADD DUP1 PUSH1 0x40 MSTORE POP DUP2 ADD SWAP1 PUSH2 0x9DD SWAP2 SWAP1 PUSH2 0x13CD JUMP JUMPDEST PUSH1 0x1 JUMPDEST PUSH2 0xAB0 JUMPI DUP10 PUSH20 0xFFFFFFFFFFFFFFFFFFFFFFFFFFFFFFFFFFFFFFFF AND PUSH4 0xA9059CBB DUP6 DUP12 PUSH1 0x40 MLOAD DUP4 PUSH4 0xFFFFFFFF AND PUSH1 0xE0 SHL DUP2 MSTORE PUSH1 0x4 ADD PUSH2 0xA1F SWAP3 SWAP2 SWAP1 PUSH2 0x1883 JUMP JUMPDEST PUSH1 0x20 PUSH1 0x40 MLOAD DUP1 DUP4 SUB DUP2 PUSH1 0x0 DUP8 DUP1 EXTCODESIZE ISZERO DUP1 ISZERO PUSH2 0xA39 JUMPI PUSH1 0x0 DUP1 REVERT JUMPDEST POP GAS CALL ISZERO DUP1 ISZERO PUSH2 0xA4D JUMPI RETURNDATASIZE PUSH1 0x0 DUP1 RETURNDATACOPY RETURNDATASIZE PUSH1 0x0 REVERT JUMPDEST POP POP POP POP PUSH1 0x40 MLOAD RETURNDATASIZE PUSH1 0x1F NOT PUSH1 0x1F DUP3 ADD AND DUP3 ADD DUP1 PUSH1 0x40 MSTORE POP DUP2 ADD SWAP1 PUSH2 0xA71 SWAP2 SWAP1 PUSH2 0x140E JUMP JUMPDEST POP PUSH32 0x9055ECE9D44A86BDA76B7FFBEE0015DCDD504BD121FE9D4AFD5300275EE817BE DUP11 DUP11 PUSH1 0x40 MLOAD PUSH2 0xAA3 SWAP3 SWAP2 SWAP1 PUSH2 0x1883 JUMP JUMPDEST PUSH1 0x40 MLOAD DUP1 SWAP2 SUB SWAP1 LOG1 PUSH2 0xB85 JUMP JUMPDEST POP PUSH32 0x9055ECE9D44A86BDA76B7FFBEE0015DCDD504BD121FE9D4AFD5300275EE817BE DUP8 PUSH2 0xB6E DUP5 DUP11 PUSH20 0xFFFFFFFFFFFFFFFFFFFFFFFFFFFFFFFFFFFFFFFF AND PUSH4 0x70A08231 DUP10 PUSH1 0x40 MLOAD DUP3 PUSH4 0xFFFFFFFF AND PUSH1 0xE0 SHL DUP2 MSTORE PUSH1 0x4 ADD PUSH2 0xB10 SWAP2 SWAP1 PUSH2 0x1868 JUMP JUMPDEST PUSH1 0x20 PUSH1 0x40 MLOAD DUP1 DUP4 SUB DUP2 DUP7 DUP1 EXTCODESIZE ISZERO DUP1 ISZERO PUSH2 0xB28 JUMPI PUSH1 0x0 DUP1 REVERT JUMPDEST POP GAS STATICCALL ISZERO DUP1 ISZERO PUSH2 0xB3C JUMPI RETURNDATASIZE PUSH1 0x0 DUP1 RETURNDATACOPY RETURNDATASIZE PUSH1 0x0 REVERT JUMPDEST POP POP POP POP PUSH1 0x40 MLOAD RETURNDATASIZE PUSH1 0x1F NOT PUSH1 0x1F DUP3 ADD AND DUP3 ADD DUP1 PUSH1 0x40 MSTORE POP DUP2 ADD SWAP1 PUSH2 0xB60 SWAP2 SWAP1 PUSH2 0x15E0 JUMP JUMPDEST PUSH2 0x119A SWAP1 SWAP2 SWAP1 PUSH4 0xFFFFFFFF AND JUMP JUMPDEST PUSH1 0x40 MLOAD PUSH2 0xB7C SWAP3 SWAP2 SWAP1 PUSH2 0x1883 JUMP JUMPDEST PUSH1 0x40 MLOAD DUP1 SWAP2 SUB SWAP1 LOG1 JUMPDEST POP POP JUMPDEST POP POP POP POP POP POP POP POP POP POP POP JUMP JUMPDEST PUSH1 0x0 DUP8 GT PUSH2 0xBD8 JUMPI PUSH1 0x40 MLOAD PUSH32 0x8C379A000000000000000000000000000000000000000000000000000000000 DUP2 MSTORE PUSH1 0x4 ADD PUSH2 0xBCF SWAP1 PUSH2 0x1931 JUMP JUMPDEST PUSH1 0x40 MLOAD DUP1 SWAP2 SUB SWAP1 REVERT JUMPDEST PUSH1 0x0 PUSH2 0xBED DUP9 CALLVALUE PUSH2 0x119A SWAP1 SWAP2 SWAP1 PUSH4 0xFFFFFFFF AND JUMP JUMPDEST GT PUSH2 0xC2D JUMPI PUSH1 0x40 MLOAD PUSH32 0x8C379A000000000000000000000000000000000000000000000000000000000 DUP2 MSTORE PUSH1 0x4 ADD PUSH2 0xC24 SWAP1 PUSH2 0x18F1 JUMP JUMPDEST PUSH1 0x40 MLOAD DUP1 SWAP2 SUB SWAP1 REVERT JUMPDEST PUSH1 0x0 DUP1 PUSH1 0x2 PUSH8 0xFFFFFFFFFFFFFFFF DUP2 GT ISZERO PUSH2 0xC71 JUMPI PUSH32 0x4E487B7100000000000000000000000000000000000000000000000000000000 PUSH1 0x0 MSTORE PUSH1 0x41 PUSH1 0x4 MSTORE PUSH1 0x24 PUSH1 0x0 REVERT JUMPDEST PUSH1 0x40 MLOAD SWAP1 DUP1 DUP3 MSTORE DUP1 PUSH1 0x20 MUL PUSH1 0x20 ADD DUP3 ADD PUSH1 0x40 MSTORE DUP1 ISZERO PUSH2 0xC9F JUMPI DUP2 PUSH1 0x20 ADD PUSH1 0x20 DUP3 MUL DUP1 CALLDATASIZE DUP4 CALLDATACOPY DUP1 DUP3 ADD SWAP2 POP POP SWAP1 POP JUMPDEST POP SWAP1 POP PUSH1 0x1 PUSH1 0x0 SWAP1 SLOAD SWAP1 PUSH2 0x100 EXP SWAP1 DIV PUSH20 0xFFFFFFFFFFFFFFFFFFFFFFFFFFFFFFFFFFFFFFFF AND PUSH20 0xFFFFFFFFFFFFFFFFFFFFFFFFFFFFFFFFFFFFFFFF AND PUSH4 0xAD5C4648 PUSH1 0x40 MLOAD DUP2 PUSH4 0xFFFFFFFF AND PUSH1 0xE0 SHL DUP2 MSTORE PUSH1 0x4 ADD PUSH1 0x20 PUSH1 0x40 MLOAD DUP1 DUP4 SUB DUP2 DUP7 DUP1 EXTCODESIZE ISZERO DUP1 ISZERO PUSH2 0xD0A JUMPI PUSH1 0x0 DUP1 REVERT JUMPDEST POP GAS STATICCALL ISZERO DUP1 ISZERO PUSH2 0xD1E JUMPI RETURNDATASIZE PUSH1 0x0 DUP1 RETURNDATACOPY RETURNDATASIZE PUSH1 0x0 REVERT JUMPDEST POP POP POP POP PUSH1 0x40 MLOAD RETURNDATASIZE PUSH1 0x1F NOT PUSH1 0x1F DUP3 ADD AND DUP3 ADD DUP1 PUSH1 0x40 MSTORE POP DUP2 ADD SWAP1 PUSH2 0xD42 SWAP2 SWAP1 PUSH2 0x1341 JUMP JUMPDEST DUP2 PUSH1 0x0 DUP2 MLOAD DUP2 LT PUSH2 0xD7C JUMPI PUSH32 0x4E487B7100000000000000000000000000000000000000000000000000000000 PUSH1 0x0 MSTORE PUSH1 0x32 PUSH1 0x4 MSTORE PUSH1 0x24 PUSH1 0x0 REVERT JUMPDEST PUSH1 0x20 MUL PUSH1 0x20 ADD ADD SWAP1 PUSH20 0xFFFFFFFFFFFFFFFFFFFFFFFFFFFFFFFFFFFFFFFF AND SWAP1 DUP2 PUSH20 0xFFFFFFFFFFFFFFFFFFFFFFFFFFFFFFFFFFFFFFFF AND DUP2 MSTORE POP POP DUP12 DUP2 PUSH1 0x1 DUP2 MLOAD DUP2 LT PUSH2 0xDF1 JUMPI PUSH32 0x4E487B7100000000000000000000000000000000000000000000000000000000 PUSH1 0x0 MSTORE PUSH1 0x32 PUSH1 0x4 MSTORE PUSH1 0x24 PUSH1 0x0 REVERT JUMPDEST PUSH1 0x20 MUL PUSH1 0x20 ADD ADD SWAP1 PUSH20 0xFFFFFFFFFFFFFFFFFFFFFFFFFFFFFFFFFFFFFFFF AND SWAP1 DUP2 PUSH20 0xFFFFFFFFFFFFFFFFFFFFFFFFFFFFFFFFFFFFFFFF AND DUP2 MSTORE POP POP PUSH1 0x0 PUSH1 0x1 PUSH1 0x0 SWAP1 SLOAD SWAP1 PUSH2 0x100 EXP SWAP1 DIV PUSH20 0xFFFFFFFFFFFFFFFFFFFFFFFFFFFFFFFFFFFFFFFF AND PUSH20 0xFFFFFFFFFFFFFFFFFFFFFFFFFFFFFFFFFFFFFFFF AND PUSH4 0x7FF36AB5 DUP12 DUP11 DUP6 ADDRESS DUP11 PUSH1 0x40 MLOAD DUP7 PUSH4 0xFFFFFFFF AND PUSH1 0xE0 SHL DUP2 MSTORE PUSH1 0x4 ADD PUSH2 0xE8F SWAP5 SWAP4 SWAP3 SWAP2 SWAP1 PUSH2 0x1A13 JUMP JUMPDEST PUSH1 0x0 PUSH1 0x40 MLOAD DUP1 DUP4 SUB DUP2 DUP6 DUP9 DUP1 EXTCODESIZE ISZERO DUP1 ISZERO PUSH2 0xEA8 JUMPI PUSH1 0x0 DUP1 REVERT JUMPDEST POP GAS CALL ISZERO DUP1 ISZERO PUSH2 0xEBC JUMPI RETURNDATASIZE PUSH1 0x0 DUP1 RETURNDATACOPY RETURNDATASIZE PUSH1 0x0 REVERT JUMPDEST POP POP POP POP POP PUSH1 0x40 MLOAD RETURNDATASIZE PUSH1 0x0 DUP3 RETURNDATACOPY RETURNDATASIZE PUSH1 0x1F NOT PUSH1 0x1F DUP3 ADD AND DUP3 ADD DUP1 PUSH1 0x40 MSTORE POP DUP2 ADD SWAP1 PUSH2 0xEE6 SWAP2 SWAP1 PUSH2 0x13CD JUMP JUMPDEST SWAP1 POP DUP1 PUSH1 0x1 DUP2 MLOAD DUP2 LT PUSH2 0xF22 JUMPI PUSH32 0x4E487B7100000000000000000000000000000000000000000000000000000000 PUSH1 0x0 MSTORE PUSH1 0x32 PUSH1 0x4 MSTORE PUSH1 0x24 PUSH1 0x0 REVERT JUMPDEST PUSH1 0x20 MUL PUSH1 0x20 ADD ADD MLOAD SWAP3 POP PUSH1 0x0 DUP4 GT PUSH2 0xF6F JUMPI PUSH1 0x40 MLOAD PUSH32 0x8C379A000000000000000000000000000000000000000000000000000000000 DUP2 MSTORE PUSH1 0x4 ADD PUSH2 0xF66 SWAP1 PUSH2 0x1951 JUMP JUMPDEST PUSH1 0x40 MLOAD DUP1 SWAP2 SUB SWAP1 REVERT JUMPDEST DUP13 PUSH20 0xFFFFFFFFFFFFFFFFFFFFFFFFFFFFFFFFFFFFFFFF AND PUSH4 0x95EA7B3 PUSH1 0x0 DUP1 SLOAD SWAP1 PUSH2 0x100 EXP SWAP1 DIV PUSH20 0xFFFFFFFFFFFFFFFFFFFFFFFFFFFFFFFFFFFFFFFF AND DUP6 PUSH1 0x40 MLOAD DUP4 PUSH4 0xFFFFFFFF AND PUSH1 0xE0 SHL DUP2 MSTORE PUSH1 0x4 ADD PUSH2 0xFCA SWAP3 SWAP2 SWAP1 PUSH2 0x1883 JUMP JUMPDEST PUSH1 0x20 PUSH1 0x40 MLOAD DUP1 DUP4 SUB DUP2 PUSH1 0x0 DUP8 DUP1 EXTCODESIZE ISZERO DUP1 ISZERO PUSH2 0xFE4 JUMPI PUSH1 0x0 DUP1 REVERT JUMPDEST POP GAS CALL ISZERO DUP1 ISZERO PUSH2 0xFF8 JUMPI RETURNDATASIZE PUSH1 0x0 DUP1 RETURNDATACOPY RETURNDATASIZE PUSH1 0x0 REVERT JUMPDEST POP POP POP POP PUSH1 0x40 MLOAD RETURNDATASIZE PUSH1 0x1F NOT PUSH1 0x1F DUP3 ADD AND DUP3 ADD DUP1 PUSH1 0x40 MSTORE POP DUP2 ADD SWAP1 PUSH2 0x101C SWAP2 SWAP1 PUSH2 0x140E JUMP JUMPDEST POP POP POP PUSH1 0x60 PUSH1 0x2 PUSH1 0x0 SWAP1 SLOAD SWAP1 PUSH2 0x100 EXP SWAP1 DIV PUSH20 0xFFFFFFFFFFFFFFFFFFFFFFFFFFFFFFFFFFFFFFFF AND DUP5 DUP7 DUP11 PUSH1 0x40 MLOAD PUSH1 0x20 ADD PUSH2 0x105A SWAP5 SWAP4 SWAP3 SWAP2 SWAP1 PUSH2 0x18AC JUMP JUMPDEST PUSH1 0x40 MLOAD PUSH1 0x20 DUP2 DUP4 SUB SUB DUP2 MSTORE SWAP1 PUSH1 0x40 MSTORE SWAP1 POP PUSH1 0x0 DUP1 SLOAD SWAP1 PUSH2 0x100 EXP SWAP1 DIV PUSH20 0xFFFFFFFFFFFFFFFFFFFFFFFFFFFFFFFFFFFFFFFF AND PUSH20 0xFFFFFFFFFFFFFFFFFFFFFFFFFFFFFFFFFFFFFFFF AND PUSH4 0x9FBF10FC PUSH2 0x10BA DUP12 CALLVALUE PUSH2 0x119A SWAP1 SWAP2 SWAP1 PUSH4 0xFFFFFFFF AND JUMP JUMPDEST DUP16 DUP15 DUP15 CALLER DUP9 DUP14 PUSH1 0x40 MLOAD DUP1 PUSH1 0x60 ADD PUSH1 0x40 MSTORE DUP1 PUSH3 0x7A120 DUP2 MSTORE PUSH1 0x20 ADD PUSH1 0x0 DUP2 MSTORE PUSH1 0x20 ADD PUSH1 0x40 MLOAD DUP1 PUSH1 0x40 ADD PUSH1 0x40 MSTORE DUP1 PUSH1 0x2 DUP2 MSTORE PUSH1 0x20 ADD PUSH32 0x3078000000000000000000000000000000000000000000000000000000000000 DUP2 MSTORE POP DUP2 MSTORE POP DUP13 PUSH1 0x40 MLOAD PUSH1 0x20 ADD PUSH2 0x1125 SWAP2 SWAP1 PUSH2 0x184D JUMP JUMPDEST PUSH1 0x40 MLOAD PUSH1 0x20 DUP2 DUP4 SUB SUB DUP2 MSTORE SWAP1 PUSH1 0x40 MSTORE DUP12 PUSH1 0x40 MLOAD DUP12 PUSH4 0xFFFFFFFF AND PUSH1 0xE0 SHL DUP2 MSTORE PUSH1 0x4 ADD PUSH2 0x1159 SWAP10 SWAP9 SWAP8 SWAP7 SWAP6 SWAP5 SWAP4 SWAP3 SWAP2 SWAP1 PUSH2 0x1971 JUMP JUMPDEST PUSH1 0x0 PUSH1 0x40 MLOAD DUP1 DUP4 SUB DUP2 DUP6 DUP9 DUP1 EXTCODESIZE ISZERO DUP1 ISZERO PUSH2 0x1172 JUMPI PUSH1 0x0 DUP1 REVERT JUMPDEST POP GAS CALL ISZERO DUP1 ISZERO PUSH2 0x1186 JUMPI RETURNDATASIZE PUSH1 0x0 DUP1 RETURNDATACOPY RETURNDATASIZE PUSH1 0x0 REVERT JUMPDEST POP POP POP POP POP POP POP POP POP POP POP POP POP POP POP POP POP POP JUMP JUMPDEST PUSH1 0x0 DUP2 DUP4 PUSH2 0x11A8 SWAP2 SWAP1 PUSH2 0x1BB2 JUMP JUMPDEST SWAP1 POP SWAP3 SWAP2 POP POP JUMP JUMPDEST PUSH1 0x0 PUSH2 0x11C3 PUSH2 0x11BE DUP5 PUSH2 0x1ADE JUMP JUMPDEST PUSH2 0x1AB9 JUMP JUMPDEST SWAP1 POP DUP1 DUP4 DUP3 MSTORE PUSH1 0x20 DUP3 ADD SWAP1 POP DUP3 DUP6 PUSH1 0x20 DUP7 MUL DUP3 ADD GT ISZERO PUSH2 0x11E2 JUMPI PUSH1 0x0 DUP1 REVERT JUMPDEST PUSH1 0x0 JUMPDEST DUP6 DUP2 LT ISZERO PUSH2 0x1212 JUMPI DUP2 PUSH2 0x11F8 DUP9 DUP3 PUSH2 0x132C JUMP JUMPDEST DUP5 MSTORE PUSH1 0x20 DUP5 ADD SWAP4 POP PUSH1 0x20 DUP4 ADD SWAP3 POP POP PUSH1 0x1 DUP2 ADD SWAP1 POP PUSH2 0x11E5 JUMP JUMPDEST POP POP POP SWAP4 SWAP3 POP POP POP JUMP JUMPDEST PUSH1 0x0 PUSH2 0x122F PUSH2 0x122A DUP5 PUSH2 0x1B0A JUMP JUMPDEST PUSH2 0x1AB9 JUMP JUMPDEST SWAP1 POP DUP3 DUP2 MSTORE PUSH1 0x20 DUP2 ADD DUP5 DUP5 DUP5 ADD GT ISZERO PUSH2 0x1247 JUMPI PUSH1 0x0 DUP1 REVERT JUMPDEST PUSH2 0x1252 DUP5 DUP3 DUP6 PUSH2 0x1C60 JUMP JUMPDEST POP SWAP4 SWAP3 POP POP POP JUMP JUMPDEST PUSH1 0x0 DUP2 CALLDATALOAD SWAP1 POP PUSH2 0x1269 DUP2 PUSH2 0x1EAF JUMP JUMPDEST SWAP3 SWAP2 POP POP JUMP JUMPDEST PUSH1 0x0 DUP2 MLOAD SWAP1 POP PUSH2 0x127E DUP2 PUSH2 0x1EAF JUMP JUMPDEST SWAP3 SWAP2 POP POP JUMP JUMPDEST PUSH1 0x0 DUP2 MLOAD SWAP1 POP PUSH2 0x1293 DUP2 PUSH2 0x1EC6 JUMP JUMPDEST SWAP3 SWAP2 POP POP JUMP JUMPDEST PUSH1 0x0 DUP3 PUSH1 0x1F DUP4 ADD SLT PUSH2 0x12AA JUMPI PUSH1 0x0 DUP1 REVERT JUMPDEST DUP2 MLOAD PUSH2 0x12BA DUP5 DUP3 PUSH1 0x20 DUP7 ADD PUSH2 0x11B0 JUMP JUMPDEST SWAP2 POP POP SWAP3 SWAP2 POP POP JUMP JUMPDEST PUSH1 0x0 DUP2 MLOAD SWAP1 POP PUSH2 0x12D2 DUP2 PUSH2 0x1EDD JUMP JUMPDEST SWAP3 SWAP2 POP POP JUMP JUMPDEST PUSH1 0x0 DUP3 PUSH1 0x1F DUP4 ADD SLT PUSH2 0x12E9 JUMPI PUSH1 0x0 DUP1 REVERT JUMPDEST DUP2 CALLDATALOAD PUSH2 0x12F9 DUP5 DUP3 PUSH1 0x20 DUP7 ADD PUSH2 0x121C JUMP JUMPDEST SWAP2 POP POP SWAP3 SWAP2 POP POP JUMP JUMPDEST PUSH1 0x0 DUP2 CALLDATALOAD SWAP1 POP PUSH2 0x1311 DUP2 PUSH2 0x1EF4 JUMP JUMPDEST SWAP3 SWAP2 POP POP JUMP JUMPDEST PUSH1 0x0 DUP2 CALLDATALOAD SWAP1 POP PUSH2 0x1326 DUP2 PUSH2 0x1F0B JUMP JUMPDEST SWAP3 SWAP2 POP POP JUMP JUMPDEST PUSH1 0x0 DUP2 MLOAD SWAP1 POP PUSH2 0x133B DUP2 PUSH2 0x1F0B JUMP JUMPDEST SWAP3 SWAP2 POP POP JUMP JUMPDEST PUSH1 0x0 PUSH1 0x20 DUP3 DUP5 SUB SLT ISZERO PUSH2 0x1353 JUMPI PUSH1 0x0 DUP1 REVERT JUMPDEST PUSH1 0x0 PUSH2 0x1361 DUP5 DUP3 DUP6 ADD PUSH2 0x126F JUMP JUMPDEST SWAP2 POP POP SWAP3 SWAP2 POP POP JUMP JUMPDEST PUSH1 0x0 DUP1 PUSH1 0x0 DUP1 PUSH1 0x80 DUP6 DUP8 SUB SLT ISZERO PUSH2 0x1380 JUMPI PUSH1 0x0 DUP1 REVERT JUMPDEST PUSH1 0x0 PUSH2 0x138E DUP8 DUP3 DUP9 ADD PUSH2 0x1284 JUMP JUMPDEST SWAP5 POP POP PUSH1 0x20 PUSH2 0x139F DUP8 DUP3 DUP9 ADD PUSH2 0x132C JUMP JUMPDEST SWAP4 POP POP PUSH1 0x40 PUSH2 0x13B0 DUP8 DUP3 DUP9 ADD PUSH2 0x132C JUMP JUMPDEST SWAP3 POP POP PUSH1 0x60 PUSH2 0x13C1 DUP8 DUP3 DUP9 ADD PUSH2 0x1284 JUMP JUMPDEST SWAP2 POP POP SWAP3 SWAP6 SWAP2 SWAP5 POP SWAP3 POP JUMP JUMPDEST PUSH1 0x0 PUSH1 0x20 DUP3 DUP5 SUB SLT ISZERO PUSH2 0x13DF JUMPI PUSH1 0x0 DUP1 REVERT JUMPDEST PUSH1 0x0 DUP3 ADD MLOAD PUSH8 0xFFFFFFFFFFFFFFFF DUP2 GT ISZERO PUSH2 0x13F9 JUMPI PUSH1 0x0 DUP1 REVERT JUMPDEST PUSH2 0x1405 DUP5 DUP3 DUP6 ADD PUSH2 0x1299 JUMP JUMPDEST SWAP2 POP POP SWAP3 SWAP2 POP POP JUMP JUMPDEST PUSH1 0x0 PUSH1 0x20 DUP3 DUP5 SUB SLT ISZERO PUSH2 0x1420 JUMPI PUSH1 0x0 DUP1 REVERT JUMPDEST PUSH1 0x0 PUSH2 0x142E DUP5 DUP3 DUP6 ADD PUSH2 0x12C3 JUMP JUMPDEST SWAP2 POP POP SWAP3 SWAP2 POP POP JUMP JUMPDEST PUSH1 0x0 DUP1 PUSH1 0x0 DUP1 PUSH1 0x0 DUP1 PUSH1 0x0 DUP1 PUSH1 0x0 DUP1 PUSH1 0x0 PUSH2 0x160 DUP13 DUP15 SUB SLT ISZERO PUSH2 0x1459 JUMPI PUSH1 0x0 DUP1 REVERT JUMPDEST PUSH1 0x0 PUSH2 0x1467 DUP15 DUP3 DUP16 ADD PUSH2 0x1302 JUMP JUMPDEST SWAP12 POP POP PUSH1 0x20 PUSH2 0x1478 DUP15 DUP3 DUP16 ADD PUSH2 0x125A JUMP JUMPDEST SWAP11 POP POP PUSH1 0x40 PUSH2 0x1489 DUP15 DUP3 DUP16 ADD PUSH2 0x1302 JUMP JUMPDEST SWAP10 POP POP PUSH1 0x60 PUSH2 0x149A DUP15 DUP3 DUP16 ADD PUSH2 0x1302 JUMP JUMPDEST SWAP9 POP POP PUSH1 0x80 PUSH2 0x14AB DUP15 DUP3 DUP16 ADD PUSH2 0x1317 JUMP JUMPDEST SWAP8 POP POP PUSH1 0xA0 PUSH2 0x14BC DUP15 DUP3 DUP16 ADD PUSH2 0x125A JUMP JUMPDEST SWAP7 POP POP PUSH1 0xC0 PUSH2 0x14CD DUP15 DUP3 DUP16 ADD PUSH2 0x1317 JUMP JUMPDEST SWAP6 POP POP PUSH1 0xE0 PUSH2 0x14DE DUP15 DUP3 DUP16 ADD PUSH2 0x1317 JUMP JUMPDEST SWAP5 POP POP PUSH2 0x100 PUSH2 0x14F0 DUP15 DUP3 DUP16 ADD PUSH2 0x1317 JUMP JUMPDEST SWAP4 POP POP PUSH2 0x120 PUSH2 0x1502 DUP15 DUP3 DUP16 ADD PUSH2 0x1317 JUMP JUMPDEST SWAP3 POP POP PUSH2 0x140 PUSH2 0x1514 DUP15 DUP3 DUP16 ADD PUSH2 0x125A JUMP JUMPDEST SWAP2 POP POP SWAP3 SWAP6 SWAP9 SWAP12 POP SWAP3 SWAP6 SWAP9 SWAP12 SWAP1 SWAP4 SWAP7 SWAP10 POP JUMP JUMPDEST PUSH1 0x0 DUP1 PUSH1 0x0 DUP1 PUSH1 0x0 DUP1 PUSH1 0xC0 DUP8 DUP10 SUB SLT ISZERO PUSH2 0x1540 JUMPI PUSH1 0x0 DUP1 REVERT JUMPDEST PUSH1 0x0 PUSH2 0x154E DUP10 DUP3 DUP11 ADD PUSH2 0x1302 JUMP JUMPDEST SWAP7 POP POP PUSH1 0x20 DUP8 ADD CALLDATALOAD PUSH8 0xFFFFFFFFFFFFFFFF DUP2 GT ISZERO PUSH2 0x156B JUMPI PUSH1 0x0 DUP1 REVERT JUMPDEST PUSH2 0x1577 DUP10 DUP3 DUP11 ADD PUSH2 0x12D8 JUMP JUMPDEST SWAP6 POP POP PUSH1 0x40 PUSH2 0x1588 DUP10 DUP3 DUP11 ADD PUSH2 0x1317 JUMP JUMPDEST SWAP5 POP POP PUSH1 0x60 PUSH2 0x1599 DUP10 DUP3 DUP11 ADD PUSH2 0x125A JUMP JUMPDEST SWAP4 POP POP PUSH1 0x80 PUSH2 0x15AA DUP10 DUP3 DUP11 ADD PUSH2 0x1317 JUMP JUMPDEST SWAP3 POP POP PUSH1 0xA0 DUP8 ADD CALLDATALOAD PUSH8 0xFFFFFFFFFFFFFFFF DUP2 GT ISZERO PUSH2 0x15C7 JUMPI PUSH1 0x0 DUP1 REVERT JUMPDEST PUSH2 0x15D3 DUP10 DUP3 DUP11 ADD PUSH2 0x12D8 JUMP JUMPDEST SWAP2 POP POP SWAP3 SWAP6 POP SWAP3 SWAP6 POP SWAP3 SWAP6 JUMP JUMPDEST PUSH1 0x0 PUSH1 0x20 DUP3 DUP5 SUB SLT ISZERO PUSH2 0x15F2 JUMPI PUSH1 0x0 DUP1 REVERT JUMPDEST PUSH1 0x0 PUSH2 0x1600 DUP5 DUP3 DUP6 ADD PUSH2 0x132C JUMP JUMPDEST SWAP2 POP POP SWAP3 SWAP2 POP POP JUMP JUMPDEST PUSH1 0x0 PUSH2 0x1615 DUP4 DUP4 PUSH2 0x1630 JUMP JUMPDEST PUSH1 0x20 DUP4 ADD SWAP1 POP SWAP3 SWAP2 POP POP JUMP JUMPDEST PUSH2 0x162A DUP2 PUSH2 0x1BF8 JUMP JUMPDEST DUP3 MSTORE POP POP JUMP JUMPDEST PUSH2 0x1639 DUP2 PUSH2 0x1BE6 JUMP JUMPDEST DUP3 MSTORE POP POP JUMP JUMPDEST PUSH2 0x1648 DUP2 PUSH2 0x1BE6 JUMP JUMPDEST DUP3 MSTORE POP POP JUMP JUMPDEST PUSH2 0x165F PUSH2 0x165A DUP3 PUSH2 0x1BE6 JUMP JUMPDEST PUSH2 0x1CD3 JUMP JUMPDEST DUP3 MSTORE POP POP JUMP JUMPDEST PUSH1 0x0 PUSH2 0x1670 DUP3 PUSH2 0x1B4B JUMP JUMPDEST PUSH2 0x167A DUP2 DUP6 PUSH2 0x1B6E JUMP JUMPDEST SWAP4 POP PUSH2 0x1685 DUP4 PUSH2 0x1B3B JUMP JUMPDEST DUP1 PUSH1 0x0 JUMPDEST DUP4 DUP2 LT ISZERO PUSH2 0x16B6 JUMPI DUP2 MLOAD PUSH2 0x169D DUP9 DUP3 PUSH2 0x1609 JUMP JUMPDEST SWAP8 POP PUSH2 0x16A8 DUP4 PUSH2 0x1B61 JUMP JUMPDEST SWAP3 POP POP PUSH1 0x1 DUP2 ADD SWAP1 POP PUSH2 0x1689 JUMP JUMPDEST POP DUP6 SWAP4 POP POP POP POP SWAP3 SWAP2 POP POP JUMP JUMPDEST PUSH1 0x0 PUSH2 0x16CE DUP3 PUSH2 0x1B56 JUMP JUMPDEST PUSH2 0x16D8 DUP2 DUP6 PUSH2 0x1B7F JUMP JUMPDEST SWAP4 POP PUSH2 0x16E8 DUP2 DUP6 PUSH1 0x20 DUP7 ADD PUSH2 0x1C6F JUMP JUMPDEST PUSH2 0x16F1 DUP2 PUSH2 0x1D55 JUMP JUMPDEST DUP5 ADD SWAP2 POP POP SWAP3 SWAP2 POP POP JUMP JUMPDEST PUSH1 0x0 PUSH2 0x1707 DUP3 PUSH2 0x1B56 JUMP JUMPDEST PUSH2 0x1711 DUP2 DUP6 PUSH2 0x1B90 JUMP JUMPDEST SWAP4 POP PUSH2 0x1721 DUP2 DUP6 PUSH1 0x20 DUP7 ADD PUSH2 0x1C6F JUMP JUMPDEST PUSH2 0x172A DUP2 PUSH2 0x1D55 JUMP JUMPDEST DUP5 ADD SWAP2 POP POP SWAP3 SWAP2 POP POP JUMP JUMPDEST PUSH1 0x0 PUSH2 0x1742 PUSH1 0x2F DUP4 PUSH2 0x1BA1 JUMP JUMPDEST SWAP2 POP PUSH2 0x174D DUP3 PUSH2 0x1D73 JUMP JUMPDEST PUSH1 0x40 DUP3 ADD SWAP1 POP SWAP2 SWAP1 POP JUMP JUMPDEST PUSH1 0x0 PUSH2 0x1765 PUSH1 0x28 DUP4 PUSH2 0x1BA1 JUMP JUMPDEST SWAP2 POP PUSH2 0x1770 DUP3 PUSH2 0x1DC2 JUMP JUMPDEST PUSH1 0x40 DUP3 ADD SWAP1 POP SWAP2 SWAP1 POP JUMP JUMPDEST PUSH1 0x0 PUSH2 0x1788 PUSH1 0x25 DUP4 PUSH2 0x1BA1 JUMP JUMPDEST SWAP2 POP PUSH2 0x1793 DUP3 PUSH2 0x1E11 JUMP JUMPDEST PUSH1 0x40 DUP3 ADD SWAP1 POP SWAP2 SWAP1 POP JUMP JUMPDEST PUSH1 0x0 PUSH2 0x17AB PUSH1 0x39 DUP4 PUSH2 0x1BA1 JUMP JUMPDEST SWAP2 POP PUSH2 0x17B6 DUP3 PUSH2 0x1E60 JUMP JUMPDEST PUSH1 0x40 DUP3 ADD SWAP1 POP SWAP2 SWAP1 POP JUMP JUMPDEST PUSH1 0x0 PUSH1 0x60 DUP4 ADD PUSH1 0x0 DUP4 ADD MLOAD PUSH2 0x17D9 PUSH1 0x0 DUP7 ADD DUP3 PUSH2 0x182F JUMP JUMPDEST POP PUSH1 0x20 DUP4 ADD MLOAD PUSH2 0x17EC PUSH1 0x20 DUP7 ADD DUP3 PUSH2 0x182F JUMP JUMPDEST POP PUSH1 0x40 DUP4 ADD MLOAD DUP5 DUP3 SUB PUSH1 0x40 DUP7 ADD MSTORE PUSH2 0x1804 DUP3 DUP3 PUSH2 0x16C3 JUMP JUMPDEST SWAP2 POP POP DUP1 SWAP2 POP POP SWAP3 SWAP2 POP POP JUMP JUMPDEST PUSH2 0x181A DUP2 PUSH2 0x1C16 JUMP JUMPDEST DUP3 MSTORE POP POP JUMP JUMPDEST PUSH2 0x1829 DUP2 PUSH2 0x1C4E JUMP JUMPDEST DUP3 MSTORE POP POP JUMP JUMPDEST PUSH2 0x1838 DUP2 PUSH2 0x1C44 JUMP JUMPDEST DUP3 MSTORE POP POP JUMP JUMPDEST PUSH2 0x1847 DUP2 PUSH2 0x1C44 JUMP JUMPDEST DUP3 MSTORE POP POP JUMP JUMPDEST PUSH1 0x0 PUSH2 0x1859 DUP3 DUP5 PUSH2 0x164E JUMP JUMPDEST PUSH1 0x14 DUP3 ADD SWAP2 POP DUP2 SWAP1 POP SWAP3 SWAP2 POP POP JUMP JUMPDEST PUSH1 0x0 PUSH1 0x20 DUP3 ADD SWAP1 POP PUSH2 0x187D PUSH1 0x0 DUP4 ADD DUP5 PUSH2 0x163F JUMP JUMPDEST SWAP3 SWAP2 POP POP JUMP JUMPDEST PUSH1 0x0 PUSH1 0x40 DUP3 ADD SWAP1 POP PUSH2 0x1898 PUSH1 0x0 DUP4 ADD DUP6 PUSH2 0x163F JUMP JUMPDEST PUSH2 0x18A5 PUSH1 0x20 DUP4 ADD DUP5 PUSH2 0x183E JUMP JUMPDEST SWAP4 SWAP3 POP POP POP JUMP JUMPDEST PUSH1 0x0 PUSH1 0x80 DUP3 ADD SWAP1 POP PUSH2 0x18C1 PUSH1 0x0 DUP4 ADD DUP8 PUSH2 0x163F JUMP JUMPDEST PUSH2 0x18CE PUSH1 0x20 DUP4 ADD DUP7 PUSH2 0x183E JUMP JUMPDEST PUSH2 0x18DB PUSH1 0x40 DUP4 ADD DUP6 PUSH2 0x183E JUMP JUMPDEST PUSH2 0x18E8 PUSH1 0x60 DUP4 ADD DUP5 PUSH2 0x163F JUMP JUMPDEST SWAP6 SWAP5 POP POP POP POP POP JUMP JUMPDEST PUSH1 0x0 PUSH1 0x20 DUP3 ADD SWAP1 POP DUP2 DUP2 SUB PUSH1 0x0 DUP4 ADD MSTORE PUSH2 0x190A DUP2 PUSH2 0x1735 JUMP JUMPDEST SWAP1 POP SWAP2 SWAP1 POP JUMP JUMPDEST PUSH1 0x0 PUSH1 0x20 DUP3 ADD SWAP1 POP DUP2 DUP2 SUB PUSH1 0x0 DUP4 ADD MSTORE PUSH2 0x192A DUP2 PUSH2 0x1758 JUMP JUMPDEST SWAP1 POP SWAP2 SWAP1 POP JUMP JUMPDEST PUSH1 0x0 PUSH1 0x20 DUP3 ADD SWAP1 POP DUP2 DUP2 SUB PUSH1 0x0 DUP4 ADD MSTORE PUSH2 0x194A DUP2 PUSH2 0x177B JUMP JUMPDEST SWAP1 POP SWAP2 SWAP1 POP JUMP JUMPDEST PUSH1 0x0 PUSH1 0x20 DUP3 ADD SWAP1 POP DUP2 DUP2 SUB PUSH1 0x0 DUP4 ADD MSTORE PUSH2 0x196A DUP2 PUSH2 0x179E JUMP JUMPDEST SWAP1 POP SWAP2 SWAP1 POP JUMP JUMPDEST PUSH1 0x0 PUSH2 0x120 DUP3 ADD SWAP1 POP PUSH2 0x1987 PUSH1 0x0 DUP4 ADD DUP13 PUSH2 0x1811 JUMP JUMPDEST PUSH2 0x1994 PUSH1 0x20 DUP4 ADD DUP12 PUSH2 0x1820 JUMP JUMPDEST PUSH2 0x19A1 PUSH1 0x40 DUP4 ADD DUP11 PUSH2 0x1820 JUMP JUMPDEST PUSH2 0x19AE PUSH1 0x60 DUP4 ADD DUP10 PUSH2 0x1621 JUMP JUMPDEST PUSH2 0x19BB PUSH1 0x80 DUP4 ADD DUP9 PUSH2 0x183E JUMP JUMPDEST PUSH2 0x19C8 PUSH1 0xA0 DUP4 ADD DUP8 PUSH2 0x183E JUMP JUMPDEST DUP2 DUP2 SUB PUSH1 0xC0 DUP4 ADD MSTORE PUSH2 0x19DA DUP2 DUP7 PUSH2 0x17C1 JUMP JUMPDEST SWAP1 POP DUP2 DUP2 SUB PUSH1 0xE0 DUP4 ADD MSTORE PUSH2 0x19EE DUP2 DUP6 PUSH2 0x16FC JUMP JUMPDEST SWAP1 POP DUP2 DUP2 SUB PUSH2 0x100 DUP4 ADD MSTORE PUSH2 0x1A03 DUP2 DUP5 PUSH2 0x16FC JUMP JUMPDEST SWAP1 POP SWAP11 SWAP10 POP POP POP POP POP POP POP POP POP POP JUMP JUMPDEST PUSH1 0x0 PUSH1 0x80 DUP3 ADD SWAP1 POP PUSH2 0x1A28 PUSH1 0x0 DUP4 ADD DUP8 PUSH2 0x183E JUMP JUMPDEST DUP2 DUP2 SUB PUSH1 0x20 DUP4 ADD MSTORE PUSH2 0x1A3A DUP2 DUP7 PUSH2 0x1665 JUMP JUMPDEST SWAP1 POP PUSH2 0x1A49 PUSH1 0x40 DUP4 ADD DUP6 PUSH2 0x163F JUMP JUMPDEST PUSH2 0x1A56 PUSH1 0x60 DUP4 ADD DUP5 PUSH2 0x183E JUMP JUMPDEST SWAP6 SWAP5 POP POP POP POP POP JUMP JUMPDEST PUSH1 0x0 PUSH1 0xA0 DUP3 ADD SWAP1 POP PUSH2 0x1A74 PUSH1 0x0 DUP4 ADD DUP9 PUSH2 0x183E JUMP JUMPDEST PUSH2 0x1A81 PUSH1 0x20 DUP4 ADD DUP8 PUSH2 0x183E JUMP JUMPDEST DUP2 DUP2 SUB PUSH1 0x40 DUP4 ADD MSTORE PUSH2 0x1A93 DUP2 DUP7 PUSH2 0x1665 JUMP JUMPDEST SWAP1 POP PUSH2 0x1AA2 PUSH1 0x60 DUP4 ADD DUP6 PUSH2 0x163F JUMP JUMPDEST PUSH2 0x1AAF PUSH1 0x80 DUP4 ADD DUP5 PUSH2 0x183E JUMP JUMPDEST SWAP7 SWAP6 POP POP POP POP POP POP JUMP JUMPDEST PUSH1 0x0 PUSH2 0x1AC3 PUSH2 0x1AD4 JUMP JUMPDEST SWAP1 POP PUSH2 0x1ACF DUP3 DUP3 PUSH2 0x1CA2 JUMP JUMPDEST SWAP2 SWAP1 POP JUMP JUMPDEST PUSH1 0x0 PUSH1 0x40 MLOAD SWAP1 POP SWAP1 JUMP JUMPDEST PUSH1 0x0 PUSH8 0xFFFFFFFFFFFFFFFF DUP3 GT ISZERO PUSH2 0x1AF9 JUMPI PUSH2 0x1AF8 PUSH2 0x1D26 JUMP JUMPDEST JUMPDEST PUSH1 0x20 DUP3 MUL SWAP1 POP PUSH1 0x20 DUP2 ADD SWAP1 POP SWAP2 SWAP1 POP JUMP JUMPDEST PUSH1 0x0 PUSH8 0xFFFFFFFFFFFFFFFF DUP3 GT ISZERO PUSH2 0x1B25 JUMPI PUSH2 0x1B24 PUSH2 0x1D26 JUMP JUMPDEST JUMPDEST PUSH2 0x1B2E DUP3 PUSH2 0x1D55 JUMP JUMPDEST SWAP1 POP PUSH1 0x20 DUP2 ADD SWAP1 POP SWAP2 SWAP1 POP JUMP JUMPDEST PUSH1 0x0 DUP2 SWAP1 POP PUSH1 0x20 DUP3 ADD SWAP1 POP SWAP2 SWAP1 POP JUMP JUMPDEST PUSH1 0x0 DUP2 MLOAD SWAP1 POP SWAP2 SWAP1 POP JUMP JUMPDEST PUSH1 0x0 DUP2 MLOAD SWAP1 POP SWAP2 SWAP1 POP JUMP JUMPDEST PUSH1 0x0 PUSH1 0x20 DUP3 ADD SWAP1 POP SWAP2 SWAP1 POP JUMP JUMPDEST PUSH1 0x0 DUP3 DUP3 MSTORE PUSH1 0x20 DUP3 ADD SWAP1 POP SWAP3 SWAP2 POP POP JUMP JUMPDEST PUSH1 0x0 DUP3 DUP3 MSTORE PUSH1 0x20 DUP3 ADD SWAP1 POP SWAP3 SWAP2 POP POP JUMP JUMPDEST PUSH1 0x0 DUP3 DUP3 MSTORE PUSH1 0x20 DUP3 ADD SWAP1 POP SWAP3 SWAP2 POP POP JUMP JUMPDEST PUSH1 0x0 DUP3 DUP3 MSTORE PUSH1 0x20 DUP3 ADD SWAP1 POP SWAP3 SWAP2 POP POP JUMP JUMPDEST PUSH1 0x0 PUSH2 0x1BBD DUP3 PUSH2 0x1C44 JUMP JUMPDEST SWAP2 POP PUSH2 0x1BC8 DUP4 PUSH2 0x1C44 JUMP JUMPDEST SWAP3 POP DUP3 DUP3 LT ISZERO PUSH2 0x1BDB JUMPI PUSH2 0x1BDA PUSH2 0x1CF7 JUMP JUMPDEST JUMPDEST DUP3 DUP3 SUB SWAP1 POP SWAP3 SWAP2 POP POP JUMP JUMPDEST PUSH1 0x0 PUSH2 0x1BF1 DUP3 PUSH2 0x1C24 JUMP JUMPDEST SWAP1 POP SWAP2 SWAP1 POP JUMP JUMPDEST PUSH1 0x0 PUSH2 0x1C03 DUP3 PUSH2 0x1C24 JUMP JUMPDEST SWAP1 POP SWAP2 SWAP1 POP JUMP JUMPDEST PUSH1 0x0 DUP2 ISZERO ISZERO SWAP1 POP SWAP2 SWAP1 POP JUMP JUMPDEST PUSH1 0x0 PUSH2 0xFFFF DUP3 AND SWAP1 POP SWAP2 SWAP1 POP JUMP JUMPDEST PUSH1 0x0 PUSH20 0xFFFFFFFFFFFFFFFFFFFFFFFFFFFFFFFFFFFFFFFF DUP3 AND SWAP1 POP SWAP2 SWAP1 POP JUMP JUMPDEST PUSH1 0x0 DUP2 SWAP1 POP SWAP2 SWAP1 POP JUMP JUMPDEST PUSH1 0x0 PUSH2 0x1C59 DUP3 PUSH2 0x1C16 JUMP JUMPDEST SWAP1 POP SWAP2 SWAP1 POP JUMP JUMPDEST DUP3 DUP2 DUP4 CALLDATACOPY PUSH1 0x0 DUP4 DUP4 ADD MSTORE POP POP POP JUMP JUMPDEST PUSH1 0x0 JUMPDEST DUP4 DUP2 LT ISZERO PUSH2 0x1C8D JUMPI DUP1 DUP3 ADD MLOAD DUP2 DUP5 ADD MSTORE PUSH1 0x20 DUP2 ADD SWAP1 POP PUSH2 0x1C72 JUMP JUMPDEST DUP4 DUP2 GT ISZERO PUSH2 0x1C9C JUMPI PUSH1 0x0 DUP5 DUP5 ADD MSTORE JUMPDEST POP POP POP POP JUMP JUMPDEST PUSH2 0x1CAB DUP3 PUSH2 0x1D55 JUMP JUMPDEST DUP2 ADD DUP2 DUP2 LT PUSH8 0xFFFFFFFFFFFFFFFF DUP3 GT OR ISZERO PUSH2 0x1CCA JUMPI PUSH2 0x1CC9 PUSH2 0x1D26 JUMP JUMPDEST JUMPDEST DUP1 PUSH1 0x40 MSTORE POP POP POP JUMP JUMPDEST PUSH1 0x0 PUSH2 0x1CDE DUP3 PUSH2 0x1CE5 JUMP JUMPDEST SWAP1 POP SWAP2 SWAP1 POP JUMP JUMPDEST PUSH1 0x0 PUSH2 0x1CF0 DUP3 PUSH2 0x1D66 JUMP JUMPDEST SWAP1 POP SWAP2 SWAP1 POP JUMP JUMPDEST PUSH32 0x4E487B7100000000000000000000000000000000000000000000000000000000 PUSH1 0x0 MSTORE PUSH1 0x11 PUSH1 0x4 MSTORE PUSH1 0x24 PUSH1 0x0 REVERT JUMPDEST PUSH32 0x4E487B7100000000000000000000000000000000000000000000000000000000 PUSH1 0x0 MSTORE PUSH1 0x41 PUSH1 0x4 MSTORE PUSH1 0x24 PUSH1 0x0 REVERT JUMPDEST PUSH1 0x0 PUSH1 0x1F NOT PUSH1 0x1F DUP4 ADD AND SWAP1 POP SWAP2 SWAP1 POP JUMP JUMPDEST PUSH1 0x0 DUP2 PUSH1 0x60 SHL SWAP1 POP SWAP2 SWAP1 POP JUMP JUMPDEST PUSH32 0x73746172676174652072657175697265732066656520746F207061792063726F PUSH1 0x0 DUP3 ADD MSTORE PUSH32 0x7373636861696E206D6573736167650000000000000000000000000000000000 PUSH1 0x20 DUP3 ADD MSTORE POP JUMP JUMPDEST PUSH32 0x6F6E6C7920737461726761746520726F757465722063616E2063616C6C207367 PUSH1 0x0 DUP3 ADD MSTORE PUSH32 0x5265636569766521000000000000000000000000000000000000000000000000 PUSH1 0x20 DUP3 ADD MSTORE POP JUMP JUMPDEST PUSH32 0x6E6174697665416D6F756E74496E206D75737420626520677265617465722074 PUSH1 0x0 DUP3 ADD MSTORE PUSH32 0x68616E2030000000000000000000000000000000000000000000000000000000 PUSH1 0x20 DUP3 ADD MSTORE POP JUMP JUMPDEST PUSH32 0x6572726F723A20616D6D526F757465722067617665207573203020746F6B656E PUSH1 0x0 DUP3 ADD MSTORE PUSH32 0x7320746F20737761702829207769746820737461726761746500000000000000 PUSH1 0x20 DUP3 ADD MSTORE POP JUMP JUMPDEST PUSH2 0x1EB8 DUP2 PUSH2 0x1BE6 JUMP JUMPDEST DUP2 EQ PUSH2 0x1EC3 JUMPI PUSH1 0x0 DUP1 REVERT JUMPDEST POP JUMP JUMPDEST PUSH2 0x1ECF DUP2 PUSH2 0x1BF8 JUMP JUMPDEST DUP2 EQ PUSH2 0x1EDA JUMPI PUSH1 0x0 DUP1 REVERT JUMPDEST POP JUMP JUMPDEST PUSH2 0x1EE6 DUP2 PUSH2 0x1C0A JUMP JUMPDEST DUP2 EQ PUSH2 0x1EF1 JUMPI PUSH1 0x0 DUP1 REVERT JUMPDEST POP JUMP JUMPDEST PUSH2 0x1EFD DUP2 PUSH2 0x1C16 JUMP JUMPDEST DUP2 EQ PUSH2 0x1F08 JUMPI PUSH1 0x0 DUP1 REVERT JUMPDEST POP JUMP JUMPDEST PUSH2 0x1F14 DUP2 PUSH2 0x1C44 JUMP JUMPDEST DUP2 EQ PUSH2 0x1F1F JUMPI PUSH1 0x0 DUP1 REVERT JUMPDEST POP JUMP INVALID LOG2 PUSH5 0x6970667358 0x22 SLT KECCAK256 INVALID 0xD4 MULMOD 0x5C 0xEE DUP4 0xA9 CALLVALUE 0xCF NUMBER 0xFB MLOAD PUSH6 0x9F3C64451937 0xD0 EXTCODEHASH 0xE2 CALLER 0xFC INVALID 0x5F PUSH4 0x332A30B2 0xD5 PUSH5 0x736F6C6343 STOP ADDMOD DIV STOP CALLER "
				},
				"gasEstimates": {
					"creation": {
						"codeDepositCost": "1604800",
						"executionCost": "infinite",
						"totalCost": "infinite"
					},
					"external": {
						"OUT_TO_NATIVE()": "1192",
						"ammRouter()": "1214",
						"sgReceive(uint16,bytes,uint256,address,uint256,bytes)": "infinite",
						"stargateRouter()": "1233",
						"swapNativeForNative(uint16,address,uint16,uint16,uint256,address,uint256,uint256,uint256,uint256,address)": "infinite"
					}
				},
				"methodIdentifiers": {
					"OUT_TO_NATIVE()": "7b4ad01a",
					"ammRouter()": "90b3c4e7",
					"sgReceive(uint16,bytes,uint256,address,uint256,bytes)": "ab8236f3",
					"stargateRouter()": "a9e56f3c",
					"swapNativeForNative(uint16,address,uint16,uint16,uint256,address,uint256,uint256,uint256,uint256,address)": "d0328113"
				}
			},
			"storageLayout": {
				"storage": [
					{
						"astId": 800,
						"contract": "solidity-examples-main/contracts/StargateComposed.sol:StargateComposed",
						"label": "stargateRouter",
						"offset": 0,
						"slot": "0",
						"type": "t_address"
					},
					{
						"astId": 802,
						"contract": "solidity-examples-main/contracts/StargateComposed.sol:StargateComposed",
						"label": "ammRouter",
						"offset": 0,
						"slot": "1",
						"type": "t_address"
					},
					{
						"astId": 805,
						"contract": "solidity-examples-main/contracts/StargateComposed.sol:StargateComposed",
						"label": "OUT_TO_NATIVE",
						"offset": 0,
						"slot": "2",
						"type": "t_address"
					}
				],
				"types": {
					"t_address": {
						"encoding": "inplace",
						"label": "address",
						"numberOfBytes": "20"
					}
				}
			},
			"userdoc": {
				"kind": "user",
				"methods": {},
				"version": 1
			}
		}
	}
}