{
	"solidity-examples-main/contracts/Multistake/Registry.sol": {
		"Registry": {
			"abi": [
				{
					"inputs": [],
					"stateMutability": "nonpayable",
					"type": "constructor"
				},
				{
					"inputs": [
						{
							"internalType": "uint256",
							"name": "",
							"type": "uint256"
						}
					],
					"name": "ChainIdToStargateId",
					"outputs": [
						{
							"internalType": "uint16",
							"name": "",
							"type": "uint16"
						}
					],
					"stateMutability": "view",
					"type": "function"
				},
				{
					"inputs": [
						{
							"internalType": "uint16",
							"name": "",
							"type": "uint16"
						}
					],
					"name": "StargateIdToChainId",
					"outputs": [
						{
							"internalType": "uint256",
							"name": "",
							"type": "uint256"
						}
					],
					"stateMutability": "view",
					"type": "function"
				}
			],
			"devdoc": {
				"kind": "dev",
				"methods": {},
				"version": 1
			},
			"evm": {
				"assembly": "    /* \"solidity-examples-main/contracts/Multistake/Registry.sol\":62:1661  contract Registry {\r... */\n  mstore(0x40, 0x80)\n    /* \"solidity-examples-main/contracts/Multistake/Registry.sol\":428:916  constructor(){\r... */\n  callvalue\n  dup1\n  iszero\n  tag_1\n  jumpi\n  0x00\n  dup1\n  revert\ntag_1:\n  pop\n    /* \"solidity-examples-main/contracts/Multistake/Registry.sol\":607:608  1 */\n  0x01\n    /* \"solidity-examples-main/contracts/Multistake/Registry.sol\":580:599  StargateIdToChainId */\n  0x00\n    /* \"solidity-examples-main/contracts/Multistake/Registry.sol\":580:604  StargateIdToChainId[101] */\n  dup1\n    /* \"solidity-examples-main/contracts/Multistake/Registry.sol\":600:603  101 */\n  0x65\n    /* \"solidity-examples-main/contracts/Multistake/Registry.sol\":580:604  StargateIdToChainId[101] */\n  0xffff\n  and\n  dup2\n  mstore\n  0x20\n  add\n  swap1\n  dup2\n  mstore\n  0x20\n  add\n  0x00\n  keccak256\n    /* \"solidity-examples-main/contracts/Multistake/Registry.sol\":580:608  StargateIdToChainId[101] = 1 */\n  dup2\n  swap1\n  sstore\n  pop\n    /* \"solidity-examples-main/contracts/Multistake/Registry.sol\":646:651  43114 */\n  0xa86a\n    /* \"solidity-examples-main/contracts/Multistake/Registry.sol\":619:638  StargateIdToChainId */\n  0x00\n    /* \"solidity-examples-main/contracts/Multistake/Registry.sol\":619:643  StargateIdToChainId[106] */\n  dup1\n    /* \"solidity-examples-main/contracts/Multistake/Registry.sol\":639:642  106 */\n  0x6a\n    /* \"solidity-examples-main/contracts/Multistake/Registry.sol\":619:643  StargateIdToChainId[106] */\n  0xffff\n  and\n  dup2\n  mstore\n  0x20\n  add\n  swap1\n  dup2\n  mstore\n  0x20\n  add\n  0x00\n  keccak256\n    /* \"solidity-examples-main/contracts/Multistake/Registry.sol\":619:651  StargateIdToChainId[106] = 43114 */\n  dup2\n  swap1\n  sstore\n  pop\n    /* \"solidity-examples-main/contracts/Multistake/Registry.sol\":689:692  137 */\n  0x89\n    /* \"solidity-examples-main/contracts/Multistake/Registry.sol\":662:681  StargateIdToChainId */\n  0x00\n    /* \"solidity-examples-main/contracts/Multistake/Registry.sol\":662:686  StargateIdToChainId[109] */\n  dup1\n    /* \"solidity-examples-main/contracts/Multistake/Registry.sol\":682:685  109 */\n  0x6d\n    /* \"solidity-examples-main/contracts/Multistake/Registry.sol\":662:686  StargateIdToChainId[109] */\n  0xffff\n  and\n  dup2\n  mstore\n  0x20\n  add\n  swap1\n  dup2\n  mstore\n  0x20\n  add\n  0x00\n  keccak256\n    /* \"solidity-examples-main/contracts/Multistake/Registry.sol\":662:692  StargateIdToChainId[109] = 137 */\n  dup2\n  swap1\n  sstore\n  pop\n    /* \"solidity-examples-main/contracts/Multistake/Registry.sol\":730:733  250 */\n  0xfa\n    /* \"solidity-examples-main/contracts/Multistake/Registry.sol\":703:722  StargateIdToChainId */\n  0x00\n    /* \"solidity-examples-main/contracts/Multistake/Registry.sol\":703:727  StargateIdToChainId[112] */\n  dup1\n    /* \"solidity-examples-main/contracts/Multistake/Registry.sol\":723:726  112 */\n  0x70\n    /* \"solidity-examples-main/contracts/Multistake/Registry.sol\":703:727  StargateIdToChainId[112] */\n  0xffff\n  and\n  dup2\n  mstore\n  0x20\n  add\n  swap1\n  dup2\n  mstore\n  0x20\n  add\n  0x00\n  keccak256\n    /* \"solidity-examples-main/contracts/Multistake/Registry.sol\":703:733  StargateIdToChainId[112] = 250 */\n  dup2\n  swap1\n  sstore\n  pop\n    /* \"solidity-examples-main/contracts/Multistake/Registry.sol\":771:774  101 */\n  0x65\n    /* \"solidity-examples-main/contracts/Multistake/Registry.sol\":746:765  ChainIdToStargateId */\n  0x01\n    /* \"solidity-examples-main/contracts/Multistake/Registry.sol\":746:768  ChainIdToStargateId[1] */\n  0x00\n    /* \"solidity-examples-main/contracts/Multistake/Registry.sol\":766:767  1 */\n  0x01\n    /* \"solidity-examples-main/contracts/Multistake/Registry.sol\":746:768  ChainIdToStargateId[1] */\n  dup2\n  mstore\n  0x20\n  add\n  swap1\n  dup2\n  mstore\n  0x20\n  add\n  0x00\n  keccak256\n  0x00\n    /* \"solidity-examples-main/contracts/Multistake/Registry.sol\":746:774  ChainIdToStargateId[1] = 101 */\n  0x0100\n  exp\n  dup2\n  sload\n  dup2\n  0xffff\n  mul\n  not\n  and\n  swap1\n  dup4\n  0xffff\n  and\n  mul\n  or\n  swap1\n  sstore\n  pop\n    /* \"solidity-examples-main/contracts/Multistake/Registry.sol\":815:818  106 */\n  0x6a\n    /* \"solidity-examples-main/contracts/Multistake/Registry.sol\":785:804  ChainIdToStargateId */\n  0x01\n    /* \"solidity-examples-main/contracts/Multistake/Registry.sol\":785:812  ChainIdToStargateId[413114] */\n  0x00\n    /* \"solidity-examples-main/contracts/Multistake/Registry.sol\":805:811  413114 */\n  0x064dba\n    /* \"solidity-examples-main/contracts/Multistake/Registry.sol\":785:812  ChainIdToStargateId[413114] */\n  dup2\n  mstore\n  0x20\n  add\n  swap1\n  dup2\n  mstore\n  0x20\n  add\n  0x00\n  keccak256\n  0x00\n    /* \"solidity-examples-main/contracts/Multistake/Registry.sol\":785:818  ChainIdToStargateId[413114] = 106 */\n  0x0100\n  exp\n  dup2\n  sload\n  dup2\n  0xffff\n  mul\n  not\n  and\n  swap1\n  dup4\n  0xffff\n  and\n  mul\n  or\n  swap1\n  sstore\n  pop\n    /* \"solidity-examples-main/contracts/Multistake/Registry.sol\":856:859  109 */\n  0x6d\n    /* \"solidity-examples-main/contracts/Multistake/Registry.sol\":829:848  ChainIdToStargateId */\n  0x01\n    /* \"solidity-examples-main/contracts/Multistake/Registry.sol\":829:853  ChainIdToStargateId[137] */\n  0x00\n    /* \"solidity-examples-main/contracts/Multistake/Registry.sol\":849:852  137 */\n  0x89\n    /* \"solidity-examples-main/contracts/Multistake/Registry.sol\":829:853  ChainIdToStargateId[137] */\n  dup2\n  mstore\n  0x20\n  add\n  swap1\n  dup2\n  mstore\n  0x20\n  add\n  0x00\n  keccak256\n  0x00\n    /* \"solidity-examples-main/contracts/Multistake/Registry.sol\":829:859  ChainIdToStargateId[137] = 109 */\n  0x0100\n  exp\n  dup2\n  sload\n  dup2\n  0xffff\n  mul\n  not\n  and\n  swap1\n  dup4\n  0xffff\n  and\n  mul\n  or\n  swap1\n  sstore\n  pop\n    /* \"solidity-examples-main/contracts/Multistake/Registry.sol\":897:900  112 */\n  0x70\n    /* \"solidity-examples-main/contracts/Multistake/Registry.sol\":870:889  ChainIdToStargateId */\n  0x01\n    /* \"solidity-examples-main/contracts/Multistake/Registry.sol\":870:894  ChainIdToStargateId[250] */\n  0x00\n    /* \"solidity-examples-main/contracts/Multistake/Registry.sol\":890:893  250 */\n  0xfa\n    /* \"solidity-examples-main/contracts/Multistake/Registry.sol\":870:894  ChainIdToStargateId[250] */\n  dup2\n  mstore\n  0x20\n  add\n  swap1\n  dup2\n  mstore\n  0x20\n  add\n  0x00\n  keccak256\n  0x00\n    /* \"solidity-examples-main/contracts/Multistake/Registry.sol\":870:900  ChainIdToStargateId[250] = 112 */\n  0x0100\n  exp\n  dup2\n  sload\n  dup2\n  0xffff\n  mul\n  not\n  and\n  swap1\n  dup4\n  0xffff\n  and\n  mul\n  or\n  swap1\n  sstore\n  pop\n    /* \"solidity-examples-main/contracts/Multistake/Registry.sol\":62:1661  contract Registry {\r... */\n  dataSize(sub_0)\n  dup1\n  dataOffset(sub_0)\n  0x00\n  codecopy\n  0x00\n  return\nstop\n\nsub_0: assembly {\n        /* \"solidity-examples-main/contracts/Multistake/Registry.sol\":62:1661  contract Registry {\r... */\n      mstore(0x40, 0x80)\n      callvalue\n      dup1\n      iszero\n      tag_1\n      jumpi\n      0x00\n      dup1\n      revert\n    tag_1:\n      pop\n      jumpi(tag_2, lt(calldatasize, 0x04))\n      shr(0xe0, calldataload(0x00))\n      dup1\n      0x56c602fc\n      eq\n      tag_3\n      jumpi\n      dup1\n      0xfbd2f05d\n      eq\n      tag_4\n      jumpi\n    tag_2:\n      0x00\n      dup1\n      revert\n        /* \"solidity-examples-main/contracts/Multistake/Registry.sol\":161:214  mapping(uint16 => uint256) public StargateIdToChainId */\n    tag_3:\n      tag_5\n      0x04\n      dup1\n      calldatasize\n      sub\n      dup2\n      add\n      swap1\n      tag_6\n      swap2\n      swap1\n      tag_7\n      jump\t// in\n    tag_6:\n      tag_8\n      jump\t// in\n    tag_5:\n      mload(0x40)\n      tag_9\n      swap2\n      swap1\n      tag_10\n      jump\t// in\n    tag_9:\n      mload(0x40)\n      dup1\n      swap2\n      sub\n      swap1\n      return\n        /* \"solidity-examples-main/contracts/Multistake/Registry.sol\":221:274  mapping(uint256 => uint16) public ChainIdToStargateId */\n    tag_4:\n      tag_11\n      0x04\n      dup1\n      calldatasize\n      sub\n      dup2\n      add\n      swap1\n      tag_12\n      swap2\n      swap1\n      tag_13\n      jump\t// in\n    tag_12:\n      tag_14\n      jump\t// in\n    tag_11:\n      mload(0x40)\n      tag_15\n      swap2\n      swap1\n      tag_16\n      jump\t// in\n    tag_15:\n      mload(0x40)\n      dup1\n      swap2\n      sub\n      swap1\n      return\n        /* \"solidity-examples-main/contracts/Multistake/Registry.sol\":161:214  mapping(uint16 => uint256) public StargateIdToChainId */\n    tag_8:\n      mstore(0x20, 0x00)\n      dup1\n      0x00\n      mstore\n      keccak256(0x00, 0x40)\n      0x00\n      swap2\n      pop\n      swap1\n      pop\n      sload\n      dup2\n      jump\t// out\n        /* \"solidity-examples-main/contracts/Multistake/Registry.sol\":221:274  mapping(uint256 => uint16) public ChainIdToStargateId */\n    tag_14:\n      mstore(0x20, 0x01)\n      dup1\n      0x00\n      mstore\n      keccak256(0x00, 0x40)\n      0x00\n      swap2\n      pop\n      sload\n      swap1\n      0x0100\n      exp\n      swap1\n      div\n      0xffff\n      and\n      dup2\n      jump\t// out\n        /* \"#utility.yul\":7:144   */\n    tag_18:\n        /* \"#utility.yul\":52:57   */\n      0x00\n        /* \"#utility.yul\":90:96   */\n      dup2\n        /* \"#utility.yul\":77:97   */\n      calldataload\n        /* \"#utility.yul\":68:97   */\n      swap1\n      pop\n        /* \"#utility.yul\":106:138   */\n      tag_20\n        /* \"#utility.yul\":132:137   */\n      dup2\n        /* \"#utility.yul\":106:138   */\n      tag_21\n      jump\t// in\n    tag_20:\n        /* \"#utility.yul\":58:144   */\n      swap3\n      swap2\n      pop\n      pop\n      jump\t// out\n        /* \"#utility.yul\":150:289   */\n    tag_22:\n        /* \"#utility.yul\":196:201   */\n      0x00\n        /* \"#utility.yul\":234:240   */\n      dup2\n        /* \"#utility.yul\":221:241   */\n      calldataload\n        /* \"#utility.yul\":212:241   */\n      swap1\n      pop\n        /* \"#utility.yul\":250:283   */\n      tag_24\n        /* \"#utility.yul\":277:282   */\n      dup2\n        /* \"#utility.yul\":250:283   */\n      tag_25\n      jump\t// in\n    tag_24:\n        /* \"#utility.yul\":202:289   */\n      swap3\n      swap2\n      pop\n      pop\n      jump\t// out\n        /* \"#utility.yul\":295:555   */\n    tag_7:\n        /* \"#utility.yul\":353:359   */\n      0x00\n        /* \"#utility.yul\":402:404   */\n      0x20\n        /* \"#utility.yul\":390:399   */\n      dup3\n        /* \"#utility.yul\":381:388   */\n      dup5\n        /* \"#utility.yul\":377:400   */\n      sub\n        /* \"#utility.yul\":373:405   */\n      slt\n        /* \"#utility.yul\":370:372   */\n      iszero\n      tag_27\n      jumpi\n        /* \"#utility.yul\":418:419   */\n      0x00\n        /* \"#utility.yul\":415:416   */\n      dup1\n        /* \"#utility.yul\":408:420   */\n      revert\n        /* \"#utility.yul\":370:372   */\n    tag_27:\n        /* \"#utility.yul\":461:462   */\n      0x00\n        /* \"#utility.yul\":486:538   */\n      tag_28\n        /* \"#utility.yul\":530:537   */\n      dup5\n        /* \"#utility.yul\":521:527   */\n      dup3\n        /* \"#utility.yul\":510:519   */\n      dup6\n        /* \"#utility.yul\":506:528   */\n      add\n        /* \"#utility.yul\":486:538   */\n      tag_18\n      jump\t// in\n    tag_28:\n        /* \"#utility.yul\":476:538   */\n      swap2\n      pop\n        /* \"#utility.yul\":432:548   */\n      pop\n        /* \"#utility.yul\":360:555   */\n      swap3\n      swap2\n      pop\n      pop\n      jump\t// out\n        /* \"#utility.yul\":561:823   */\n    tag_13:\n        /* \"#utility.yul\":620:626   */\n      0x00\n        /* \"#utility.yul\":669:671   */\n      0x20\n        /* \"#utility.yul\":657:666   */\n      dup3\n        /* \"#utility.yul\":648:655   */\n      dup5\n        /* \"#utility.yul\":644:667   */\n      sub\n        /* \"#utility.yul\":640:672   */\n      slt\n        /* \"#utility.yul\":637:639   */\n      iszero\n      tag_30\n      jumpi\n        /* \"#utility.yul\":685:686   */\n      0x00\n        /* \"#utility.yul\":682:683   */\n      dup1\n        /* \"#utility.yul\":675:687   */\n      revert\n        /* \"#utility.yul\":637:639   */\n    tag_30:\n        /* \"#utility.yul\":728:729   */\n      0x00\n        /* \"#utility.yul\":753:806   */\n      tag_31\n        /* \"#utility.yul\":798:805   */\n      dup5\n        /* \"#utility.yul\":789:795   */\n      dup3\n        /* \"#utility.yul\":778:787   */\n      dup6\n        /* \"#utility.yul\":774:796   */\n      add\n        /* \"#utility.yul\":753:806   */\n      tag_22\n      jump\t// in\n    tag_31:\n        /* \"#utility.yul\":743:806   */\n      swap2\n      pop\n        /* \"#utility.yul\":699:816   */\n      pop\n        /* \"#utility.yul\":627:823   */\n      swap3\n      swap2\n      pop\n      pop\n      jump\t// out\n        /* \"#utility.yul\":829:944   */\n    tag_32:\n        /* \"#utility.yul\":914:937   */\n      tag_34\n        /* \"#utility.yul\":931:936   */\n      dup2\n        /* \"#utility.yul\":914:937   */\n      tag_35\n      jump\t// in\n    tag_34:\n        /* \"#utility.yul\":909:912   */\n      dup3\n        /* \"#utility.yul\":902:938   */\n      mstore\n        /* \"#utility.yul\":892:944   */\n      pop\n      pop\n      jump\t// out\n        /* \"#utility.yul\":950:1068   */\n    tag_36:\n        /* \"#utility.yul\":1037:1061   */\n      tag_38\n        /* \"#utility.yul\":1055:1060   */\n      dup2\n        /* \"#utility.yul\":1037:1061   */\n      tag_39\n      jump\t// in\n    tag_38:\n        /* \"#utility.yul\":1032:1035   */\n      dup3\n        /* \"#utility.yul\":1025:1062   */\n      mstore\n        /* \"#utility.yul\":1015:1068   */\n      pop\n      pop\n      jump\t// out\n        /* \"#utility.yul\":1074:1292   */\n    tag_16:\n        /* \"#utility.yul\":1165:1169   */\n      0x00\n        /* \"#utility.yul\":1203:1205   */\n      0x20\n        /* \"#utility.yul\":1192:1201   */\n      dup3\n        /* \"#utility.yul\":1188:1206   */\n      add\n        /* \"#utility.yul\":1180:1206   */\n      swap1\n      pop\n        /* \"#utility.yul\":1216:1285   */\n      tag_41\n        /* \"#utility.yul\":1282:1283   */\n      0x00\n        /* \"#utility.yul\":1271:1280   */\n      dup4\n        /* \"#utility.yul\":1267:1284   */\n      add\n        /* \"#utility.yul\":1258:1264   */\n      dup5\n        /* \"#utility.yul\":1216:1285   */\n      tag_32\n      jump\t// in\n    tag_41:\n        /* \"#utility.yul\":1170:1292   */\n      swap3\n      swap2\n      pop\n      pop\n      jump\t// out\n        /* \"#utility.yul\":1298:1520   */\n    tag_10:\n        /* \"#utility.yul\":1391:1395   */\n      0x00\n        /* \"#utility.yul\":1429:1431   */\n      0x20\n        /* \"#utility.yul\":1418:1427   */\n      dup3\n        /* \"#utility.yul\":1414:1432   */\n      add\n        /* \"#utility.yul\":1406:1432   */\n      swap1\n      pop\n        /* \"#utility.yul\":1442:1513   */\n      tag_43\n        /* \"#utility.yul\":1510:1511   */\n      0x00\n        /* \"#utility.yul\":1499:1508   */\n      dup4\n        /* \"#utility.yul\":1495:1512   */\n      add\n        /* \"#utility.yul\":1486:1492   */\n      dup5\n        /* \"#utility.yul\":1442:1513   */\n      tag_36\n      jump\t// in\n    tag_43:\n        /* \"#utility.yul\":1396:1520   */\n      swap3\n      swap2\n      pop\n      pop\n      jump\t// out\n        /* \"#utility.yul\":1526:1615   */\n    tag_35:\n        /* \"#utility.yul\":1562:1569   */\n      0x00\n        /* \"#utility.yul\":1602:1608   */\n      0xffff\n        /* \"#utility.yul\":1595:1600   */\n      dup3\n        /* \"#utility.yul\":1591:1609   */\n      and\n        /* \"#utility.yul\":1580:1609   */\n      swap1\n      pop\n        /* \"#utility.yul\":1570:1615   */\n      swap2\n      swap1\n      pop\n      jump\t// out\n        /* \"#utility.yul\":1621:1698   */\n    tag_39:\n        /* \"#utility.yul\":1658:1665   */\n      0x00\n        /* \"#utility.yul\":1687:1692   */\n      dup2\n        /* \"#utility.yul\":1676:1692   */\n      swap1\n      pop\n        /* \"#utility.yul\":1666:1698   */\n      swap2\n      swap1\n      pop\n      jump\t// out\n        /* \"#utility.yul\":1704:1824   */\n    tag_21:\n        /* \"#utility.yul\":1776:1799   */\n      tag_47\n        /* \"#utility.yul\":1793:1798   */\n      dup2\n        /* \"#utility.yul\":1776:1799   */\n      tag_35\n      jump\t// in\n    tag_47:\n        /* \"#utility.yul\":1769:1774   */\n      dup2\n        /* \"#utility.yul\":1766:1800   */\n      eq\n        /* \"#utility.yul\":1756:1758   */\n      tag_48\n      jumpi\n        /* \"#utility.yul\":1814:1815   */\n      0x00\n        /* \"#utility.yul\":1811:1812   */\n      dup1\n        /* \"#utility.yul\":1804:1816   */\n      revert\n        /* \"#utility.yul\":1756:1758   */\n    tag_48:\n        /* \"#utility.yul\":1746:1824   */\n      pop\n      jump\t// out\n        /* \"#utility.yul\":1830:1952   */\n    tag_25:\n        /* \"#utility.yul\":1903:1927   */\n      tag_50\n        /* \"#utility.yul\":1921:1926   */\n      dup2\n        /* \"#utility.yul\":1903:1927   */\n      tag_39\n      jump\t// in\n    tag_50:\n        /* \"#utility.yul\":1896:1901   */\n      dup2\n        /* \"#utility.yul\":1893:1928   */\n      eq\n        /* \"#utility.yul\":1883:1885   */\n      tag_51\n      jumpi\n        /* \"#utility.yul\":1942:1943   */\n      0x00\n        /* \"#utility.yul\":1939:1940   */\n      dup1\n        /* \"#utility.yul\":1932:1944   */\n      revert\n        /* \"#utility.yul\":1883:1885   */\n    tag_51:\n        /* \"#utility.yul\":1873:1952   */\n      pop\n      jump\t// out\n\n    auxdata: 0xa264697066735822122061b71009baf955275c5911eb60d8d34679a589eaadd98fd591bd3e2156319e9364736f6c63430008040033\n}\n",
				"bytecode": {
					"linkReferences": {},
					"object": "608060405234801561001057600080fd5b506001600080606561ffff1681526020019081526020016000208190555061a86a600080606a61ffff168152602001908152602001600020819055506089600080606d61ffff1681526020019081526020016000208190555060fa600080607061ffff168152602001908152602001600020819055506065600160006001815260200190815260200160002060006101000a81548161ffff021916908361ffff160217905550606a6001600062064dba815260200190815260200160002060006101000a81548161ffff021916908361ffff160217905550606d600160006089815260200190815260200160002060006101000a81548161ffff021916908361ffff16021790555060706001600060fa815260200190815260200160002060006101000a81548161ffff021916908361ffff160217905550610220806101576000396000f3fe608060405234801561001057600080fd5b50600436106100365760003560e01c806356c602fc1461003b578063fbd2f05d1461006b575b600080fd5b610055600480360381019061005091906100fe565b61009b565b6040516100629190610189565b60405180910390f35b61008560048036038101906100809190610127565b6100b3565b604051610092919061016e565b60405180910390f35b60006020528060005260406000206000915090505481565b60016020528060005260406000206000915054906101000a900461ffff1681565b6000813590506100e3816101bc565b92915050565b6000813590506100f8816101d3565b92915050565b60006020828403121561011057600080fd5b600061011e848285016100d4565b91505092915050565b60006020828403121561013957600080fd5b6000610147848285016100e9565b91505092915050565b610159816101a4565b82525050565b610168816101b2565b82525050565b60006020820190506101836000830184610150565b92915050565b600060208201905061019e600083018461015f565b92915050565b600061ffff82169050919050565b6000819050919050565b6101c5816101a4565b81146101d057600080fd5b50565b6101dc816101b2565b81146101e757600080fd5b5056fea264697066735822122061b71009baf955275c5911eb60d8d34679a589eaadd98fd591bd3e2156319e9364736f6c63430008040033",
					"opcodes": "PUSH1 0x80 PUSH1 0x40 MSTORE CALLVALUE DUP1 ISZERO PUSH2 0x10 JUMPI PUSH1 0x0 DUP1 REVERT JUMPDEST POP PUSH1 0x1 PUSH1 0x0 DUP1 PUSH1 0x65 PUSH2 0xFFFF AND DUP2 MSTORE PUSH1 0x20 ADD SWAP1 DUP2 MSTORE PUSH1 0x20 ADD PUSH1 0x0 KECCAK256 DUP2 SWAP1 SSTORE POP PUSH2 0xA86A PUSH1 0x0 DUP1 PUSH1 0x6A PUSH2 0xFFFF AND DUP2 MSTORE PUSH1 0x20 ADD SWAP1 DUP2 MSTORE PUSH1 0x20 ADD PUSH1 0x0 KECCAK256 DUP2 SWAP1 SSTORE POP PUSH1 0x89 PUSH1 0x0 DUP1 PUSH1 0x6D PUSH2 0xFFFF AND DUP2 MSTORE PUSH1 0x20 ADD SWAP1 DUP2 MSTORE PUSH1 0x20 ADD PUSH1 0x0 KECCAK256 DUP2 SWAP1 SSTORE POP PUSH1 0xFA PUSH1 0x0 DUP1 PUSH1 0x70 PUSH2 0xFFFF AND DUP2 MSTORE PUSH1 0x20 ADD SWAP1 DUP2 MSTORE PUSH1 0x20 ADD PUSH1 0x0 KECCAK256 DUP2 SWAP1 SSTORE POP PUSH1 0x65 PUSH1 0x1 PUSH1 0x0 PUSH1 0x1 DUP2 MSTORE PUSH1 0x20 ADD SWAP1 DUP2 MSTORE PUSH1 0x20 ADD PUSH1 0x0 KECCAK256 PUSH1 0x0 PUSH2 0x100 EXP DUP2 SLOAD DUP2 PUSH2 0xFFFF MUL NOT AND SWAP1 DUP4 PUSH2 0xFFFF AND MUL OR SWAP1 SSTORE POP PUSH1 0x6A PUSH1 0x1 PUSH1 0x0 PUSH3 0x64DBA DUP2 MSTORE PUSH1 0x20 ADD SWAP1 DUP2 MSTORE PUSH1 0x20 ADD PUSH1 0x0 KECCAK256 PUSH1 0x0 PUSH2 0x100 EXP DUP2 SLOAD DUP2 PUSH2 0xFFFF MUL NOT AND SWAP1 DUP4 PUSH2 0xFFFF AND MUL OR SWAP1 SSTORE POP PUSH1 0x6D PUSH1 0x1 PUSH1 0x0 PUSH1 0x89 DUP2 MSTORE PUSH1 0x20 ADD SWAP1 DUP2 MSTORE PUSH1 0x20 ADD PUSH1 0x0 KECCAK256 PUSH1 0x0 PUSH2 0x100 EXP DUP2 SLOAD DUP2 PUSH2 0xFFFF MUL NOT AND SWAP1 DUP4 PUSH2 0xFFFF AND MUL OR SWAP1 SSTORE POP PUSH1 0x70 PUSH1 0x1 PUSH1 0x0 PUSH1 0xFA DUP2 MSTORE PUSH1 0x20 ADD SWAP1 DUP2 MSTORE PUSH1 0x20 ADD PUSH1 0x0 KECCAK256 PUSH1 0x0 PUSH2 0x100 EXP DUP2 SLOAD DUP2 PUSH2 0xFFFF MUL NOT AND SWAP1 DUP4 PUSH2 0xFFFF AND MUL OR SWAP1 SSTORE POP PUSH2 0x220 DUP1 PUSH2 0x157 PUSH1 0x0 CODECOPY PUSH1 0x0 RETURN INVALID PUSH1 0x80 PUSH1 0x40 MSTORE CALLVALUE DUP1 ISZERO PUSH2 0x10 JUMPI PUSH1 0x0 DUP1 REVERT JUMPDEST POP PUSH1 0x4 CALLDATASIZE LT PUSH2 0x36 JUMPI PUSH1 0x0 CALLDATALOAD PUSH1 0xE0 SHR DUP1 PUSH4 0x56C602FC EQ PUSH2 0x3B JUMPI DUP1 PUSH4 0xFBD2F05D EQ PUSH2 0x6B JUMPI JUMPDEST PUSH1 0x0 DUP1 REVERT JUMPDEST PUSH2 0x55 PUSH1 0x4 DUP1 CALLDATASIZE SUB DUP2 ADD SWAP1 PUSH2 0x50 SWAP2 SWAP1 PUSH2 0xFE JUMP JUMPDEST PUSH2 0x9B JUMP JUMPDEST PUSH1 0x40 MLOAD PUSH2 0x62 SWAP2 SWAP1 PUSH2 0x189 JUMP JUMPDEST PUSH1 0x40 MLOAD DUP1 SWAP2 SUB SWAP1 RETURN JUMPDEST PUSH2 0x85 PUSH1 0x4 DUP1 CALLDATASIZE SUB DUP2 ADD SWAP1 PUSH2 0x80 SWAP2 SWAP1 PUSH2 0x127 JUMP JUMPDEST PUSH2 0xB3 JUMP JUMPDEST PUSH1 0x40 MLOAD PUSH2 0x92 SWAP2 SWAP1 PUSH2 0x16E JUMP JUMPDEST PUSH1 0x40 MLOAD DUP1 SWAP2 SUB SWAP1 RETURN JUMPDEST PUSH1 0x0 PUSH1 0x20 MSTORE DUP1 PUSH1 0x0 MSTORE PUSH1 0x40 PUSH1 0x0 KECCAK256 PUSH1 0x0 SWAP2 POP SWAP1 POP SLOAD DUP2 JUMP JUMPDEST PUSH1 0x1 PUSH1 0x20 MSTORE DUP1 PUSH1 0x0 MSTORE PUSH1 0x40 PUSH1 0x0 KECCAK256 PUSH1 0x0 SWAP2 POP SLOAD SWAP1 PUSH2 0x100 EXP SWAP1 DIV PUSH2 0xFFFF AND DUP2 JUMP JUMPDEST PUSH1 0x0 DUP2 CALLDATALOAD SWAP1 POP PUSH2 0xE3 DUP2 PUSH2 0x1BC JUMP JUMPDEST SWAP3 SWAP2 POP POP JUMP JUMPDEST PUSH1 0x0 DUP2 CALLDATALOAD SWAP1 POP PUSH2 0xF8 DUP2 PUSH2 0x1D3 JUMP JUMPDEST SWAP3 SWAP2 POP POP JUMP JUMPDEST PUSH1 0x0 PUSH1 0x20 DUP3 DUP5 SUB SLT ISZERO PUSH2 0x110 JUMPI PUSH1 0x0 DUP1 REVERT JUMPDEST PUSH1 0x0 PUSH2 0x11E DUP5 DUP3 DUP6 ADD PUSH2 0xD4 JUMP JUMPDEST SWAP2 POP POP SWAP3 SWAP2 POP POP JUMP JUMPDEST PUSH1 0x0 PUSH1 0x20 DUP3 DUP5 SUB SLT ISZERO PUSH2 0x139 JUMPI PUSH1 0x0 DUP1 REVERT JUMPDEST PUSH1 0x0 PUSH2 0x147 DUP5 DUP3 DUP6 ADD PUSH2 0xE9 JUMP JUMPDEST SWAP2 POP POP SWAP3 SWAP2 POP POP JUMP JUMPDEST PUSH2 0x159 DUP2 PUSH2 0x1A4 JUMP JUMPDEST DUP3 MSTORE POP POP JUMP JUMPDEST PUSH2 0x168 DUP2 PUSH2 0x1B2 JUMP JUMPDEST DUP3 MSTORE POP POP JUMP JUMPDEST PUSH1 0x0 PUSH1 0x20 DUP3 ADD SWAP1 POP PUSH2 0x183 PUSH1 0x0 DUP4 ADD DUP5 PUSH2 0x150 JUMP JUMPDEST SWAP3 SWAP2 POP POP JUMP JUMPDEST PUSH1 0x0 PUSH1 0x20 DUP3 ADD SWAP1 POP PUSH2 0x19E PUSH1 0x0 DUP4 ADD DUP5 PUSH2 0x15F JUMP JUMPDEST SWAP3 SWAP2 POP POP JUMP JUMPDEST PUSH1 0x0 PUSH2 0xFFFF DUP3 AND SWAP1 POP SWAP2 SWAP1 POP JUMP JUMPDEST PUSH1 0x0 DUP2 SWAP1 POP SWAP2 SWAP1 POP JUMP JUMPDEST PUSH2 0x1C5 DUP2 PUSH2 0x1A4 JUMP JUMPDEST DUP2 EQ PUSH2 0x1D0 JUMPI PUSH1 0x0 DUP1 REVERT JUMPDEST POP JUMP JUMPDEST PUSH2 0x1DC DUP2 PUSH2 0x1B2 JUMP JUMPDEST DUP2 EQ PUSH2 0x1E7 JUMPI PUSH1 0x0 DUP1 REVERT JUMPDEST POP JUMP INVALID LOG2 PUSH5 0x6970667358 0x22 SLT KECCAK256 PUSH2 0xB710 MULMOD 0xBA 0xF9 SSTORE 0x27 0x5C MSIZE GT 0xEB PUSH1 0xD8 0xD3 CHAINID PUSH26 0xA589EAADD98FD591BD3E2156319E9364736F6C63430008040033 "
				},
				"gasEstimates": {
					"creation": {
						"codeDepositCost": "108800",
						"executionCost": "164325",
						"totalCost": "273125"
					},
					"external": {
						"ChainIdToStargateId(uint256)": "1496",
						"StargateIdToChainId(uint16)": "1449"
					}
				},
				"methodIdentifiers": {
					"ChainIdToStargateId(uint256)": "fbd2f05d",
					"StargateIdToChainId(uint16)": "56c602fc"
				}
			},
			"storageLayout": {
				"storage": [
					{
						"astId": 5,
						"contract": "solidity-examples-main/contracts/Multistake/Registry.sol:Registry",
						"label": "StargateIdToChainId",
						"offset": 0,
						"slot": "0",
						"type": "t_mapping(t_uint16,t_uint256)"
					},
					{
						"astId": 9,
						"contract": "solidity-examples-main/contracts/Multistake/Registry.sol:Registry",
						"label": "ChainIdToStargateId",
						"offset": 0,
						"slot": "1",
						"type": "t_mapping(t_uint256,t_uint16)"
					}
				],
				"types": {
					"t_mapping(t_uint16,t_uint256)": {
						"encoding": "mapping",
						"key": "t_uint16",
						"label": "mapping(uint16 => uint256)",
						"numberOfBytes": "32",
						"value": "t_uint256"
					},
					"t_mapping(t_uint256,t_uint16)": {
						"encoding": "mapping",
						"key": "t_uint256",
						"label": "mapping(uint256 => uint16)",
						"numberOfBytes": "32",
						"value": "t_uint16"
					},
					"t_uint16": {
						"encoding": "inplace",
						"label": "uint16",
						"numberOfBytes": "2"
					},
					"t_uint256": {
						"encoding": "inplace",
						"label": "uint256",
						"numberOfBytes": "32"
					}
				}
			},
			"userdoc": {
				"kind": "user",
				"methods": {},
				"version": 1
			}
		}
	}
}