{
	"solidity-examples-main/contracts/Multistake/PolygonHub.sol": {
		"PolygonHub": {
			"abi": [
				{
					"inputs": [
						{
							"internalType": "address",
							"name": "_stargateRouter",
							"type": "address"
						},
						{
							"internalType": "address",
							"name": "_destinationAddress",
							"type": "address"
						},
						{
							"internalType": "address",
							"name": "_registryAddress",
							"type": "address"
						}
					],
					"stateMutability": "nonpayable",
					"type": "constructor"
				},
				{
					"anonymous": false,
					"inputs": [
						{
							"indexed": false,
							"internalType": "address",
							"name": "token",
							"type": "address"
						},
						{
							"indexed": false,
							"internalType": "uint256",
							"name": "qty",
							"type": "uint256"
						}
					],
					"name": "ReceivedOnDestination",
					"type": "event"
				},
				{
					"inputs": [
						{
							"internalType": "uint256",
							"name": "amount",
							"type": "uint256"
						},
						{
							"internalType": "bytes",
							"name": "someMsg",
							"type": "bytes"
						}
					],
					"name": "bridgeAndSwap",
					"outputs": [],
					"stateMutability": "payable",
					"type": "function"
				},
				{
					"inputs": [],
					"name": "partnerId",
					"outputs": [
						{
							"internalType": "bytes2",
							"name": "",
							"type": "bytes2"
						}
					],
					"stateMutability": "view",
					"type": "function"
				},
				{
					"inputs": [
						{
							"internalType": "uint16",
							"name": "",
							"type": "uint16"
						},
						{
							"internalType": "bytes",
							"name": "",
							"type": "bytes"
						},
						{
							"internalType": "uint256",
							"name": "",
							"type": "uint256"
						},
						{
							"internalType": "address",
							"name": "_token",
							"type": "address"
						},
						{
							"internalType": "uint256",
							"name": "amountLD",
							"type": "uint256"
						},
						{
							"internalType": "bytes",
							"name": "_payload",
							"type": "bytes"
						}
					],
					"name": "sgReceive",
					"outputs": [],
					"stateMutability": "nonpayable",
					"type": "function"
				},
				{
					"inputs": [],
					"name": "stargateRouter",
					"outputs": [
						{
							"internalType": "address",
							"name": "",
							"type": "address"
						}
					],
					"stateMutability": "view",
					"type": "function"
				},
				{
					"inputs": [],
					"name": "widgetSwap",
					"outputs": [
						{
							"internalType": "address",
							"name": "",
							"type": "address"
						}
					],
					"stateMutability": "view",
					"type": "function"
				}
			],
			"devdoc": {
				"kind": "dev",
				"methods": {},
				"version": 1
			},
			"evm": {
				"assembly": "    /* \"solidity-examples-main/contracts/Multistake/PolygonHub.sol\":389:3698  contract PolygonHub is IStargateReceiver {\r... */\n  mstore(0x40, 0x80)\n    /* \"solidity-examples-main/contracts/Multistake/PolygonHub.sol\":705:710  10121 */\n  0x2789\n    /* \"solidity-examples-main/contracts/Multistake/PolygonHub.sol\":687:710  uint16 GoerliId = 10121 */\n  0x01\n  exp(0x0100, 0x16)\n  dup2\n  sload\n  dup2\n  0xffff\n  mul\n  not\n  and\n  swap1\n  dup4\n  0xffff\n  and\n  mul\n  or\n  swap1\n  sstore\n  pop\n    /* \"solidity-examples-main/contracts/Multistake/PolygonHub.sol\":733:738  10106 */\n  0x277a\n    /* \"solidity-examples-main/contracts/Multistake/PolygonHub.sol\":717:738  uint16 FujiId = 10106 */\n  0x01\n  exp(0x0100, 0x18)\n  dup2\n  sload\n  dup2\n  0xffff\n  mul\n  not\n  and\n  swap1\n  dup4\n  0xffff\n  and\n  mul\n  or\n  swap1\n  sstore\n  pop\n    /* \"solidity-examples-main/contracts/Multistake/PolygonHub.sol\":762:804  0xDf0360Ad8C5ccf25095Aa97ee5F2785c8d848620 */\n  0xdf0360ad8c5ccf25095aa97ee5f2785c8d848620\n    /* \"solidity-examples-main/contracts/Multistake/PolygonHub.sol\":747:804  address USDC = 0xDf0360Ad8C5ccf25095Aa97ee5F2785c8d848620 */\n  0x02\n  exp(0x0100, 0x00)\n  dup2\n  sload\n  dup2\n  0xffffffffffffffffffffffffffffffffffffffff\n  mul\n  not\n  and\n  swap1\n  dup4\n  0xffffffffffffffffffffffffffffffffffffffff\n  and\n  mul\n  or\n  swap1\n  sstore\n  pop\n    /* \"solidity-examples-main/contracts/Multistake/PolygonHub.sol\":941:1182  constructor(address _stargateRouter, address _destinationAddress, address _registryAddress) {\r... */\n  callvalue\n  dup1\n  iszero\n  tag_1\n  jumpi\n  0x00\n  dup1\n  revert\ntag_1:\n  pop\n  mload(0x40)\n  sub(codesize, bytecodeSize)\n  dup1\n  bytecodeSize\n  dup4\n  codecopy\n  dup2\n  dup2\n  add\n  0x40\n  mstore\n  dup2\n  add\n  swap1\n  tag_2\n  swap2\n  swap1\n  tag_3\n  jump\t// in\ntag_2:\n    /* \"solidity-examples-main/contracts/Multistake/PolygonHub.sol\":1061:1076  _stargateRouter */\n  dup3\n    /* \"solidity-examples-main/contracts/Multistake/PolygonHub.sol\":1044:1058  stargateRouter */\n  0x00\n  dup1\n    /* \"solidity-examples-main/contracts/Multistake/PolygonHub.sol\":1044:1076  stargateRouter = _stargateRouter */\n  0x0100\n  exp\n  dup2\n  sload\n  dup2\n  0xffffffffffffffffffffffffffffffffffffffff\n  mul\n  not\n  and\n  swap1\n  dup4\n  0xffffffffffffffffffffffffffffffffffffffff\n  and\n  mul\n  or\n  swap1\n  sstore\n  pop\n    /* \"solidity-examples-main/contracts/Multistake/PolygonHub.sol\":1108:1127  _destinationAddress */\n  dup2\n    /* \"solidity-examples-main/contracts/Multistake/PolygonHub.sol\":1087:1105  destinationAddress */\n  0x03\n  0x00\n    /* \"solidity-examples-main/contracts/Multistake/PolygonHub.sol\":1087:1127  destinationAddress = _destinationAddress */\n  0x0100\n  exp\n  dup2\n  sload\n  dup2\n  0xffffffffffffffffffffffffffffffffffffffff\n  mul\n  not\n  and\n  swap1\n  dup4\n  0xffffffffffffffffffffffffffffffffffffffff\n  and\n  mul\n  or\n  swap1\n  sstore\n  pop\n    /* \"solidity-examples-main/contracts/Multistake/PolygonHub.sol\":1156:1172  _registryAddress */\n  dup1\n    /* \"solidity-examples-main/contracts/Multistake/PolygonHub.sol\":1138:1153  registryAddress */\n  0x04\n  0x00\n    /* \"solidity-examples-main/contracts/Multistake/PolygonHub.sol\":1138:1172  registryAddress = _registryAddress */\n  0x0100\n  exp\n  dup2\n  sload\n  dup2\n  0xffffffffffffffffffffffffffffffffffffffff\n  mul\n  not\n  and\n  swap1\n  dup4\n  0xffffffffffffffffffffffffffffffffffffffff\n  and\n  mul\n  or\n  swap1\n  sstore\n  pop\n    /* \"solidity-examples-main/contracts/Multistake/PolygonHub.sol\":941:1182  constructor(address _stargateRouter, address _destinationAddress, address _registryAddress) {\r... */\n  pop\n  pop\n  pop\n    /* \"solidity-examples-main/contracts/Multistake/PolygonHub.sol\":389:3698  contract PolygonHub is IStargateReceiver {\r... */\n  jump(tag_6)\n    /* \"#utility.yul\":7:150   */\ntag_8:\n    /* \"#utility.yul\":64:69   */\n  0x00\n    /* \"#utility.yul\":95:101   */\n  dup2\n    /* \"#utility.yul\":89:102   */\n  mload\n    /* \"#utility.yul\":80:102   */\n  swap1\n  pop\n    /* \"#utility.yul\":111:144   */\n  tag_10\n    /* \"#utility.yul\":138:143   */\n  dup2\n    /* \"#utility.yul\":111:144   */\n  tag_11\n  jump\t// in\ntag_10:\n    /* \"#utility.yul\":70:150   */\n  swap3\n  swap2\n  pop\n  pop\n  jump\t// out\n    /* \"#utility.yul\":156:752   */\ntag_3:\n    /* \"#utility.yul\":244:250   */\n  0x00\n    /* \"#utility.yul\":252:258   */\n  dup1\n    /* \"#utility.yul\":260:266   */\n  0x00\n    /* \"#utility.yul\":309:311   */\n  0x60\n    /* \"#utility.yul\":297:306   */\n  dup5\n    /* \"#utility.yul\":288:295   */\n  dup7\n    /* \"#utility.yul\":284:307   */\n  sub\n    /* \"#utility.yul\":280:312   */\n  slt\n    /* \"#utility.yul\":277:279   */\n  iszero\n  tag_13\n  jumpi\n    /* \"#utility.yul\":325:326   */\n  0x00\n    /* \"#utility.yul\":322:323   */\n  dup1\n    /* \"#utility.yul\":315:327   */\n  revert\n    /* \"#utility.yul\":277:279   */\ntag_13:\n    /* \"#utility.yul\":368:369   */\n  0x00\n    /* \"#utility.yul\":393:457   */\n  tag_14\n    /* \"#utility.yul\":449:456   */\n  dup7\n    /* \"#utility.yul\":440:446   */\n  dup3\n    /* \"#utility.yul\":429:438   */\n  dup8\n    /* \"#utility.yul\":425:447   */\n  add\n    /* \"#utility.yul\":393:457   */\n  tag_8\n  jump\t// in\ntag_14:\n    /* \"#utility.yul\":383:457   */\n  swap4\n  pop\n    /* \"#utility.yul\":339:467   */\n  pop\n    /* \"#utility.yul\":506:508   */\n  0x20\n    /* \"#utility.yul\":532:596   */\n  tag_15\n    /* \"#utility.yul\":588:595   */\n  dup7\n    /* \"#utility.yul\":579:585   */\n  dup3\n    /* \"#utility.yul\":568:577   */\n  dup8\n    /* \"#utility.yul\":564:586   */\n  add\n    /* \"#utility.yul\":532:596   */\n  tag_8\n  jump\t// in\ntag_15:\n    /* \"#utility.yul\":522:596   */\n  swap3\n  pop\n    /* \"#utility.yul\":477:606   */\n  pop\n    /* \"#utility.yul\":645:647   */\n  0x40\n    /* \"#utility.yul\":671:735   */\n  tag_16\n    /* \"#utility.yul\":727:734   */\n  dup7\n    /* \"#utility.yul\":718:724   */\n  dup3\n    /* \"#utility.yul\":707:716   */\n  dup8\n    /* \"#utility.yul\":703:725   */\n  add\n    /* \"#utility.yul\":671:735   */\n  tag_8\n  jump\t// in\ntag_16:\n    /* \"#utility.yul\":661:735   */\n  swap2\n  pop\n    /* \"#utility.yul\":616:745   */\n  pop\n    /* \"#utility.yul\":267:752   */\n  swap3\n  pop\n  swap3\n  pop\n  swap3\n  jump\t// out\n    /* \"#utility.yul\":758:854   */\ntag_17:\n    /* \"#utility.yul\":795:802   */\n  0x00\n    /* \"#utility.yul\":824:848   */\n  tag_19\n    /* \"#utility.yul\":842:847   */\n  dup3\n    /* \"#utility.yul\":824:848   */\n  tag_20\n  jump\t// in\ntag_19:\n    /* \"#utility.yul\":813:848   */\n  swap1\n  pop\n    /* \"#utility.yul\":803:854   */\n  swap2\n  swap1\n  pop\n  jump\t// out\n    /* \"#utility.yul\":860:986   */\ntag_20:\n    /* \"#utility.yul\":897:904   */\n  0x00\n    /* \"#utility.yul\":937:979   */\n  0xffffffffffffffffffffffffffffffffffffffff\n    /* \"#utility.yul\":930:935   */\n  dup3\n    /* \"#utility.yul\":926:980   */\n  and\n    /* \"#utility.yul\":915:980   */\n  swap1\n  pop\n    /* \"#utility.yul\":905:986   */\n  swap2\n  swap1\n  pop\n  jump\t// out\n    /* \"#utility.yul\":992:1114   */\ntag_11:\n    /* \"#utility.yul\":1065:1089   */\n  tag_23\n    /* \"#utility.yul\":1083:1088   */\n  dup2\n    /* \"#utility.yul\":1065:1089   */\n  tag_17\n  jump\t// in\ntag_23:\n    /* \"#utility.yul\":1058:1063   */\n  dup2\n    /* \"#utility.yul\":1055:1090   */\n  eq\n    /* \"#utility.yul\":1045:1047   */\n  tag_24\n  jumpi\n    /* \"#utility.yul\":1104:1105   */\n  0x00\n    /* \"#utility.yul\":1101:1102   */\n  dup1\n    /* \"#utility.yul\":1094:1106   */\n  revert\n    /* \"#utility.yul\":1045:1047   */\ntag_24:\n    /* \"#utility.yul\":1035:1114   */\n  pop\n  jump\t// out\n    /* \"solidity-examples-main/contracts/Multistake/PolygonHub.sol\":389:3698  contract PolygonHub is IStargateReceiver {\r... */\ntag_6:\n  dataSize(sub_0)\n  dup1\n  dataOffset(sub_0)\n  0x00\n  codecopy\n  0x00\n  return\nstop\n\nsub_0: assembly {\n        /* \"solidity-examples-main/contracts/Multistake/PolygonHub.sol\":389:3698  contract PolygonHub is IStargateReceiver {\r... */\n      mstore(0x40, 0x80)\n      jumpi(tag_1, lt(calldatasize, 0x04))\n      shr(0xe0, calldataload(0x00))\n      dup1\n      0x3576ca46\n      eq\n      tag_2\n      jumpi\n      dup1\n      0xa9e56f3c\n      eq\n      tag_3\n      jumpi\n      dup1\n      0xaa37db6c\n      eq\n      tag_4\n      jumpi\n      dup1\n      0xab8236f3\n      eq\n      tag_5\n      jumpi\n      dup1\n      0xdd1bc08e\n      eq\n      tag_6\n      jumpi\n    tag_1:\n      0x00\n      dup1\n      revert\n        /* \"solidity-examples-main/contracts/Multistake/PolygonHub.sol\":1285:2837  function bridgeAndSwap(uint256 amount, bytes calldata someMsg) public payable  {\r... */\n    tag_2:\n      tag_7\n      0x04\n      dup1\n      calldatasize\n      sub\n      dup2\n      add\n      swap1\n      tag_8\n      swap2\n      swap1\n      tag_9\n      jump\t// in\n    tag_8:\n      tag_10\n      jump\t// in\n    tag_7:\n      stop\n        /* \"solidity-examples-main/contracts/Multistake/PolygonHub.sol\":472:501  address public stargateRouter */\n    tag_3:\n      callvalue\n      dup1\n      iszero\n      tag_11\n      jumpi\n      0x00\n      dup1\n      revert\n    tag_11:\n      pop\n      tag_12\n      tag_13\n      jump\t// in\n    tag_12:\n      mload(0x40)\n      tag_14\n      swap2\n      swap1\n      tag_15\n      jump\t// in\n    tag_14:\n      mload(0x40)\n      dup1\n      swap2\n      sub\n      swap1\n      return\n        /* \"solidity-examples-main/contracts/Multistake/PolygonHub.sol\":576:599  bytes2 public partnerId */\n    tag_4:\n      callvalue\n      dup1\n      iszero\n      tag_16\n      jumpi\n      0x00\n      dup1\n      revert\n    tag_16:\n      pop\n      tag_17\n      tag_18\n      jump\t// in\n    tag_17:\n      mload(0x40)\n      tag_19\n      swap2\n      swap1\n      tag_20\n      jump\t// in\n    tag_19:\n      mload(0x40)\n      dup1\n      swap2\n      sub\n      swap1\n      return\n        /* \"solidity-examples-main/contracts/Multistake/PolygonHub.sol\":3187:3693  function sgReceive(uint16 /*_chainId*/, bytes memory /*_srcAddress*/, uint /*_nonce*/, address _token, uint amountLD, bytes memory _payload) override external {\r... */\n    tag_5:\n      callvalue\n      dup1\n      iszero\n      tag_21\n      jumpi\n      0x00\n      dup1\n      revert\n    tag_21:\n      pop\n      tag_22\n      0x04\n      dup1\n      calldatasize\n      sub\n      dup2\n      add\n      swap1\n      tag_23\n      swap2\n      swap1\n      tag_24\n      jump\t// in\n    tag_23:\n      tag_25\n      jump\t// in\n    tag_22:\n      stop\n        /* \"solidity-examples-main/contracts/Multistake/PolygonHub.sol\":544:569  address public widgetSwap */\n    tag_6:\n      callvalue\n      dup1\n      iszero\n      tag_26\n      jumpi\n      0x00\n      dup1\n      revert\n    tag_26:\n      pop\n      tag_27\n      tag_28\n      jump\t// in\n    tag_27:\n      mload(0x40)\n      tag_29\n      swap2\n      swap1\n      tag_15\n      jump\t// in\n    tag_29:\n      mload(0x40)\n      dup1\n      swap2\n      sub\n      swap1\n      return\n        /* \"solidity-examples-main/contracts/Multistake/PolygonHub.sol\":1285:2837  function bridgeAndSwap(uint256 amount, bytes calldata someMsg) public payable  {\r... */\n    tag_10:\n        /* \"solidity-examples-main/contracts/Multistake/PolygonHub.sol\":1395:1396  0 */\n      0x00\n        /* \"solidity-examples-main/contracts/Multistake/PolygonHub.sol\":1383:1392  msg.value */\n      callvalue\n        /* \"solidity-examples-main/contracts/Multistake/PolygonHub.sol\":1383:1396  msg.value > 0 */\n      gt\n        /* \"solidity-examples-main/contracts/Multistake/PolygonHub.sol\":1375:1456  require(msg.value > 0, \"stargate requires a msg.value to pay crosschain message\") */\n      tag_31\n      jumpi\n      mload(0x40)\n      0x08c379a000000000000000000000000000000000000000000000000000000000\n      dup2\n      mstore\n      0x04\n      add\n      tag_32\n      swap1\n      tag_33\n      jump\t// in\n    tag_32:\n      mload(0x40)\n      dup1\n      swap2\n      sub\n      swap1\n      revert\n    tag_31:\n        /* \"solidity-examples-main/contracts/Multistake/PolygonHub.sol\":1650:1714  IERC20(USDC).safeTransferFrom(msg.sender, address(this), amount) */\n      tag_34\n        /* \"solidity-examples-main/contracts/Multistake/PolygonHub.sol\":1680:1690  msg.sender */\n      caller\n        /* \"solidity-examples-main/contracts/Multistake/PolygonHub.sol\":1700:1704  this */\n      address\n        /* \"solidity-examples-main/contracts/Multistake/PolygonHub.sol\":1707:1713  amount */\n      dup6\n        /* \"solidity-examples-main/contracts/Multistake/PolygonHub.sol\":1657:1661  USDC */\n      0x02\n      0x00\n      swap1\n      sload\n      swap1\n      0x0100\n      exp\n      swap1\n      div\n      0xffffffffffffffffffffffffffffffffffffffff\n      and\n        /* \"solidity-examples-main/contracts/Multistake/PolygonHub.sol\":1650:1679  IERC20(USDC).safeTransferFrom */\n      0xffffffffffffffffffffffffffffffffffffffff\n      and\n      tag_35\n      swap1\n        /* \"solidity-examples-main/contracts/Multistake/PolygonHub.sol\":1650:1714  IERC20(USDC).safeTransferFrom(msg.sender, address(this), amount) */\n      swap4\n      swap3\n      swap2\n      swap1\n      0xffffffff\n      and\n      jump\t// in\n    tag_34:\n        /* \"solidity-examples-main/contracts/Multistake/PolygonHub.sol\":1725:1782  IERC20(USDC).safeApprove(address(stargateRouter), amount) */\n      tag_36\n        /* \"solidity-examples-main/contracts/Multistake/PolygonHub.sol\":1758:1772  stargateRouter */\n      0x00\n      dup1\n      sload\n      swap1\n      0x0100\n      exp\n      swap1\n      div\n      0xffffffffffffffffffffffffffffffffffffffff\n      and\n        /* \"solidity-examples-main/contracts/Multistake/PolygonHub.sol\":1775:1781  amount */\n      dup5\n        /* \"solidity-examples-main/contracts/Multistake/PolygonHub.sol\":1732:1736  USDC */\n      0x02\n      0x00\n      swap1\n      sload\n      swap1\n      0x0100\n      exp\n      swap1\n      div\n      0xffffffffffffffffffffffffffffffffffffffff\n      and\n        /* \"solidity-examples-main/contracts/Multistake/PolygonHub.sol\":1725:1749  IERC20(USDC).safeApprove */\n      0xffffffffffffffffffffffffffffffffffffffff\n      and\n      tag_37\n      swap1\n        /* \"solidity-examples-main/contracts/Multistake/PolygonHub.sol\":1725:1782  IERC20(USDC).safeApprove(address(stargateRouter), amount) */\n      swap3\n      swap2\n      swap1\n      0xffffffff\n      and\n      jump\t// in\n    tag_36:\n        /* \"solidity-examples-main/contracts/Multistake/PolygonHub.sol\":1795:1811  uint16 polygonId */\n      0x00\n        /* \"solidity-examples-main/contracts/Multistake/PolygonHub.sol\":1824:1839  registryAddress */\n      0x04\n      0x00\n      swap1\n      sload\n      swap1\n      0x0100\n      exp\n      swap1\n      div\n      0xffffffffffffffffffffffffffffffffffffffff\n      and\n        /* \"solidity-examples-main/contracts/Multistake/PolygonHub.sol\":1814:1854  IRegistry(registryAddress).getStargateId */\n      0xffffffffffffffffffffffffffffffffffffffff\n      and\n      0x977f2cb9\n        /* \"solidity-examples-main/contracts/Multistake/PolygonHub.sol\":1855:1868  block.chainid */\n      chainid\n        /* \"solidity-examples-main/contracts/Multistake/PolygonHub.sol\":1814:1869  IRegistry(registryAddress).getStargateId(block.chainid) */\n      mload(0x40)\n      dup3\n      0xffffffff\n      and\n      0xe0\n      shl\n      dup2\n      mstore\n      0x04\n      add\n      tag_38\n      swap2\n      swap1\n      tag_39\n      jump\t// in\n    tag_38:\n      0x20\n      mload(0x40)\n      dup1\n      dup4\n      sub\n      dup2\n      dup7\n      dup1\n      extcodesize\n      iszero\n      dup1\n      iszero\n      tag_40\n      jumpi\n      0x00\n      dup1\n      revert\n    tag_40:\n      pop\n      gas\n      staticcall\n      iszero\n      dup1\n      iszero\n      tag_42\n      jumpi\n      returndatasize\n      0x00\n      dup1\n      returndatacopy\n      revert(0x00, returndatasize)\n    tag_42:\n      pop\n      pop\n      pop\n      pop\n      mload(0x40)\n      returndatasize\n      not(0x1f)\n      0x1f\n      dup3\n      add\n      and\n      dup3\n      add\n      dup1\n      0x40\n      mstore\n      pop\n      dup2\n      add\n      swap1\n      tag_43\n      swap2\n      swap1\n      tag_44\n      jump\t// in\n    tag_43:\n        /* \"solidity-examples-main/contracts/Multistake/PolygonHub.sol\":1795:1869  uint16 polygonId = IRegistry(registryAddress).getStargateId(block.chainid) */\n      swap1\n      pop\n        /* \"solidity-examples-main/contracts/Multistake/PolygonHub.sol\":1910:1924  stargateRouter */\n      0x00\n      dup1\n      sload\n      swap1\n      0x0100\n      exp\n      swap1\n      div\n      0xffffffffffffffffffffffffffffffffffffffff\n      and\n        /* \"solidity-examples-main/contracts/Multistake/PolygonHub.sol\":1894:1930  IStargateRouter(stargateRouter).swap */\n      0xffffffffffffffffffffffffffffffffffffffff\n      and\n      0x9fbf10fc\n        /* \"solidity-examples-main/contracts/Multistake/PolygonHub.sol\":1937:1946  msg.value */\n      callvalue\n        /* \"solidity-examples-main/contracts/Multistake/PolygonHub.sol\":1962:1968  FujiId */\n      0x01\n      0x18\n      swap1\n      sload\n      swap1\n      0x0100\n      exp\n      swap1\n      div\n      0xffff\n      and\n        /* \"solidity-examples-main/contracts/Multistake/PolygonHub.sol\":2048:2049  1 */\n      0x01\n        /* \"solidity-examples-main/contracts/Multistake/PolygonHub.sol\":2139:2140  1 */\n      dup1\n        /* \"solidity-examples-main/contracts/Multistake/PolygonHub.sol\":2242:2252  msg.sender */\n      caller\n        /* \"solidity-examples-main/contracts/Multistake/PolygonHub.sol\":2365:2371  amount */\n      dup11\n        /* \"solidity-examples-main/contracts/Multistake/PolygonHub.sol\":2475:2476  0 */\n      0x00\n        /* \"solidity-examples-main/contracts/Multistake/PolygonHub.sol\":2575:2615  IStargateRouter.lzTxObj(200000, 0, \"0x\") */\n      mload(0x40)\n      dup1\n      0x60\n      add\n      0x40\n      mstore\n      dup1\n        /* \"solidity-examples-main/contracts/Multistake/PolygonHub.sol\":2599:2605  200000 */\n      0x030d40\n        /* \"solidity-examples-main/contracts/Multistake/PolygonHub.sol\":2575:2615  IStargateRouter.lzTxObj(200000, 0, \"0x\") */\n      dup2\n      mstore\n      0x20\n      add\n        /* \"solidity-examples-main/contracts/Multistake/PolygonHub.sol\":2607:2608  0 */\n      0x00\n        /* \"solidity-examples-main/contracts/Multistake/PolygonHub.sol\":2575:2615  IStargateRouter.lzTxObj(200000, 0, \"0x\") */\n      dup2\n      mstore\n      0x20\n      add\n      mload(0x40)\n      dup1\n      0x40\n      add\n      0x40\n      mstore\n      dup1\n      0x02\n      dup2\n      mstore\n      0x20\n      add\n      0x3078000000000000000000000000000000000000000000000000000000000000\n      dup2\n      mstore\n      pop\n      dup2\n      mstore\n      pop\n        /* \"solidity-examples-main/contracts/Multistake/PolygonHub.sol\":2673:2691  destinationAddress */\n      0x03\n      0x00\n      swap1\n      sload\n      swap1\n      0x0100\n      exp\n      swap1\n      div\n      0xffffffffffffffffffffffffffffffffffffffff\n      and\n        /* \"solidity-examples-main/contracts/Multistake/PolygonHub.sol\":2656:2692  abi.encodePacked(destinationAddress) */\n      add(0x20, mload(0x40))\n      tag_45\n      swap2\n      swap1\n      tag_46\n      jump\t// in\n    tag_45:\n      mload(0x40)\n      0x20\n      dup2\n      dup4\n      sub\n      sub\n      dup2\n      mstore\n      swap1\n      0x40\n      mstore\n        /* \"solidity-examples-main/contracts/Multistake/PolygonHub.sol\":2768:2775  someMsg */\n      dup14\n      dup14\n        /* \"solidity-examples-main/contracts/Multistake/PolygonHub.sol\":1894:2829  IStargateRouter(stargateRouter).swap{value:msg.value}(\r... */\n      mload(0x40)\n      dup13\n      0xffffffff\n      and\n      0xe0\n      shl\n      dup2\n      mstore\n      0x04\n      add\n      tag_47\n      swap11\n      swap10\n      swap9\n      swap8\n      swap7\n      swap6\n      swap5\n      swap4\n      swap3\n      swap2\n      swap1\n      tag_48\n      jump\t// in\n    tag_47:\n      0x00\n      mload(0x40)\n      dup1\n      dup4\n      sub\n      dup2\n      dup6\n      dup9\n      dup1\n      extcodesize\n      iszero\n      dup1\n      iszero\n      tag_49\n      jumpi\n      0x00\n      dup1\n      revert\n    tag_49:\n      pop\n      gas\n      call\n      iszero\n      dup1\n      iszero\n      tag_51\n      jumpi\n      returndatasize\n      0x00\n      dup1\n      returndatacopy\n      revert(0x00, returndatasize)\n    tag_51:\n      pop\n      pop\n      pop\n      pop\n      pop\n        /* \"solidity-examples-main/contracts/Multistake/PolygonHub.sol\":1285:2837  function bridgeAndSwap(uint256 amount, bytes calldata someMsg) public payable  {\r... */\n      pop\n      pop\n      pop\n      pop\n      jump\t// out\n        /* \"solidity-examples-main/contracts/Multistake/PolygonHub.sol\":472:501  address public stargateRouter */\n    tag_13:\n      0x00\n      dup1\n      sload\n      swap1\n      0x0100\n      exp\n      swap1\n      div\n      0xffffffffffffffffffffffffffffffffffffffff\n      and\n      dup2\n      jump\t// out\n        /* \"solidity-examples-main/contracts/Multistake/PolygonHub.sol\":576:599  bytes2 public partnerId */\n    tag_18:\n      0x01\n      0x14\n      swap1\n      sload\n      swap1\n      0x0100\n      exp\n      swap1\n      div\n      0xf0\n      shl\n      dup2\n      jump\t// out\n        /* \"solidity-examples-main/contracts/Multistake/PolygonHub.sol\":3187:3693  function sgReceive(uint16 /*_chainId*/, bytes memory /*_srcAddress*/, uint /*_nonce*/, address _token, uint amountLD, bytes memory _payload) override external {\r... */\n    tag_25:\n      pop\n      pop\n      pop\n      pop\n      pop\n      pop\n      jump\t// out\n        /* \"solidity-examples-main/contracts/Multistake/PolygonHub.sol\":544:569  address public widgetSwap */\n    tag_28:\n      0x01\n      0x00\n      swap1\n      sload\n      swap1\n      0x0100\n      exp\n      swap1\n      div\n      0xffffffffffffffffffffffffffffffffffffffff\n      and\n      dup2\n      jump\t// out\n        /* \"@openzeppelin/contracts/token/ERC20/utils/SafeERC20.sol\":1355:1558  function safeTransferFrom(IERC20 token, address from, address to, uint256 value) internal {... */\n    tag_35:\n        /* \"@openzeppelin/contracts/token/ERC20/utils/SafeERC20.sol\":1455:1551  _callOptionalReturn(token, abi.encodeWithSelector(token.transferFrom.selector, from, to, value)) */\n      tag_54\n        /* \"@openzeppelin/contracts/token/ERC20/utils/SafeERC20.sol\":1475:1480  token */\n      dup5\n        /* \"@openzeppelin/contracts/token/ERC20/utils/SafeERC20.sol\":1505:1532  token.transferFrom.selector */\n      shl(0xe0, 0x23b872dd)\n        /* \"@openzeppelin/contracts/token/ERC20/utils/SafeERC20.sol\":1534:1538  from */\n      dup6\n        /* \"@openzeppelin/contracts/token/ERC20/utils/SafeERC20.sol\":1540:1542  to */\n      dup6\n        /* \"@openzeppelin/contracts/token/ERC20/utils/SafeERC20.sol\":1544:1549  value */\n      dup6\n        /* \"@openzeppelin/contracts/token/ERC20/utils/SafeERC20.sol\":1482:1550  abi.encodeWithSelector(token.transferFrom.selector, from, to, value) */\n      add(0x24, mload(0x40))\n      tag_55\n      swap4\n      swap3\n      swap2\n      swap1\n      tag_56\n      jump\t// in\n    tag_55:\n      mload(0x40)\n      0x20\n      dup2\n      dup4\n      sub\n      sub\n      dup2\n      mstore\n      swap1\n      0x40\n      mstore\n      swap1\n      not(0xffffffffffffffffffffffffffffffffffffffffffffffffffffffff)\n      and\n      0x20\n      dup3\n      add\n      dup1\n      mload\n      0xffffffffffffffffffffffffffffffffffffffffffffffffffffffff\n      dup4\n      dup2\n      dup4\n      and\n      or\n      dup4\n      mstore\n      pop\n      pop\n      pop\n      pop\n        /* \"@openzeppelin/contracts/token/ERC20/utils/SafeERC20.sol\":1455:1474  _callOptionalReturn */\n      tag_57\n        /* \"@openzeppelin/contracts/token/ERC20/utils/SafeERC20.sol\":1455:1551  _callOptionalReturn(token, abi.encodeWithSelector(token.transferFrom.selector, from, to, value)) */\n      jump\t// in\n    tag_54:\n        /* \"@openzeppelin/contracts/token/ERC20/utils/SafeERC20.sol\":1355:1558  function safeTransferFrom(IERC20 token, address from, address to, uint256 value) internal {... */\n      pop\n      pop\n      pop\n      pop\n      jump\t// out\n        /* \"@openzeppelin/contracts/token/ERC20/utils/SafeERC20.sol\":1818:2391  function safeApprove(IERC20 token, address spender, uint256 value) internal {... */\n    tag_37:\n        /* \"@openzeppelin/contracts/token/ERC20/utils/SafeERC20.sol\":2152:2153  0 */\n      0x00\n        /* \"@openzeppelin/contracts/token/ERC20/utils/SafeERC20.sol\":2143:2148  value */\n      dup2\n        /* \"@openzeppelin/contracts/token/ERC20/utils/SafeERC20.sol\":2143:2153  value == 0 */\n      eq\n        /* \"@openzeppelin/contracts/token/ERC20/utils/SafeERC20.sol\":2142:2204  (value == 0) || (token.allowance(address(this), spender) == 0) */\n      dup1\n      tag_59\n      jumpi\n      pop\n        /* \"@openzeppelin/contracts/token/ERC20/utils/SafeERC20.sol\":2202:2203  0 */\n      0x00\n        /* \"@openzeppelin/contracts/token/ERC20/utils/SafeERC20.sol\":2159:2164  token */\n      dup4\n        /* \"@openzeppelin/contracts/token/ERC20/utils/SafeERC20.sol\":2159:2174  token.allowance */\n      0xffffffffffffffffffffffffffffffffffffffff\n      and\n      0xdd62ed3e\n        /* \"@openzeppelin/contracts/token/ERC20/utils/SafeERC20.sol\":2183:2187  this */\n      address\n        /* \"@openzeppelin/contracts/token/ERC20/utils/SafeERC20.sol\":2190:2197  spender */\n      dup6\n        /* \"@openzeppelin/contracts/token/ERC20/utils/SafeERC20.sol\":2159:2198  token.allowance(address(this), spender) */\n      mload(0x40)\n      dup4\n      0xffffffff\n      and\n      0xe0\n      shl\n      dup2\n      mstore\n      0x04\n      add\n      tag_60\n      swap3\n      swap2\n      swap1\n      tag_61\n      jump\t// in\n    tag_60:\n      0x20\n      mload(0x40)\n      dup1\n      dup4\n      sub\n      dup2\n      dup7\n      dup1\n      extcodesize\n      iszero\n      dup1\n      iszero\n      tag_62\n      jumpi\n      0x00\n      dup1\n      revert\n    tag_62:\n      pop\n      gas\n      staticcall\n      iszero\n      dup1\n      iszero\n      tag_64\n      jumpi\n      returndatasize\n      0x00\n      dup1\n      returndatacopy\n      revert(0x00, returndatasize)\n    tag_64:\n      pop\n      pop\n      pop\n      pop\n      mload(0x40)\n      returndatasize\n      not(0x1f)\n      0x1f\n      dup3\n      add\n      and\n      dup3\n      add\n      dup1\n      0x40\n      mstore\n      pop\n      dup2\n      add\n      swap1\n      tag_65\n      swap2\n      swap1\n      tag_66\n      jump\t// in\n    tag_65:\n        /* \"@openzeppelin/contracts/token/ERC20/utils/SafeERC20.sol\":2159:2203  token.allowance(address(this), spender) == 0 */\n      eq\n        /* \"@openzeppelin/contracts/token/ERC20/utils/SafeERC20.sol\":2142:2204  (value == 0) || (token.allowance(address(this), spender) == 0) */\n    tag_59:\n        /* \"@openzeppelin/contracts/token/ERC20/utils/SafeERC20.sol\":2121:2284  require(... */\n      tag_67\n      jumpi\n      mload(0x40)\n      0x08c379a000000000000000000000000000000000000000000000000000000000\n      dup2\n      mstore\n      0x04\n      add\n      tag_68\n      swap1\n      tag_69\n      jump\t// in\n    tag_68:\n      mload(0x40)\n      dup1\n      swap2\n      sub\n      swap1\n      revert\n    tag_67:\n        /* \"@openzeppelin/contracts/token/ERC20/utils/SafeERC20.sol\":2294:2384  _callOptionalReturn(token, abi.encodeWithSelector(token.approve.selector, spender, value)) */\n      tag_70\n        /* \"@openzeppelin/contracts/token/ERC20/utils/SafeERC20.sol\":2314:2319  token */\n      dup4\n        /* \"@openzeppelin/contracts/token/ERC20/utils/SafeERC20.sol\":2344:2366  token.approve.selector */\n      shl(0xe0, 0x095ea7b3)\n        /* \"@openzeppelin/contracts/token/ERC20/utils/SafeERC20.sol\":2368:2375  spender */\n      dup5\n        /* \"@openzeppelin/contracts/token/ERC20/utils/SafeERC20.sol\":2377:2382  value */\n      dup5\n        /* \"@openzeppelin/contracts/token/ERC20/utils/SafeERC20.sol\":2321:2383  abi.encodeWithSelector(token.approve.selector, spender, value) */\n      add(0x24, mload(0x40))\n      tag_71\n      swap3\n      swap2\n      swap1\n      tag_72\n      jump\t// in\n    tag_71:\n      mload(0x40)\n      0x20\n      dup2\n      dup4\n      sub\n      sub\n      dup2\n      mstore\n      swap1\n      0x40\n      mstore\n      swap1\n      not(0xffffffffffffffffffffffffffffffffffffffffffffffffffffffff)\n      and\n      0x20\n      dup3\n      add\n      dup1\n      mload\n      0xffffffffffffffffffffffffffffffffffffffffffffffffffffffff\n      dup4\n      dup2\n      dup4\n      and\n      or\n      dup4\n      mstore\n      pop\n      pop\n      pop\n      pop\n        /* \"@openzeppelin/contracts/token/ERC20/utils/SafeERC20.sol\":2294:2313  _callOptionalReturn */\n      tag_57\n        /* \"@openzeppelin/contracts/token/ERC20/utils/SafeERC20.sol\":2294:2384  _callOptionalReturn(token, abi.encodeWithSelector(token.approve.selector, spender, value)) */\n      jump\t// in\n    tag_70:\n        /* \"@openzeppelin/contracts/token/ERC20/utils/SafeERC20.sol\":1818:2391  function safeApprove(IERC20 token, address spender, uint256 value) internal {... */\n      pop\n      pop\n      pop\n      jump\t// out\n        /* \"@openzeppelin/contracts/token/ERC20/utils/SafeERC20.sol\":5173:5815  function _callOptionalReturn(IERC20 token, bytes memory data) private {... */\n    tag_57:\n        /* \"@openzeppelin/contracts/token/ERC20/utils/SafeERC20.sol\":5592:5615  bytes memory returndata */\n      0x00\n        /* \"@openzeppelin/contracts/token/ERC20/utils/SafeERC20.sol\":5618:5687  address(token).functionCall(data, \"SafeERC20: low-level call failed\") */\n      tag_74\n        /* \"@openzeppelin/contracts/token/ERC20/utils/SafeERC20.sol\":5646:5650  data */\n      dup3\n        /* \"@openzeppelin/contracts/token/ERC20/utils/SafeERC20.sol\":5618:5687  address(token).functionCall(data, \"SafeERC20: low-level call failed\") */\n      mload(0x40)\n      dup1\n      0x40\n      add\n      0x40\n      mstore\n      dup1\n      0x20\n      dup2\n      mstore\n      0x20\n      add\n      0x5361666545524332303a206c6f772d6c6576656c2063616c6c206661696c6564\n      dup2\n      mstore\n      pop\n        /* \"@openzeppelin/contracts/token/ERC20/utils/SafeERC20.sol\":5626:5631  token */\n      dup6\n        /* \"@openzeppelin/contracts/token/ERC20/utils/SafeERC20.sol\":5618:5645  address(token).functionCall */\n      0xffffffffffffffffffffffffffffffffffffffff\n      and\n      tag_75\n      swap1\n        /* \"@openzeppelin/contracts/token/ERC20/utils/SafeERC20.sol\":5618:5687  address(token).functionCall(data, \"SafeERC20: low-level call failed\") */\n      swap3\n      swap2\n      swap1\n      0xffffffff\n      and\n      jump\t// in\n    tag_74:\n        /* \"@openzeppelin/contracts/token/ERC20/utils/SafeERC20.sol\":5592:5687  bytes memory returndata = address(token).functionCall(data, \"SafeERC20: low-level call failed\") */\n      swap1\n      pop\n        /* \"@openzeppelin/contracts/token/ERC20/utils/SafeERC20.sol\":5726:5727  0 */\n      0x00\n        /* \"@openzeppelin/contracts/token/ERC20/utils/SafeERC20.sol\":5705:5715  returndata */\n      dup2\n        /* \"@openzeppelin/contracts/token/ERC20/utils/SafeERC20.sol\":5705:5722  returndata.length */\n      mload\n        /* \"@openzeppelin/contracts/token/ERC20/utils/SafeERC20.sol\":5705:5727  returndata.length == 0 */\n      eq\n        /* \"@openzeppelin/contracts/token/ERC20/utils/SafeERC20.sol\":5705:5761  returndata.length == 0 || abi.decode(returndata, (bool)) */\n      dup1\n      tag_76\n      jumpi\n      pop\n        /* \"@openzeppelin/contracts/token/ERC20/utils/SafeERC20.sol\":5742:5752  returndata */\n      dup1\n        /* \"@openzeppelin/contracts/token/ERC20/utils/SafeERC20.sol\":5731:5761  abi.decode(returndata, (bool)) */\n      dup1\n      0x20\n      add\n      swap1\n      mload\n      dup2\n      add\n      swap1\n      tag_77\n      swap2\n      swap1\n      tag_78\n      jump\t// in\n    tag_77:\n        /* \"@openzeppelin/contracts/token/ERC20/utils/SafeERC20.sol\":5705:5761  returndata.length == 0 || abi.decode(returndata, (bool)) */\n    tag_76:\n        /* \"@openzeppelin/contracts/token/ERC20/utils/SafeERC20.sol\":5697:5808  require(returndata.length == 0 || abi.decode(returndata, (bool)), \"SafeERC20: ERC20 operation did not succeed\") */\n      tag_79\n      jumpi\n      mload(0x40)\n      0x08c379a000000000000000000000000000000000000000000000000000000000\n      dup2\n      mstore\n      0x04\n      add\n      tag_80\n      swap1\n      tag_81\n      jump\t// in\n    tag_80:\n      mload(0x40)\n      dup1\n      swap2\n      sub\n      swap1\n      revert\n    tag_79:\n        /* \"@openzeppelin/contracts/token/ERC20/utils/SafeERC20.sol\":5173:5815  function _callOptionalReturn(IERC20 token, bytes memory data) private {... */\n      pop\n      pop\n      pop\n      jump\t// out\n        /* \"@openzeppelin/contracts/utils/Address.sol\":4108:4331  function functionCall(... */\n    tag_75:\n        /* \"@openzeppelin/contracts/utils/Address.sol\":4241:4253  bytes memory */\n      0x60\n        /* \"@openzeppelin/contracts/utils/Address.sol\":4272:4324  functionCallWithValue(target, data, 0, errorMessage) */\n      tag_83\n        /* \"@openzeppelin/contracts/utils/Address.sol\":4294:4300  target */\n      dup5\n        /* \"@openzeppelin/contracts/utils/Address.sol\":4302:4306  data */\n      dup5\n        /* \"@openzeppelin/contracts/utils/Address.sol\":4308:4309  0 */\n      0x00\n        /* \"@openzeppelin/contracts/utils/Address.sol\":4311:4323  errorMessage */\n      dup6\n        /* \"@openzeppelin/contracts/utils/Address.sol\":4272:4293  functionCallWithValue */\n      tag_84\n        /* \"@openzeppelin/contracts/utils/Address.sol\":4272:4324  functionCallWithValue(target, data, 0, errorMessage) */\n      jump\t// in\n    tag_83:\n        /* \"@openzeppelin/contracts/utils/Address.sol\":4265:4324  return functionCallWithValue(target, data, 0, errorMessage) */\n      swap1\n      pop\n        /* \"@openzeppelin/contracts/utils/Address.sol\":4108:4331  function functionCall(... */\n      swap4\n      swap3\n      pop\n      pop\n      pop\n      jump\t// out\n        /* \"@openzeppelin/contracts/utils/Address.sol\":5165:5611  function functionCallWithValue(... */\n    tag_84:\n        /* \"@openzeppelin/contracts/utils/Address.sol\":5330:5342  bytes memory */\n      0x60\n        /* \"@openzeppelin/contracts/utils/Address.sol\":5387:5392  value */\n      dup3\n        /* \"@openzeppelin/contracts/utils/Address.sol\":5362:5383  address(this).balance */\n      selfbalance\n        /* \"@openzeppelin/contracts/utils/Address.sol\":5362:5392  address(this).balance >= value */\n      lt\n      iszero\n        /* \"@openzeppelin/contracts/utils/Address.sol\":5354:5435  require(address(this).balance >= value, \"Address: insufficient balance for call\") */\n      tag_86\n      jumpi\n      mload(0x40)\n      0x08c379a000000000000000000000000000000000000000000000000000000000\n      dup2\n      mstore\n      0x04\n      add\n      tag_87\n      swap1\n      tag_88\n      jump\t// in\n    tag_87:\n      mload(0x40)\n      dup1\n      swap2\n      sub\n      swap1\n      revert\n    tag_86:\n        /* \"@openzeppelin/contracts/utils/Address.sol\":5446:5458  bool success */\n      0x00\n        /* \"@openzeppelin/contracts/utils/Address.sol\":5460:5483  bytes memory returndata */\n      dup1\n        /* \"@openzeppelin/contracts/utils/Address.sol\":5487:5493  target */\n      dup7\n        /* \"@openzeppelin/contracts/utils/Address.sol\":5487:5498  target.call */\n      0xffffffffffffffffffffffffffffffffffffffff\n      and\n        /* \"@openzeppelin/contracts/utils/Address.sol\":5506:5511  value */\n      dup6\n        /* \"@openzeppelin/contracts/utils/Address.sol\":5513:5517  data */\n      dup8\n        /* \"@openzeppelin/contracts/utils/Address.sol\":5487:5518  target.call{value: value}(data) */\n      mload(0x40)\n      tag_89\n      swap2\n      swap1\n      tag_90\n      jump\t// in\n    tag_89:\n      0x00\n      mload(0x40)\n      dup1\n      dup4\n      sub\n      dup2\n      dup6\n      dup8\n      gas\n      call\n      swap3\n      pop\n      pop\n      pop\n      returndatasize\n      dup1\n      0x00\n      dup2\n      eq\n      tag_93\n      jumpi\n      mload(0x40)\n      swap2\n      pop\n      and(add(returndatasize, 0x3f), not(0x1f))\n      dup3\n      add\n      0x40\n      mstore\n      returndatasize\n      dup3\n      mstore\n      returndatasize\n      0x00\n      0x20\n      dup5\n      add\n      returndatacopy\n      jump(tag_92)\n    tag_93:\n      0x60\n      swap2\n      pop\n    tag_92:\n      pop\n        /* \"@openzeppelin/contracts/utils/Address.sol\":5445:5518  (bool success, bytes memory returndata) = target.call{value: value}(data) */\n      swap2\n      pop\n      swap2\n      pop\n        /* \"@openzeppelin/contracts/utils/Address.sol\":5535:5604  verifyCallResultFromTarget(target, success, returndata, errorMessage) */\n      tag_94\n        /* \"@openzeppelin/contracts/utils/Address.sol\":5562:5568  target */\n      dup8\n        /* \"@openzeppelin/contracts/utils/Address.sol\":5570:5577  success */\n      dup4\n        /* \"@openzeppelin/contracts/utils/Address.sol\":5579:5589  returndata */\n      dup4\n        /* \"@openzeppelin/contracts/utils/Address.sol\":5591:5603  errorMessage */\n      dup8\n        /* \"@openzeppelin/contracts/utils/Address.sol\":5535:5561  verifyCallResultFromTarget */\n      tag_95\n        /* \"@openzeppelin/contracts/utils/Address.sol\":5535:5604  verifyCallResultFromTarget(target, success, returndata, errorMessage) */\n      jump\t// in\n    tag_94:\n        /* \"@openzeppelin/contracts/utils/Address.sol\":5528:5604  return verifyCallResultFromTarget(target, success, returndata, errorMessage) */\n      swap3\n      pop\n      pop\n      pop\n        /* \"@openzeppelin/contracts/utils/Address.sol\":5165:5611  function functionCallWithValue(... */\n      swap5\n      swap4\n      pop\n      pop\n      pop\n      pop\n      jump\t// out\n        /* \"@openzeppelin/contracts/utils/Address.sol\":7671:8299  function verifyCallResultFromTarget(... */\n    tag_95:\n        /* \"@openzeppelin/contracts/utils/Address.sol\":7851:7863  bytes memory */\n      0x60\n        /* \"@openzeppelin/contracts/utils/Address.sol\":7879:7886  success */\n      dup4\n        /* \"@openzeppelin/contracts/utils/Address.sol\":7875:8293  if (success) {... */\n      iszero\n      tag_97\n      jumpi\n        /* \"@openzeppelin/contracts/utils/Address.sol\":7927:7928  0 */\n      0x00\n        /* \"@openzeppelin/contracts/utils/Address.sol\":7906:7916  returndata */\n      dup4\n        /* \"@openzeppelin/contracts/utils/Address.sol\":7906:7923  returndata.length */\n      mload\n        /* \"@openzeppelin/contracts/utils/Address.sol\":7906:7928  returndata.length == 0 */\n      eq\n        /* \"@openzeppelin/contracts/utils/Address.sol\":7902:8188  if (returndata.length == 0) {... */\n      iszero\n      tag_98\n      jumpi\n        /* \"@openzeppelin/contracts/utils/Address.sol\":8121:8139  isContract(target) */\n      tag_99\n        /* \"@openzeppelin/contracts/utils/Address.sol\":8132:8138  target */\n      dup6\n        /* \"@openzeppelin/contracts/utils/Address.sol\":8121:8131  isContract */\n      tag_100\n        /* \"@openzeppelin/contracts/utils/Address.sol\":8121:8139  isContract(target) */\n      jump\t// in\n    tag_99:\n        /* \"@openzeppelin/contracts/utils/Address.sol\":8113:8173  require(isContract(target), \"Address: call to non-contract\") */\n      tag_101\n      jumpi\n      mload(0x40)\n      0x08c379a000000000000000000000000000000000000000000000000000000000\n      dup2\n      mstore\n      0x04\n      add\n      tag_102\n      swap1\n      tag_103\n      jump\t// in\n    tag_102:\n      mload(0x40)\n      dup1\n      swap2\n      sub\n      swap1\n      revert\n    tag_101:\n        /* \"@openzeppelin/contracts/utils/Address.sol\":7902:8188  if (returndata.length == 0) {... */\n    tag_98:\n        /* \"@openzeppelin/contracts/utils/Address.sol\":8208:8218  returndata */\n      dup3\n        /* \"@openzeppelin/contracts/utils/Address.sol\":8201:8218  return returndata */\n      swap1\n      pop\n      jump(tag_96)\n        /* \"@openzeppelin/contracts/utils/Address.sol\":7875:8293  if (success) {... */\n    tag_97:\n        /* \"@openzeppelin/contracts/utils/Address.sol\":8249:8282  _revert(returndata, errorMessage) */\n      tag_105\n        /* \"@openzeppelin/contracts/utils/Address.sol\":8257:8267  returndata */\n      dup4\n        /* \"@openzeppelin/contracts/utils/Address.sol\":8269:8281  errorMessage */\n      dup4\n        /* \"@openzeppelin/contracts/utils/Address.sol\":8249:8256  _revert */\n      tag_106\n        /* \"@openzeppelin/contracts/utils/Address.sol\":8249:8282  _revert(returndata, errorMessage) */\n      jump\t// in\n    tag_105:\n        /* \"@openzeppelin/contracts/utils/Address.sol\":7671:8299  function verifyCallResultFromTarget(... */\n    tag_96:\n      swap5\n      swap4\n      pop\n      pop\n      pop\n      pop\n      jump\t// out\n        /* \"@openzeppelin/contracts/utils/Address.sol\":1412:1732  function isContract(address account) internal view returns (bool) {... */\n    tag_100:\n        /* \"@openzeppelin/contracts/utils/Address.sol\":1472:1476  bool */\n      0x00\n        /* \"@openzeppelin/contracts/utils/Address.sol\":1724:1725  0 */\n      dup1\n        /* \"@openzeppelin/contracts/utils/Address.sol\":1702:1709  account */\n      dup3\n        /* \"@openzeppelin/contracts/utils/Address.sol\":1702:1721  account.code.length */\n      0xffffffffffffffffffffffffffffffffffffffff\n      and\n      extcodesize\n        /* \"@openzeppelin/contracts/utils/Address.sol\":1702:1725  account.code.length > 0 */\n      gt\n        /* \"@openzeppelin/contracts/utils/Address.sol\":1695:1725  return account.code.length > 0 */\n      swap1\n      pop\n        /* \"@openzeppelin/contracts/utils/Address.sol\":1412:1732  function isContract(address account) internal view returns (bool) {... */\n      swap2\n      swap1\n      pop\n      jump\t// out\n        /* \"@openzeppelin/contracts/utils/Address.sol\":8821:9361  function _revert(bytes memory returndata, string memory errorMessage) private pure {... */\n    tag_106:\n        /* \"@openzeppelin/contracts/utils/Address.sol\":9000:9001  0 */\n      0x00\n        /* \"@openzeppelin/contracts/utils/Address.sol\":8980:8990  returndata */\n      dup3\n        /* \"@openzeppelin/contracts/utils/Address.sol\":8980:8997  returndata.length */\n      mload\n        /* \"@openzeppelin/contracts/utils/Address.sol\":8980:9001  returndata.length > 0 */\n      gt\n        /* \"@openzeppelin/contracts/utils/Address.sol\":8976:9355  if (returndata.length > 0) {... */\n      iszero\n      tag_109\n      jumpi\n        /* \"@openzeppelin/contracts/utils/Address.sol\":9208:9218  returndata */\n      dup2\n        /* \"@openzeppelin/contracts/utils/Address.sol\":9202:9219  mload(returndata) */\n      mload\n        /* \"@openzeppelin/contracts/utils/Address.sol\":9264:9279  returndata_size */\n      dup1\n        /* \"@openzeppelin/contracts/utils/Address.sol\":9251:9261  returndata */\n      dup4\n        /* \"@openzeppelin/contracts/utils/Address.sol\":9247:9249  32 */\n      0x20\n        /* \"@openzeppelin/contracts/utils/Address.sol\":9243:9262  add(32, returndata) */\n      add\n        /* \"@openzeppelin/contracts/utils/Address.sol\":9236:9280  revert(add(32, returndata), returndata_size) */\n      revert\n        /* \"@openzeppelin/contracts/utils/Address.sol\":9161:9294  {... */\n    tag_109:\n        /* \"@openzeppelin/contracts/utils/Address.sol\":9331:9343  errorMessage */\n      dup1\n        /* \"@openzeppelin/contracts/utils/Address.sol\":9324:9344  revert(errorMessage) */\n      mload(0x40)\n      0x08c379a000000000000000000000000000000000000000000000000000000000\n      dup2\n      mstore\n      0x04\n      add\n      tag_111\n      swap2\n      swap1\n      tag_112\n      jump\t// in\n    tag_111:\n      mload(0x40)\n      dup1\n      swap2\n      sub\n      swap1\n      revert\n        /* \"#utility.yul\":7:350   */\n    tag_114:\n        /* \"#utility.yul\":84:89   */\n      0x00\n        /* \"#utility.yul\":109:174   */\n      tag_116\n        /* \"#utility.yul\":125:173   */\n      tag_117\n        /* \"#utility.yul\":166:172   */\n      dup5\n        /* \"#utility.yul\":125:173   */\n      tag_118\n      jump\t// in\n    tag_117:\n        /* \"#utility.yul\":109:174   */\n      tag_119\n      jump\t// in\n    tag_116:\n        /* \"#utility.yul\":100:174   */\n      swap1\n      pop\n        /* \"#utility.yul\":197:203   */\n      dup3\n        /* \"#utility.yul\":190:195   */\n      dup2\n        /* \"#utility.yul\":183:204   */\n      mstore\n        /* \"#utility.yul\":235:239   */\n      0x20\n        /* \"#utility.yul\":228:233   */\n      dup2\n        /* \"#utility.yul\":224:240   */\n      add\n        /* \"#utility.yul\":273:276   */\n      dup5\n        /* \"#utility.yul\":264:270   */\n      dup5\n        /* \"#utility.yul\":259:262   */\n      dup5\n        /* \"#utility.yul\":255:271   */\n      add\n        /* \"#utility.yul\":252:277   */\n      gt\n        /* \"#utility.yul\":249:251   */\n      iszero\n      tag_120\n      jumpi\n        /* \"#utility.yul\":290:291   */\n      0x00\n        /* \"#utility.yul\":287:288   */\n      dup1\n        /* \"#utility.yul\":280:292   */\n      revert\n        /* \"#utility.yul\":249:251   */\n    tag_120:\n        /* \"#utility.yul\":303:344   */\n      tag_121\n        /* \"#utility.yul\":337:343   */\n      dup5\n        /* \"#utility.yul\":332:335   */\n      dup3\n        /* \"#utility.yul\":327:330   */\n      dup6\n        /* \"#utility.yul\":303:344   */\n      tag_122\n      jump\t// in\n    tag_121:\n        /* \"#utility.yul\":90:350   */\n      pop\n      swap4\n      swap3\n      pop\n      pop\n      pop\n      jump\t// out\n        /* \"#utility.yul\":356:495   */\n    tag_123:\n        /* \"#utility.yul\":402:407   */\n      0x00\n        /* \"#utility.yul\":440:446   */\n      dup2\n        /* \"#utility.yul\":427:447   */\n      calldataload\n        /* \"#utility.yul\":418:447   */\n      swap1\n      pop\n        /* \"#utility.yul\":456:489   */\n      tag_125\n        /* \"#utility.yul\":483:488   */\n      dup2\n        /* \"#utility.yul\":456:489   */\n      tag_126\n      jump\t// in\n    tag_125:\n        /* \"#utility.yul\":408:495   */\n      swap3\n      swap2\n      pop\n      pop\n      jump\t// out\n        /* \"#utility.yul\":501:638   */\n    tag_127:\n        /* \"#utility.yul\":555:560   */\n      0x00\n        /* \"#utility.yul\":586:592   */\n      dup2\n        /* \"#utility.yul\":580:593   */\n      mload\n        /* \"#utility.yul\":571:593   */\n      swap1\n      pop\n        /* \"#utility.yul\":602:632   */\n      tag_129\n        /* \"#utility.yul\":626:631   */\n      dup2\n        /* \"#utility.yul\":602:632   */\n      tag_130\n      jump\t// in\n    tag_129:\n        /* \"#utility.yul\":561:638   */\n      swap3\n      swap2\n      pop\n      pop\n      jump\t// out\n        /* \"#utility.yul\":657:1008   */\n    tag_131:\n        /* \"#utility.yul\":714:722   */\n      0x00\n        /* \"#utility.yul\":724:730   */\n      dup1\n        /* \"#utility.yul\":774:777   */\n      dup4\n        /* \"#utility.yul\":767:771   */\n      0x1f\n        /* \"#utility.yul\":759:765   */\n      dup5\n        /* \"#utility.yul\":755:772   */\n      add\n        /* \"#utility.yul\":751:778   */\n      slt\n        /* \"#utility.yul\":741:743   */\n      tag_133\n      jumpi\n        /* \"#utility.yul\":792:793   */\n      0x00\n        /* \"#utility.yul\":789:790   */\n      dup1\n        /* \"#utility.yul\":782:794   */\n      revert\n        /* \"#utility.yul\":741:743   */\n    tag_133:\n        /* \"#utility.yul\":828:834   */\n      dup3\n        /* \"#utility.yul\":815:835   */\n      calldataload\n        /* \"#utility.yul\":805:835   */\n      swap1\n      pop\n        /* \"#utility.yul\":858:876   */\n      0xffffffffffffffff\n        /* \"#utility.yul\":850:856   */\n      dup2\n        /* \"#utility.yul\":847:877   */\n      gt\n        /* \"#utility.yul\":844:846   */\n      iszero\n      tag_134\n      jumpi\n        /* \"#utility.yul\":890:891   */\n      0x00\n        /* \"#utility.yul\":887:888   */\n      dup1\n        /* \"#utility.yul\":880:892   */\n      revert\n        /* \"#utility.yul\":844:846   */\n    tag_134:\n        /* \"#utility.yul\":927:931   */\n      0x20\n        /* \"#utility.yul\":919:925   */\n      dup4\n        /* \"#utility.yul\":915:932   */\n      add\n        /* \"#utility.yul\":903:932   */\n      swap2\n      pop\n        /* \"#utility.yul\":981:984   */\n      dup4\n        /* \"#utility.yul\":973:977   */\n      0x01\n        /* \"#utility.yul\":965:971   */\n      dup3\n        /* \"#utility.yul\":961:978   */\n      mul\n        /* \"#utility.yul\":951:959   */\n      dup4\n        /* \"#utility.yul\":947:979   */\n      add\n        /* \"#utility.yul\":944:985   */\n      gt\n        /* \"#utility.yul\":941:943   */\n      iszero\n      tag_135\n      jumpi\n        /* \"#utility.yul\":998:999   */\n      0x00\n        /* \"#utility.yul\":995:996   */\n      dup1\n        /* \"#utility.yul\":988:1000   */\n      revert\n        /* \"#utility.yul\":941:943   */\n    tag_135:\n        /* \"#utility.yul\":731:1008   */\n      swap3\n      pop\n      swap3\n      swap1\n      pop\n      jump\t// out\n        /* \"#utility.yul\":1027:1298   */\n    tag_136:\n        /* \"#utility.yul\":1082:1087   */\n      0x00\n        /* \"#utility.yul\":1131:1134   */\n      dup3\n        /* \"#utility.yul\":1124:1128   */\n      0x1f\n        /* \"#utility.yul\":1116:1122   */\n      dup4\n        /* \"#utility.yul\":1112:1129   */\n      add\n        /* \"#utility.yul\":1108:1135   */\n      slt\n        /* \"#utility.yul\":1098:1100   */\n      tag_138\n      jumpi\n        /* \"#utility.yul\":1149:1150   */\n      0x00\n        /* \"#utility.yul\":1146:1147   */\n      dup1\n        /* \"#utility.yul\":1139:1151   */\n      revert\n        /* \"#utility.yul\":1098:1100   */\n    tag_138:\n        /* \"#utility.yul\":1189:1195   */\n      dup2\n        /* \"#utility.yul\":1176:1196   */\n      calldataload\n        /* \"#utility.yul\":1214:1292   */\n      tag_139\n        /* \"#utility.yul\":1288:1291   */\n      dup5\n        /* \"#utility.yul\":1280:1286   */\n      dup3\n        /* \"#utility.yul\":1273:1277   */\n      0x20\n        /* \"#utility.yul\":1265:1271   */\n      dup7\n        /* \"#utility.yul\":1261:1278   */\n      add\n        /* \"#utility.yul\":1214:1292   */\n      tag_114\n      jump\t// in\n    tag_139:\n        /* \"#utility.yul\":1205:1292   */\n      swap2\n      pop\n        /* \"#utility.yul\":1088:1298   */\n      pop\n      swap3\n      swap2\n      pop\n      pop\n      jump\t// out\n        /* \"#utility.yul\":1304:1441   */\n    tag_140:\n        /* \"#utility.yul\":1349:1354   */\n      0x00\n        /* \"#utility.yul\":1387:1393   */\n      dup2\n        /* \"#utility.yul\":1374:1394   */\n      calldataload\n        /* \"#utility.yul\":1365:1394   */\n      swap1\n      pop\n        /* \"#utility.yul\":1403:1435   */\n      tag_142\n        /* \"#utility.yul\":1429:1434   */\n      dup2\n        /* \"#utility.yul\":1403:1435   */\n      tag_143\n      jump\t// in\n    tag_142:\n        /* \"#utility.yul\":1355:1441   */\n      swap3\n      swap2\n      pop\n      pop\n      jump\t// out\n        /* \"#utility.yul\":1447:1588   */\n    tag_144:\n        /* \"#utility.yul\":1503:1508   */\n      0x00\n        /* \"#utility.yul\":1534:1540   */\n      dup2\n        /* \"#utility.yul\":1528:1541   */\n      mload\n        /* \"#utility.yul\":1519:1541   */\n      swap1\n      pop\n        /* \"#utility.yul\":1550:1582   */\n      tag_146\n        /* \"#utility.yul\":1576:1581   */\n      dup2\n        /* \"#utility.yul\":1550:1582   */\n      tag_143\n      jump\t// in\n    tag_146:\n        /* \"#utility.yul\":1509:1588   */\n      swap3\n      swap2\n      pop\n      pop\n      jump\t// out\n        /* \"#utility.yul\":1594:1733   */\n    tag_147:\n        /* \"#utility.yul\":1640:1645   */\n      0x00\n        /* \"#utility.yul\":1678:1684   */\n      dup2\n        /* \"#utility.yul\":1665:1685   */\n      calldataload\n        /* \"#utility.yul\":1656:1685   */\n      swap1\n      pop\n        /* \"#utility.yul\":1694:1727   */\n      tag_149\n        /* \"#utility.yul\":1721:1726   */\n      dup2\n        /* \"#utility.yul\":1694:1727   */\n      tag_150\n      jump\t// in\n    tag_149:\n        /* \"#utility.yul\":1646:1733   */\n      swap3\n      swap2\n      pop\n      pop\n      jump\t// out\n        /* \"#utility.yul\":1739:1882   */\n    tag_151:\n        /* \"#utility.yul\":1796:1801   */\n      0x00\n        /* \"#utility.yul\":1827:1833   */\n      dup2\n        /* \"#utility.yul\":1821:1834   */\n      mload\n        /* \"#utility.yul\":1812:1834   */\n      swap1\n      pop\n        /* \"#utility.yul\":1843:1876   */\n      tag_153\n        /* \"#utility.yul\":1870:1875   */\n      dup2\n        /* \"#utility.yul\":1843:1876   */\n      tag_150\n      jump\t// in\n    tag_153:\n        /* \"#utility.yul\":1802:1882   */\n      swap3\n      swap2\n      pop\n      pop\n      jump\t// out\n        /* \"#utility.yul\":1888:2166   */\n    tag_78:\n        /* \"#utility.yul\":1955:1961   */\n      0x00\n        /* \"#utility.yul\":2004:2006   */\n      0x20\n        /* \"#utility.yul\":1992:2001   */\n      dup3\n        /* \"#utility.yul\":1983:1990   */\n      dup5\n        /* \"#utility.yul\":1979:2002   */\n      sub\n        /* \"#utility.yul\":1975:2007   */\n      slt\n        /* \"#utility.yul\":1972:1974   */\n      iszero\n      tag_155\n      jumpi\n        /* \"#utility.yul\":2020:2021   */\n      0x00\n        /* \"#utility.yul\":2017:2018   */\n      dup1\n        /* \"#utility.yul\":2010:2022   */\n      revert\n        /* \"#utility.yul\":1972:1974   */\n    tag_155:\n        /* \"#utility.yul\":2063:2064   */\n      0x00\n        /* \"#utility.yul\":2088:2149   */\n      tag_156\n        /* \"#utility.yul\":2141:2148   */\n      dup5\n        /* \"#utility.yul\":2132:2138   */\n      dup3\n        /* \"#utility.yul\":2121:2130   */\n      dup6\n        /* \"#utility.yul\":2117:2139   */\n      add\n        /* \"#utility.yul\":2088:2149   */\n      tag_127\n      jump\t// in\n    tag_156:\n        /* \"#utility.yul\":2078:2149   */\n      swap2\n      pop\n        /* \"#utility.yul\":2034:2159   */\n      pop\n        /* \"#utility.yul\":1962:2166   */\n      swap3\n      swap2\n      pop\n      pop\n      jump\t// out\n        /* \"#utility.yul\":2172:2454   */\n    tag_44:\n        /* \"#utility.yul\":2241:2247   */\n      0x00\n        /* \"#utility.yul\":2290:2292   */\n      0x20\n        /* \"#utility.yul\":2278:2287   */\n      dup3\n        /* \"#utility.yul\":2269:2276   */\n      dup5\n        /* \"#utility.yul\":2265:2288   */\n      sub\n        /* \"#utility.yul\":2261:2293   */\n      slt\n        /* \"#utility.yul\":2258:2260   */\n      iszero\n      tag_158\n      jumpi\n        /* \"#utility.yul\":2306:2307   */\n      0x00\n        /* \"#utility.yul\":2303:2304   */\n      dup1\n        /* \"#utility.yul\":2296:2308   */\n      revert\n        /* \"#utility.yul\":2258:2260   */\n    tag_158:\n        /* \"#utility.yul\":2349:2350   */\n      0x00\n        /* \"#utility.yul\":2374:2437   */\n      tag_159\n        /* \"#utility.yul\":2429:2436   */\n      dup5\n        /* \"#utility.yul\":2420:2426   */\n      dup3\n        /* \"#utility.yul\":2409:2418   */\n      dup6\n        /* \"#utility.yul\":2405:2427   */\n      add\n        /* \"#utility.yul\":2374:2437   */\n      tag_144\n      jump\t// in\n    tag_159:\n        /* \"#utility.yul\":2364:2437   */\n      swap2\n      pop\n        /* \"#utility.yul\":2320:2447   */\n      pop\n        /* \"#utility.yul\":2248:2454   */\n      swap3\n      swap2\n      pop\n      pop\n      jump\t// out\n        /* \"#utility.yul\":2460:3670   */\n    tag_24:\n        /* \"#utility.yul\":2581:2587   */\n      0x00\n        /* \"#utility.yul\":2589:2595   */\n      dup1\n        /* \"#utility.yul\":2597:2603   */\n      0x00\n        /* \"#utility.yul\":2605:2611   */\n      dup1\n        /* \"#utility.yul\":2613:2619   */\n      0x00\n        /* \"#utility.yul\":2621:2627   */\n      dup1\n        /* \"#utility.yul\":2670:2673   */\n      0xc0\n        /* \"#utility.yul\":2658:2667   */\n      dup8\n        /* \"#utility.yul\":2649:2656   */\n      dup10\n        /* \"#utility.yul\":2645:2668   */\n      sub\n        /* \"#utility.yul\":2641:2674   */\n      slt\n        /* \"#utility.yul\":2638:2640   */\n      iszero\n      tag_161\n      jumpi\n        /* \"#utility.yul\":2687:2688   */\n      0x00\n        /* \"#utility.yul\":2684:2685   */\n      dup1\n        /* \"#utility.yul\":2677:2689   */\n      revert\n        /* \"#utility.yul\":2638:2640   */\n    tag_161:\n        /* \"#utility.yul\":2730:2731   */\n      0x00\n        /* \"#utility.yul\":2755:2807   */\n      tag_162\n        /* \"#utility.yul\":2799:2806   */\n      dup10\n        /* \"#utility.yul\":2790:2796   */\n      dup3\n        /* \"#utility.yul\":2779:2788   */\n      dup11\n        /* \"#utility.yul\":2775:2797   */\n      add\n        /* \"#utility.yul\":2755:2807   */\n      tag_140\n      jump\t// in\n    tag_162:\n        /* \"#utility.yul\":2745:2807   */\n      swap7\n      pop\n        /* \"#utility.yul\":2701:2817   */\n      pop\n        /* \"#utility.yul\":2884:2886   */\n      0x20\n        /* \"#utility.yul\":2873:2882   */\n      dup8\n        /* \"#utility.yul\":2869:2887   */\n      add\n        /* \"#utility.yul\":2856:2888   */\n      calldataload\n        /* \"#utility.yul\":2915:2933   */\n      0xffffffffffffffff\n        /* \"#utility.yul\":2907:2913   */\n      dup2\n        /* \"#utility.yul\":2904:2934   */\n      gt\n        /* \"#utility.yul\":2901:2903   */\n      iszero\n      tag_163\n      jumpi\n        /* \"#utility.yul\":2947:2948   */\n      0x00\n        /* \"#utility.yul\":2944:2945   */\n      dup1\n        /* \"#utility.yul\":2937:2949   */\n      revert\n        /* \"#utility.yul\":2901:2903   */\n    tag_163:\n        /* \"#utility.yul\":2975:3037   */\n      tag_164\n        /* \"#utility.yul\":3029:3036   */\n      dup10\n        /* \"#utility.yul\":3020:3026   */\n      dup3\n        /* \"#utility.yul\":3009:3018   */\n      dup11\n        /* \"#utility.yul\":3005:3027   */\n      add\n        /* \"#utility.yul\":2975:3037   */\n      tag_136\n      jump\t// in\n    tag_164:\n        /* \"#utility.yul\":2965:3037   */\n      swap6\n      pop\n        /* \"#utility.yul\":2827:3047   */\n      pop\n        /* \"#utility.yul\":3086:3088   */\n      0x40\n        /* \"#utility.yul\":3112:3165   */\n      tag_165\n        /* \"#utility.yul\":3157:3164   */\n      dup10\n        /* \"#utility.yul\":3148:3154   */\n      dup3\n        /* \"#utility.yul\":3137:3146   */\n      dup11\n        /* \"#utility.yul\":3133:3155   */\n      add\n        /* \"#utility.yul\":3112:3165   */\n      tag_147\n      jump\t// in\n    tag_165:\n        /* \"#utility.yul\":3102:3165   */\n      swap5\n      pop\n        /* \"#utility.yul\":3057:3175   */\n      pop\n        /* \"#utility.yul\":3214:3216   */\n      0x60\n        /* \"#utility.yul\":3240:3293   */\n      tag_166\n        /* \"#utility.yul\":3285:3292   */\n      dup10\n        /* \"#utility.yul\":3276:3282   */\n      dup3\n        /* \"#utility.yul\":3265:3274   */\n      dup11\n        /* \"#utility.yul\":3261:3283   */\n      add\n        /* \"#utility.yul\":3240:3293   */\n      tag_123\n      jump\t// in\n    tag_166:\n        /* \"#utility.yul\":3230:3293   */\n      swap4\n      pop\n        /* \"#utility.yul\":3185:3303   */\n      pop\n        /* \"#utility.yul\":3342:3345   */\n      0x80\n        /* \"#utility.yul\":3369:3422   */\n      tag_167\n        /* \"#utility.yul\":3414:3421   */\n      dup10\n        /* \"#utility.yul\":3405:3411   */\n      dup3\n        /* \"#utility.yul\":3394:3403   */\n      dup11\n        /* \"#utility.yul\":3390:3412   */\n      add\n        /* \"#utility.yul\":3369:3422   */\n      tag_147\n      jump\t// in\n    tag_167:\n        /* \"#utility.yul\":3359:3422   */\n      swap3\n      pop\n        /* \"#utility.yul\":3313:3432   */\n      pop\n        /* \"#utility.yul\":3499:3502   */\n      0xa0\n        /* \"#utility.yul\":3488:3497   */\n      dup8\n        /* \"#utility.yul\":3484:3503   */\n      add\n        /* \"#utility.yul\":3471:3504   */\n      calldataload\n        /* \"#utility.yul\":3531:3549   */\n      0xffffffffffffffff\n        /* \"#utility.yul\":3523:3529   */\n      dup2\n        /* \"#utility.yul\":3520:3550   */\n      gt\n        /* \"#utility.yul\":3517:3519   */\n      iszero\n      tag_168\n      jumpi\n        /* \"#utility.yul\":3563:3564   */\n      0x00\n        /* \"#utility.yul\":3560:3561   */\n      dup1\n        /* \"#utility.yul\":3553:3565   */\n      revert\n        /* \"#utility.yul\":3517:3519   */\n    tag_168:\n        /* \"#utility.yul\":3591:3653   */\n      tag_169\n        /* \"#utility.yul\":3645:3652   */\n      dup10\n        /* \"#utility.yul\":3636:3642   */\n      dup3\n        /* \"#utility.yul\":3625:3634   */\n      dup11\n        /* \"#utility.yul\":3621:3643   */\n      add\n        /* \"#utility.yul\":3591:3653   */\n      tag_136\n      jump\t// in\n    tag_169:\n        /* \"#utility.yul\":3581:3653   */\n      swap2\n      pop\n        /* \"#utility.yul\":3442:3663   */\n      pop\n        /* \"#utility.yul\":2628:3670   */\n      swap3\n      swap6\n      pop\n      swap3\n      swap6\n      pop\n      swap3\n      swap6\n      jump\t// out\n        /* \"#utility.yul\":3676:3960   */\n    tag_66:\n        /* \"#utility.yul\":3746:3752   */\n      0x00\n        /* \"#utility.yul\":3795:3797   */\n      0x20\n        /* \"#utility.yul\":3783:3792   */\n      dup3\n        /* \"#utility.yul\":3774:3781   */\n      dup5\n        /* \"#utility.yul\":3770:3793   */\n      sub\n        /* \"#utility.yul\":3766:3798   */\n      slt\n        /* \"#utility.yul\":3763:3765   */\n      iszero\n      tag_171\n      jumpi\n        /* \"#utility.yul\":3811:3812   */\n      0x00\n        /* \"#utility.yul\":3808:3809   */\n      dup1\n        /* \"#utility.yul\":3801:3813   */\n      revert\n        /* \"#utility.yul\":3763:3765   */\n    tag_171:\n        /* \"#utility.yul\":3854:3855   */\n      0x00\n        /* \"#utility.yul\":3879:3943   */\n      tag_172\n        /* \"#utility.yul\":3935:3942   */\n      dup5\n        /* \"#utility.yul\":3926:3932   */\n      dup3\n        /* \"#utility.yul\":3915:3924   */\n      dup6\n        /* \"#utility.yul\":3911:3933   */\n      add\n        /* \"#utility.yul\":3879:3943   */\n      tag_151\n      jump\t// in\n    tag_172:\n        /* \"#utility.yul\":3869:3943   */\n      swap2\n      pop\n        /* \"#utility.yul\":3825:3953   */\n      pop\n        /* \"#utility.yul\":3753:3960   */\n      swap3\n      swap2\n      pop\n      pop\n      jump\t// out\n        /* \"#utility.yul\":3966:4504   */\n    tag_9:\n        /* \"#utility.yul\":4045:4051   */\n      0x00\n        /* \"#utility.yul\":4053:4059   */\n      dup1\n        /* \"#utility.yul\":4061:4067   */\n      0x00\n        /* \"#utility.yul\":4110:4112   */\n      0x40\n        /* \"#utility.yul\":4098:4107   */\n      dup5\n        /* \"#utility.yul\":4089:4096   */\n      dup7\n        /* \"#utility.yul\":4085:4108   */\n      sub\n        /* \"#utility.yul\":4081:4113   */\n      slt\n        /* \"#utility.yul\":4078:4080   */\n      iszero\n      tag_174\n      jumpi\n        /* \"#utility.yul\":4126:4127   */\n      0x00\n        /* \"#utility.yul\":4123:4124   */\n      dup1\n        /* \"#utility.yul\":4116:4128   */\n      revert\n        /* \"#utility.yul\":4078:4080   */\n    tag_174:\n        /* \"#utility.yul\":4169:4170   */\n      0x00\n        /* \"#utility.yul\":4194:4247   */\n      tag_175\n        /* \"#utility.yul\":4239:4246   */\n      dup7\n        /* \"#utility.yul\":4230:4236   */\n      dup3\n        /* \"#utility.yul\":4219:4228   */\n      dup8\n        /* \"#utility.yul\":4215:4237   */\n      add\n        /* \"#utility.yul\":4194:4247   */\n      tag_147\n      jump\t// in\n    tag_175:\n        /* \"#utility.yul\":4184:4247   */\n      swap4\n      pop\n        /* \"#utility.yul\":4140:4257   */\n      pop\n        /* \"#utility.yul\":4324:4326   */\n      0x20\n        /* \"#utility.yul\":4313:4322   */\n      dup5\n        /* \"#utility.yul\":4309:4327   */\n      add\n        /* \"#utility.yul\":4296:4328   */\n      calldataload\n        /* \"#utility.yul\":4355:4373   */\n      0xffffffffffffffff\n        /* \"#utility.yul\":4347:4353   */\n      dup2\n        /* \"#utility.yul\":4344:4374   */\n      gt\n        /* \"#utility.yul\":4341:4343   */\n      iszero\n      tag_176\n      jumpi\n        /* \"#utility.yul\":4387:4388   */\n      0x00\n        /* \"#utility.yul\":4384:4385   */\n      dup1\n        /* \"#utility.yul\":4377:4389   */\n      revert\n        /* \"#utility.yul\":4341:4343   */\n    tag_176:\n        /* \"#utility.yul\":4423:4487   */\n      tag_177\n        /* \"#utility.yul\":4479:4486   */\n      dup7\n        /* \"#utility.yul\":4470:4476   */\n      dup3\n        /* \"#utility.yul\":4459:4468   */\n      dup8\n        /* \"#utility.yul\":4455:4477   */\n      add\n        /* \"#utility.yul\":4423:4487   */\n      tag_131\n      jump\t// in\n    tag_177:\n        /* \"#utility.yul\":4405:4487   */\n      swap3\n      pop\n      swap3\n      pop\n        /* \"#utility.yul\":4267:4497   */\n      pop\n        /* \"#utility.yul\":4068:4504   */\n      swap3\n      pop\n      swap3\n      pop\n      swap3\n      jump\t// out\n        /* \"#utility.yul\":4510:4652   */\n    tag_178:\n        /* \"#utility.yul\":4613:4645   */\n      tag_180\n        /* \"#utility.yul\":4639:4644   */\n      dup2\n        /* \"#utility.yul\":4613:4645   */\n      tag_181\n      jump\t// in\n    tag_180:\n        /* \"#utility.yul\":4608:4611   */\n      dup3\n        /* \"#utility.yul\":4601:4646   */\n      mstore\n        /* \"#utility.yul\":4591:4652   */\n      pop\n      pop\n      jump\t// out\n        /* \"#utility.yul\":4658:4776   */\n    tag_182:\n        /* \"#utility.yul\":4745:4769   */\n      tag_184\n        /* \"#utility.yul\":4763:4768   */\n      dup2\n        /* \"#utility.yul\":4745:4769   */\n      tag_185\n      jump\t// in\n    tag_184:\n        /* \"#utility.yul\":4740:4743   */\n      dup3\n        /* \"#utility.yul\":4733:4770   */\n      mstore\n        /* \"#utility.yul\":4723:4776   */\n      pop\n      pop\n      jump\t// out\n        /* \"#utility.yul\":4782:4939   */\n    tag_186:\n        /* \"#utility.yul\":4887:4932   */\n      tag_188\n        /* \"#utility.yul\":4907:4931   */\n      tag_189\n        /* \"#utility.yul\":4925:4930   */\n      dup3\n        /* \"#utility.yul\":4907:4931   */\n      tag_185\n      jump\t// in\n    tag_189:\n        /* \"#utility.yul\":4887:4932   */\n      tag_190\n      jump\t// in\n    tag_188:\n        /* \"#utility.yul\":4882:4885   */\n      dup3\n        /* \"#utility.yul\":4875:4933   */\n      mstore\n        /* \"#utility.yul\":4865:4939   */\n      pop\n      pop\n      jump\t// out\n        /* \"#utility.yul\":4945:5060   */\n    tag_191:\n        /* \"#utility.yul\":5030:5053   */\n      tag_193\n        /* \"#utility.yul\":5047:5052   */\n      dup2\n        /* \"#utility.yul\":5030:5053   */\n      tag_194\n      jump\t// in\n    tag_193:\n        /* \"#utility.yul\":5025:5028   */\n      dup3\n        /* \"#utility.yul\":5018:5054   */\n      mstore\n        /* \"#utility.yul\":5008:5060   */\n      pop\n      pop\n      jump\t// out\n        /* \"#utility.yul\":5088:5389   */\n    tag_195:\n        /* \"#utility.yul\":5184:5187   */\n      0x00\n        /* \"#utility.yul\":5205:5275   */\n      tag_197\n        /* \"#utility.yul\":5268:5274   */\n      dup4\n        /* \"#utility.yul\":5263:5266   */\n      dup6\n        /* \"#utility.yul\":5205:5275   */\n      tag_198\n      jump\t// in\n    tag_197:\n        /* \"#utility.yul\":5198:5275   */\n      swap4\n      pop\n        /* \"#utility.yul\":5285:5328   */\n      tag_199\n        /* \"#utility.yul\":5321:5327   */\n      dup4\n        /* \"#utility.yul\":5316:5319   */\n      dup6\n        /* \"#utility.yul\":5309:5314   */\n      dup5\n        /* \"#utility.yul\":5285:5328   */\n      tag_122\n      jump\t// in\n    tag_199:\n        /* \"#utility.yul\":5353:5382   */\n      tag_200\n        /* \"#utility.yul\":5375:5381   */\n      dup4\n        /* \"#utility.yul\":5353:5382   */\n      tag_201\n      jump\t// in\n    tag_200:\n        /* \"#utility.yul\":5348:5351   */\n      dup5\n        /* \"#utility.yul\":5344:5383   */\n      add\n        /* \"#utility.yul\":5337:5383   */\n      swap1\n      pop\n        /* \"#utility.yul\":5188:5389   */\n      swap4\n      swap3\n      pop\n      pop\n      pop\n      jump\t// out\n        /* \"#utility.yul\":5395:5735   */\n    tag_202:\n        /* \"#utility.yul\":5471:5474   */\n      0x00\n        /* \"#utility.yul\":5499:5537   */\n      tag_204\n        /* \"#utility.yul\":5531:5536   */\n      dup3\n        /* \"#utility.yul\":5499:5537   */\n      tag_205\n      jump\t// in\n    tag_204:\n        /* \"#utility.yul\":5553:5613   */\n      tag_206\n        /* \"#utility.yul\":5606:5612   */\n      dup2\n        /* \"#utility.yul\":5601:5604   */\n      dup6\n        /* \"#utility.yul\":5553:5613   */\n      tag_207\n      jump\t// in\n    tag_206:\n        /* \"#utility.yul\":5546:5613   */\n      swap4\n      pop\n        /* \"#utility.yul\":5622:5674   */\n      tag_208\n        /* \"#utility.yul\":5667:5673   */\n      dup2\n        /* \"#utility.yul\":5662:5665   */\n      dup6\n        /* \"#utility.yul\":5655:5659   */\n      0x20\n        /* \"#utility.yul\":5648:5653   */\n      dup7\n        /* \"#utility.yul\":5644:5660   */\n      add\n        /* \"#utility.yul\":5622:5674   */\n      tag_209\n      jump\t// in\n    tag_208:\n        /* \"#utility.yul\":5699:5728   */\n      tag_210\n        /* \"#utility.yul\":5721:5727   */\n      dup2\n        /* \"#utility.yul\":5699:5728   */\n      tag_201\n      jump\t// in\n    tag_210:\n        /* \"#utility.yul\":5694:5697   */\n      dup5\n        /* \"#utility.yul\":5690:5729   */\n      add\n        /* \"#utility.yul\":5683:5729   */\n      swap2\n      pop\n        /* \"#utility.yul\":5475:5735   */\n      pop\n      swap3\n      swap2\n      pop\n      pop\n      jump\t// out\n        /* \"#utility.yul\":5741:6101   */\n    tag_211:\n        /* \"#utility.yul\":5827:5830   */\n      0x00\n        /* \"#utility.yul\":5855:5893   */\n      tag_213\n        /* \"#utility.yul\":5887:5892   */\n      dup3\n        /* \"#utility.yul\":5855:5893   */\n      tag_205\n      jump\t// in\n    tag_213:\n        /* \"#utility.yul\":5909:5979   */\n      tag_214\n        /* \"#utility.yul\":5972:5978   */\n      dup2\n        /* \"#utility.yul\":5967:5970   */\n      dup6\n        /* \"#utility.yul\":5909:5979   */\n      tag_198\n      jump\t// in\n    tag_214:\n        /* \"#utility.yul\":5902:5979   */\n      swap4\n      pop\n        /* \"#utility.yul\":5988:6040   */\n      tag_215\n        /* \"#utility.yul\":6033:6039   */\n      dup2\n        /* \"#utility.yul\":6028:6031   */\n      dup6\n        /* \"#utility.yul\":6021:6025   */\n      0x20\n        /* \"#utility.yul\":6014:6019   */\n      dup7\n        /* \"#utility.yul\":6010:6026   */\n      add\n        /* \"#utility.yul\":5988:6040   */\n      tag_209\n      jump\t// in\n    tag_215:\n        /* \"#utility.yul\":6065:6094   */\n      tag_216\n        /* \"#utility.yul\":6087:6093   */\n      dup2\n        /* \"#utility.yul\":6065:6094   */\n      tag_201\n      jump\t// in\n    tag_216:\n        /* \"#utility.yul\":6060:6063   */\n      dup5\n        /* \"#utility.yul\":6056:6095   */\n      add\n        /* \"#utility.yul\":6049:6095   */\n      swap2\n      pop\n        /* \"#utility.yul\":5831:6101   */\n      pop\n      swap3\n      swap2\n      pop\n      pop\n      jump\t// out\n        /* \"#utility.yul\":6107:6480   */\n    tag_217:\n        /* \"#utility.yul\":6211:6214   */\n      0x00\n        /* \"#utility.yul\":6239:6277   */\n      tag_219\n        /* \"#utility.yul\":6271:6276   */\n      dup3\n        /* \"#utility.yul\":6239:6277   */\n      tag_205\n      jump\t// in\n    tag_219:\n        /* \"#utility.yul\":6293:6381   */\n      tag_220\n        /* \"#utility.yul\":6374:6380   */\n      dup2\n        /* \"#utility.yul\":6369:6372   */\n      dup6\n        /* \"#utility.yul\":6293:6381   */\n      tag_221\n      jump\t// in\n    tag_220:\n        /* \"#utility.yul\":6286:6381   */\n      swap4\n      pop\n        /* \"#utility.yul\":6390:6442   */\n      tag_222\n        /* \"#utility.yul\":6435:6441   */\n      dup2\n        /* \"#utility.yul\":6430:6433   */\n      dup6\n        /* \"#utility.yul\":6423:6427   */\n      0x20\n        /* \"#utility.yul\":6416:6421   */\n      dup7\n        /* \"#utility.yul\":6412:6428   */\n      add\n        /* \"#utility.yul\":6390:6442   */\n      tag_209\n      jump\t// in\n    tag_222:\n        /* \"#utility.yul\":6467:6473   */\n      dup1\n        /* \"#utility.yul\":6462:6465   */\n      dup5\n        /* \"#utility.yul\":6458:6474   */\n      add\n        /* \"#utility.yul\":6451:6474   */\n      swap2\n      pop\n        /* \"#utility.yul\":6215:6480   */\n      pop\n      swap3\n      swap2\n      pop\n      pop\n      jump\t// out\n        /* \"#utility.yul\":6486:6633   */\n    tag_223:\n        /* \"#utility.yul\":6581:6626   */\n      tag_225\n        /* \"#utility.yul\":6620:6625   */\n      dup2\n        /* \"#utility.yul\":6581:6626   */\n      tag_226\n      jump\t// in\n    tag_225:\n        /* \"#utility.yul\":6576:6579   */\n      dup3\n        /* \"#utility.yul\":6569:6627   */\n      mstore\n        /* \"#utility.yul\":6559:6633   */\n      pop\n      pop\n      jump\t// out\n        /* \"#utility.yul\":6639:6786   */\n    tag_227:\n        /* \"#utility.yul\":6734:6779   */\n      tag_229\n        /* \"#utility.yul\":6773:6778   */\n      dup2\n        /* \"#utility.yul\":6734:6779   */\n      tag_230\n      jump\t// in\n    tag_229:\n        /* \"#utility.yul\":6729:6732   */\n      dup3\n        /* \"#utility.yul\":6722:6780   */\n      mstore\n        /* \"#utility.yul\":6712:6786   */\n      pop\n      pop\n      jump\t// out\n        /* \"#utility.yul\":6792:7156   */\n    tag_231:\n        /* \"#utility.yul\":6880:6883   */\n      0x00\n        /* \"#utility.yul\":6908:6947   */\n      tag_233\n        /* \"#utility.yul\":6941:6946   */\n      dup3\n        /* \"#utility.yul\":6908:6947   */\n      tag_234\n      jump\t// in\n    tag_233:\n        /* \"#utility.yul\":6963:7034   */\n      tag_235\n        /* \"#utility.yul\":7027:7033   */\n      dup2\n        /* \"#utility.yul\":7022:7025   */\n      dup6\n        /* \"#utility.yul\":6963:7034   */\n      tag_236\n      jump\t// in\n    tag_235:\n        /* \"#utility.yul\":6956:7034   */\n      swap4\n      pop\n        /* \"#utility.yul\":7043:7095   */\n      tag_237\n        /* \"#utility.yul\":7088:7094   */\n      dup2\n        /* \"#utility.yul\":7083:7086   */\n      dup6\n        /* \"#utility.yul\":7076:7080   */\n      0x20\n        /* \"#utility.yul\":7069:7074   */\n      dup7\n        /* \"#utility.yul\":7065:7081   */\n      add\n        /* \"#utility.yul\":7043:7095   */\n      tag_209\n      jump\t// in\n    tag_237:\n        /* \"#utility.yul\":7120:7149   */\n      tag_238\n        /* \"#utility.yul\":7142:7148   */\n      dup2\n        /* \"#utility.yul\":7120:7149   */\n      tag_201\n      jump\t// in\n    tag_238:\n        /* \"#utility.yul\":7115:7118   */\n      dup5\n        /* \"#utility.yul\":7111:7150   */\n      add\n        /* \"#utility.yul\":7104:7150   */\n      swap2\n      pop\n        /* \"#utility.yul\":6884:7156   */\n      pop\n      swap3\n      swap2\n      pop\n      pop\n      jump\t// out\n        /* \"#utility.yul\":7162:7528   */\n    tag_239:\n        /* \"#utility.yul\":7304:7307   */\n      0x00\n        /* \"#utility.yul\":7325:7392   */\n      tag_241\n        /* \"#utility.yul\":7389:7391   */\n      0x37\n        /* \"#utility.yul\":7384:7387   */\n      dup4\n        /* \"#utility.yul\":7325:7392   */\n      tag_236\n      jump\t// in\n    tag_241:\n        /* \"#utility.yul\":7318:7392   */\n      swap2\n      pop\n        /* \"#utility.yul\":7401:7494   */\n      tag_242\n        /* \"#utility.yul\":7490:7493   */\n      dup3\n        /* \"#utility.yul\":7401:7494   */\n      tag_243\n      jump\t// in\n    tag_242:\n        /* \"#utility.yul\":7519:7521   */\n      0x40\n        /* \"#utility.yul\":7514:7517   */\n      dup3\n        /* \"#utility.yul\":7510:7522   */\n      add\n        /* \"#utility.yul\":7503:7522   */\n      swap1\n      pop\n        /* \"#utility.yul\":7308:7528   */\n      swap2\n      swap1\n      pop\n      jump\t// out\n        /* \"#utility.yul\":7534:7900   */\n    tag_244:\n        /* \"#utility.yul\":7676:7679   */\n      0x00\n        /* \"#utility.yul\":7697:7764   */\n      tag_246\n        /* \"#utility.yul\":7761:7763   */\n      0x26\n        /* \"#utility.yul\":7756:7759   */\n      dup4\n        /* \"#utility.yul\":7697:7764   */\n      tag_236\n      jump\t// in\n    tag_246:\n        /* \"#utility.yul\":7690:7764   */\n      swap2\n      pop\n        /* \"#utility.yul\":7773:7866   */\n      tag_247\n        /* \"#utility.yul\":7862:7865   */\n      dup3\n        /* \"#utility.yul\":7773:7866   */\n      tag_248\n      jump\t// in\n    tag_247:\n        /* \"#utility.yul\":7891:7893   */\n      0x40\n        /* \"#utility.yul\":7886:7889   */\n      dup3\n        /* \"#utility.yul\":7882:7894   */\n      add\n        /* \"#utility.yul\":7875:7894   */\n      swap1\n      pop\n        /* \"#utility.yul\":7680:7900   */\n      swap2\n      swap1\n      pop\n      jump\t// out\n        /* \"#utility.yul\":7906:8272   */\n    tag_249:\n        /* \"#utility.yul\":8048:8051   */\n      0x00\n        /* \"#utility.yul\":8069:8136   */\n      tag_251\n        /* \"#utility.yul\":8133:8135   */\n      0x1d\n        /* \"#utility.yul\":8128:8131   */\n      dup4\n        /* \"#utility.yul\":8069:8136   */\n      tag_236\n      jump\t// in\n    tag_251:\n        /* \"#utility.yul\":8062:8136   */\n      swap2\n      pop\n        /* \"#utility.yul\":8145:8238   */\n      tag_252\n        /* \"#utility.yul\":8234:8237   */\n      dup3\n        /* \"#utility.yul\":8145:8238   */\n      tag_253\n      jump\t// in\n    tag_252:\n        /* \"#utility.yul\":8263:8265   */\n      0x20\n        /* \"#utility.yul\":8258:8261   */\n      dup3\n        /* \"#utility.yul\":8254:8266   */\n      add\n        /* \"#utility.yul\":8247:8266   */\n      swap1\n      pop\n        /* \"#utility.yul\":8052:8272   */\n      swap2\n      swap1\n      pop\n      jump\t// out\n        /* \"#utility.yul\":8278:8644   */\n    tag_254:\n        /* \"#utility.yul\":8420:8423   */\n      0x00\n        /* \"#utility.yul\":8441:8508   */\n      tag_256\n        /* \"#utility.yul\":8505:8507   */\n      0x2a\n        /* \"#utility.yul\":8500:8503   */\n      dup4\n        /* \"#utility.yul\":8441:8508   */\n      tag_236\n      jump\t// in\n    tag_256:\n        /* \"#utility.yul\":8434:8508   */\n      swap2\n      pop\n        /* \"#utility.yul\":8517:8610   */\n      tag_257\n        /* \"#utility.yul\":8606:8609   */\n      dup3\n        /* \"#utility.yul\":8517:8610   */\n      tag_258\n      jump\t// in\n    tag_257:\n        /* \"#utility.yul\":8635:8637   */\n      0x40\n        /* \"#utility.yul\":8630:8633   */\n      dup3\n        /* \"#utility.yul\":8626:8638   */\n      add\n        /* \"#utility.yul\":8619:8638   */\n      swap1\n      pop\n        /* \"#utility.yul\":8424:8644   */\n      swap2\n      swap1\n      pop\n      jump\t// out\n        /* \"#utility.yul\":8650:9016   */\n    tag_259:\n        /* \"#utility.yul\":8792:8795   */\n      0x00\n        /* \"#utility.yul\":8813:8880   */\n      tag_261\n        /* \"#utility.yul\":8877:8879   */\n      0x36\n        /* \"#utility.yul\":8872:8875   */\n      dup4\n        /* \"#utility.yul\":8813:8880   */\n      tag_236\n      jump\t// in\n    tag_261:\n        /* \"#utility.yul\":8806:8880   */\n      swap2\n      pop\n        /* \"#utility.yul\":8889:8982   */\n      tag_262\n        /* \"#utility.yul\":8978:8981   */\n      dup3\n        /* \"#utility.yul\":8889:8982   */\n      tag_263\n      jump\t// in\n    tag_262:\n        /* \"#utility.yul\":9007:9009   */\n      0x40\n        /* \"#utility.yul\":9002:9005   */\n      dup3\n        /* \"#utility.yul\":8998:9010   */\n      add\n        /* \"#utility.yul\":8991:9010   */\n      swap1\n      pop\n        /* \"#utility.yul\":8796:9016   */\n      swap2\n      swap1\n      pop\n      jump\t// out\n        /* \"#utility.yul\":9094:9901   */\n    tag_264:\n        /* \"#utility.yul\":9213:9216   */\n      0x00\n        /* \"#utility.yul\":9249:9253   */\n      0x60\n        /* \"#utility.yul\":9244:9247   */\n      dup4\n        /* \"#utility.yul\":9240:9254   */\n      add\n        /* \"#utility.yul\":9345:9349   */\n      0x00\n        /* \"#utility.yul\":9338:9343   */\n      dup4\n        /* \"#utility.yul\":9334:9350   */\n      add\n        /* \"#utility.yul\":9328:9351   */\n      mload\n        /* \"#utility.yul\":9364:9427   */\n      tag_266\n        /* \"#utility.yul\":9421:9425   */\n      0x00\n        /* \"#utility.yul\":9416:9419   */\n      dup7\n        /* \"#utility.yul\":9412:9426   */\n      add\n        /* \"#utility.yul\":9398:9410   */\n      dup3\n        /* \"#utility.yul\":9364:9427   */\n      tag_267\n      jump\t// in\n    tag_266:\n        /* \"#utility.yul\":9264:9437   */\n      pop\n        /* \"#utility.yul\":9530:9534   */\n      0x20\n        /* \"#utility.yul\":9523:9528   */\n      dup4\n        /* \"#utility.yul\":9519:9535   */\n      add\n        /* \"#utility.yul\":9513:9536   */\n      mload\n        /* \"#utility.yul\":9549:9612   */\n      tag_268\n        /* \"#utility.yul\":9606:9610   */\n      0x20\n        /* \"#utility.yul\":9601:9604   */\n      dup7\n        /* \"#utility.yul\":9597:9611   */\n      add\n        /* \"#utility.yul\":9583:9595   */\n      dup3\n        /* \"#utility.yul\":9549:9612   */\n      tag_267\n      jump\t// in\n    tag_268:\n        /* \"#utility.yul\":9447:9622   */\n      pop\n        /* \"#utility.yul\":9713:9717   */\n      0x40\n        /* \"#utility.yul\":9706:9711   */\n      dup4\n        /* \"#utility.yul\":9702:9718   */\n      add\n        /* \"#utility.yul\":9696:9719   */\n      mload\n        /* \"#utility.yul\":9766:9769   */\n      dup5\n        /* \"#utility.yul\":9760:9764   */\n      dup3\n        /* \"#utility.yul\":9756:9770   */\n      sub\n        /* \"#utility.yul\":9749:9753   */\n      0x40\n        /* \"#utility.yul\":9744:9747   */\n      dup7\n        /* \"#utility.yul\":9740:9754   */\n      add\n        /* \"#utility.yul\":9733:9771   */\n      mstore\n        /* \"#utility.yul\":9792:9863   */\n      tag_269\n        /* \"#utility.yul\":9858:9862   */\n      dup3\n        /* \"#utility.yul\":9844:9856   */\n      dup3\n        /* \"#utility.yul\":9792:9863   */\n      tag_202\n      jump\t// in\n    tag_269:\n        /* \"#utility.yul\":9784:9863   */\n      swap2\n      pop\n        /* \"#utility.yul\":9632:9874   */\n      pop\n        /* \"#utility.yul\":9891:9895   */\n      dup1\n        /* \"#utility.yul\":9884:9895   */\n      swap2\n      pop\n        /* \"#utility.yul\":9218:9901   */\n      pop\n      swap3\n      swap2\n      pop\n      pop\n      jump\t// out\n        /* \"#utility.yul\":9907:10022   */\n    tag_270:\n        /* \"#utility.yul\":9992:10015   */\n      tag_272\n        /* \"#utility.yul\":10009:10014   */\n      dup2\n        /* \"#utility.yul\":9992:10015   */\n      tag_273\n      jump\t// in\n    tag_272:\n        /* \"#utility.yul\":9987:9990   */\n      dup3\n        /* \"#utility.yul\":9980:10016   */\n      mstore\n        /* \"#utility.yul\":9970:10022   */\n      pop\n      pop\n      jump\t// out\n        /* \"#utility.yul\":10028:10136   */\n    tag_267:\n        /* \"#utility.yul\":10105:10129   */\n      tag_275\n        /* \"#utility.yul\":10123:10128   */\n      dup2\n        /* \"#utility.yul\":10105:10129   */\n      tag_276\n      jump\t// in\n    tag_275:\n        /* \"#utility.yul\":10100:10103   */\n      dup3\n        /* \"#utility.yul\":10093:10130   */\n      mstore\n        /* \"#utility.yul\":10083:10136   */\n      pop\n      pop\n      jump\t// out\n        /* \"#utility.yul\":10142:10260   */\n    tag_277:\n        /* \"#utility.yul\":10229:10253   */\n      tag_279\n        /* \"#utility.yul\":10247:10252   */\n      dup2\n        /* \"#utility.yul\":10229:10253   */\n      tag_276\n      jump\t// in\n    tag_279:\n        /* \"#utility.yul\":10224:10227   */\n      dup3\n        /* \"#utility.yul\":10217:10254   */\n      mstore\n        /* \"#utility.yul\":10207:10260   */\n      pop\n      pop\n      jump\t// out\n        /* \"#utility.yul\":10266:10522   */\n    tag_46:\n        /* \"#utility.yul\":10378:10381   */\n      0x00\n        /* \"#utility.yul\":10393:10468   */\n      tag_281\n        /* \"#utility.yul\":10464:10467   */\n      dup3\n        /* \"#utility.yul\":10455:10461   */\n      dup5\n        /* \"#utility.yul\":10393:10468   */\n      tag_186\n      jump\t// in\n    tag_281:\n        /* \"#utility.yul\":10493:10495   */\n      0x14\n        /* \"#utility.yul\":10488:10491   */\n      dup3\n        /* \"#utility.yul\":10484:10496   */\n      add\n        /* \"#utility.yul\":10477:10496   */\n      swap2\n      pop\n        /* \"#utility.yul\":10513:10516   */\n      dup2\n        /* \"#utility.yul\":10506:10516   */\n      swap1\n      pop\n        /* \"#utility.yul\":10382:10522   */\n      swap3\n      swap2\n      pop\n      pop\n      jump\t// out\n        /* \"#utility.yul\":10528:10799   */\n    tag_90:\n        /* \"#utility.yul\":10658:10661   */\n      0x00\n        /* \"#utility.yul\":10680:10773   */\n      tag_283\n        /* \"#utility.yul\":10769:10772   */\n      dup3\n        /* \"#utility.yul\":10760:10766   */\n      dup5\n        /* \"#utility.yul\":10680:10773   */\n      tag_217\n      jump\t// in\n    tag_283:\n        /* \"#utility.yul\":10673:10773   */\n      swap2\n      pop\n        /* \"#utility.yul\":10790:10793   */\n      dup2\n        /* \"#utility.yul\":10783:10793   */\n      swap1\n      pop\n        /* \"#utility.yul\":10662:10799   */\n      swap3\n      swap2\n      pop\n      pop\n      jump\t// out\n        /* \"#utility.yul\":10805:11027   */\n    tag_15:\n        /* \"#utility.yul\":10898:10902   */\n      0x00\n        /* \"#utility.yul\":10936:10938   */\n      0x20\n        /* \"#utility.yul\":10925:10934   */\n      dup3\n        /* \"#utility.yul\":10921:10939   */\n      add\n        /* \"#utility.yul\":10913:10939   */\n      swap1\n      pop\n        /* \"#utility.yul\":10949:11020   */\n      tag_285\n        /* \"#utility.yul\":11017:11018   */\n      0x00\n        /* \"#utility.yul\":11006:11015   */\n      dup4\n        /* \"#utility.yul\":11002:11019   */\n      add\n        /* \"#utility.yul\":10993:10999   */\n      dup5\n        /* \"#utility.yul\":10949:11020   */\n      tag_182\n      jump\t// in\n    tag_285:\n        /* \"#utility.yul\":10903:11027   */\n      swap3\n      swap2\n      pop\n      pop\n      jump\t// out\n        /* \"#utility.yul\":11033:11365   */\n    tag_61:\n        /* \"#utility.yul\":11154:11158   */\n      0x00\n        /* \"#utility.yul\":11192:11194   */\n      0x40\n        /* \"#utility.yul\":11181:11190   */\n      dup3\n        /* \"#utility.yul\":11177:11195   */\n      add\n        /* \"#utility.yul\":11169:11195   */\n      swap1\n      pop\n        /* \"#utility.yul\":11205:11276   */\n      tag_287\n        /* \"#utility.yul\":11273:11274   */\n      0x00\n        /* \"#utility.yul\":11262:11271   */\n      dup4\n        /* \"#utility.yul\":11258:11275   */\n      add\n        /* \"#utility.yul\":11249:11255   */\n      dup6\n        /* \"#utility.yul\":11205:11276   */\n      tag_182\n      jump\t// in\n    tag_287:\n        /* \"#utility.yul\":11286:11358   */\n      tag_288\n        /* \"#utility.yul\":11354:11356   */\n      0x20\n        /* \"#utility.yul\":11343:11352   */\n      dup4\n        /* \"#utility.yul\":11339:11357   */\n      add\n        /* \"#utility.yul\":11330:11336   */\n      dup5\n        /* \"#utility.yul\":11286:11358   */\n      tag_182\n      jump\t// in\n    tag_288:\n        /* \"#utility.yul\":11159:11365   */\n      swap4\n      swap3\n      pop\n      pop\n      pop\n      jump\t// out\n        /* \"#utility.yul\":11371:11813   */\n    tag_56:\n        /* \"#utility.yul\":11520:11524   */\n      0x00\n        /* \"#utility.yul\":11558:11560   */\n      0x60\n        /* \"#utility.yul\":11547:11556   */\n      dup3\n        /* \"#utility.yul\":11543:11561   */\n      add\n        /* \"#utility.yul\":11535:11561   */\n      swap1\n      pop\n        /* \"#utility.yul\":11571:11642   */\n      tag_290\n        /* \"#utility.yul\":11639:11640   */\n      0x00\n        /* \"#utility.yul\":11628:11637   */\n      dup4\n        /* \"#utility.yul\":11624:11641   */\n      add\n        /* \"#utility.yul\":11615:11621   */\n      dup7\n        /* \"#utility.yul\":11571:11642   */\n      tag_182\n      jump\t// in\n    tag_290:\n        /* \"#utility.yul\":11652:11724   */\n      tag_291\n        /* \"#utility.yul\":11720:11722   */\n      0x20\n        /* \"#utility.yul\":11709:11718   */\n      dup4\n        /* \"#utility.yul\":11705:11723   */\n      add\n        /* \"#utility.yul\":11696:11702   */\n      dup6\n        /* \"#utility.yul\":11652:11724   */\n      tag_182\n      jump\t// in\n    tag_291:\n        /* \"#utility.yul\":11734:11806   */\n      tag_292\n        /* \"#utility.yul\":11802:11804   */\n      0x40\n        /* \"#utility.yul\":11791:11800   */\n      dup4\n        /* \"#utility.yul\":11787:11805   */\n      add\n        /* \"#utility.yul\":11778:11784   */\n      dup5\n        /* \"#utility.yul\":11734:11806   */\n      tag_277\n      jump\t// in\n    tag_292:\n        /* \"#utility.yul\":11525:11813   */\n      swap5\n      swap4\n      pop\n      pop\n      pop\n      pop\n      jump\t// out\n        /* \"#utility.yul\":11819:12151   */\n    tag_72:\n        /* \"#utility.yul\":11940:11944   */\n      0x00\n        /* \"#utility.yul\":11978:11980   */\n      0x40\n        /* \"#utility.yul\":11967:11976   */\n      dup3\n        /* \"#utility.yul\":11963:11981   */\n      add\n        /* \"#utility.yul\":11955:11981   */\n      swap1\n      pop\n        /* \"#utility.yul\":11991:12062   */\n      tag_294\n        /* \"#utility.yul\":12059:12060   */\n      0x00\n        /* \"#utility.yul\":12048:12057   */\n      dup4\n        /* \"#utility.yul\":12044:12061   */\n      add\n        /* \"#utility.yul\":12035:12041   */\n      dup6\n        /* \"#utility.yul\":11991:12062   */\n      tag_182\n      jump\t// in\n    tag_294:\n        /* \"#utility.yul\":12072:12144   */\n      tag_295\n        /* \"#utility.yul\":12140:12142   */\n      0x20\n        /* \"#utility.yul\":12129:12138   */\n      dup4\n        /* \"#utility.yul\":12125:12143   */\n      add\n        /* \"#utility.yul\":12116:12122   */\n      dup5\n        /* \"#utility.yul\":12072:12144   */\n      tag_277\n      jump\t// in\n    tag_295:\n        /* \"#utility.yul\":11945:12151   */\n      swap4\n      swap3\n      pop\n      pop\n      pop\n      jump\t// out\n        /* \"#utility.yul\":12157:12375   */\n    tag_20:\n        /* \"#utility.yul\":12248:12252   */\n      0x00\n        /* \"#utility.yul\":12286:12288   */\n      0x20\n        /* \"#utility.yul\":12275:12284   */\n      dup3\n        /* \"#utility.yul\":12271:12289   */\n      add\n        /* \"#utility.yul\":12263:12289   */\n      swap1\n      pop\n        /* \"#utility.yul\":12299:12368   */\n      tag_297\n        /* \"#utility.yul\":12365:12366   */\n      0x00\n        /* \"#utility.yul\":12354:12363   */\n      dup4\n        /* \"#utility.yul\":12350:12367   */\n      add\n        /* \"#utility.yul\":12341:12347   */\n      dup5\n        /* \"#utility.yul\":12299:12368   */\n      tag_191\n      jump\t// in\n    tag_297:\n        /* \"#utility.yul\":12253:12375   */\n      swap3\n      swap2\n      pop\n      pop\n      jump\t// out\n        /* \"#utility.yul\":12381:12694   */\n    tag_112:\n        /* \"#utility.yul\":12494:12498   */\n      0x00\n        /* \"#utility.yul\":12532:12534   */\n      0x20\n        /* \"#utility.yul\":12521:12530   */\n      dup3\n        /* \"#utility.yul\":12517:12535   */\n      add\n        /* \"#utility.yul\":12509:12535   */\n      swap1\n      pop\n        /* \"#utility.yul\":12581:12590   */\n      dup2\n        /* \"#utility.yul\":12575:12579   */\n      dup2\n        /* \"#utility.yul\":12571:12591   */\n      sub\n        /* \"#utility.yul\":12567:12568   */\n      0x00\n        /* \"#utility.yul\":12556:12565   */\n      dup4\n        /* \"#utility.yul\":12552:12569   */\n      add\n        /* \"#utility.yul\":12545:12592   */\n      mstore\n        /* \"#utility.yul\":12609:12687   */\n      tag_299\n        /* \"#utility.yul\":12682:12686   */\n      dup2\n        /* \"#utility.yul\":12673:12679   */\n      dup5\n        /* \"#utility.yul\":12609:12687   */\n      tag_231\n      jump\t// in\n    tag_299:\n        /* \"#utility.yul\":12601:12687   */\n      swap1\n      pop\n        /* \"#utility.yul\":12499:12694   */\n      swap3\n      swap2\n      pop\n      pop\n      jump\t// out\n        /* \"#utility.yul\":12700:13119   */\n    tag_33:\n        /* \"#utility.yul\":12866:12870   */\n      0x00\n        /* \"#utility.yul\":12904:12906   */\n      0x20\n        /* \"#utility.yul\":12893:12902   */\n      dup3\n        /* \"#utility.yul\":12889:12907   */\n      add\n        /* \"#utility.yul\":12881:12907   */\n      swap1\n      pop\n        /* \"#utility.yul\":12953:12962   */\n      dup2\n        /* \"#utility.yul\":12947:12951   */\n      dup2\n        /* \"#utility.yul\":12943:12963   */\n      sub\n        /* \"#utility.yul\":12939:12940   */\n      0x00\n        /* \"#utility.yul\":12928:12937   */\n      dup4\n        /* \"#utility.yul\":12924:12941   */\n      add\n        /* \"#utility.yul\":12917:12964   */\n      mstore\n        /* \"#utility.yul\":12981:13112   */\n      tag_301\n        /* \"#utility.yul\":13107:13111   */\n      dup2\n        /* \"#utility.yul\":12981:13112   */\n      tag_239\n      jump\t// in\n    tag_301:\n        /* \"#utility.yul\":12973:13112   */\n      swap1\n      pop\n        /* \"#utility.yul\":12871:13119   */\n      swap2\n      swap1\n      pop\n      jump\t// out\n        /* \"#utility.yul\":13125:13544   */\n    tag_88:\n        /* \"#utility.yul\":13291:13295   */\n      0x00\n        /* \"#utility.yul\":13329:13331   */\n      0x20\n        /* \"#utility.yul\":13318:13327   */\n      dup3\n        /* \"#utility.yul\":13314:13332   */\n      add\n        /* \"#utility.yul\":13306:13332   */\n      swap1\n      pop\n        /* \"#utility.yul\":13378:13387   */\n      dup2\n        /* \"#utility.yul\":13372:13376   */\n      dup2\n        /* \"#utility.yul\":13368:13388   */\n      sub\n        /* \"#utility.yul\":13364:13365   */\n      0x00\n        /* \"#utility.yul\":13353:13362   */\n      dup4\n        /* \"#utility.yul\":13349:13366   */\n      add\n        /* \"#utility.yul\":13342:13389   */\n      mstore\n        /* \"#utility.yul\":13406:13537   */\n      tag_303\n        /* \"#utility.yul\":13532:13536   */\n      dup2\n        /* \"#utility.yul\":13406:13537   */\n      tag_244\n      jump\t// in\n    tag_303:\n        /* \"#utility.yul\":13398:13537   */\n      swap1\n      pop\n        /* \"#utility.yul\":13296:13544   */\n      swap2\n      swap1\n      pop\n      jump\t// out\n        /* \"#utility.yul\":13550:13969   */\n    tag_103:\n        /* \"#utility.yul\":13716:13720   */\n      0x00\n        /* \"#utility.yul\":13754:13756   */\n      0x20\n        /* \"#utility.yul\":13743:13752   */\n      dup3\n        /* \"#utility.yul\":13739:13757   */\n      add\n        /* \"#utility.yul\":13731:13757   */\n      swap1\n      pop\n        /* \"#utility.yul\":13803:13812   */\n      dup2\n        /* \"#utility.yul\":13797:13801   */\n      dup2\n        /* \"#utility.yul\":13793:13813   */\n      sub\n        /* \"#utility.yul\":13789:13790   */\n      0x00\n        /* \"#utility.yul\":13778:13787   */\n      dup4\n        /* \"#utility.yul\":13774:13791   */\n      add\n        /* \"#utility.yul\":13767:13814   */\n      mstore\n        /* \"#utility.yul\":13831:13962   */\n      tag_305\n        /* \"#utility.yul\":13957:13961   */\n      dup2\n        /* \"#utility.yul\":13831:13962   */\n      tag_249\n      jump\t// in\n    tag_305:\n        /* \"#utility.yul\":13823:13962   */\n      swap1\n      pop\n        /* \"#utility.yul\":13721:13969   */\n      swap2\n      swap1\n      pop\n      jump\t// out\n        /* \"#utility.yul\":13975:14394   */\n    tag_81:\n        /* \"#utility.yul\":14141:14145   */\n      0x00\n        /* \"#utility.yul\":14179:14181   */\n      0x20\n        /* \"#utility.yul\":14168:14177   */\n      dup3\n        /* \"#utility.yul\":14164:14182   */\n      add\n        /* \"#utility.yul\":14156:14182   */\n      swap1\n      pop\n        /* \"#utility.yul\":14228:14237   */\n      dup2\n        /* \"#utility.yul\":14222:14226   */\n      dup2\n        /* \"#utility.yul\":14218:14238   */\n      sub\n        /* \"#utility.yul\":14214:14215   */\n      0x00\n        /* \"#utility.yul\":14203:14212   */\n      dup4\n        /* \"#utility.yul\":14199:14216   */\n      add\n        /* \"#utility.yul\":14192:14239   */\n      mstore\n        /* \"#utility.yul\":14256:14387   */\n      tag_307\n        /* \"#utility.yul\":14382:14386   */\n      dup2\n        /* \"#utility.yul\":14256:14387   */\n      tag_254\n      jump\t// in\n    tag_307:\n        /* \"#utility.yul\":14248:14387   */\n      swap1\n      pop\n        /* \"#utility.yul\":14146:14394   */\n      swap2\n      swap1\n      pop\n      jump\t// out\n        /* \"#utility.yul\":14400:14819   */\n    tag_69:\n        /* \"#utility.yul\":14566:14570   */\n      0x00\n        /* \"#utility.yul\":14604:14606   */\n      0x20\n        /* \"#utility.yul\":14593:14602   */\n      dup3\n        /* \"#utility.yul\":14589:14607   */\n      add\n        /* \"#utility.yul\":14581:14607   */\n      swap1\n      pop\n        /* \"#utility.yul\":14653:14662   */\n      dup2\n        /* \"#utility.yul\":14647:14651   */\n      dup2\n        /* \"#utility.yul\":14643:14663   */\n      sub\n        /* \"#utility.yul\":14639:14640   */\n      0x00\n        /* \"#utility.yul\":14628:14637   */\n      dup4\n        /* \"#utility.yul\":14624:14641   */\n      add\n        /* \"#utility.yul\":14617:14664   */\n      mstore\n        /* \"#utility.yul\":14681:14812   */\n      tag_309\n        /* \"#utility.yul\":14807:14811   */\n      dup2\n        /* \"#utility.yul\":14681:14812   */\n      tag_259\n      jump\t// in\n    tag_309:\n        /* \"#utility.yul\":14673:14812   */\n      swap1\n      pop\n        /* \"#utility.yul\":14571:14819   */\n      swap2\n      swap1\n      pop\n      jump\t// out\n        /* \"#utility.yul\":14825:16354   */\n    tag_48:\n        /* \"#utility.yul\":15276:15280   */\n      0x00\n        /* \"#utility.yul\":15314:15317   */\n      0x0120\n        /* \"#utility.yul\":15303:15312   */\n      dup3\n        /* \"#utility.yul\":15299:15318   */\n      add\n        /* \"#utility.yul\":15291:15318   */\n      swap1\n      pop\n        /* \"#utility.yul\":15328:15397   */\n      tag_311\n        /* \"#utility.yul\":15394:15395   */\n      0x00\n        /* \"#utility.yul\":15383:15392   */\n      dup4\n        /* \"#utility.yul\":15379:15396   */\n      add\n        /* \"#utility.yul\":15370:15376   */\n      dup14\n        /* \"#utility.yul\":15328:15397   */\n      tag_270\n      jump\t// in\n    tag_311:\n        /* \"#utility.yul\":15407:15487   */\n      tag_312\n        /* \"#utility.yul\":15483:15485   */\n      0x20\n        /* \"#utility.yul\":15472:15481   */\n      dup4\n        /* \"#utility.yul\":15468:15486   */\n      add\n        /* \"#utility.yul\":15459:15465   */\n      dup13\n        /* \"#utility.yul\":15407:15487   */\n      tag_227\n      jump\t// in\n    tag_312:\n        /* \"#utility.yul\":15497:15577   */\n      tag_313\n        /* \"#utility.yul\":15573:15575   */\n      0x40\n        /* \"#utility.yul\":15562:15571   */\n      dup4\n        /* \"#utility.yul\":15558:15576   */\n      add\n        /* \"#utility.yul\":15549:15555   */\n      dup12\n        /* \"#utility.yul\":15497:15577   */\n      tag_227\n      jump\t// in\n    tag_313:\n        /* \"#utility.yul\":15587:15675   */\n      tag_314\n        /* \"#utility.yul\":15671:15673   */\n      0x60\n        /* \"#utility.yul\":15660:15669   */\n      dup4\n        /* \"#utility.yul\":15656:15674   */\n      add\n        /* \"#utility.yul\":15647:15653   */\n      dup11\n        /* \"#utility.yul\":15587:15675   */\n      tag_178\n      jump\t// in\n    tag_314:\n        /* \"#utility.yul\":15685:15758   */\n      tag_315\n        /* \"#utility.yul\":15753:15756   */\n      0x80\n        /* \"#utility.yul\":15742:15751   */\n      dup4\n        /* \"#utility.yul\":15738:15757   */\n      add\n        /* \"#utility.yul\":15729:15735   */\n      dup10\n        /* \"#utility.yul\":15685:15758   */\n      tag_277\n      jump\t// in\n    tag_315:\n        /* \"#utility.yul\":15768:15849   */\n      tag_316\n        /* \"#utility.yul\":15844:15847   */\n      0xa0\n        /* \"#utility.yul\":15833:15842   */\n      dup4\n        /* \"#utility.yul\":15829:15848   */\n      add\n        /* \"#utility.yul\":15820:15826   */\n      dup9\n        /* \"#utility.yul\":15768:15849   */\n      tag_223\n      jump\t// in\n    tag_316:\n        /* \"#utility.yul\":15897:15906   */\n      dup2\n        /* \"#utility.yul\":15891:15895   */\n      dup2\n        /* \"#utility.yul\":15887:15907   */\n      sub\n        /* \"#utility.yul\":15881:15884   */\n      0xc0\n        /* \"#utility.yul\":15870:15879   */\n      dup4\n        /* \"#utility.yul\":15866:15885   */\n      add\n        /* \"#utility.yul\":15859:15908   */\n      mstore\n        /* \"#utility.yul\":15925:16033   */\n      tag_317\n        /* \"#utility.yul\":16028:16032   */\n      dup2\n        /* \"#utility.yul\":16019:16025   */\n      dup8\n        /* \"#utility.yul\":15925:16033   */\n      tag_264\n      jump\t// in\n    tag_317:\n        /* \"#utility.yul\":15917:16033   */\n      swap1\n      pop\n        /* \"#utility.yul\":16081:16090   */\n      dup2\n        /* \"#utility.yul\":16075:16079   */\n      dup2\n        /* \"#utility.yul\":16071:16091   */\n      sub\n        /* \"#utility.yul\":16065:16068   */\n      0xe0\n        /* \"#utility.yul\":16054:16063   */\n      dup4\n        /* \"#utility.yul\":16050:16069   */\n      add\n        /* \"#utility.yul\":16043:16092   */\n      mstore\n        /* \"#utility.yul\":16109:16185   */\n      tag_318\n        /* \"#utility.yul\":16180:16184   */\n      dup2\n        /* \"#utility.yul\":16171:16177   */\n      dup7\n        /* \"#utility.yul\":16109:16185   */\n      tag_211\n      jump\t// in\n    tag_318:\n        /* \"#utility.yul\":16101:16185   */\n      swap1\n      pop\n        /* \"#utility.yul\":16233:16242   */\n      dup2\n        /* \"#utility.yul\":16227:16231   */\n      dup2\n        /* \"#utility.yul\":16223:16243   */\n      sub\n        /* \"#utility.yul\":16217:16220   */\n      0x0100\n        /* \"#utility.yul\":16206:16215   */\n      dup4\n        /* \"#utility.yul\":16202:16221   */\n      add\n        /* \"#utility.yul\":16195:16244   */\n      mstore\n        /* \"#utility.yul\":16261:16347   */\n      tag_319\n        /* \"#utility.yul\":16342:16346   */\n      dup2\n        /* \"#utility.yul\":16333:16339   */\n      dup5\n        /* \"#utility.yul\":16325:16331   */\n      dup7\n        /* \"#utility.yul\":16261:16347   */\n      tag_195\n      jump\t// in\n    tag_319:\n        /* \"#utility.yul\":16253:16347   */\n      swap1\n      pop\n        /* \"#utility.yul\":15281:16354   */\n      swap12\n      swap11\n      pop\n      pop\n      pop\n      pop\n      pop\n      pop\n      pop\n      pop\n      pop\n      pop\n      pop\n      jump\t// out\n        /* \"#utility.yul\":16360:16582   */\n    tag_39:\n        /* \"#utility.yul\":16453:16457   */\n      0x00\n        /* \"#utility.yul\":16491:16493   */\n      0x20\n        /* \"#utility.yul\":16480:16489   */\n      dup3\n        /* \"#utility.yul\":16476:16494   */\n      add\n        /* \"#utility.yul\":16468:16494   */\n      swap1\n      pop\n        /* \"#utility.yul\":16504:16575   */\n      tag_321\n        /* \"#utility.yul\":16572:16573   */\n      0x00\n        /* \"#utility.yul\":16561:16570   */\n      dup4\n        /* \"#utility.yul\":16557:16574   */\n      add\n        /* \"#utility.yul\":16548:16554   */\n      dup5\n        /* \"#utility.yul\":16504:16575   */\n      tag_277\n      jump\t// in\n    tag_321:\n        /* \"#utility.yul\":16458:16582   */\n      swap3\n      swap2\n      pop\n      pop\n      jump\t// out\n        /* \"#utility.yul\":16588:16717   */\n    tag_119:\n        /* \"#utility.yul\":16622:16628   */\n      0x00\n        /* \"#utility.yul\":16649:16669   */\n      tag_323\n      tag_324\n      jump\t// in\n    tag_323:\n        /* \"#utility.yul\":16639:16669   */\n      swap1\n      pop\n        /* \"#utility.yul\":16678:16711   */\n      tag_325\n        /* \"#utility.yul\":16706:16710   */\n      dup3\n        /* \"#utility.yul\":16698:16704   */\n      dup3\n        /* \"#utility.yul\":16678:16711   */\n      tag_326\n      jump\t// in\n    tag_325:\n        /* \"#utility.yul\":16629:16717   */\n      swap2\n      swap1\n      pop\n      jump\t// out\n        /* \"#utility.yul\":16723:16798   */\n    tag_324:\n        /* \"#utility.yul\":16756:16762   */\n      0x00\n        /* \"#utility.yul\":16789:16791   */\n      0x40\n        /* \"#utility.yul\":16783:16792   */\n      mload\n        /* \"#utility.yul\":16773:16792   */\n      swap1\n      pop\n        /* \"#utility.yul\":16763:16798   */\n      swap1\n      jump\t// out\n        /* \"#utility.yul\":16804:17111   */\n    tag_118:\n        /* \"#utility.yul\":16865:16869   */\n      0x00\n        /* \"#utility.yul\":16955:16973   */\n      0xffffffffffffffff\n        /* \"#utility.yul\":16947:16953   */\n      dup3\n        /* \"#utility.yul\":16944:16974   */\n      gt\n        /* \"#utility.yul\":16941:16943   */\n      iszero\n      tag_329\n      jumpi\n        /* \"#utility.yul\":16977:16995   */\n      tag_330\n      tag_331\n      jump\t// in\n    tag_330:\n        /* \"#utility.yul\":16941:16943   */\n    tag_329:\n        /* \"#utility.yul\":17015:17044   */\n      tag_332\n        /* \"#utility.yul\":17037:17043   */\n      dup3\n        /* \"#utility.yul\":17015:17044   */\n      tag_201\n      jump\t// in\n    tag_332:\n        /* \"#utility.yul\":17007:17044   */\n      swap1\n      pop\n        /* \"#utility.yul\":17099:17103   */\n      0x20\n        /* \"#utility.yul\":17093:17097   */\n      dup2\n        /* \"#utility.yul\":17089:17104   */\n      add\n        /* \"#utility.yul\":17081:17104   */\n      swap1\n      pop\n        /* \"#utility.yul\":16870:17111   */\n      swap2\n      swap1\n      pop\n      jump\t// out\n        /* \"#utility.yul\":17117:17215   */\n    tag_205:\n        /* \"#utility.yul\":17168:17174   */\n      0x00\n        /* \"#utility.yul\":17202:17207   */\n      dup2\n        /* \"#utility.yul\":17196:17208   */\n      mload\n        /* \"#utility.yul\":17186:17208   */\n      swap1\n      pop\n        /* \"#utility.yul\":17175:17215   */\n      swap2\n      swap1\n      pop\n      jump\t// out\n        /* \"#utility.yul\":17221:17320   */\n    tag_234:\n        /* \"#utility.yul\":17273:17279   */\n      0x00\n        /* \"#utility.yul\":17307:17312   */\n      dup2\n        /* \"#utility.yul\":17301:17313   */\n      mload\n        /* \"#utility.yul\":17291:17313   */\n      swap1\n      pop\n        /* \"#utility.yul\":17280:17320   */\n      swap2\n      swap1\n      pop\n      jump\t// out\n        /* \"#utility.yul\":17326:17484   */\n    tag_207:\n        /* \"#utility.yul\":17399:17410   */\n      0x00\n        /* \"#utility.yul\":17433:17439   */\n      dup3\n        /* \"#utility.yul\":17428:17431   */\n      dup3\n        /* \"#utility.yul\":17421:17440   */\n      mstore\n        /* \"#utility.yul\":17473:17477   */\n      0x20\n        /* \"#utility.yul\":17468:17471   */\n      dup3\n        /* \"#utility.yul\":17464:17478   */\n      add\n        /* \"#utility.yul\":17449:17478   */\n      swap1\n      pop\n        /* \"#utility.yul\":17411:17484   */\n      swap3\n      swap2\n      pop\n      pop\n      jump\t// out\n        /* \"#utility.yul\":17490:17658   */\n    tag_198:\n        /* \"#utility.yul\":17573:17584   */\n      0x00\n        /* \"#utility.yul\":17607:17613   */\n      dup3\n        /* \"#utility.yul\":17602:17605   */\n      dup3\n        /* \"#utility.yul\":17595:17614   */\n      mstore\n        /* \"#utility.yul\":17647:17651   */\n      0x20\n        /* \"#utility.yul\":17642:17645   */\n      dup3\n        /* \"#utility.yul\":17638:17652   */\n      add\n        /* \"#utility.yul\":17623:17652   */\n      swap1\n      pop\n        /* \"#utility.yul\":17585:17658   */\n      swap3\n      swap2\n      pop\n      pop\n      jump\t// out\n        /* \"#utility.yul\":17664:17811   */\n    tag_221:\n        /* \"#utility.yul\":17765:17776   */\n      0x00\n        /* \"#utility.yul\":17802:17805   */\n      dup2\n        /* \"#utility.yul\":17787:17805   */\n      swap1\n      pop\n        /* \"#utility.yul\":17777:17811   */\n      swap3\n      swap2\n      pop\n      pop\n      jump\t// out\n        /* \"#utility.yul\":17817:17986   */\n    tag_236:\n        /* \"#utility.yul\":17901:17912   */\n      0x00\n        /* \"#utility.yul\":17935:17941   */\n      dup3\n        /* \"#utility.yul\":17930:17933   */\n      dup3\n        /* \"#utility.yul\":17923:17942   */\n      mstore\n        /* \"#utility.yul\":17975:17979   */\n      0x20\n        /* \"#utility.yul\":17970:17973   */\n      dup3\n        /* \"#utility.yul\":17966:17980   */\n      add\n        /* \"#utility.yul\":17951:17980   */\n      swap1\n      pop\n        /* \"#utility.yul\":17913:17986   */\n      swap3\n      swap2\n      pop\n      pop\n      jump\t// out\n        /* \"#utility.yul\":17992:18088   */\n    tag_185:\n        /* \"#utility.yul\":18029:18036   */\n      0x00\n        /* \"#utility.yul\":18058:18082   */\n      tag_340\n        /* \"#utility.yul\":18076:18081   */\n      dup3\n        /* \"#utility.yul\":18058:18082   */\n      tag_341\n      jump\t// in\n    tag_340:\n        /* \"#utility.yul\":18047:18082   */\n      swap1\n      pop\n        /* \"#utility.yul\":18037:18088   */\n      swap2\n      swap1\n      pop\n      jump\t// out\n        /* \"#utility.yul\":18094:18198   */\n    tag_181:\n        /* \"#utility.yul\":18139:18146   */\n      0x00\n        /* \"#utility.yul\":18168:18192   */\n      tag_343\n        /* \"#utility.yul\":18186:18191   */\n      dup3\n        /* \"#utility.yul\":18168:18192   */\n      tag_341\n      jump\t// in\n    tag_343:\n        /* \"#utility.yul\":18157:18192   */\n      swap1\n      pop\n        /* \"#utility.yul\":18147:18198   */\n      swap2\n      swap1\n      pop\n      jump\t// out\n        /* \"#utility.yul\":18204:18294   */\n    tag_344:\n        /* \"#utility.yul\":18238:18245   */\n      0x00\n        /* \"#utility.yul\":18281:18286   */\n      dup2\n        /* \"#utility.yul\":18274:18287   */\n      iszero\n        /* \"#utility.yul\":18267:18288   */\n      iszero\n        /* \"#utility.yul\":18256:18288   */\n      swap1\n      pop\n        /* \"#utility.yul\":18246:18294   */\n      swap2\n      swap1\n      pop\n      jump\t// out\n        /* \"#utility.yul\":18300:18449   */\n    tag_194:\n        /* \"#utility.yul\":18336:18343   */\n      0x00\n        /* \"#utility.yul\":18376:18442   */\n      0xffff000000000000000000000000000000000000000000000000000000000000\n        /* \"#utility.yul\":18369:18374   */\n      dup3\n        /* \"#utility.yul\":18365:18443   */\n      and\n        /* \"#utility.yul\":18354:18443   */\n      swap1\n      pop\n        /* \"#utility.yul\":18344:18449   */\n      swap2\n      swap1\n      pop\n      jump\t// out\n        /* \"#utility.yul\":18455:18544   */\n    tag_273:\n        /* \"#utility.yul\":18491:18498   */\n      0x00\n        /* \"#utility.yul\":18531:18537   */\n      0xffff\n        /* \"#utility.yul\":18524:18529   */\n      dup3\n        /* \"#utility.yul\":18520:18538   */\n      and\n        /* \"#utility.yul\":18509:18538   */\n      swap1\n      pop\n        /* \"#utility.yul\":18499:18544   */\n      swap2\n      swap1\n      pop\n      jump\t// out\n        /* \"#utility.yul\":18550:18676   */\n    tag_341:\n        /* \"#utility.yul\":18587:18594   */\n      0x00\n        /* \"#utility.yul\":18627:18669   */\n      0xffffffffffffffffffffffffffffffffffffffff\n        /* \"#utility.yul\":18620:18625   */\n      dup3\n        /* \"#utility.yul\":18616:18670   */\n      and\n        /* \"#utility.yul\":18605:18670   */\n      swap1\n      pop\n        /* \"#utility.yul\":18595:18676   */\n      swap2\n      swap1\n      pop\n      jump\t// out\n        /* \"#utility.yul\":18682:18759   */\n    tag_276:\n        /* \"#utility.yul\":18719:18726   */\n      0x00\n        /* \"#utility.yul\":18748:18753   */\n      dup2\n        /* \"#utility.yul\":18737:18753   */\n      swap1\n      pop\n        /* \"#utility.yul\":18727:18759   */\n      swap2\n      swap1\n      pop\n      jump\t// out\n        /* \"#utility.yul\":18765:18886   */\n    tag_226:\n        /* \"#utility.yul\":18823:18832   */\n      0x00\n        /* \"#utility.yul\":18856:18880   */\n      tag_351\n        /* \"#utility.yul\":18874:18879   */\n      dup3\n        /* \"#utility.yul\":18856:18880   */\n      tag_276\n      jump\t// in\n    tag_351:\n        /* \"#utility.yul\":18843:18880   */\n      swap1\n      pop\n        /* \"#utility.yul\":18833:18886   */\n      swap2\n      swap1\n      pop\n      jump\t// out\n        /* \"#utility.yul\":18892:19013   */\n    tag_230:\n        /* \"#utility.yul\":18950:18959   */\n      0x00\n        /* \"#utility.yul\":18983:19007   */\n      tag_353\n        /* \"#utility.yul\":19001:19006   */\n      dup3\n        /* \"#utility.yul\":18983:19007   */\n      tag_276\n      jump\t// in\n    tag_353:\n        /* \"#utility.yul\":18970:19007   */\n      swap1\n      pop\n        /* \"#utility.yul\":18960:19013   */\n      swap2\n      swap1\n      pop\n      jump\t// out\n        /* \"#utility.yul\":19019:19173   */\n    tag_122:\n        /* \"#utility.yul\":19103:19109   */\n      dup3\n        /* \"#utility.yul\":19098:19101   */\n      dup2\n        /* \"#utility.yul\":19093:19096   */\n      dup4\n        /* \"#utility.yul\":19080:19110   */\n      calldatacopy\n        /* \"#utility.yul\":19165:19166   */\n      0x00\n        /* \"#utility.yul\":19156:19162   */\n      dup4\n        /* \"#utility.yul\":19151:19154   */\n      dup4\n        /* \"#utility.yul\":19147:19163   */\n      add\n        /* \"#utility.yul\":19140:19167   */\n      mstore\n        /* \"#utility.yul\":19070:19173   */\n      pop\n      pop\n      pop\n      jump\t// out\n        /* \"#utility.yul\":19179:19486   */\n    tag_209:\n        /* \"#utility.yul\":19247:19248   */\n      0x00\n        /* \"#utility.yul\":19257:19370   */\n    tag_356:\n        /* \"#utility.yul\":19271:19277   */\n      dup4\n        /* \"#utility.yul\":19268:19269   */\n      dup2\n        /* \"#utility.yul\":19265:19278   */\n      lt\n        /* \"#utility.yul\":19257:19370   */\n      iszero\n      tag_358\n      jumpi\n        /* \"#utility.yul\":19356:19357   */\n      dup1\n        /* \"#utility.yul\":19351:19354   */\n      dup3\n        /* \"#utility.yul\":19347:19358   */\n      add\n        /* \"#utility.yul\":19341:19359   */\n      mload\n        /* \"#utility.yul\":19337:19338   */\n      dup2\n        /* \"#utility.yul\":19332:19335   */\n      dup5\n        /* \"#utility.yul\":19328:19339   */\n      add\n        /* \"#utility.yul\":19321:19360   */\n      mstore\n        /* \"#utility.yul\":19293:19295   */\n      0x20\n        /* \"#utility.yul\":19290:19291   */\n      dup2\n        /* \"#utility.yul\":19286:19296   */\n      add\n        /* \"#utility.yul\":19281:19296   */\n      swap1\n      pop\n        /* \"#utility.yul\":19257:19370   */\n      jump(tag_356)\n    tag_358:\n        /* \"#utility.yul\":19388:19394   */\n      dup4\n        /* \"#utility.yul\":19385:19386   */\n      dup2\n        /* \"#utility.yul\":19382:19395   */\n      gt\n        /* \"#utility.yul\":19379:19381   */\n      iszero\n      tag_359\n      jumpi\n        /* \"#utility.yul\":19468:19469   */\n      0x00\n        /* \"#utility.yul\":19459:19465   */\n      dup5\n        /* \"#utility.yul\":19454:19457   */\n      dup5\n        /* \"#utility.yul\":19450:19466   */\n      add\n        /* \"#utility.yul\":19443:19470   */\n      mstore\n        /* \"#utility.yul\":19379:19381   */\n    tag_359:\n        /* \"#utility.yul\":19228:19486   */\n      pop\n      pop\n      pop\n      pop\n      jump\t// out\n        /* \"#utility.yul\":19492:19773   */\n    tag_326:\n        /* \"#utility.yul\":19575:19602   */\n      tag_361\n        /* \"#utility.yul\":19597:19601   */\n      dup3\n        /* \"#utility.yul\":19575:19602   */\n      tag_201\n      jump\t// in\n    tag_361:\n        /* \"#utility.yul\":19567:19573   */\n      dup2\n        /* \"#utility.yul\":19563:19603   */\n      add\n        /* \"#utility.yul\":19705:19711   */\n      dup2\n        /* \"#utility.yul\":19693:19703   */\n      dup2\n        /* \"#utility.yul\":19690:19712   */\n      lt\n        /* \"#utility.yul\":19669:19687   */\n      0xffffffffffffffff\n        /* \"#utility.yul\":19657:19667   */\n      dup3\n        /* \"#utility.yul\":19654:19688   */\n      gt\n        /* \"#utility.yul\":19651:19713   */\n      or\n        /* \"#utility.yul\":19648:19650   */\n      iszero\n      tag_362\n      jumpi\n        /* \"#utility.yul\":19716:19734   */\n      tag_363\n      tag_331\n      jump\t// in\n    tag_363:\n        /* \"#utility.yul\":19648:19650   */\n    tag_362:\n        /* \"#utility.yul\":19756:19766   */\n      dup1\n        /* \"#utility.yul\":19752:19754   */\n      0x40\n        /* \"#utility.yul\":19745:19767   */\n      mstore\n        /* \"#utility.yul\":19535:19773   */\n      pop\n      pop\n      pop\n      jump\t// out\n        /* \"#utility.yul\":19779:19879   */\n    tag_190:\n        /* \"#utility.yul\":19818:19825   */\n      0x00\n        /* \"#utility.yul\":19847:19873   */\n      tag_365\n        /* \"#utility.yul\":19867:19872   */\n      dup3\n        /* \"#utility.yul\":19847:19873   */\n      tag_366\n      jump\t// in\n    tag_365:\n        /* \"#utility.yul\":19836:19873   */\n      swap1\n      pop\n        /* \"#utility.yul\":19826:19879   */\n      swap2\n      swap1\n      pop\n      jump\t// out\n        /* \"#utility.yul\":19885:19979   */\n    tag_366:\n        /* \"#utility.yul\":19924:19931   */\n      0x00\n        /* \"#utility.yul\":19953:19973   */\n      tag_368\n        /* \"#utility.yul\":19967:19972   */\n      dup3\n        /* \"#utility.yul\":19953:19973   */\n      tag_369\n      jump\t// in\n    tag_368:\n        /* \"#utility.yul\":19942:19973   */\n      swap1\n      pop\n        /* \"#utility.yul\":19932:19979   */\n      swap2\n      swap1\n      pop\n      jump\t// out\n        /* \"#utility.yul\":19985:20165   */\n    tag_331:\n        /* \"#utility.yul\":20033:20110   */\n      0x4e487b7100000000000000000000000000000000000000000000000000000000\n        /* \"#utility.yul\":20030:20031   */\n      0x00\n        /* \"#utility.yul\":20023:20111   */\n      mstore\n        /* \"#utility.yul\":20130:20134   */\n      0x41\n        /* \"#utility.yul\":20127:20128   */\n      0x04\n        /* \"#utility.yul\":20120:20135   */\n      mstore\n        /* \"#utility.yul\":20154:20158   */\n      0x24\n        /* \"#utility.yul\":20151:20152   */\n      0x00\n        /* \"#utility.yul\":20144:20159   */\n      revert\n        /* \"#utility.yul\":20171:20273   */\n    tag_201:\n        /* \"#utility.yul\":20212:20218   */\n      0x00\n        /* \"#utility.yul\":20263:20265   */\n      0x1f\n        /* \"#utility.yul\":20259:20266   */\n      not\n        /* \"#utility.yul\":20254:20256   */\n      0x1f\n        /* \"#utility.yul\":20247:20252   */\n      dup4\n        /* \"#utility.yul\":20243:20257   */\n      add\n        /* \"#utility.yul\":20239:20267   */\n      and\n        /* \"#utility.yul\":20229:20267   */\n      swap1\n      pop\n        /* \"#utility.yul\":20219:20273   */\n      swap2\n      swap1\n      pop\n      jump\t// out\n        /* \"#utility.yul\":20279:20373   */\n    tag_369:\n        /* \"#utility.yul\":20312:20320   */\n      0x00\n        /* \"#utility.yul\":20360:20365   */\n      dup2\n        /* \"#utility.yul\":20356:20358   */\n      0x60\n        /* \"#utility.yul\":20352:20366   */\n      shl\n        /* \"#utility.yul\":20331:20366   */\n      swap1\n      pop\n        /* \"#utility.yul\":20321:20373   */\n      swap2\n      swap1\n      pop\n      jump\t// out\n        /* \"#utility.yul\":20379:20621   */\n    tag_243:\n        /* \"#utility.yul\":20519:20553   */\n      0x73746172676174652072657175697265732061206d73672e76616c756520746f\n        /* \"#utility.yul\":20515:20516   */\n      0x00\n        /* \"#utility.yul\":20507:20513   */\n      dup3\n        /* \"#utility.yul\":20503:20517   */\n      add\n        /* \"#utility.yul\":20496:20554   */\n      mstore\n        /* \"#utility.yul\":20588:20613   */\n      0x207061792063726f7373636861696e206d657373616765000000000000000000\n        /* \"#utility.yul\":20583:20585   */\n      0x20\n        /* \"#utility.yul\":20575:20581   */\n      dup3\n        /* \"#utility.yul\":20571:20586   */\n      add\n        /* \"#utility.yul\":20564:20614   */\n      mstore\n        /* \"#utility.yul\":20485:20621   */\n      pop\n      jump\t// out\n        /* \"#utility.yul\":20627:20852   */\n    tag_248:\n        /* \"#utility.yul\":20767:20801   */\n      0x416464726573733a20696e73756666696369656e742062616c616e636520666f\n        /* \"#utility.yul\":20763:20764   */\n      0x00\n        /* \"#utility.yul\":20755:20761   */\n      dup3\n        /* \"#utility.yul\":20751:20765   */\n      add\n        /* \"#utility.yul\":20744:20802   */\n      mstore\n        /* \"#utility.yul\":20836:20844   */\n      0x722063616c6c0000000000000000000000000000000000000000000000000000\n        /* \"#utility.yul\":20831:20833   */\n      0x20\n        /* \"#utility.yul\":20823:20829   */\n      dup3\n        /* \"#utility.yul\":20819:20834   */\n      add\n        /* \"#utility.yul\":20812:20845   */\n      mstore\n        /* \"#utility.yul\":20733:20852   */\n      pop\n      jump\t// out\n        /* \"#utility.yul\":20858:21037   */\n    tag_253:\n        /* \"#utility.yul\":20998:21029   */\n      0x416464726573733a2063616c6c20746f206e6f6e2d636f6e7472616374000000\n        /* \"#utility.yul\":20994:20995   */\n      0x00\n        /* \"#utility.yul\":20986:20992   */\n      dup3\n        /* \"#utility.yul\":20982:20996   */\n      add\n        /* \"#utility.yul\":20975:21030   */\n      mstore\n        /* \"#utility.yul\":20964:21037   */\n      pop\n      jump\t// out\n        /* \"#utility.yul\":21043:21272   */\n    tag_258:\n        /* \"#utility.yul\":21183:21217   */\n      0x5361666545524332303a204552433230206f7065726174696f6e20646964206e\n        /* \"#utility.yul\":21179:21180   */\n      0x00\n        /* \"#utility.yul\":21171:21177   */\n      dup3\n        /* \"#utility.yul\":21167:21181   */\n      add\n        /* \"#utility.yul\":21160:21218   */\n      mstore\n        /* \"#utility.yul\":21252:21264   */\n      0x6f74207375636365656400000000000000000000000000000000000000000000\n        /* \"#utility.yul\":21247:21249   */\n      0x20\n        /* \"#utility.yul\":21239:21245   */\n      dup3\n        /* \"#utility.yul\":21235:21250   */\n      add\n        /* \"#utility.yul\":21228:21265   */\n      mstore\n        /* \"#utility.yul\":21149:21272   */\n      pop\n      jump\t// out\n        /* \"#utility.yul\":21278:21519   */\n    tag_263:\n        /* \"#utility.yul\":21418:21452   */\n      0x5361666545524332303a20617070726f76652066726f6d206e6f6e2d7a65726f\n        /* \"#utility.yul\":21414:21415   */\n      0x00\n        /* \"#utility.yul\":21406:21412   */\n      dup3\n        /* \"#utility.yul\":21402:21416   */\n      add\n        /* \"#utility.yul\":21395:21453   */\n      mstore\n        /* \"#utility.yul\":21487:21511   */\n      0x20746f206e6f6e2d7a65726f20616c6c6f77616e636500000000000000000000\n        /* \"#utility.yul\":21482:21484   */\n      0x20\n        /* \"#utility.yul\":21474:21480   */\n      dup3\n        /* \"#utility.yul\":21470:21485   */\n      add\n        /* \"#utility.yul\":21463:21512   */\n      mstore\n        /* \"#utility.yul\":21384:21519   */\n      pop\n      jump\t// out\n        /* \"#utility.yul\":21525:21647   */\n    tag_126:\n        /* \"#utility.yul\":21598:21622   */\n      tag_379\n        /* \"#utility.yul\":21616:21621   */\n      dup2\n        /* \"#utility.yul\":21598:21622   */\n      tag_185\n      jump\t// in\n    tag_379:\n        /* \"#utility.yul\":21591:21596   */\n      dup2\n        /* \"#utility.yul\":21588:21623   */\n      eq\n        /* \"#utility.yul\":21578:21580   */\n      tag_380\n      jumpi\n        /* \"#utility.yul\":21637:21638   */\n      0x00\n        /* \"#utility.yul\":21634:21635   */\n      dup1\n        /* \"#utility.yul\":21627:21639   */\n      revert\n        /* \"#utility.yul\":21578:21580   */\n    tag_380:\n        /* \"#utility.yul\":21568:21647   */\n      pop\n      jump\t// out\n        /* \"#utility.yul\":21653:21769   */\n    tag_130:\n        /* \"#utility.yul\":21723:21744   */\n      tag_382\n        /* \"#utility.yul\":21738:21743   */\n      dup2\n        /* \"#utility.yul\":21723:21744   */\n      tag_344\n      jump\t// in\n    tag_382:\n        /* \"#utility.yul\":21716:21721   */\n      dup2\n        /* \"#utility.yul\":21713:21745   */\n      eq\n        /* \"#utility.yul\":21703:21705   */\n      tag_383\n      jumpi\n        /* \"#utility.yul\":21759:21760   */\n      0x00\n        /* \"#utility.yul\":21756:21757   */\n      dup1\n        /* \"#utility.yul\":21749:21761   */\n      revert\n        /* \"#utility.yul\":21703:21705   */\n    tag_383:\n        /* \"#utility.yul\":21693:21769   */\n      pop\n      jump\t// out\n        /* \"#utility.yul\":21775:21895   */\n    tag_143:\n        /* \"#utility.yul\":21847:21870   */\n      tag_385\n        /* \"#utility.yul\":21864:21869   */\n      dup2\n        /* \"#utility.yul\":21847:21870   */\n      tag_273\n      jump\t// in\n    tag_385:\n        /* \"#utility.yul\":21840:21845   */\n      dup2\n        /* \"#utility.yul\":21837:21871   */\n      eq\n        /* \"#utility.yul\":21827:21829   */\n      tag_386\n      jumpi\n        /* \"#utility.yul\":21885:21886   */\n      0x00\n        /* \"#utility.yul\":21882:21883   */\n      dup1\n        /* \"#utility.yul\":21875:21887   */\n      revert\n        /* \"#utility.yul\":21827:21829   */\n    tag_386:\n        /* \"#utility.yul\":21817:21895   */\n      pop\n      jump\t// out\n        /* \"#utility.yul\":21901:22023   */\n    tag_150:\n        /* \"#utility.yul\":21974:21998   */\n      tag_388\n        /* \"#utility.yul\":21992:21997   */\n      dup2\n        /* \"#utility.yul\":21974:21998   */\n      tag_276\n      jump\t// in\n    tag_388:\n        /* \"#utility.yul\":21967:21972   */\n      dup2\n        /* \"#utility.yul\":21964:21999   */\n      eq\n        /* \"#utility.yul\":21954:21956   */\n      tag_389\n      jumpi\n        /* \"#utility.yul\":22013:22014   */\n      0x00\n        /* \"#utility.yul\":22010:22011   */\n      dup1\n        /* \"#utility.yul\":22003:22015   */\n      revert\n        /* \"#utility.yul\":21954:21956   */\n    tag_389:\n        /* \"#utility.yul\":21944:22023   */\n      pop\n      jump\t// out\n\n    auxdata: 0xa264697066735822122072c80231e4ffbb7c5debad3620fb834b353fb52bd05b6cbee264a52e1009ec9a64736f6c63430008040033\n}\n",
				"bytecode": {
					"linkReferences": {},
					"object": "6080604052612789600160166101000a81548161ffff021916908361ffff16021790555061277a600160186101000a81548161ffff021916908361ffff16021790555073df0360ad8c5ccf25095aa97ee5f2785c8d848620600260006101000a81548173ffffffffffffffffffffffffffffffffffffffff021916908373ffffffffffffffffffffffffffffffffffffffff160217905550348015620000a457600080fd5b5060405162001751380380620017518339818101604052810190620000ca9190620001ac565b826000806101000a81548173ffffffffffffffffffffffffffffffffffffffff021916908373ffffffffffffffffffffffffffffffffffffffff16021790555081600360006101000a81548173ffffffffffffffffffffffffffffffffffffffff021916908373ffffffffffffffffffffffffffffffffffffffff16021790555080600460006101000a81548173ffffffffffffffffffffffffffffffffffffffff021916908373ffffffffffffffffffffffffffffffffffffffff16021790555050505062000250565b600081519050620001a68162000236565b92915050565b600080600060608486031215620001c257600080fd5b6000620001d28682870162000195565b9350506020620001e58682870162000195565b9250506040620001f88682870162000195565b9150509250925092565b60006200020f8262000216565b9050919050565b600073ffffffffffffffffffffffffffffffffffffffff82169050919050565b620002418162000202565b81146200024d57600080fd5b50565b6114f180620002606000396000f3fe60806040526004361061004a5760003560e01c80633576ca461461004f578063a9e56f3c1461006b578063aa37db6c14610096578063ab8236f3146100c1578063dd1bc08e146100ea575b600080fd5b61006960048036038101906100649190610b53565b610115565b005b34801561007757600080fd5b5061008061040d565b60405161008d9190610e74565b60405180910390f35b3480156100a257600080fd5b506100ab610431565b6040516100b89190610f18565b60405180910390f35b3480156100cd57600080fd5b506100e860048036038101906100e39190610a71565b610444565b005b3480156100f657600080fd5b506100ff61044c565b60405161010c9190610e74565b60405180910390f35b60003411610158576040517f08c379a000000000000000000000000000000000000000000000000000000000815260040161014f90610f55565b60405180910390fd5b6101a7333085600260009054906101000a900473ffffffffffffffffffffffffffffffffffffffff1673ffffffffffffffffffffffffffffffffffffffff16610472909392919063ffffffff16565b61021460008054906101000a900473ffffffffffffffffffffffffffffffffffffffff1684600260009054906101000a900473ffffffffffffffffffffffffffffffffffffffff1673ffffffffffffffffffffffffffffffffffffffff166104fb9092919063ffffffff16565b6000600460009054906101000a900473ffffffffffffffffffffffffffffffffffffffff1673ffffffffffffffffffffffffffffffffffffffff1663977f2cb9466040518263ffffffff1660e01b81526004016102719190611099565b60206040518083038186803b15801561028957600080fd5b505afa15801561029d573d6000803e3d6000fd5b505050506040513d601f19601f820116820180604052508101906102c19190610a48565b905060008054906101000a900473ffffffffffffffffffffffffffffffffffffffff1673ffffffffffffffffffffffffffffffffffffffff16639fbf10fc34600160189054906101000a900461ffff16600180338a6000604051806060016040528062030d408152602001600081526020016040518060400160405280600281526020017f3078000000000000000000000000000000000000000000000000000000000000815250815250600360009054906101000a900473ffffffffffffffffffffffffffffffffffffffff1660405160200161039f9190610e42565b6040516020818303038152906040528d8d6040518c63ffffffff1660e01b81526004016103d59a99989796959493929190610ff5565b6000604051808303818588803b1580156103ee57600080fd5b505af1158015610402573d6000803e3d6000fd5b505050505050505050565b60008054906101000a900473ffffffffffffffffffffffffffffffffffffffff1681565b600160149054906101000a900460f01b81565b505050505050565b600160009054906101000a900473ffffffffffffffffffffffffffffffffffffffff1681565b6104f5846323b872dd60e01b85858560405160240161049393929190610eb8565b604051602081830303815290604052907bffffffffffffffffffffffffffffffffffffffffffffffffffffffff19166020820180517bffffffffffffffffffffffffffffffffffffffffffffffffffffffff8381831617835250505050610659565b50505050565b6000811480610594575060008373ffffffffffffffffffffffffffffffffffffffff1663dd62ed3e30856040518363ffffffff1660e01b8152600401610542929190610e8f565b60206040518083038186803b15801561055a57600080fd5b505afa15801561056e573d6000803e3d6000fd5b505050506040513d601f19601f820116820180604052508101906105929190610b2a565b145b6105d3576040517f08c379a00000000000000000000000000000000000000000000000000000000081526004016105ca90610fd5565b60405180910390fd5b6106548363095ea7b360e01b84846040516024016105f2929190610eef565b604051602081830303815290604052907bffffffffffffffffffffffffffffffffffffffffffffffffffffffff19166020820180517bffffffffffffffffffffffffffffffffffffffffffffffffffffffff8381831617835250505050610659565b505050565b60006106bb826040518060400160405280602081526020017f5361666545524332303a206c6f772d6c6576656c2063616c6c206661696c65648152508573ffffffffffffffffffffffffffffffffffffffff166107219092919063ffffffff16565b90506000815114806106dd5750808060200190518101906106dc9190610a1f565b5b61071c576040517f08c379a000000000000000000000000000000000000000000000000000000000815260040161071390610fb5565b60405180910390fd5b505050565b60606107308484600085610739565b90509392505050565b60608247101561077e576040517f08c379a000000000000000000000000000000000000000000000000000000000815260040161077590610f75565b60405180910390fd5b6000808673ffffffffffffffffffffffffffffffffffffffff1685876040516107a79190610e5d565b60006040518083038185875af1925050503d80600081146107e4576040519150601f19603f3d011682016040523d82523d6000602084013e6107e9565b606091505b50915091506107fa87838387610806565b92505050949350505050565b6060831561086957600083511415610861576108218561087c565b610860576040517f08c379a000000000000000000000000000000000000000000000000000000000815260040161085790610f95565b60405180910390fd5b5b829050610874565b610873838361089f565b5b949350505050565b6000808273ffffffffffffffffffffffffffffffffffffffff163b119050919050565b6000825111156108b25781518083602001fd5b806040517f08c379a00000000000000000000000000000000000000000000000000000000081526004016108e69190610f33565b60405180910390fd5b60006109026108fd846110d9565b6110b4565b90508281526020810184848401111561091a57600080fd5b610925848285611216565b509392505050565b60008135905061093c8161145f565b92915050565b60008151905061095181611476565b92915050565b60008083601f84011261096957600080fd5b8235905067ffffffffffffffff81111561098257600080fd5b60208301915083600182028301111561099a57600080fd5b9250929050565b600082601f8301126109b257600080fd5b81356109c28482602086016108ef565b91505092915050565b6000813590506109da8161148d565b92915050565b6000815190506109ef8161148d565b92915050565b600081359050610a04816114a4565b92915050565b600081519050610a19816114a4565b92915050565b600060208284031215610a3157600080fd5b6000610a3f84828501610942565b91505092915050565b600060208284031215610a5a57600080fd5b6000610a68848285016109e0565b91505092915050565b60008060008060008060c08789031215610a8a57600080fd5b6000610a9889828a016109cb565b965050602087013567ffffffffffffffff811115610ab557600080fd5b610ac189828a016109a1565b9550506040610ad289828a016109f5565b9450506060610ae389828a0161092d565b9350506080610af489828a016109f5565b92505060a087013567ffffffffffffffff811115610b1157600080fd5b610b1d89828a016109a1565b9150509295509295509295565b600060208284031215610b3c57600080fd5b6000610b4a84828501610a0a565b91505092915050565b600080600060408486031215610b6857600080fd5b6000610b76868287016109f5565b935050602084013567ffffffffffffffff811115610b9357600080fd5b610b9f86828701610957565b92509250509250925092565b610bb481611170565b82525050565b610bc38161115e565b82525050565b610bda610bd58261115e565b611289565b82525050565b610be98161118e565b82525050565b6000610bfb8385611131565b9350610c08838584611216565b610c11836112dc565b840190509392505050565b6000610c278261110a565b610c318185611120565b9350610c41818560208601611225565b610c4a816112dc565b840191505092915050565b6000610c608261110a565b610c6a8185611131565b9350610c7a818560208601611225565b610c83816112dc565b840191505092915050565b6000610c998261110a565b610ca38185611142565b9350610cb3818560208601611225565b80840191505092915050565b610cc8816111f2565b82525050565b610cd781611204565b82525050565b6000610ce882611115565b610cf2818561114d565b9350610d02818560208601611225565b610d0b816112dc565b840191505092915050565b6000610d2360378361114d565b9150610d2e826112fa565b604082019050919050565b6000610d4660268361114d565b9150610d5182611349565b604082019050919050565b6000610d69601d8361114d565b9150610d7482611398565b602082019050919050565b6000610d8c602a8361114d565b9150610d97826113c1565b604082019050919050565b6000610daf60368361114d565b9150610dba82611410565b604082019050919050565b6000606083016000830151610ddd6000860182610e24565b506020830151610df06020860182610e24565b5060408301518482036040860152610e088282610c1c565b9150508091505092915050565b610e1e816111ba565b82525050565b610e2d816111e8565b82525050565b610e3c816111e8565b82525050565b6000610e4e8284610bc9565b60148201915081905092915050565b6000610e698284610c8e565b915081905092915050565b6000602082019050610e896000830184610bba565b92915050565b6000604082019050610ea46000830185610bba565b610eb16020830184610bba565b9392505050565b6000606082019050610ecd6000830186610bba565b610eda6020830185610bba565b610ee76040830184610e33565b949350505050565b6000604082019050610f046000830185610bba565b610f116020830184610e33565b9392505050565b6000602082019050610f2d6000830184610be0565b92915050565b60006020820190508181036000830152610f4d8184610cdd565b905092915050565b60006020820190508181036000830152610f6e81610d16565b9050919050565b60006020820190508181036000830152610f8e81610d39565b9050919050565b60006020820190508181036000830152610fae81610d5c565b9050919050565b60006020820190508181036000830152610fce81610d7f565b9050919050565b60006020820190508181036000830152610fee81610da2565b9050919050565b60006101208201905061100b600083018d610e15565b611018602083018c610cce565b611025604083018b610cce565b611032606083018a610bab565b61103f6080830189610e33565b61104c60a0830188610cbf565b81810360c083015261105e8187610dc5565b905081810360e08301526110728186610c55565b9050818103610100830152611088818486610bef565b90509b9a5050505050505050505050565b60006020820190506110ae6000830184610e33565b92915050565b60006110be6110cf565b90506110ca8282611258565b919050565b6000604051905090565b600067ffffffffffffffff8211156110f4576110f36112ad565b5b6110fd826112dc565b9050602081019050919050565b600081519050919050565b600081519050919050565b600082825260208201905092915050565b600082825260208201905092915050565b600081905092915050565b600082825260208201905092915050565b6000611169826111c8565b9050919050565b600061117b826111c8565b9050919050565b60008115159050919050565b60007fffff00000000000000000000000000000000000000000000000000000000000082169050919050565b600061ffff82169050919050565b600073ffffffffffffffffffffffffffffffffffffffff82169050919050565b6000819050919050565b60006111fd826111e8565b9050919050565b600061120f826111e8565b9050919050565b82818337600083830152505050565b60005b83811015611243578082015181840152602081019050611228565b83811115611252576000848401525b50505050565b611261826112dc565b810181811067ffffffffffffffff821117156112805761127f6112ad565b5b80604052505050565b60006112948261129b565b9050919050565b60006112a6826112ed565b9050919050565b7f4e487b7100000000000000000000000000000000000000000000000000000000600052604160045260246000fd5b6000601f19601f8301169050919050565b60008160601b9050919050565b7f73746172676174652072657175697265732061206d73672e76616c756520746f60008201527f207061792063726f7373636861696e206d657373616765000000000000000000602082015250565b7f416464726573733a20696e73756666696369656e742062616c616e636520666f60008201527f722063616c6c0000000000000000000000000000000000000000000000000000602082015250565b7f416464726573733a2063616c6c20746f206e6f6e2d636f6e7472616374000000600082015250565b7f5361666545524332303a204552433230206f7065726174696f6e20646964206e60008201527f6f74207375636365656400000000000000000000000000000000000000000000602082015250565b7f5361666545524332303a20617070726f76652066726f6d206e6f6e2d7a65726f60008201527f20746f206e6f6e2d7a65726f20616c6c6f77616e636500000000000000000000602082015250565b6114688161115e565b811461147357600080fd5b50565b61147f81611182565b811461148a57600080fd5b50565b611496816111ba565b81146114a157600080fd5b50565b6114ad816111e8565b81146114b857600080fd5b5056fea264697066735822122072c80231e4ffbb7c5debad3620fb834b353fb52bd05b6cbee264a52e1009ec9a64736f6c63430008040033",
					"opcodes": "PUSH1 0x80 PUSH1 0x40 MSTORE PUSH2 0x2789 PUSH1 0x1 PUSH1 0x16 PUSH2 0x100 EXP DUP2 SLOAD DUP2 PUSH2 0xFFFF MUL NOT AND SWAP1 DUP4 PUSH2 0xFFFF AND MUL OR SWAP1 SSTORE POP PUSH2 0x277A PUSH1 0x1 PUSH1 0x18 PUSH2 0x100 EXP DUP2 SLOAD DUP2 PUSH2 0xFFFF MUL NOT AND SWAP1 DUP4 PUSH2 0xFFFF AND MUL OR SWAP1 SSTORE POP PUSH20 0xDF0360AD8C5CCF25095AA97EE5F2785C8D848620 PUSH1 0x2 PUSH1 0x0 PUSH2 0x100 EXP DUP2 SLOAD DUP2 PUSH20 0xFFFFFFFFFFFFFFFFFFFFFFFFFFFFFFFFFFFFFFFF MUL NOT AND SWAP1 DUP4 PUSH20 0xFFFFFFFFFFFFFFFFFFFFFFFFFFFFFFFFFFFFFFFF AND MUL OR SWAP1 SSTORE POP CALLVALUE DUP1 ISZERO PUSH3 0xA4 JUMPI PUSH1 0x0 DUP1 REVERT JUMPDEST POP PUSH1 0x40 MLOAD PUSH3 0x1751 CODESIZE SUB DUP1 PUSH3 0x1751 DUP4 CODECOPY DUP2 DUP2 ADD PUSH1 0x40 MSTORE DUP2 ADD SWAP1 PUSH3 0xCA SWAP2 SWAP1 PUSH3 0x1AC JUMP JUMPDEST DUP3 PUSH1 0x0 DUP1 PUSH2 0x100 EXP DUP2 SLOAD DUP2 PUSH20 0xFFFFFFFFFFFFFFFFFFFFFFFFFFFFFFFFFFFFFFFF MUL NOT AND SWAP1 DUP4 PUSH20 0xFFFFFFFFFFFFFFFFFFFFFFFFFFFFFFFFFFFFFFFF AND MUL OR SWAP1 SSTORE POP DUP2 PUSH1 0x3 PUSH1 0x0 PUSH2 0x100 EXP DUP2 SLOAD DUP2 PUSH20 0xFFFFFFFFFFFFFFFFFFFFFFFFFFFFFFFFFFFFFFFF MUL NOT AND SWAP1 DUP4 PUSH20 0xFFFFFFFFFFFFFFFFFFFFFFFFFFFFFFFFFFFFFFFF AND MUL OR SWAP1 SSTORE POP DUP1 PUSH1 0x4 PUSH1 0x0 PUSH2 0x100 EXP DUP2 SLOAD DUP2 PUSH20 0xFFFFFFFFFFFFFFFFFFFFFFFFFFFFFFFFFFFFFFFF MUL NOT AND SWAP1 DUP4 PUSH20 0xFFFFFFFFFFFFFFFFFFFFFFFFFFFFFFFFFFFFFFFF AND MUL OR SWAP1 SSTORE POP POP POP POP PUSH3 0x250 JUMP JUMPDEST PUSH1 0x0 DUP2 MLOAD SWAP1 POP PUSH3 0x1A6 DUP2 PUSH3 0x236 JUMP JUMPDEST SWAP3 SWAP2 POP POP JUMP JUMPDEST PUSH1 0x0 DUP1 PUSH1 0x0 PUSH1 0x60 DUP5 DUP7 SUB SLT ISZERO PUSH3 0x1C2 JUMPI PUSH1 0x0 DUP1 REVERT JUMPDEST PUSH1 0x0 PUSH3 0x1D2 DUP7 DUP3 DUP8 ADD PUSH3 0x195 JUMP JUMPDEST SWAP4 POP POP PUSH1 0x20 PUSH3 0x1E5 DUP7 DUP3 DUP8 ADD PUSH3 0x195 JUMP JUMPDEST SWAP3 POP POP PUSH1 0x40 PUSH3 0x1F8 DUP7 DUP3 DUP8 ADD PUSH3 0x195 JUMP JUMPDEST SWAP2 POP POP SWAP3 POP SWAP3 POP SWAP3 JUMP JUMPDEST PUSH1 0x0 PUSH3 0x20F DUP3 PUSH3 0x216 JUMP JUMPDEST SWAP1 POP SWAP2 SWAP1 POP JUMP JUMPDEST PUSH1 0x0 PUSH20 0xFFFFFFFFFFFFFFFFFFFFFFFFFFFFFFFFFFFFFFFF DUP3 AND SWAP1 POP SWAP2 SWAP1 POP JUMP JUMPDEST PUSH3 0x241 DUP2 PUSH3 0x202 JUMP JUMPDEST DUP2 EQ PUSH3 0x24D JUMPI PUSH1 0x0 DUP1 REVERT JUMPDEST POP JUMP JUMPDEST PUSH2 0x14F1 DUP1 PUSH3 0x260 PUSH1 0x0 CODECOPY PUSH1 0x0 RETURN INVALID PUSH1 0x80 PUSH1 0x40 MSTORE PUSH1 0x4 CALLDATASIZE LT PUSH2 0x4A JUMPI PUSH1 0x0 CALLDATALOAD PUSH1 0xE0 SHR DUP1 PUSH4 0x3576CA46 EQ PUSH2 0x4F JUMPI DUP1 PUSH4 0xA9E56F3C EQ PUSH2 0x6B JUMPI DUP1 PUSH4 0xAA37DB6C EQ PUSH2 0x96 JUMPI DUP1 PUSH4 0xAB8236F3 EQ PUSH2 0xC1 JUMPI DUP1 PUSH4 0xDD1BC08E EQ PUSH2 0xEA JUMPI JUMPDEST PUSH1 0x0 DUP1 REVERT JUMPDEST PUSH2 0x69 PUSH1 0x4 DUP1 CALLDATASIZE SUB DUP2 ADD SWAP1 PUSH2 0x64 SWAP2 SWAP1 PUSH2 0xB53 JUMP JUMPDEST PUSH2 0x115 JUMP JUMPDEST STOP JUMPDEST CALLVALUE DUP1 ISZERO PUSH2 0x77 JUMPI PUSH1 0x0 DUP1 REVERT JUMPDEST POP PUSH2 0x80 PUSH2 0x40D JUMP JUMPDEST PUSH1 0x40 MLOAD PUSH2 0x8D SWAP2 SWAP1 PUSH2 0xE74 JUMP JUMPDEST PUSH1 0x40 MLOAD DUP1 SWAP2 SUB SWAP1 RETURN JUMPDEST CALLVALUE DUP1 ISZERO PUSH2 0xA2 JUMPI PUSH1 0x0 DUP1 REVERT JUMPDEST POP PUSH2 0xAB PUSH2 0x431 JUMP JUMPDEST PUSH1 0x40 MLOAD PUSH2 0xB8 SWAP2 SWAP1 PUSH2 0xF18 JUMP JUMPDEST PUSH1 0x40 MLOAD DUP1 SWAP2 SUB SWAP1 RETURN JUMPDEST CALLVALUE DUP1 ISZERO PUSH2 0xCD JUMPI PUSH1 0x0 DUP1 REVERT JUMPDEST POP PUSH2 0xE8 PUSH1 0x4 DUP1 CALLDATASIZE SUB DUP2 ADD SWAP1 PUSH2 0xE3 SWAP2 SWAP1 PUSH2 0xA71 JUMP JUMPDEST PUSH2 0x444 JUMP JUMPDEST STOP JUMPDEST CALLVALUE DUP1 ISZERO PUSH2 0xF6 JUMPI PUSH1 0x0 DUP1 REVERT JUMPDEST POP PUSH2 0xFF PUSH2 0x44C JUMP JUMPDEST PUSH1 0x40 MLOAD PUSH2 0x10C SWAP2 SWAP1 PUSH2 0xE74 JUMP JUMPDEST PUSH1 0x40 MLOAD DUP1 SWAP2 SUB SWAP1 RETURN JUMPDEST PUSH1 0x0 CALLVALUE GT PUSH2 0x158 JUMPI PUSH1 0x40 MLOAD PUSH32 0x8C379A000000000000000000000000000000000000000000000000000000000 DUP2 MSTORE PUSH1 0x4 ADD PUSH2 0x14F SWAP1 PUSH2 0xF55 JUMP JUMPDEST PUSH1 0x40 MLOAD DUP1 SWAP2 SUB SWAP1 REVERT JUMPDEST PUSH2 0x1A7 CALLER ADDRESS DUP6 PUSH1 0x2 PUSH1 0x0 SWAP1 SLOAD SWAP1 PUSH2 0x100 EXP SWAP1 DIV PUSH20 0xFFFFFFFFFFFFFFFFFFFFFFFFFFFFFFFFFFFFFFFF AND PUSH20 0xFFFFFFFFFFFFFFFFFFFFFFFFFFFFFFFFFFFFFFFF AND PUSH2 0x472 SWAP1 SWAP4 SWAP3 SWAP2 SWAP1 PUSH4 0xFFFFFFFF AND JUMP JUMPDEST PUSH2 0x214 PUSH1 0x0 DUP1 SLOAD SWAP1 PUSH2 0x100 EXP SWAP1 DIV PUSH20 0xFFFFFFFFFFFFFFFFFFFFFFFFFFFFFFFFFFFFFFFF AND DUP5 PUSH1 0x2 PUSH1 0x0 SWAP1 SLOAD SWAP1 PUSH2 0x100 EXP SWAP1 DIV PUSH20 0xFFFFFFFFFFFFFFFFFFFFFFFFFFFFFFFFFFFFFFFF AND PUSH20 0xFFFFFFFFFFFFFFFFFFFFFFFFFFFFFFFFFFFFFFFF AND PUSH2 0x4FB SWAP1 SWAP3 SWAP2 SWAP1 PUSH4 0xFFFFFFFF AND JUMP JUMPDEST PUSH1 0x0 PUSH1 0x4 PUSH1 0x0 SWAP1 SLOAD SWAP1 PUSH2 0x100 EXP SWAP1 DIV PUSH20 0xFFFFFFFFFFFFFFFFFFFFFFFFFFFFFFFFFFFFFFFF AND PUSH20 0xFFFFFFFFFFFFFFFFFFFFFFFFFFFFFFFFFFFFFFFF AND PUSH4 0x977F2CB9 CHAINID PUSH1 0x40 MLOAD DUP3 PUSH4 0xFFFFFFFF AND PUSH1 0xE0 SHL DUP2 MSTORE PUSH1 0x4 ADD PUSH2 0x271 SWAP2 SWAP1 PUSH2 0x1099 JUMP JUMPDEST PUSH1 0x20 PUSH1 0x40 MLOAD DUP1 DUP4 SUB DUP2 DUP7 DUP1 EXTCODESIZE ISZERO DUP1 ISZERO PUSH2 0x289 JUMPI PUSH1 0x0 DUP1 REVERT JUMPDEST POP GAS STATICCALL ISZERO DUP1 ISZERO PUSH2 0x29D JUMPI RETURNDATASIZE PUSH1 0x0 DUP1 RETURNDATACOPY RETURNDATASIZE PUSH1 0x0 REVERT JUMPDEST POP POP POP POP PUSH1 0x40 MLOAD RETURNDATASIZE PUSH1 0x1F NOT PUSH1 0x1F DUP3 ADD AND DUP3 ADD DUP1 PUSH1 0x40 MSTORE POP DUP2 ADD SWAP1 PUSH2 0x2C1 SWAP2 SWAP1 PUSH2 0xA48 JUMP JUMPDEST SWAP1 POP PUSH1 0x0 DUP1 SLOAD SWAP1 PUSH2 0x100 EXP SWAP1 DIV PUSH20 0xFFFFFFFFFFFFFFFFFFFFFFFFFFFFFFFFFFFFFFFF AND PUSH20 0xFFFFFFFFFFFFFFFFFFFFFFFFFFFFFFFFFFFFFFFF AND PUSH4 0x9FBF10FC CALLVALUE PUSH1 0x1 PUSH1 0x18 SWAP1 SLOAD SWAP1 PUSH2 0x100 EXP SWAP1 DIV PUSH2 0xFFFF AND PUSH1 0x1 DUP1 CALLER DUP11 PUSH1 0x0 PUSH1 0x40 MLOAD DUP1 PUSH1 0x60 ADD PUSH1 0x40 MSTORE DUP1 PUSH3 0x30D40 DUP2 MSTORE PUSH1 0x20 ADD PUSH1 0x0 DUP2 MSTORE PUSH1 0x20 ADD PUSH1 0x40 MLOAD DUP1 PUSH1 0x40 ADD PUSH1 0x40 MSTORE DUP1 PUSH1 0x2 DUP2 MSTORE PUSH1 0x20 ADD PUSH32 0x3078000000000000000000000000000000000000000000000000000000000000 DUP2 MSTORE POP DUP2 MSTORE POP PUSH1 0x3 PUSH1 0x0 SWAP1 SLOAD SWAP1 PUSH2 0x100 EXP SWAP1 DIV PUSH20 0xFFFFFFFFFFFFFFFFFFFFFFFFFFFFFFFFFFFFFFFF AND PUSH1 0x40 MLOAD PUSH1 0x20 ADD PUSH2 0x39F SWAP2 SWAP1 PUSH2 0xE42 JUMP JUMPDEST PUSH1 0x40 MLOAD PUSH1 0x20 DUP2 DUP4 SUB SUB DUP2 MSTORE SWAP1 PUSH1 0x40 MSTORE DUP14 DUP14 PUSH1 0x40 MLOAD DUP13 PUSH4 0xFFFFFFFF AND PUSH1 0xE0 SHL DUP2 MSTORE PUSH1 0x4 ADD PUSH2 0x3D5 SWAP11 SWAP10 SWAP9 SWAP8 SWAP7 SWAP6 SWAP5 SWAP4 SWAP3 SWAP2 SWAP1 PUSH2 0xFF5 JUMP JUMPDEST PUSH1 0x0 PUSH1 0x40 MLOAD DUP1 DUP4 SUB DUP2 DUP6 DUP9 DUP1 EXTCODESIZE ISZERO DUP1 ISZERO PUSH2 0x3EE JUMPI PUSH1 0x0 DUP1 REVERT JUMPDEST POP GAS CALL ISZERO DUP1 ISZERO PUSH2 0x402 JUMPI RETURNDATASIZE PUSH1 0x0 DUP1 RETURNDATACOPY RETURNDATASIZE PUSH1 0x0 REVERT JUMPDEST POP POP POP POP POP POP POP POP POP JUMP JUMPDEST PUSH1 0x0 DUP1 SLOAD SWAP1 PUSH2 0x100 EXP SWAP1 DIV PUSH20 0xFFFFFFFFFFFFFFFFFFFFFFFFFFFFFFFFFFFFFFFF AND DUP2 JUMP JUMPDEST PUSH1 0x1 PUSH1 0x14 SWAP1 SLOAD SWAP1 PUSH2 0x100 EXP SWAP1 DIV PUSH1 0xF0 SHL DUP2 JUMP JUMPDEST POP POP POP POP POP POP JUMP JUMPDEST PUSH1 0x1 PUSH1 0x0 SWAP1 SLOAD SWAP1 PUSH2 0x100 EXP SWAP1 DIV PUSH20 0xFFFFFFFFFFFFFFFFFFFFFFFFFFFFFFFFFFFFFFFF AND DUP2 JUMP JUMPDEST PUSH2 0x4F5 DUP5 PUSH4 0x23B872DD PUSH1 0xE0 SHL DUP6 DUP6 DUP6 PUSH1 0x40 MLOAD PUSH1 0x24 ADD PUSH2 0x493 SWAP4 SWAP3 SWAP2 SWAP1 PUSH2 0xEB8 JUMP JUMPDEST PUSH1 0x40 MLOAD PUSH1 0x20 DUP2 DUP4 SUB SUB DUP2 MSTORE SWAP1 PUSH1 0x40 MSTORE SWAP1 PUSH28 0xFFFFFFFFFFFFFFFFFFFFFFFFFFFFFFFFFFFFFFFFFFFFFFFFFFFFFFFF NOT AND PUSH1 0x20 DUP3 ADD DUP1 MLOAD PUSH28 0xFFFFFFFFFFFFFFFFFFFFFFFFFFFFFFFFFFFFFFFFFFFFFFFFFFFFFFFF DUP4 DUP2 DUP4 AND OR DUP4 MSTORE POP POP POP POP PUSH2 0x659 JUMP JUMPDEST POP POP POP POP JUMP JUMPDEST PUSH1 0x0 DUP2 EQ DUP1 PUSH2 0x594 JUMPI POP PUSH1 0x0 DUP4 PUSH20 0xFFFFFFFFFFFFFFFFFFFFFFFFFFFFFFFFFFFFFFFF AND PUSH4 0xDD62ED3E ADDRESS DUP6 PUSH1 0x40 MLOAD DUP4 PUSH4 0xFFFFFFFF AND PUSH1 0xE0 SHL DUP2 MSTORE PUSH1 0x4 ADD PUSH2 0x542 SWAP3 SWAP2 SWAP1 PUSH2 0xE8F JUMP JUMPDEST PUSH1 0x20 PUSH1 0x40 MLOAD DUP1 DUP4 SUB DUP2 DUP7 DUP1 EXTCODESIZE ISZERO DUP1 ISZERO PUSH2 0x55A JUMPI PUSH1 0x0 DUP1 REVERT JUMPDEST POP GAS STATICCALL ISZERO DUP1 ISZERO PUSH2 0x56E JUMPI RETURNDATASIZE PUSH1 0x0 DUP1 RETURNDATACOPY RETURNDATASIZE PUSH1 0x0 REVERT JUMPDEST POP POP POP POP PUSH1 0x40 MLOAD RETURNDATASIZE PUSH1 0x1F NOT PUSH1 0x1F DUP3 ADD AND DUP3 ADD DUP1 PUSH1 0x40 MSTORE POP DUP2 ADD SWAP1 PUSH2 0x592 SWAP2 SWAP1 PUSH2 0xB2A JUMP JUMPDEST EQ JUMPDEST PUSH2 0x5D3 JUMPI PUSH1 0x40 MLOAD PUSH32 0x8C379A000000000000000000000000000000000000000000000000000000000 DUP2 MSTORE PUSH1 0x4 ADD PUSH2 0x5CA SWAP1 PUSH2 0xFD5 JUMP JUMPDEST PUSH1 0x40 MLOAD DUP1 SWAP2 SUB SWAP1 REVERT JUMPDEST PUSH2 0x654 DUP4 PUSH4 0x95EA7B3 PUSH1 0xE0 SHL DUP5 DUP5 PUSH1 0x40 MLOAD PUSH1 0x24 ADD PUSH2 0x5F2 SWAP3 SWAP2 SWAP1 PUSH2 0xEEF JUMP JUMPDEST PUSH1 0x40 MLOAD PUSH1 0x20 DUP2 DUP4 SUB SUB DUP2 MSTORE SWAP1 PUSH1 0x40 MSTORE SWAP1 PUSH28 0xFFFFFFFFFFFFFFFFFFFFFFFFFFFFFFFFFFFFFFFFFFFFFFFFFFFFFFFF NOT AND PUSH1 0x20 DUP3 ADD DUP1 MLOAD PUSH28 0xFFFFFFFFFFFFFFFFFFFFFFFFFFFFFFFFFFFFFFFFFFFFFFFFFFFFFFFF DUP4 DUP2 DUP4 AND OR DUP4 MSTORE POP POP POP POP PUSH2 0x659 JUMP JUMPDEST POP POP POP JUMP JUMPDEST PUSH1 0x0 PUSH2 0x6BB DUP3 PUSH1 0x40 MLOAD DUP1 PUSH1 0x40 ADD PUSH1 0x40 MSTORE DUP1 PUSH1 0x20 DUP2 MSTORE PUSH1 0x20 ADD PUSH32 0x5361666545524332303A206C6F772D6C6576656C2063616C6C206661696C6564 DUP2 MSTORE POP DUP6 PUSH20 0xFFFFFFFFFFFFFFFFFFFFFFFFFFFFFFFFFFFFFFFF AND PUSH2 0x721 SWAP1 SWAP3 SWAP2 SWAP1 PUSH4 0xFFFFFFFF AND JUMP JUMPDEST SWAP1 POP PUSH1 0x0 DUP2 MLOAD EQ DUP1 PUSH2 0x6DD JUMPI POP DUP1 DUP1 PUSH1 0x20 ADD SWAP1 MLOAD DUP2 ADD SWAP1 PUSH2 0x6DC SWAP2 SWAP1 PUSH2 0xA1F JUMP JUMPDEST JUMPDEST PUSH2 0x71C JUMPI PUSH1 0x40 MLOAD PUSH32 0x8C379A000000000000000000000000000000000000000000000000000000000 DUP2 MSTORE PUSH1 0x4 ADD PUSH2 0x713 SWAP1 PUSH2 0xFB5 JUMP JUMPDEST PUSH1 0x40 MLOAD DUP1 SWAP2 SUB SWAP1 REVERT JUMPDEST POP POP POP JUMP JUMPDEST PUSH1 0x60 PUSH2 0x730 DUP5 DUP5 PUSH1 0x0 DUP6 PUSH2 0x739 JUMP JUMPDEST SWAP1 POP SWAP4 SWAP3 POP POP POP JUMP JUMPDEST PUSH1 0x60 DUP3 SELFBALANCE LT ISZERO PUSH2 0x77E JUMPI PUSH1 0x40 MLOAD PUSH32 0x8C379A000000000000000000000000000000000000000000000000000000000 DUP2 MSTORE PUSH1 0x4 ADD PUSH2 0x775 SWAP1 PUSH2 0xF75 JUMP JUMPDEST PUSH1 0x40 MLOAD DUP1 SWAP2 SUB SWAP1 REVERT JUMPDEST PUSH1 0x0 DUP1 DUP7 PUSH20 0xFFFFFFFFFFFFFFFFFFFFFFFFFFFFFFFFFFFFFFFF AND DUP6 DUP8 PUSH1 0x40 MLOAD PUSH2 0x7A7 SWAP2 SWAP1 PUSH2 0xE5D JUMP JUMPDEST PUSH1 0x0 PUSH1 0x40 MLOAD DUP1 DUP4 SUB DUP2 DUP6 DUP8 GAS CALL SWAP3 POP POP POP RETURNDATASIZE DUP1 PUSH1 0x0 DUP2 EQ PUSH2 0x7E4 JUMPI PUSH1 0x40 MLOAD SWAP2 POP PUSH1 0x1F NOT PUSH1 0x3F RETURNDATASIZE ADD AND DUP3 ADD PUSH1 0x40 MSTORE RETURNDATASIZE DUP3 MSTORE RETURNDATASIZE PUSH1 0x0 PUSH1 0x20 DUP5 ADD RETURNDATACOPY PUSH2 0x7E9 JUMP JUMPDEST PUSH1 0x60 SWAP2 POP JUMPDEST POP SWAP2 POP SWAP2 POP PUSH2 0x7FA DUP8 DUP4 DUP4 DUP8 PUSH2 0x806 JUMP JUMPDEST SWAP3 POP POP POP SWAP5 SWAP4 POP POP POP POP JUMP JUMPDEST PUSH1 0x60 DUP4 ISZERO PUSH2 0x869 JUMPI PUSH1 0x0 DUP4 MLOAD EQ ISZERO PUSH2 0x861 JUMPI PUSH2 0x821 DUP6 PUSH2 0x87C JUMP JUMPDEST PUSH2 0x860 JUMPI PUSH1 0x40 MLOAD PUSH32 0x8C379A000000000000000000000000000000000000000000000000000000000 DUP2 MSTORE PUSH1 0x4 ADD PUSH2 0x857 SWAP1 PUSH2 0xF95 JUMP JUMPDEST PUSH1 0x40 MLOAD DUP1 SWAP2 SUB SWAP1 REVERT JUMPDEST JUMPDEST DUP3 SWAP1 POP PUSH2 0x874 JUMP JUMPDEST PUSH2 0x873 DUP4 DUP4 PUSH2 0x89F JUMP JUMPDEST JUMPDEST SWAP5 SWAP4 POP POP POP POP JUMP JUMPDEST PUSH1 0x0 DUP1 DUP3 PUSH20 0xFFFFFFFFFFFFFFFFFFFFFFFFFFFFFFFFFFFFFFFF AND EXTCODESIZE GT SWAP1 POP SWAP2 SWAP1 POP JUMP JUMPDEST PUSH1 0x0 DUP3 MLOAD GT ISZERO PUSH2 0x8B2 JUMPI DUP2 MLOAD DUP1 DUP4 PUSH1 0x20 ADD REVERT JUMPDEST DUP1 PUSH1 0x40 MLOAD PUSH32 0x8C379A000000000000000000000000000000000000000000000000000000000 DUP2 MSTORE PUSH1 0x4 ADD PUSH2 0x8E6 SWAP2 SWAP1 PUSH2 0xF33 JUMP JUMPDEST PUSH1 0x40 MLOAD DUP1 SWAP2 SUB SWAP1 REVERT JUMPDEST PUSH1 0x0 PUSH2 0x902 PUSH2 0x8FD DUP5 PUSH2 0x10D9 JUMP JUMPDEST PUSH2 0x10B4 JUMP JUMPDEST SWAP1 POP DUP3 DUP2 MSTORE PUSH1 0x20 DUP2 ADD DUP5 DUP5 DUP5 ADD GT ISZERO PUSH2 0x91A JUMPI PUSH1 0x0 DUP1 REVERT JUMPDEST PUSH2 0x925 DUP5 DUP3 DUP6 PUSH2 0x1216 JUMP JUMPDEST POP SWAP4 SWAP3 POP POP POP JUMP JUMPDEST PUSH1 0x0 DUP2 CALLDATALOAD SWAP1 POP PUSH2 0x93C DUP2 PUSH2 0x145F JUMP JUMPDEST SWAP3 SWAP2 POP POP JUMP JUMPDEST PUSH1 0x0 DUP2 MLOAD SWAP1 POP PUSH2 0x951 DUP2 PUSH2 0x1476 JUMP JUMPDEST SWAP3 SWAP2 POP POP JUMP JUMPDEST PUSH1 0x0 DUP1 DUP4 PUSH1 0x1F DUP5 ADD SLT PUSH2 0x969 JUMPI PUSH1 0x0 DUP1 REVERT JUMPDEST DUP3 CALLDATALOAD SWAP1 POP PUSH8 0xFFFFFFFFFFFFFFFF DUP2 GT ISZERO PUSH2 0x982 JUMPI PUSH1 0x0 DUP1 REVERT JUMPDEST PUSH1 0x20 DUP4 ADD SWAP2 POP DUP4 PUSH1 0x1 DUP3 MUL DUP4 ADD GT ISZERO PUSH2 0x99A JUMPI PUSH1 0x0 DUP1 REVERT JUMPDEST SWAP3 POP SWAP3 SWAP1 POP JUMP JUMPDEST PUSH1 0x0 DUP3 PUSH1 0x1F DUP4 ADD SLT PUSH2 0x9B2 JUMPI PUSH1 0x0 DUP1 REVERT JUMPDEST DUP2 CALLDATALOAD PUSH2 0x9C2 DUP5 DUP3 PUSH1 0x20 DUP7 ADD PUSH2 0x8EF JUMP JUMPDEST SWAP2 POP POP SWAP3 SWAP2 POP POP JUMP JUMPDEST PUSH1 0x0 DUP2 CALLDATALOAD SWAP1 POP PUSH2 0x9DA DUP2 PUSH2 0x148D JUMP JUMPDEST SWAP3 SWAP2 POP POP JUMP JUMPDEST PUSH1 0x0 DUP2 MLOAD SWAP1 POP PUSH2 0x9EF DUP2 PUSH2 0x148D JUMP JUMPDEST SWAP3 SWAP2 POP POP JUMP JUMPDEST PUSH1 0x0 DUP2 CALLDATALOAD SWAP1 POP PUSH2 0xA04 DUP2 PUSH2 0x14A4 JUMP JUMPDEST SWAP3 SWAP2 POP POP JUMP JUMPDEST PUSH1 0x0 DUP2 MLOAD SWAP1 POP PUSH2 0xA19 DUP2 PUSH2 0x14A4 JUMP JUMPDEST SWAP3 SWAP2 POP POP JUMP JUMPDEST PUSH1 0x0 PUSH1 0x20 DUP3 DUP5 SUB SLT ISZERO PUSH2 0xA31 JUMPI PUSH1 0x0 DUP1 REVERT JUMPDEST PUSH1 0x0 PUSH2 0xA3F DUP5 DUP3 DUP6 ADD PUSH2 0x942 JUMP JUMPDEST SWAP2 POP POP SWAP3 SWAP2 POP POP JUMP JUMPDEST PUSH1 0x0 PUSH1 0x20 DUP3 DUP5 SUB SLT ISZERO PUSH2 0xA5A JUMPI PUSH1 0x0 DUP1 REVERT JUMPDEST PUSH1 0x0 PUSH2 0xA68 DUP5 DUP3 DUP6 ADD PUSH2 0x9E0 JUMP JUMPDEST SWAP2 POP POP SWAP3 SWAP2 POP POP JUMP JUMPDEST PUSH1 0x0 DUP1 PUSH1 0x0 DUP1 PUSH1 0x0 DUP1 PUSH1 0xC0 DUP8 DUP10 SUB SLT ISZERO PUSH2 0xA8A JUMPI PUSH1 0x0 DUP1 REVERT JUMPDEST PUSH1 0x0 PUSH2 0xA98 DUP10 DUP3 DUP11 ADD PUSH2 0x9CB JUMP JUMPDEST SWAP7 POP POP PUSH1 0x20 DUP8 ADD CALLDATALOAD PUSH8 0xFFFFFFFFFFFFFFFF DUP2 GT ISZERO PUSH2 0xAB5 JUMPI PUSH1 0x0 DUP1 REVERT JUMPDEST PUSH2 0xAC1 DUP10 DUP3 DUP11 ADD PUSH2 0x9A1 JUMP JUMPDEST SWAP6 POP POP PUSH1 0x40 PUSH2 0xAD2 DUP10 DUP3 DUP11 ADD PUSH2 0x9F5 JUMP JUMPDEST SWAP5 POP POP PUSH1 0x60 PUSH2 0xAE3 DUP10 DUP3 DUP11 ADD PUSH2 0x92D JUMP JUMPDEST SWAP4 POP POP PUSH1 0x80 PUSH2 0xAF4 DUP10 DUP3 DUP11 ADD PUSH2 0x9F5 JUMP JUMPDEST SWAP3 POP POP PUSH1 0xA0 DUP8 ADD CALLDATALOAD PUSH8 0xFFFFFFFFFFFFFFFF DUP2 GT ISZERO PUSH2 0xB11 JUMPI PUSH1 0x0 DUP1 REVERT JUMPDEST PUSH2 0xB1D DUP10 DUP3 DUP11 ADD PUSH2 0x9A1 JUMP JUMPDEST SWAP2 POP POP SWAP3 SWAP6 POP SWAP3 SWAP6 POP SWAP3 SWAP6 JUMP JUMPDEST PUSH1 0x0 PUSH1 0x20 DUP3 DUP5 SUB SLT ISZERO PUSH2 0xB3C JUMPI PUSH1 0x0 DUP1 REVERT JUMPDEST PUSH1 0x0 PUSH2 0xB4A DUP5 DUP3 DUP6 ADD PUSH2 0xA0A JUMP JUMPDEST SWAP2 POP POP SWAP3 SWAP2 POP POP JUMP JUMPDEST PUSH1 0x0 DUP1 PUSH1 0x0 PUSH1 0x40 DUP5 DUP7 SUB SLT ISZERO PUSH2 0xB68 JUMPI PUSH1 0x0 DUP1 REVERT JUMPDEST PUSH1 0x0 PUSH2 0xB76 DUP7 DUP3 DUP8 ADD PUSH2 0x9F5 JUMP JUMPDEST SWAP4 POP POP PUSH1 0x20 DUP5 ADD CALLDATALOAD PUSH8 0xFFFFFFFFFFFFFFFF DUP2 GT ISZERO PUSH2 0xB93 JUMPI PUSH1 0x0 DUP1 REVERT JUMPDEST PUSH2 0xB9F DUP7 DUP3 DUP8 ADD PUSH2 0x957 JUMP JUMPDEST SWAP3 POP SWAP3 POP POP SWAP3 POP SWAP3 POP SWAP3 JUMP JUMPDEST PUSH2 0xBB4 DUP2 PUSH2 0x1170 JUMP JUMPDEST DUP3 MSTORE POP POP JUMP JUMPDEST PUSH2 0xBC3 DUP2 PUSH2 0x115E JUMP JUMPDEST DUP3 MSTORE POP POP JUMP JUMPDEST PUSH2 0xBDA PUSH2 0xBD5 DUP3 PUSH2 0x115E JUMP JUMPDEST PUSH2 0x1289 JUMP JUMPDEST DUP3 MSTORE POP POP JUMP JUMPDEST PUSH2 0xBE9 DUP2 PUSH2 0x118E JUMP JUMPDEST DUP3 MSTORE POP POP JUMP JUMPDEST PUSH1 0x0 PUSH2 0xBFB DUP4 DUP6 PUSH2 0x1131 JUMP JUMPDEST SWAP4 POP PUSH2 0xC08 DUP4 DUP6 DUP5 PUSH2 0x1216 JUMP JUMPDEST PUSH2 0xC11 DUP4 PUSH2 0x12DC JUMP JUMPDEST DUP5 ADD SWAP1 POP SWAP4 SWAP3 POP POP POP JUMP JUMPDEST PUSH1 0x0 PUSH2 0xC27 DUP3 PUSH2 0x110A JUMP JUMPDEST PUSH2 0xC31 DUP2 DUP6 PUSH2 0x1120 JUMP JUMPDEST SWAP4 POP PUSH2 0xC41 DUP2 DUP6 PUSH1 0x20 DUP7 ADD PUSH2 0x1225 JUMP JUMPDEST PUSH2 0xC4A DUP2 PUSH2 0x12DC JUMP JUMPDEST DUP5 ADD SWAP2 POP POP SWAP3 SWAP2 POP POP JUMP JUMPDEST PUSH1 0x0 PUSH2 0xC60 DUP3 PUSH2 0x110A JUMP JUMPDEST PUSH2 0xC6A DUP2 DUP6 PUSH2 0x1131 JUMP JUMPDEST SWAP4 POP PUSH2 0xC7A DUP2 DUP6 PUSH1 0x20 DUP7 ADD PUSH2 0x1225 JUMP JUMPDEST PUSH2 0xC83 DUP2 PUSH2 0x12DC JUMP JUMPDEST DUP5 ADD SWAP2 POP POP SWAP3 SWAP2 POP POP JUMP JUMPDEST PUSH1 0x0 PUSH2 0xC99 DUP3 PUSH2 0x110A JUMP JUMPDEST PUSH2 0xCA3 DUP2 DUP6 PUSH2 0x1142 JUMP JUMPDEST SWAP4 POP PUSH2 0xCB3 DUP2 DUP6 PUSH1 0x20 DUP7 ADD PUSH2 0x1225 JUMP JUMPDEST DUP1 DUP5 ADD SWAP2 POP POP SWAP3 SWAP2 POP POP JUMP JUMPDEST PUSH2 0xCC8 DUP2 PUSH2 0x11F2 JUMP JUMPDEST DUP3 MSTORE POP POP JUMP JUMPDEST PUSH2 0xCD7 DUP2 PUSH2 0x1204 JUMP JUMPDEST DUP3 MSTORE POP POP JUMP JUMPDEST PUSH1 0x0 PUSH2 0xCE8 DUP3 PUSH2 0x1115 JUMP JUMPDEST PUSH2 0xCF2 DUP2 DUP6 PUSH2 0x114D JUMP JUMPDEST SWAP4 POP PUSH2 0xD02 DUP2 DUP6 PUSH1 0x20 DUP7 ADD PUSH2 0x1225 JUMP JUMPDEST PUSH2 0xD0B DUP2 PUSH2 0x12DC JUMP JUMPDEST DUP5 ADD SWAP2 POP POP SWAP3 SWAP2 POP POP JUMP JUMPDEST PUSH1 0x0 PUSH2 0xD23 PUSH1 0x37 DUP4 PUSH2 0x114D JUMP JUMPDEST SWAP2 POP PUSH2 0xD2E DUP3 PUSH2 0x12FA JUMP JUMPDEST PUSH1 0x40 DUP3 ADD SWAP1 POP SWAP2 SWAP1 POP JUMP JUMPDEST PUSH1 0x0 PUSH2 0xD46 PUSH1 0x26 DUP4 PUSH2 0x114D JUMP JUMPDEST SWAP2 POP PUSH2 0xD51 DUP3 PUSH2 0x1349 JUMP JUMPDEST PUSH1 0x40 DUP3 ADD SWAP1 POP SWAP2 SWAP1 POP JUMP JUMPDEST PUSH1 0x0 PUSH2 0xD69 PUSH1 0x1D DUP4 PUSH2 0x114D JUMP JUMPDEST SWAP2 POP PUSH2 0xD74 DUP3 PUSH2 0x1398 JUMP JUMPDEST PUSH1 0x20 DUP3 ADD SWAP1 POP SWAP2 SWAP1 POP JUMP JUMPDEST PUSH1 0x0 PUSH2 0xD8C PUSH1 0x2A DUP4 PUSH2 0x114D JUMP JUMPDEST SWAP2 POP PUSH2 0xD97 DUP3 PUSH2 0x13C1 JUMP JUMPDEST PUSH1 0x40 DUP3 ADD SWAP1 POP SWAP2 SWAP1 POP JUMP JUMPDEST PUSH1 0x0 PUSH2 0xDAF PUSH1 0x36 DUP4 PUSH2 0x114D JUMP JUMPDEST SWAP2 POP PUSH2 0xDBA DUP3 PUSH2 0x1410 JUMP JUMPDEST PUSH1 0x40 DUP3 ADD SWAP1 POP SWAP2 SWAP1 POP JUMP JUMPDEST PUSH1 0x0 PUSH1 0x60 DUP4 ADD PUSH1 0x0 DUP4 ADD MLOAD PUSH2 0xDDD PUSH1 0x0 DUP7 ADD DUP3 PUSH2 0xE24 JUMP JUMPDEST POP PUSH1 0x20 DUP4 ADD MLOAD PUSH2 0xDF0 PUSH1 0x20 DUP7 ADD DUP3 PUSH2 0xE24 JUMP JUMPDEST POP PUSH1 0x40 DUP4 ADD MLOAD DUP5 DUP3 SUB PUSH1 0x40 DUP7 ADD MSTORE PUSH2 0xE08 DUP3 DUP3 PUSH2 0xC1C JUMP JUMPDEST SWAP2 POP POP DUP1 SWAP2 POP POP SWAP3 SWAP2 POP POP JUMP JUMPDEST PUSH2 0xE1E DUP2 PUSH2 0x11BA JUMP JUMPDEST DUP3 MSTORE POP POP JUMP JUMPDEST PUSH2 0xE2D DUP2 PUSH2 0x11E8 JUMP JUMPDEST DUP3 MSTORE POP POP JUMP JUMPDEST PUSH2 0xE3C DUP2 PUSH2 0x11E8 JUMP JUMPDEST DUP3 MSTORE POP POP JUMP JUMPDEST PUSH1 0x0 PUSH2 0xE4E DUP3 DUP5 PUSH2 0xBC9 JUMP JUMPDEST PUSH1 0x14 DUP3 ADD SWAP2 POP DUP2 SWAP1 POP SWAP3 SWAP2 POP POP JUMP JUMPDEST PUSH1 0x0 PUSH2 0xE69 DUP3 DUP5 PUSH2 0xC8E JUMP JUMPDEST SWAP2 POP DUP2 SWAP1 POP SWAP3 SWAP2 POP POP JUMP JUMPDEST PUSH1 0x0 PUSH1 0x20 DUP3 ADD SWAP1 POP PUSH2 0xE89 PUSH1 0x0 DUP4 ADD DUP5 PUSH2 0xBBA JUMP JUMPDEST SWAP3 SWAP2 POP POP JUMP JUMPDEST PUSH1 0x0 PUSH1 0x40 DUP3 ADD SWAP1 POP PUSH2 0xEA4 PUSH1 0x0 DUP4 ADD DUP6 PUSH2 0xBBA JUMP JUMPDEST PUSH2 0xEB1 PUSH1 0x20 DUP4 ADD DUP5 PUSH2 0xBBA JUMP JUMPDEST SWAP4 SWAP3 POP POP POP JUMP JUMPDEST PUSH1 0x0 PUSH1 0x60 DUP3 ADD SWAP1 POP PUSH2 0xECD PUSH1 0x0 DUP4 ADD DUP7 PUSH2 0xBBA JUMP JUMPDEST PUSH2 0xEDA PUSH1 0x20 DUP4 ADD DUP6 PUSH2 0xBBA JUMP JUMPDEST PUSH2 0xEE7 PUSH1 0x40 DUP4 ADD DUP5 PUSH2 0xE33 JUMP JUMPDEST SWAP5 SWAP4 POP POP POP POP JUMP JUMPDEST PUSH1 0x0 PUSH1 0x40 DUP3 ADD SWAP1 POP PUSH2 0xF04 PUSH1 0x0 DUP4 ADD DUP6 PUSH2 0xBBA JUMP JUMPDEST PUSH2 0xF11 PUSH1 0x20 DUP4 ADD DUP5 PUSH2 0xE33 JUMP JUMPDEST SWAP4 SWAP3 POP POP POP JUMP JUMPDEST PUSH1 0x0 PUSH1 0x20 DUP3 ADD SWAP1 POP PUSH2 0xF2D PUSH1 0x0 DUP4 ADD DUP5 PUSH2 0xBE0 JUMP JUMPDEST SWAP3 SWAP2 POP POP JUMP JUMPDEST PUSH1 0x0 PUSH1 0x20 DUP3 ADD SWAP1 POP DUP2 DUP2 SUB PUSH1 0x0 DUP4 ADD MSTORE PUSH2 0xF4D DUP2 DUP5 PUSH2 0xCDD JUMP JUMPDEST SWAP1 POP SWAP3 SWAP2 POP POP JUMP JUMPDEST PUSH1 0x0 PUSH1 0x20 DUP3 ADD SWAP1 POP DUP2 DUP2 SUB PUSH1 0x0 DUP4 ADD MSTORE PUSH2 0xF6E DUP2 PUSH2 0xD16 JUMP JUMPDEST SWAP1 POP SWAP2 SWAP1 POP JUMP JUMPDEST PUSH1 0x0 PUSH1 0x20 DUP3 ADD SWAP1 POP DUP2 DUP2 SUB PUSH1 0x0 DUP4 ADD MSTORE PUSH2 0xF8E DUP2 PUSH2 0xD39 JUMP JUMPDEST SWAP1 POP SWAP2 SWAP1 POP JUMP JUMPDEST PUSH1 0x0 PUSH1 0x20 DUP3 ADD SWAP1 POP DUP2 DUP2 SUB PUSH1 0x0 DUP4 ADD MSTORE PUSH2 0xFAE DUP2 PUSH2 0xD5C JUMP JUMPDEST SWAP1 POP SWAP2 SWAP1 POP JUMP JUMPDEST PUSH1 0x0 PUSH1 0x20 DUP3 ADD SWAP1 POP DUP2 DUP2 SUB PUSH1 0x0 DUP4 ADD MSTORE PUSH2 0xFCE DUP2 PUSH2 0xD7F JUMP JUMPDEST SWAP1 POP SWAP2 SWAP1 POP JUMP JUMPDEST PUSH1 0x0 PUSH1 0x20 DUP3 ADD SWAP1 POP DUP2 DUP2 SUB PUSH1 0x0 DUP4 ADD MSTORE PUSH2 0xFEE DUP2 PUSH2 0xDA2 JUMP JUMPDEST SWAP1 POP SWAP2 SWAP1 POP JUMP JUMPDEST PUSH1 0x0 PUSH2 0x120 DUP3 ADD SWAP1 POP PUSH2 0x100B PUSH1 0x0 DUP4 ADD DUP14 PUSH2 0xE15 JUMP JUMPDEST PUSH2 0x1018 PUSH1 0x20 DUP4 ADD DUP13 PUSH2 0xCCE JUMP JUMPDEST PUSH2 0x1025 PUSH1 0x40 DUP4 ADD DUP12 PUSH2 0xCCE JUMP JUMPDEST PUSH2 0x1032 PUSH1 0x60 DUP4 ADD DUP11 PUSH2 0xBAB JUMP JUMPDEST PUSH2 0x103F PUSH1 0x80 DUP4 ADD DUP10 PUSH2 0xE33 JUMP JUMPDEST PUSH2 0x104C PUSH1 0xA0 DUP4 ADD DUP9 PUSH2 0xCBF JUMP JUMPDEST DUP2 DUP2 SUB PUSH1 0xC0 DUP4 ADD MSTORE PUSH2 0x105E DUP2 DUP8 PUSH2 0xDC5 JUMP JUMPDEST SWAP1 POP DUP2 DUP2 SUB PUSH1 0xE0 DUP4 ADD MSTORE PUSH2 0x1072 DUP2 DUP7 PUSH2 0xC55 JUMP JUMPDEST SWAP1 POP DUP2 DUP2 SUB PUSH2 0x100 DUP4 ADD MSTORE PUSH2 0x1088 DUP2 DUP5 DUP7 PUSH2 0xBEF JUMP JUMPDEST SWAP1 POP SWAP12 SWAP11 POP POP POP POP POP POP POP POP POP POP POP JUMP JUMPDEST PUSH1 0x0 PUSH1 0x20 DUP3 ADD SWAP1 POP PUSH2 0x10AE PUSH1 0x0 DUP4 ADD DUP5 PUSH2 0xE33 JUMP JUMPDEST SWAP3 SWAP2 POP POP JUMP JUMPDEST PUSH1 0x0 PUSH2 0x10BE PUSH2 0x10CF JUMP JUMPDEST SWAP1 POP PUSH2 0x10CA DUP3 DUP3 PUSH2 0x1258 JUMP JUMPDEST SWAP2 SWAP1 POP JUMP JUMPDEST PUSH1 0x0 PUSH1 0x40 MLOAD SWAP1 POP SWAP1 JUMP JUMPDEST PUSH1 0x0 PUSH8 0xFFFFFFFFFFFFFFFF DUP3 GT ISZERO PUSH2 0x10F4 JUMPI PUSH2 0x10F3 PUSH2 0x12AD JUMP JUMPDEST JUMPDEST PUSH2 0x10FD DUP3 PUSH2 0x12DC JUMP JUMPDEST SWAP1 POP PUSH1 0x20 DUP2 ADD SWAP1 POP SWAP2 SWAP1 POP JUMP JUMPDEST PUSH1 0x0 DUP2 MLOAD SWAP1 POP SWAP2 SWAP1 POP JUMP JUMPDEST PUSH1 0x0 DUP2 MLOAD SWAP1 POP SWAP2 SWAP1 POP JUMP JUMPDEST PUSH1 0x0 DUP3 DUP3 MSTORE PUSH1 0x20 DUP3 ADD SWAP1 POP SWAP3 SWAP2 POP POP JUMP JUMPDEST PUSH1 0x0 DUP3 DUP3 MSTORE PUSH1 0x20 DUP3 ADD SWAP1 POP SWAP3 SWAP2 POP POP JUMP JUMPDEST PUSH1 0x0 DUP2 SWAP1 POP SWAP3 SWAP2 POP POP JUMP JUMPDEST PUSH1 0x0 DUP3 DUP3 MSTORE PUSH1 0x20 DUP3 ADD SWAP1 POP SWAP3 SWAP2 POP POP JUMP JUMPDEST PUSH1 0x0 PUSH2 0x1169 DUP3 PUSH2 0x11C8 JUMP JUMPDEST SWAP1 POP SWAP2 SWAP1 POP JUMP JUMPDEST PUSH1 0x0 PUSH2 0x117B DUP3 PUSH2 0x11C8 JUMP JUMPDEST SWAP1 POP SWAP2 SWAP1 POP JUMP JUMPDEST PUSH1 0x0 DUP2 ISZERO ISZERO SWAP1 POP SWAP2 SWAP1 POP JUMP JUMPDEST PUSH1 0x0 PUSH32 0xFFFF000000000000000000000000000000000000000000000000000000000000 DUP3 AND SWAP1 POP SWAP2 SWAP1 POP JUMP JUMPDEST PUSH1 0x0 PUSH2 0xFFFF DUP3 AND SWAP1 POP SWAP2 SWAP1 POP JUMP JUMPDEST PUSH1 0x0 PUSH20 0xFFFFFFFFFFFFFFFFFFFFFFFFFFFFFFFFFFFFFFFF DUP3 AND SWAP1 POP SWAP2 SWAP1 POP JUMP JUMPDEST PUSH1 0x0 DUP2 SWAP1 POP SWAP2 SWAP1 POP JUMP JUMPDEST PUSH1 0x0 PUSH2 0x11FD DUP3 PUSH2 0x11E8 JUMP JUMPDEST SWAP1 POP SWAP2 SWAP1 POP JUMP JUMPDEST PUSH1 0x0 PUSH2 0x120F DUP3 PUSH2 0x11E8 JUMP JUMPDEST SWAP1 POP SWAP2 SWAP1 POP JUMP JUMPDEST DUP3 DUP2 DUP4 CALLDATACOPY PUSH1 0x0 DUP4 DUP4 ADD MSTORE POP POP POP JUMP JUMPDEST PUSH1 0x0 JUMPDEST DUP4 DUP2 LT ISZERO PUSH2 0x1243 JUMPI DUP1 DUP3 ADD MLOAD DUP2 DUP5 ADD MSTORE PUSH1 0x20 DUP2 ADD SWAP1 POP PUSH2 0x1228 JUMP JUMPDEST DUP4 DUP2 GT ISZERO PUSH2 0x1252 JUMPI PUSH1 0x0 DUP5 DUP5 ADD MSTORE JUMPDEST POP POP POP POP JUMP JUMPDEST PUSH2 0x1261 DUP3 PUSH2 0x12DC JUMP JUMPDEST DUP2 ADD DUP2 DUP2 LT PUSH8 0xFFFFFFFFFFFFFFFF DUP3 GT OR ISZERO PUSH2 0x1280 JUMPI PUSH2 0x127F PUSH2 0x12AD JUMP JUMPDEST JUMPDEST DUP1 PUSH1 0x40 MSTORE POP POP POP JUMP JUMPDEST PUSH1 0x0 PUSH2 0x1294 DUP3 PUSH2 0x129B JUMP JUMPDEST SWAP1 POP SWAP2 SWAP1 POP JUMP JUMPDEST PUSH1 0x0 PUSH2 0x12A6 DUP3 PUSH2 0x12ED JUMP JUMPDEST SWAP1 POP SWAP2 SWAP1 POP JUMP JUMPDEST PUSH32 0x4E487B7100000000000000000000000000000000000000000000000000000000 PUSH1 0x0 MSTORE PUSH1 0x41 PUSH1 0x4 MSTORE PUSH1 0x24 PUSH1 0x0 REVERT JUMPDEST PUSH1 0x0 PUSH1 0x1F NOT PUSH1 0x1F DUP4 ADD AND SWAP1 POP SWAP2 SWAP1 POP JUMP JUMPDEST PUSH1 0x0 DUP2 PUSH1 0x60 SHL SWAP1 POP SWAP2 SWAP1 POP JUMP JUMPDEST PUSH32 0x73746172676174652072657175697265732061206D73672E76616C756520746F PUSH1 0x0 DUP3 ADD MSTORE PUSH32 0x207061792063726F7373636861696E206D657373616765000000000000000000 PUSH1 0x20 DUP3 ADD MSTORE POP JUMP JUMPDEST PUSH32 0x416464726573733A20696E73756666696369656E742062616C616E636520666F PUSH1 0x0 DUP3 ADD MSTORE PUSH32 0x722063616C6C0000000000000000000000000000000000000000000000000000 PUSH1 0x20 DUP3 ADD MSTORE POP JUMP JUMPDEST PUSH32 0x416464726573733A2063616C6C20746F206E6F6E2D636F6E7472616374000000 PUSH1 0x0 DUP3 ADD MSTORE POP JUMP JUMPDEST PUSH32 0x5361666545524332303A204552433230206F7065726174696F6E20646964206E PUSH1 0x0 DUP3 ADD MSTORE PUSH32 0x6F74207375636365656400000000000000000000000000000000000000000000 PUSH1 0x20 DUP3 ADD MSTORE POP JUMP JUMPDEST PUSH32 0x5361666545524332303A20617070726F76652066726F6D206E6F6E2D7A65726F PUSH1 0x0 DUP3 ADD MSTORE PUSH32 0x20746F206E6F6E2D7A65726F20616C6C6F77616E636500000000000000000000 PUSH1 0x20 DUP3 ADD MSTORE POP JUMP JUMPDEST PUSH2 0x1468 DUP2 PUSH2 0x115E JUMP JUMPDEST DUP2 EQ PUSH2 0x1473 JUMPI PUSH1 0x0 DUP1 REVERT JUMPDEST POP JUMP JUMPDEST PUSH2 0x147F DUP2 PUSH2 0x1182 JUMP JUMPDEST DUP2 EQ PUSH2 0x148A JUMPI PUSH1 0x0 DUP1 REVERT JUMPDEST POP JUMP JUMPDEST PUSH2 0x1496 DUP2 PUSH2 0x11BA JUMP JUMPDEST DUP2 EQ PUSH2 0x14A1 JUMPI PUSH1 0x0 DUP1 REVERT JUMPDEST POP JUMP JUMPDEST PUSH2 0x14AD DUP2 PUSH2 0x11E8 JUMP JUMPDEST DUP2 EQ PUSH2 0x14B8 JUMPI PUSH1 0x0 DUP1 REVERT JUMPDEST POP JUMP INVALID LOG2 PUSH5 0x6970667358 0x22 SLT KECCAK256 PUSH19 0xC80231E4FFBB7C5DEBAD3620FB834B353FB52B 0xD0 JUMPDEST PUSH13 0xBEE264A52E1009EC9A64736F6C PUSH4 0x43000804 STOP CALLER "
				},
				"gasEstimates": {
					"creation": {
						"codeDepositCost": "1072200",
						"executionCost": "infinite",
						"totalCost": "infinite"
					},
					"external": {
						"bridgeAndSwap(uint256,bytes)": "infinite",
						"partnerId()": "1243",
						"sgReceive(uint16,bytes,uint256,address,uint256,bytes)": "infinite",
						"stargateRouter()": "1211",
						"widgetSwap()": "1280"
					}
				},
				"methodIdentifiers": {
					"bridgeAndSwap(uint256,bytes)": "3576ca46",
					"partnerId()": "aa37db6c",
					"sgReceive(uint16,bytes,uint256,address,uint256,bytes)": "ab8236f3",
					"stargateRouter()": "a9e56f3c",
					"widgetSwap()": "dd1bc08e"
				}
			},
			"storageLayout": {
				"storage": [
					{
						"astId": 836,
						"contract": "solidity-examples-main/contracts/Multistake/PolygonHub.sol:PolygonHub",
						"label": "stargateRouter",
						"offset": 0,
						"slot": "0",
						"type": "t_address"
					},
					{
						"astId": 838,
						"contract": "solidity-examples-main/contracts/Multistake/PolygonHub.sol:PolygonHub",
						"label": "widgetSwap",
						"offset": 0,
						"slot": "1",
						"type": "t_address"
					},
					{
						"astId": 840,
						"contract": "solidity-examples-main/contracts/Multistake/PolygonHub.sol:PolygonHub",
						"label": "partnerId",
						"offset": 20,
						"slot": "1",
						"type": "t_bytes2"
					},
					{
						"astId": 843,
						"contract": "solidity-examples-main/contracts/Multistake/PolygonHub.sol:PolygonHub",
						"label": "GoerliId",
						"offset": 22,
						"slot": "1",
						"type": "t_uint16"
					},
					{
						"astId": 846,
						"contract": "solidity-examples-main/contracts/Multistake/PolygonHub.sol:PolygonHub",
						"label": "FujiId",
						"offset": 24,
						"slot": "1",
						"type": "t_uint16"
					},
					{
						"astId": 849,
						"contract": "solidity-examples-main/contracts/Multistake/PolygonHub.sol:PolygonHub",
						"label": "USDC",
						"offset": 0,
						"slot": "2",
						"type": "t_address"
					},
					{
						"astId": 851,
						"contract": "solidity-examples-main/contracts/Multistake/PolygonHub.sol:PolygonHub",
						"label": "destinationAddress",
						"offset": 0,
						"slot": "3",
						"type": "t_address"
					},
					{
						"astId": 853,
						"contract": "solidity-examples-main/contracts/Multistake/PolygonHub.sol:PolygonHub",
						"label": "registryAddress",
						"offset": 0,
						"slot": "4",
						"type": "t_address"
					}
				],
				"types": {
					"t_address": {
						"encoding": "inplace",
						"label": "address",
						"numberOfBytes": "20"
					},
					"t_bytes2": {
						"encoding": "inplace",
						"label": "bytes2",
						"numberOfBytes": "2"
					},
					"t_uint16": {
						"encoding": "inplace",
						"label": "uint16",
						"numberOfBytes": "2"
					}
				}
			},
			"userdoc": {
				"kind": "user",
				"methods": {},
				"version": 1
			}
		}
	}
}